:020000040800F2
:10000000A00F0020290200083F0900083709000856
:100010003B09000891030008E322000800000000EB
:10002000000000000000000000000000791200083D
:100030009503000800000000A30F0008D11300087A
:10004000430200084302000843020008430200087C
:10005000430200084302000843020008430200086C
:100060004302000843020008970300084302000807
:10007000430200084302000843020008430200084C
:10008000430200084302000843020008430200083C
:10009000430200084302000843020008B1030008BD
:1000A000430200084302000843020008430200081C
:1000B00021160008D5190008711C00084302000829
:1000C00043020008430200084302000843020008FC
:1000D00043020008A520000843020008430200086C
:1000E00043020008430200084302000843020008DC
:1000F00043020008430200084302000843020008CC
:1001000043020008430200084302000843020008BB
:1001100043020008430200084302000843020008AB
:10012000430200084302000843020008430200089B
:10013000430200084302000843020008430200088B
:10014000430200084302000843020008430200087B
:10015000430200084302000843020008430200086B
:10016000430200084302000843020008430200085B
:10017000430200084302000843020008430200084B
:10018000430200084302000800F002F800F03CF8C7
:100190000AA090E8000C82448344AAF10107DA45E2
:1001A00001D100F031F8AFF2090EBAE80F0013F0F8
:1001B000010F18BFFB1A43F0010318476C3B000006
:1001C0008C3B0000103A24BF78C878C1FAD8520797
:1001D00024BF30C830C144BF04680C6070470000C1
:1001E0000023002400250026103A28BF78C1FBD840
:1001F000520728BF30C148BF0B6070471FB503F0DE
:10020000E6F81FBD10B510BD00F038F81146FFF735
:10021000F5FF02F091F900F056F803B4FFF7F2FF92
:1002200003BC02F001F90000094880470948004773
:10023000FEE7FEE7FEE7FEE7FEE7FEE7FEE7FEE796
:10024000FEE7FEE704480549054A064B70470000F3
:10025000D513000889010008A0090020A00F002084
:10026000A00B0020A00B002070477047704770471C
:1002700070470000004870473C0900207546FFF7B2
:10028000F9FFAE4605006946534620F00700854653
:1002900018B020B5FFF7D6FFBDE820404FF00006AC
:1002A0004FF000074FF000084FF0000B21F007015E
:1002B000AC46ACE8C009ACE8C009ACE8C009ACE8A1
:1002C000C0098D46704710B50446AFF30080204644
:1002D000BDE81040FFF7A1BF10B500F0C5F920211F
:1002E000094800F021FB012002F0BEF84FF48071B4
:1002F000064800F019FB00F027F8012002F0B4F8DE
:1003000000F036F810BD0000000402400008024072
:1003100070B505464FF480710A4800F003FB0024D5
:1003200005E0FF2000F056FF25F81400641C082C9F
:10033000F7DB4FF48071034800F0F6FA00F018F88C
:1003400070BD00000008024010B50121074800F010
:10035000E9FA0121054800F0E7FA012002F0A0F8CF
:100360000121024800F0DEFA10BD00000004024046
:1003700010B52021054800F0D5FA012002F090F8D0
:100380002021024800F0D0FA10BD00000004024015
:1003900000BFFEE7704710B5102000F00FF90128EC
:1003A00002D1022000F08CF8102000F083F810BD7C
:1003B00010B5202000F002F9012806D1032000F03A
:1003C0007FF8202000F076F810BD802000F0F6F8CD
:1003D000012805D100F074F8802000F06BF8F3E7F5
:1003E0004FF4807000F0EAF8012807D1002000F0F7
:1003F00067F84FF4807000F05DF8E5E700BFE3E7D1
:100400000EB50121880300F0FDFD0721012000F059
:1004100035FF0821012000F031FF0521084600F0DA
:100420002DFF0421022000F029FF10200090002061
:100430008DF8040008208DF8050001208DF80600D5
:10044000684600F0C7F8A020009000208DF8040056
:100450000C208DF8050001208DF80600684600F09C
:10046000B9F84FF48070009008208DF805006846B8
:1004700000F0B0F80A208DF8080000208DF809007F
:1004800002208DF80A0001208DF80B0002A800F070
:1004900057FA17208DF8080001208DF80900022076
:1004A0008DF80A0001208DF80B0002A800F048FA30
:1004B0000EBD00000149086070470000143C014077
:1004C00070B52DED048B0446002C4ED0012C63D169
:1004D0000103334800F01DFA0546012D20D13148B3
:1004E000006802F003FF41EC190B9FED2F0B53EC5A
:1004F000102B02F0EFF941EC180B02F0B9F9294981
:100500000860084690ED000AF0EE000AB4EEE00A3A
:10051000F1EE10FA28DBB0EE000A80ED000A23E0CD
:100520002048006802F0E2FE41EC190B9FED1E0B23
:1005300053EC102B02F0F0FD41EC180B02F098F98F
:10054000184908600846006802F0D0FE41EC180B1C
:100550009FED170B53EC102B02F008FC04D8B7EEFC
:10056000000A104880ED000A16E013480068401C9D
:1005700018B90020104908600DE00F48006818B94C
:1005800001200D49086006E00B480068012802D1EF
:1005900000200949086000BF00BFBDEC048B70BD9E
:1005A00000040240400000209A9999999999B93F16
:1005B000000000000000F03F18000020014600206D
:1005C000034A12680A400AB1012000E00020704787
:1005D000143C0140002123498279002A3AD00A467E
:1005E000126803689A430B461A600A1D1268036872
:1005F0009A430B1D1A60027911440A6803681A4372
:100600000A60184A0832126803689A43154B083387
:100610001A601A1D126803689A43124B0C331A6051
:100620004279102A0ED11A1F126803681A430D4B23
:1006300008331A601A1D126803681A43094B0C33F9
:100640001A600DE00749427911440A6803681A43A9
:100650000A6005E0027911440A6803689A430A6057
:1006600070470000003C01401CB50121084600F025
:1006700099FC0121022000F095FC0121042000F0EA
:1006800091FC0121082000F08DFC4FF48070009057
:1006900001208DF8040000208DF8060003208DF85D
:1006A000050001208DF8070069460D4800F0C6F8E6
:1006B00001208DF8040000208DF8060003208DF83D
:1006C000050001208DF8070000906946054800F0FC
:1006D000B5F8202000906946024800F0AFF81CBD34
:1006E00000080240000402401CB50121084600F049
:1006F00059FC0121022000F055FC0121042000F0EA
:1007000051FC0121082000F04DFC0121102000F0D7
:1007100049FC01208DF8040002208DF8050000201E
:100720008DF8060002208DF80700800200906946CF
:100730003E4800F083F84FF40050009069463B4873
:1007400000F07CF84FF4004000906946374800F014
:1007500075F84FF4805000906946344800F06EF808
:100760004FF4804000906946304800F067F801205F
:10077000009069462D4800F061F80220009069461B
:100780002A4800F05BF8042000906946274800F0F2
:1007900055F8082000906946244800F04FF81020D2
:1007A00000906946214800F049F880200090694691
:1007B0001E4800F043F84FF40070009069461C4852
:1007C00000F03CF800208DF8040002208DF80500B0
:1007D00001208DF806008DF8070080200090694602
:1007E000134800F02BF84FF48070009069461048D1
:1007F00000F024F82020009069460E4800F01EF812
:100800001020009069460B4800F018F84FF4805013
:1008100000906946064800F011F84FF4004000903F
:100820006946054800F00AF81CBD0000000C0240B3
:10083000000402400008024000100240F0B50A46E1
:1008400000210023002400BF3DE0012505FA01F34B
:10085000156805EA03049C4234D105684F0003265D
:10086000BE40B543056015794E00B5400668354376
:1008700005601579012D02D01579022D16D18568F4
:100880004F000326BE40B543856055794E00B54004
:10089000866835438560456801268E40B5434560CE
:1008A000456896798E40B6B235434560C5684F00BD
:1008B0000326BE40B543C560D5794E00B540C66835
:1008C0003543C560491C1029BFD3F0BDF0B50023E6
:1008D00000244D07ED0E02FA05F3CE1000F12005BD
:1008E00055F826504E07F70E0F26BE40B543CF10E1
:1008F00000F1200646F82750CE1000F1200555F8EB
:10090000265045EA0304CE1000F1200545F82640A4
:10091000F0BD0246002013690B400BB1012000E03E
:100920000020704741837047018370470AB10183FB
:1009300000E04183704700BFFEE700BFFEE770475D
:1009400070B5002100230F22C4781CB3174C246813
:1009500004F4E064C4F5E064C4F30721C1F10404C5
:10096000E3B20A4144789C40E1B2847814402143C8
:100970000C07210E0E4C05786155047804F01F0514
:100980000124AC4005786D11AD0005F1E025C5F8F6
:10099000004109E0047804F01F050124AC40054D36
:1009A0000678761145F8264070BD00000CED00E099
:1009B00000E400E080E100E002490143024A1160E6
:1009C000704700000000FA050CED00E000200CE08C
:1009D000002106E00022064B03EBC0135A544A1CC8
:1009E000D1B28029F6DB421CD0B20828F0DB704778
:1009F000740400202DE9F04304460D4616461F46B8
:100A0000284638E0224631E0002A2DDB7F2A2BDC05
:100A1000002829DB3F2827DC4FEAE07C00EB5C7CE8
:100A20004FEAEC0CDFF8588008EBCC1C1CF802C035
:100A300003464FEAE07800EB58784FEAE808A0EB6D
:100A4000C8094FF0010808FA09F82CEA080C014619
:100A50004FEAE07800EB58784FEAE808DFF820909A
:100A600009EBC81808F802C0511C0AB2A11991423A
:100A7000CADC411C08B2E9198142C3DCBDE8F0833D
:100A8000740400207CB5002406E0002500E06D1C05
:100A9000B5F57A7FFBD3641CB4F57A7FF5D30121D9
:100AA0000C2000F07FFA01208DF8040003208DF85F
:100AB000050000208DF8060001208DF80700C00217
:100AC000009069461248FFF7B9FE4FF4805000903D
:100AD00069460F48FFF7B2FE4FF480600090694608
:100AE0000B48FFF7ABFE4FF40070009069460948D1
:100AF000FFF7A4FE002000F00BFA012000F014FA2A
:100B0000012000F029FA012000F01AFA7CBD000053
:100B100000080240000C024010B5FFF7B3FFAE2002
:100B200000F026FAD52000F023FA802000F020FA09
:100B3000A82000F01DFA3F2000F01AFAD32000F0A0
:100B400017FA002000F014FA402000F011FAA1205A
:100B500000F00EFAC82000F00BFADA2000F008FAD4
:100B6000122000F005FA812000F002FACF2000F0F8
:100B7000FFF9D92000F0FCF9F12000F0F9F9DB20B1
:100B800000F0F6F9302000F0F3F9A42000F0F0F9BD
:100B9000A62000F0EDF98D2000F0EAF9142000F015
:100BA000E7F9AF2000F0E4F9FFF710FF00F09CF93F
:100BB00010BD10B50246012000E050430B1EA1F10C
:100BC0000101FAD110BD70B50546002411E0802165
:100BD0002141294009B1012100E00021084600F02F
:100BE000A3F9012000F094F9002000F091F9601CB5
:100BF000C4B2082CEBDB70BD70B505460C4645F061
:100C0000B00000F0B5F9102141EA141000F0B0F97D
:100C100004F00F0000F0ACF970BD0000F8B5064616
:100C20000F4614461D46082D0CD1A4F120000E4994
:100C300001EB00101023082239460090304600F0E6
:100C400097F80FE0062D0DD1A4F1200000EB400035
:100C5000064901EB40000823062239460090304641
:100C600000F086F8F8BD0000E2330008D239000831
:100C70002DE9F04F2DED088B81B005468B46B0EE87
:100C8000408AF0EE608A16469A46129C9FED360B1B
:100C900053EC102B51EC180B02F0A2F906D82346A6
:100CA0002B2259462846FFF7B9FF0BE023462D2299
:100CB00059462846FFF7B2FF51EC180B01F0CCFD66
:100CC00041EC180B51EC180B02F010F8804640462E
:100CD00002F039F841EC190B53EC182B02F010FA22
:100CE00041EC180B51460A20FFF763FF07463846D0
:100CF00002F029F841EC1B0B53EC182B02F072F8B0
:100D000041EC1A0BB0EE4A0AF0EE6A0A01F01CFB45
:100D1000B0EE409AF0EE609A51EC190B01F0E6FF4C
:100D20008146B9FBF7F08044291908B233464246A0
:100D30005946009400F09AF8711C01FB045108B266
:100D400023462E225946FFF769FFB11C01FB0451CF
:100D500008B253464A465946009400F087F801B05D
:100D6000BDEC088BBDE8F08F000000000000000023
:100D70002DE9FF4F80460E469146DDF834B0002540
:100D800000244A4631464046039BFFF733FE00BF2E
:100D90005EE0002558E008EB0500002852DB08EB78
:100DA00005007F284EDC3046F11706EB5171C91063
:100DB0000FB2F11706EB5171C910A6EBC10A002E54
:100DC00005DA781E07B20AF108000FFA80FA38191E
:100DD000002817DB3819072814DC3819224901EBE1
:100DE000C01008EB0501405C04FB09511BF8011021
:100DF00001FA0AF1084339191B4A02EBC11108EB49
:100E0000050288543819401C00281BDB3819401C87
:100E1000072817DC3819401C134901EBC01008EBF8
:100E20000501405C04FB09511BF80110CAF10802DE
:100E3000114108433919491C0B4A02EBC11108EB57
:100E400005028854681CC5B24D45A4DB601CC4B2C1
:100E50000399481EC11700EB5171012202EBE10119
:100E6000A14296DCBDE8FF8F740400202DE9F04715
:100E70000646894617461D46DDF82080002417E007
:100E8000281B411E0A20FFF794FEB7FBF0F00A2151
:100E9000B0FBF1F201FB120000F1300A04FB086123
:100EA00008B2434652464946FFF7B8FE601CC4B23A
:100EB000AC42E5DBBDE8F0872DE9F0410646884607
:100EC00015461F46002409E02A5D04FB076108B2AD
:100ED0003B464146FFF7A2FE601CC4B2285D0028D5
:100EE000F2D1BDE8F081000010B500240BE0002134
:100EF0002046FFF781FE054901EBC410802100F078
:100F000040F8601CC4B2082CF1DB10BD7404002052
:100F100010B5044622464FF480610248FFF706FDF3
:100F200010BD00000008024010B5044622464FF4F0
:100F300080510248FFF7FAFC10BD00000008024093
:100F400010B5044622464FF400610248FFF7EEFC5C
:100F500010BD00000008024010B5044622464FF4C0
:100F600000710248FFF7E2FC10BD0000000C0240D7
:100F700010B504460020FFF7E3FF2046FFF723FEED
:100F800010BD70B505460E460120FFF7D9FF0024BD
:100F900004E0285DFFF717FE601CC4B2B442F8DB22
:100FA00070BD704729B1064A12680243044B1A60AB
:100FB00004E0034A12688243014B1A607047000044
:100FC0003038024029B1064A12680243044B1A60C5
:100FD00004E0034A12688243014B1A607047000024
:100FE0004038024029B1064A12680243044B1A6095
:100FF00004E0034A12688243014B1A607047000004
:101000002038024029B1064A12680243044B1A6094
:1010100004E0034A12688243014B1A6070470000E3
:1010200044380240F0B500210022002402250026A9
:101030000223324F3F6807F00C0121B1042905D08B
:10104000082937D105E02E4F076036E02D4F0760A5
:1010500033E02A4F3F1F3F68C7F38056274F3F1F9B
:101060003F6807F03F036EB1264FB7FBF3F7DFF899
:101070008CC0ACF1040CDCF800C0CCF3881C07FB7E
:101080000CF40CE01E4FB7FBF3F7DFF870C0ACF1C7
:10109000040CDCF800C0CCF3881C07FB0CF4174FE1
:1010A0003F1F3F68C7F301477F1C7D00B4FBF5F786
:1010B000076002E0124F076000BF00BF0F4F3F689C
:1010C00007F0F0010909104F7A5C0768D7404760C4
:1010D0000A4F3F6807F4E051890A0B4F7A5C476872
:1010E000D7408760054F3F6807F46041490B064FC2
:1010F0007A5C4768D740C760F0BD000008380240FE
:101100000024F40000127A00B200002000B587B07D
:1011100001210220FFF746FF01218803FFF752FF5C
:101120004FF46040059002208DF8180000208DF8E3
:101130001A0003208DF8190001208DF81B0005A965
:101140002248FFF77BFB05220D212048FFF7BEFB5D
:1011500005220E211D48FFF7B9FB05220F211B4870
:10116000FFF7B4FB01218803FFF73CFF00214FF498
:101170008040FFF737FF0020ADF800004FF4827089
:10118000ADF802004FF40060ADF804000220ADF8A5
:1011900006000120ADF808004002ADF80A00382032
:1011A000ADF80C000020ADF80E000720ADF81000DF
:1011B0006946074800F042F80121054800F024F88C
:1011C000FF2000F007F807B000BD00000004024057
:1011D0000038004010B5044600BF0221094800F065
:1011E0001FF80028F9D02146064800F025F800BF76
:1011F0000121044800F014F80028F9D0014800F05B
:1012000018F810BD0038004021B1028842F04002B9
:10121000028004E002884FF6BF731A4002807047D4
:101220000246002013890B400BB1012000E0002092
:1012300070470146888970478181704710B5002248
:10124000028802F441520B884C8823438C88234344
:10125000CC8823430C8923434C8923438C89234323
:10126000CC8923431A430280838B4FF2FF742340BF
:1012700083830B8A038210BD7047000030B50022C3
:101280008B071C0F0F2303FA04F20B4B8C1053F83F
:1012900024309343084C8D1044F8253023468C109D
:1012A00053F824308C07240F00FA04F42343024C33
:1012B0008D1044F8253030BD083801400CB50020B1
:1012C000019000903448006840F480303249086052
:1012D00000BF3148006800F4003000900198401CC5
:1012E0000190009818B90198B0F5A04FF1D12A48A3
:1012F000006800F4003010B10120009001E00020EF
:1013000000900098012846D123484030006840F002
:1013100080502149403108602048006840F4404036
:101320001E4908601C48083000681B4908310860E5
:101330000846006840F4004008600846006840F431
:10134000A05008601648091F0860081F006840F098
:101350008070091F086000BF0F48006800F000702F
:101360000028F9D040F205700E4908600A4808309C
:10137000006820F00300084908310860084600684A
:1013800040F00200086000BF03480830006800F029
:101390000C000828F8D10CBD003802400070004055
:1013A00008544007003C0240042808D14FF0E021D7
:1013B000096941F004014FF0E022116107E04FF0AC
:1013C000E021096921F004014FF0E022116170472A
:1013D0007047000010B51548006840F470001349CC
:1013E00008601348006840F00100114908600020BF
:1013F0000F49083108600E4800680E4908400C4942
:1014000008600D48091D0860081F006820F480204E
:10141000091F0860002006490C310860FFF74EFFE5
:101420004FF0006001498039086010BD88ED00E090
:1014300000380240FFFFF6FE1030002410B500F027
:101440005DF800F001F810BD1CB501211020FFF778
:10145000A9FD012208212848FFF738FA01220921B5
:101460002548FFF733FA01220A212348FFF72EFA15
:1014700001220B212048FFF729FA01220C211E48E6
:10148000FFF724FA01220D211B48FFF71FFA022063
:101490008DF804008DF8050000208DF8060001206D
:1014A0008DF807000002009069461348FFF7C6F95F
:1014B0004FF40070009069460F48FFF7BFF94FF4F2
:1014C0008060009069460C48FFF7B8F94FF400605F
:1014D000009069460848FFF7B1F94FF4805000903A
:1014E00069460548FFF7AAF94FF400500090694695
:1014F0000148FFF7A3F91CBD0010024000B58DB0F4
:1015000001210846FFF77EFD44F2A0100B90002059
:10151000ADF82800ADF830002020ADF82A000AA967
:10152000264800F07DFD6020ADF814000120ADF8E4
:1015300016000420ADF818000020ADF82000ADF82A
:101540002200ADF824004FF40070ADF82600002012
:10155000079005A9194800F081FC0020079005A913
:10156000164800F0B9FC0020079005A9134800F0C8
:1015700005FD4FF40060ADF804004010ADF8060022
:101580008010ADF808001420ADF80A000020ADF876
:101590000C004FF40050ADF80E000020ADF8100024
:1015A00001A9064800F012FC0121044800F02DFCBE
:1015B0000121024800F01DFC0DB000BD00000140FB
:1015C0001FB501210846FFF7FDFC4FF4D2600290E1
:1015D0000420ADF804000020ADF80C00ADF80600C2
:1015E00001A94FF0804000F01BFD0121880700F0A9
:1015F000FDFB01221146900700F027FC1C208DF80E
:10160000000001208DF801008DF802008DF8030024
:101610006846FFF795F90121880700F0EAFB1FBD36
:1016200010B52DED0A8B0121880700F0FDFB012884
:101630007DD1AE48FEF76CFE00244EE0AB4830F89A
:101640001400B0F5004F1CDAA84931F8140001F07D
:101650007AFB41EC1A0B9FEDA60B53EC102B01F01B
:10166000C1FB41EC190B9FEDA40B53EC102B01F0C7
:10167000E5F941EC180B01F0FBF8A14941F8240011
:101680002AE09A4830F81400C043401C974921F8DA
:10169000140031F8140001F056FB41EC1B0B9FEDD8
:1016A000940B53EC102B01F09DFB41EC1A0B9FEDBA
:1016B000950B53EC102B01F095FB41EC190B9FEDB2
:1016C0008E0B53EC102B01F0B9F941EC180B01F023
:1016D000CFF88B4941F82400641C082CAEDB8B4802
:1016E0000088401C89490880854890ED000A884898
:1016F000D0ED000A30EE200A80ED000A804890ED1F
:10170000010A8448D0ED000A30EE200A80ED000A7C
:101710007B4890ED020A8048D0ED000A30EE200AA6
:1017200080ED000A764890ED030A7C4800E0D5E0A1
:10173000D0ED000A30EE200A80ED000A084600884D
:1017400064287DDD724890ED000ADFED750A80EEB9
:10175000201A744880ED001A6E4890ED000ADFED03
:10176000700A80EE201A6F4880ED011A6A4890EDE9
:10177000000ADFED6B0A80EE201A6A4880ED021A3B
:10178000664890ED000ADFED660A80EE201A654893
:1017900080ED031A002008809FED630A5C4880ED0D
:1017A000000A9FED610A5B4880ED000A9FED5E0A2A
:1017B000594880ED000A9FED5C0A584880ED000A08
:1017C00004225849594800F08FFD564890ED000A10
:1017D00010EE101A084601F089FD41EC1C0B9FED3C
:1017E000540B53EC102B01F097FC41EC1B0B9FEDBD
:1017F000450B53EC102B01F0F5FA41EC1A0B9FED61
:101800004E0B53EC102B01F019F941EC190B9FED25
:101810004C0B53EC102B01F07FFC41EC180B01F04A
:1018200027F8494908603F4890ED010A10EE101A68
:10183000084601F05BFD41EC1A0B9FED440B00E004
:101840003DE053EC102B01F067FC41EC190B9FEDD0
:101850003A0B53EC102B01F0F1F841EC180B01F0AE
:1018600007F83C490860264890ED020A10EE101A6D
:10187000084601F03BFD41EC190B9FED370B53EC93
:10188000102B01F0AFFA41EC180B00F0F1FF3449D6
:1018900008601B4890ED030A10EE101A084601F08C
:1018A00025FD41EC190B9FED2C0B53EC102B01F097
:1018B00099FA41EC180B00F0DBFF2A490860224836
:1018C00090ED000AB5EEC00AF1EE10FA03DD00203B
:1018D0002549086002E001202349086001218807AA
:1018E00000F084FABDEC0A8B10BD00005802002005
:1018F0000000000000002440000000000000E04064
:1019000068020020000000000000F0BF200000205E
:1019100004000020080000200C000020100000201F
:101920000000C842C400002000000000D4000020D5
:101930007B14AE47E17A743F0AD7A3703D0AFF3F9C
:101940007B14AE47E17A843F2C0000209A99999944
:101950009999993F34000020CDCCCCCCCCCC184008
:101960002800002030000020000000201FB50121C9
:101970000220FFF727FB41F2A16002909020ADF812
:1019800004000020ADF80C00ADF8060001A91048D5
:1019900000F046FB01210E4800F028FA0122114612
:1019A0000B4800F052FA1D208DF8000004208DF83D
:1019B000010003208DF8020001208DF80300684625
:1019C000FEF7BEFF0121024800F013FA1FBD000020
:1019D0000004004000B52DED028B81B001216B4861
:1019E00000F022FA01287AD1062369A200210846D4
:1019F000FFF762FA062367A200214820FFF75CFA8E
:101A00006548006801F072FC41EC180B06200323C6
:101A10000222B0EE480AF0EE680A00210090182079
:101A2000FFF726F906235DA208210020FFF744FAFC
:101A300006235BA208214820FFF73EFA59480068B8
:101A400001F054FC41EC180B062003230222B0EEF7
:101A5000480AF0EE680A082100901820FFF708F9FC
:101A6000062351A210210020FFF726FA50480068F3
:101A700001F03CFC41EC180B062004230122B0EEDF
:101A8000480AF0EE680A102100901820FFF7F0F8DD
:101A9000062348A218210020FFF70EFA47480068E5
:101AA00030B9062346A218212420FFF705FA05E0E5
:101AB000062345A218212420FFF7FEF9062344A29D
:101AC00020210020FFF7F8F943480068401C38B98E
:101AD000062342A220212420FFF7EEF910E04DE07A
:101AE0003D48006830B906233EA220212420FFF79C
:101AF000E3F905E006233DA220212420FFF7DCF9CD
:101B000006233CA228210020FFF7D6F9062321A2B4
:101B100028214820FFF7D0F93848006801F0E6FB9B
:101B200041EC180B062003230222B0EE480AF0EE27
:101B3000680A282100901820FFF79AF8062330A29F
:101B400030210020FFF7B8F9062315A230214820E4
:101B5000FFF7B2F92C48006801F0C8FB41EC180B04
:101B6000062003230222B0EE480AF0EE680A302174
:101B700000901820FFF77CF8FFF7B6F90121034821
:101B800000F034F901B0BDEC028B00BD0004004050
:101B900049323A00410000002C00002055313A0043
:101BA0005600000030000020647574793A0000008F
:101BB000380000206D6F64653A00000000000020CE
:101BC0004D4F44455F4344004D4F44455F464400FC
:101BD0007069643A00000000180000204E4C4F4F1E
:101BE00050000000494C4F4F50000000564C4F4FE2
:101BF00050000000497365743A0000004000002066
:101C0000557365743A0000003C0000201FB50121A7
:101C10000420FFF7D7F940F2432002909020ADF85E
:101C200004000020ADF80C00ADF8060001A90F4833
:101C300000F0F6F901210D4800F0D8F80122114614
:101C40000A4800F002F91E208DF8000000208DF8EF
:101C500001008DF8020001208DF803006846FEF7B0
:101C60006FFE0121014800F0C4F81FBD00080040CC
:101C700010B501214A4800F0D7F8012842D149485F
:101C80000068E0BB484890ED002A90ED000AF1EEB4
:101C9000401A464890ED001A4548D0ED000A4548E4
:101CA00090ED000A444800F0C1FC4048D0ED000A25
:101CB00030EE200A80ED000A90ED000A3A48D0ED9F
:101CC000000AB4EEE00AF1EE10FA04DB90ED000A2F
:101CD000364880ED000A354890ED000A3748D0EDCF
:101CE000000AB4EEE00AF1EE10FA04D890ED000A12
:101CF0002E4880ED000A2D4890ED000A00E002E039
:101D000000F038FD47E027480068012843D1264805
:101D100090ED002A90ED000AF1EE401A234890ED74
:101D2000001A2748D0ED000A264890ED000A264800
:101D300000F07CFC1D48D0ED000A30EE200A80ED5A
:101D4000000A90ED000A1848D0ED000AB4EEE00A4F
:101D5000F1EE10FA04DB90ED000A144880ED000A61
:101D6000124890ED000A1548D0ED000AB4EEE00AE2
:101D7000F1EE10FA04D890ED000A0C4880ED000A4C
:101D80000A48D0ED000AB7EE001A71EE600AB0EE14
:101D9000600A00F0EFFC0121014800F027F810BDB7
:101DA00000080040180000205C00002038000020DF
:101DB0002C0000204000002088020020600000204D
:101DC000300000203C000020A80200200A884B8838
:101DD0001A438B881A43CB881A430B891A434B89C1
:101DE0001A438B891A43A0F844207047CA430282E1
:101DF000704721B1028842F00102028004E00288AB
:101E00004FF6FE731A400280704731B1B0F844209B
:101E100042F40042A0F8442005E0B0F84420C2F3A8
:101E20000E02A0F84420704730B50246002000237F
:101E30000024158A05EA0103958905EA010413B116
:101E40000CB1012000E0002030BD1AB183890B43A2
:101E5000838102E083898B438381704770B50024BE
:101E600000220023058C4FF6FE7635400584028C57
:101E70008388048B4FF68F752C40B51E2C400D883F
:101E80002C43751E2A408D892A434D882A43104DC4
:101E9000A84202D00F4DA84213D14FF6F7752A4041
:101EA000CD892A434FF6FB752A408D882A434FF689
:101EB000FF652B404FF6FF552B400D8A2B434D8A73
:101EC0002B43838004838D684563028470BD0000CA
:101ED000000001400004014070B5002400220023EE
:101EE000058C4FF6EF7635400584028C8388048B91
:101EF00048F6FF752C404FF6FF452C400D884FF6F5
:101F0000FF7606EA05252C434FF6DF752A408D89BA
:101F100006EA05152A434D8806EA05152A43154D9C
:101F2000A84202D0144DA8421DD14FF67F752A4019
:101F3000CD894FF6FF7606EA05152A434FF6BF75A1
:101F40002A408D8806EA05152A434FF6FF352B40B7
:101F50004FF2FF752B400D8A06EA85052B434D8A0B
:101F600006EA85052B43838004838D68856302849C
:101F700070BD0000000001400004014070B5002465
:101F800000220023058C4FF6FF6635400584028C45
:101F90008388848B4FF68F752C404FF6FC752C4050
:101FA0000D882C434FF6FF552A408D894FF6FF765A
:101FB00006EA05252A434D8806EA05252A43154DDC
:101FC000A84202D0144DA8421DD14FF2FF752A40FD
:101FD000CD894FF6FF7606EA05252A434FF6FF35F1
:101FE0002A408D8806EA05252A434EF6FF752B40C8
:101FF0004DF6FF752B400D8A06EA05152B434D8AD9
:1020000006EA05152B43838084838D68C5630284AB
:1020100070BD0000000001400004014041637047B2
:1020200000220288184B98420ED0184B98420BD0D1
:10203000B0F1804F08D0164B984205D0154B98420E
:1020400002D0154B984204D14FF68F731A404B883B
:102050001A43124B984207D0114B984204D04FF6C6
:10206000FF431A400B891A4302804B68C3620B88F6
:102070000385054B984202D0044B984201D18B7ADC
:102080000386012383827047000001400004014061
:102090000004004000080040000C00400010004018
:1020A0000014004010B540F225511D4800F057F8CB
:1020B00010B31B4800F00CF9C4B21A48008800F4B1
:1020C0000040C8B91748008800F4804060B10A2C6D
:1020D00003D000201349088020E01248008840F413
:1020E00000401049088019E00D2C06D10D480088E9
:1020F00040F480400B49088010E00A480088C0F393
:102100000D0009490C5407480088401C0549088007
:1021100008460088C72801DD0020088010BD0000A7
:1021200000100140B00000207408002021B1828915
:1021300042F40052828104E082894DF6FF731A4016
:102140008281704702460020B1F5007F00D100BFB8
:1021500013880B400BB1012000E00020704770B5E0
:102160000246002400230025002040F66A16B142F2
:1021700000D100BFC1F3421501F01F03012606FA8A
:1021800003F3012D02D19689334006E0022D02D1DE
:10219000168A334001E0968A33400C12012606FA73
:1021A00004F41688344013B10CB1012000E0002083
:1021B00070BDF0B50346002400260025002040F63F
:1021C0006A17B94200D100BF1846C1F3421401F0AA
:1021D0001F06012707FA06F5012C01D10C3004E097
:1021E000022C01D1103000E014301AB107682F43DF
:1021F000076002E00768AF430760F0BD2DE9FF47C5
:1022000005460E460024A14600BFA046B08900B195
:1022100000BF2C8A24F44054F08804432C82AC89FB
:1022200041F20C608443B0883189084371890843C6
:102230000443AC81AC8A24F44074B0890443AC827A
:102240006846FEF7EFFE2048854202D01F488542CF
:1022500002D1DDF80C9001E0DDF80890A88900F4C7
:10226000004040B109EBC90000EB0910316849009A
:10227000B0FBF1F707E009EBC90000EB091031688A
:102280008900B0FBF1F76420B7FBF0F004012009EE
:10229000642101FB1078A88900F4004040B132208D
:1022A00000EBC800B0FBF1F000F00700044308E0C9
:1022B000322000EB08106421B0FBF1F000F00F00B9
:1022C00004432C81BDE8FF87001001400014014049
:1022D00001468888C0F308007047C1F30802828075
:1022E000704700BFFEE7000070B505460E46144675
:1022F0004FF6FF7000EA84023146284600F008F8E5
:1023000004220249284600F003F870BD233D00086E
:102310002DE9F04107460D46164600240BE0295DE5
:102320000748FFF7DAFF00BF40210548FFF70AFF23
:102330000128F9D1641CB442F1DBBDE8F081000052
:10234000001001400000000010B52DED020B2DED36
:10235000088B84B09DED0C0B51EC100B00F076FE59
:1023600041EC180B9DED0C0B53EC182B51EC100BA2
:1023700000F0D2FE41EC190B0D989FED290B10F0E7
:10238000004F53EC102B51EC190B9FED21AB9FED3F
:1023900022BB0ED000F0EAFC0ED953EC1B2B51EC03
:1023A000190B00F01DFE1CD214E000BF41EC180B0D
:1023B00017E000F0DBFC06D253EC1A2B51EC180BA3
:1023C00000F0AAFEF2E753EC1B2B51EC190B00F0C6
:1023D00007FE06D853EC1A2B51EC180B00F07AFAD2
:1023E000E4E78DED028B9DED0C0B18EE901A10EECC
:1023F000900A8DED000B61F31E0003909DED020B22
:1024000004B0BDEC088B02B010BD0000000000005D
:10241000000000000000F03F000000000000E03F6E
:10242000000000000000E0BF00BF704710B5044688
:102430006FF00400FEF7B8FFE11704EB5171C1F330
:10244000C701074A11701046007800EB4001C1EB4C
:10245000C0104FF6FF7101EAC0000249088010BDAC
:10246000A6000020A800002070B504464FF40770B5
:1024700094FBF0F0C6B24FF4077094FBF0F100FB50
:10248000114085B205E04FF4077000F02FF8701E80
:10249000C6B2002EF7D115B1284600F027F870BD5E
:1024A0000146114A12784A434FF0E0235A61002254
:1024B0009A611A46126942F001021A6100BF4FF098
:1024C000E022106900F001021AB100F48032002A03
:1024D000F5D04FF0E022126922F001024FF0E02324
:1024E0001A6100229A617047A60000200146114A35
:1024F00012884A434FF0E0235A6100229A611A463B
:10250000126942F001021A6100BF4FF0E022106927
:1025100000F001021AB100F48032002AF5D04FF029
:10252000E022126922F001024FF0E0231A6100223A
:102530009A617047A80000209FED221ADFED220A61
:102540009FED220A224800F053F89FED1E1ADFED9E
:10255000210A9FED210A214800F04AF84FF440700B
:10256000FEF72AFAA820FFF761FFFEF7BDF8FDF796
:1025700047FFFDF7B1FEFEF7C9FDFEF7CDFA18489B
:1025800000F014F9FFF742FBFFF7F0F9FEF756FFF2
:10259000FFF716F8B7EE080A124880ED000AB3EE0E
:1025A0000E0A114880ED000AB6EE000A0F4880EDD1
:1025B000000A90ED000A00F0DDF8FEF707FA00BF10
:1025C000FEE7000000000000ACC5A73882A8FB377A
:1025D0008802002017B7D1380AD7233CA802002070
:1025E00080841E00400000203C00002038000020B5
:1025F000DFED0D1AC0ED001ADFED0B1AC0ED011A68
:10260000DFED091AC0ED021ADFED071AC0ED031A5B
:10261000DFED051AC0ED041A80ED050AC0ED060ACB
:1026200080ED071A704700000000000010B52DED86
:10263000088B0446B0EE409AF0EE609AF0EE418AC4
:10264000B0EE61AAF0EE42AA84ED009AC4ED019AC0
:1026500094ED000AD4ED010A30EE600A84ED020A1E
:1026600094ED020AB5EEC00AF1EE10FA0FDB94ED1C
:10267000020A10EE101A084600F038FE41EC1B0B5F
:102680009FED370B53EC102B00F070FB16D994ED37
:10269000020AB5EEC00AF1EE10FA17D894ED020A5C
:1026A00010EE101A084600F021FE41EC1B0B9FEDC6
:1026B0002E0B53EC102B00F093FC07D89FED2C0A47
:1026C00084ED020A9FED2A0A84ED030A94ED020AC2
:1026D000D4ED030A30EE600AD4ED050A20EE200A9C
:1026E000D4ED060A94ED021A00EE810AD4ED020A36
:1026F00094ED031AF0EE001A41EEC10A94ED041AAB
:1027000070EE810A94ED071AB0EE408A01EE208A3D
:1027100038EE880AB4EEEA0AF1EE10FA06DA38EE7C
:10272000880AB4EECA0AF1EE10FA0BD894ED020A48
:10273000D4ED030A30EE600AD4ED050A20EE200A3B
:10274000B0EE408A94ED030A84ED040A94ED020A87
:1027500084ED030AB0EE480ABDEC088B10BD000002
:102760007B14AE47E17A943F7B14AE47E17A94BF85
:102770000000000010B52DED028BB0EE408AB7EEE0
:10278000000A30EE480ADFED070A20EE200ABCEE10
:10279000C00A10EE101A0448FFF740FCBDEC028B93
:1027A00010BD0000004083460000014010B588B015
:1027B000044601210846FEF7F5FB01211020FEF733
:1027C00021FC072209212248FEF780F807220A216E
:1027D0001F48FEF77BF84FF4C060069002208DF88A
:1027E0001C008DF81D0000208DF81E0001208DF8C2
:1027F0001F0006A91648FEF721F802940020ADF844
:102800000C00ADF80E00ADF81000ADF814000C206F
:10281000ADF8120002A90F48FFF7F0FC01210D48A6
:10282000FFF784FC012240F225510A48FFF7C1FC62
:1028300025208DF8040003208DF805008DF8060092
:1028400001208DF8070001A8FEF77AF808B010BD46
:10285000000002400010014081F00041704780F00C
:102860000040704721F00041704720F00040704761
:1028700021F00042A2F16052B2F5801F01F0004346
:1028800028BFD2F17F6C0BD95FEA001C43EAC20279
:1028900042EB507018BF704728BF20F0010070470E
:1028A000B2F5801FBCBF184670474FEA410C1CF5BB
:1028B000001F02D2084600F08FBD70B500F03CFB4F
:1028C00000000089FFF7F6BF4FF00040A0F5800040
:1028D0007047000010B591EA030F48BF83F0004332
:1028E00000F12284841A71EB030C05D2121943EB18
:1028F0000C03001B61EB0C01DFF824E14FEA1154DB
:10290000A4EB135C1EEA430F18BF9EEA445F73D02A
:1029100023EA0E03DCF1200E21EA045143F4801374
:1029200032D322FA0CFE10EB0E0023FA0CFE41EB20
:102930000E01CCF1200E03FA0EFE10EB0E0051F149
:102940000001B1F5801FCCF1200E32D201EB045111
:1029500012FA0EF2BDE8104058BF7047401C38BF55
:102960005FEA420218BF7047002814BF20F0010040
:1029700041F100014FEA410313F5001F38BF7047D2
:10298000A1F1C04100F026BB012A43EB0302ACF1E8
:10299000200CDCF11F0E32BF4FF0000E23FA0CF3B7
:1029A00010EB030041EB0451B4EB115FD0D0A1EB6D
:1029B000045101F5801149085FEA300001EB045130
:1029C0000ED350F1000038BF12FA0EFE08D1BDE858
:1029D0001040C9E7401C38BF5FEA4202CAD1C3E7D2
:1029E000BDE810404FEA410313F5001F38BF7047A0
:1029F000A1F1C04100F0EEBA9EEA445F08D011EAAE
:102A00005E0FBDE8104004BF01F000410020704798
:102A1000BDE8104070B500F08FFA00BF64FBBE3E09
:102A20000000E0FF491058BFC1F140415B1058BFA2
:102A3000C3F140438B42EFF3008070472DE9C04162
:102A400030B4DFF8A0C23CEA111418BF3CEA1314FA
:102A500000F0EC8081EA03051CEA111444EAD57405
:102A600018BF1CEA131500F0C780A4EB05044FF053
:102A7000004545EAC12145EAC32341EA505143EAF2
:102A8000525304F17F74994204F500344FEAC02098
:102A90004FEAC22208BF904200F09C804FEA1365C3
:102AA0000FF24016765D4FEA134506FB05F7C7F1B6
:102AB000807706FB07F74FEAD737A7FB0368764214
:102AC000C8F58038A7FB06CE38BFA8F1010807FB80
:102AD00008E64FF0000EA6FB028CE6FB03CEDCF10D
:102AE000000CCEF1004E38BFAEF1010EA6FB0C5823
:102AF0004FF000074FF00005E6FB0E87A1FB08C66C
:102B0000A0FB07CE16EB0E0645F10005E1FB0765BD
:102B100015F1E04E7EBFA4F580345FEA46066D41B4
:102B200016F1800745F100054FEA17274FEA0666C0
:102B300047EA0567A6F1DE46B6F1805F4FEA152544
:102B40001FD9384624F0010C05EBC471BCF1FE6FAF
:102B500001EB0C1102D8F0BCBDE8008124425CBF3F
:102B600001F5801E9EEAC47F02D4F0BCBDE800815E
:102B7000244238D4F0BCA1F1C041BDE8004100F0CE
:102B800029BA4FEAD22242EA43524FEAD323A7FBA3
:102B900002864FEAD02040EA415007FB03661EEA56
:102BA0000E0F4FEAD12105FB026658BFA6EB005677
:102BB000B6EB00564FEA520E4EEAC37E18EB0E0EED
:102BC00056EB530EBDD518EB02085E417F1C55F144
:102BD0000005B6E74FF480154FF000074FF00006F0
:102BE0004FF00008ADE7F0BC4FF0000001F1C0412C
:102BF00001F00041BDE8008111EA0C1F0CEA131539
:102C000000D00CE013EA0C1F00F025804FF000000C
:102C1000F0BC81EA030101F00041BDE80081F0BC95
:102C2000BDE8004181EA030100F0D4B9F0BCBDE881
:102C3000004170B500F080F9097EFC3E00F007B855
:102C400081EA03014FF0000001F00041704781EA82
:102C5000030100F0BFB9F0BCBDE800414FF0000037
:102C600021497047FFFDFBF9F7F5F4F2F0EEEDEBCB
:102C7000E9E8E6E4E3E1E0DEDDDBDAD8D7D5D4D37A
:102C8000D1D0CFCDCCCBCAC8C7C6C5C4C2C1C0BFC6
:102C9000BEBDBCBBBAB9B8B7B6B5B4B3B2B1B0AFCC
:102CA000AEADACABAAA9A8A8A7A6A5A4A3A3A2A1B0
:102CB000A09F9F9E9D9C9C9B9A999998979796956B
:102CC00095949393929191908F8F8E8E8D8C8C8B07
:102CD0008B8A89898888878786858584848383828F
:102CE000828181800000FF070000F87F4FEA1153C6
:102CF000A3F58063D3F11E03A8BFD3F1200C08DB3A
:102D00004FF0004242EAC12252EA505232FA03F036
:102D1000704709420BD4102BC4BF0020704703F545
:102D2000787CBCF1FF3F05D04FF0FF3070474FF08B
:102D30000000704770B500F0FFF800BF4992248092
:102D400000207047F0E7B0FA80F310FA03F10AD0E0
:102D5000C3F11D0303F580634FEA41504FEA03526C
:102D600002EBD12170474FF00000704751EA030C8D
:102D700017D41CF5801F58BFBCF5801F00F10680DA
:102D8000994218BF704708BF9042704707D711F5A6
:102D9000801F58BF13F5801F19D49942704789428C
:102DA00070471CF5801F08D5BCF5801FF7D58B42F6
:102DB00018BF704708BF824270474FF4001C1CEBDD
:102DC000410F38BF1CEB430F01D28B42704770B5E7
:102DD00000F0B2F8922449004FF000514FF08053B8
:102DE000FFF720BEDFF848C170B51CEA111E1EBFF8
:102DF0001CEA13159EEA0C0F95EA0C0F00F06F8089
:102E000081EA030423EA4C134EEAD47E21EA4C11F2
:102E100041F4801143F48013AE44A1FB024CA0FBAB
:102E20000365AEF17F7E361955EB0C05A1FB034C13
:102E30004CF10003A0FB021C16EB0C06654153F19C
:102E40000003094218BF46F0010613F4007F0BD1BE
:102E50004FEA03314FEA0530340341EA155140EAA5
:102E600016506FF003020AE04FEAC3214FEAC52073
:102E7000F40241EA555140EA56506FF0020202EB6B
:102E80002E4201EB025585EACE710AD05FEA440C6E
:102E900018BF24F0004450F1000041F1000120EA85
:102EA000D47040F2FE7C624500D270BDA84214BFCF
:102EB0004FF080444FF04044002E08BF0024BEF184
:102EC000806FA8BFA1F1C041BDE8704080F2828050
:102ED0004FF0000001F1C04101F0004170479EEA4F
:102EE0000C0F0CEA131518BF95EA0C0F06D04FF023
:102EF000000081EA030E0EF0004170BD00F01CF8E6
:102F00008900013E00F007B800F009B84FEA430C11
:102F10005FEA5C5C08D081EA030100F05BB84FEA2D
:102F2000410C5FEA5C5CF6D14FF00000014970474C
:102F30000000FF070000F87F0EF1020E2EF0030ED6
:102F40005EF8046B364205D4012A43EB030515F500
:102F5000001F12D8012841EB010C1CF5001F0CD8F2
:102F60000ED14FEAD17C15F5001F0CEB4C0C0CF187
:102F7000020C08BF4CEBD37C04E04FF0080C01E0DE
:102F80004FEAD37C0CEB4C0526FA05F606F0070653
:102F9000B6F1040C06D20EEB860CBDE870404CF086
:102FA000010C6047DFE80CF0090B02024FF0004112
:102FB0004FF00000A1F5002170BD19461046012810
:102FC00051EB010418BFD4F5001484BF002001F0B8
:102FD000004170BD0808A0F500114FEA31017047AB
:102FE00053EA010C17D41CF5801F58BFBCF5801F95
:102FF00000F106808B4218BF704708BF82427047BD
:1030000007D713F5801F58BF11F5801F19D48B42C5
:1030100070479B4270471CF5801F08D5BCF5801F88
:10302000F7D5994218BF704708BF904270474FF4D8
:10303000001C1CEB430F38BF1CEB410F01D299421F
:1030400070470FB40CBC03BCFFF7C1BE5FEA410C74
:103050005FEA5C5CACF580635B1C39D4D3F134026D
:1030600040F34580B2F1200314DA4FF0010C0CFA62
:1030700002FCACF101030340B3EB5C0220EA030065
:1030800008BF10EA0C0F98BF704710EB0C0041F11D
:10309000000170470AD0C3F1200201FA02FC0128A6
:1030A00021FA03F101FA03F14CF100004FF0010C99
:1030B0000CFA03FCACF10103B0F1004F21EA03016B
:1030C00008BF11EA0C0F4FF0000088BF6144704741
:1030D000B3F1FF3F28BF50EAC12C01F000414FF08F
:1030E000000084BF41F07C5141F470017047B3F59A
:1030F000806FB8BF704770B5FFF71EFF40DBB6BEEC
:1031000091EA030F10B581F000413FF5EBAB83F07E
:10311000004300F009B8000010B591EA030F48BF62
:1031200083F000433FF5DEAB841A71EB030C07D24A
:1031300012198CF0004C43EB0C03001B61EB0C01EB
:10314000DFF8A4E14FEA1154A4EB135C1EEA430F2D
:1031500018BF9EEA445F00F0B08023EA6E0352423B
:1031600021EA0451C3EB6E0338BF5B1EDCF1200E75
:1031700025D322FA0CFE10EB0E0043FA0CFE41EBB5
:103180000E01CCF1200E03FA0EFE10EB0E0051F1F1
:103190000001CCF1200E29D412FA0EF201EB0451F9
:1031A000BDE8104058BF7047401C1CBFB2F1004F33
:1031B000704700280CBF491C20F00100704712EB3B
:1031C000020E43EB030218BF4FF0010E4EEA42021B
:1031D000ACF1200CDCF11E0E54D943FA0CFE10EBBE
:1031E0000E0051F1FF31CCF11E0ED5D50EF1010EBE
:1031F00012FA0EFE404141EB010101EB445C5FEA33
:103200005C5C10D910EBDE7001EB045138BFBEF1ED
:10321000004FBDE8104018BF704700280CBF491C84
:1032200020F00100704730D24FEAD42C11F5001184
:1032300024F400641BD0B1FA81F20B3AA41AA41E44
:10324000D2F12003914030FA03F31943904001EB8F
:10325000CC71002C01EB0451BDE81040A8BF7047B1
:1032600001F1C0414FF0000001F000417047B0FA99
:1032700080F310FA03F100D110BDE41A173C4805A1
:10328000C90AE4E701EB045110BD491001EB0451F8
:10329000BDE810404FEA300002E04FF000017047F7
:1032A0004A0008BF0042F8D0B2F5001F28BF70479F
:1032B00001F000414FF0000070479EEA445F07D0E4
:1032C00011EA5E0FBDE8104004BF002100207047E6
:1032D000BDE8104070B5FFF72FFE00BF40DFF63E9F
:1032E00083F00041104670470000E0FF43004FEAC2
:1032F000D30C4FEA3C0C43401FBF40070CF1605118
:1033000013F0FE4F70471CF0006F03D100200CF04B
:10331000004170470CF0004343EA507010B540EA9A
:10332000CC0000F00EF800BF000000924FEA000150
:10333000FFF750BE4FF000414FF00000A1F5002113
:1033400070470EF1020E2EF0030E5EF8044B24427D
:1033500004D44FEA4102B2F17F4F11D84FEA400343
:10336000B3F17F4F0CD80ED14FEAD07CB2F17F4F32
:103370000CEB4C0C0CF1020C08BF4CEBD17C04E0C4
:103380004FF0080C01E04FEAD17C0CEB4C0324FA1F
:1033900003F404F00704B4F1040C06D20EEB840C21
:1033A000BDE810404CF0010C6047DFE80CF0070866
:1033B00002024FF00040A0F5800010BD0846420018
:1033C00018BFD2F1807288BF00F0004010BD4FF0EE
:1033D0004070E1EE100A7047FF2141EAD050C0056D
:1033E0007047000000000000000000000000000026
:1033F0000000000000F80000000000000033300072
:10340000000000160E00160E000000000000000074
:10341000000040C07840C0784000043F04043F04EE
:103420000400007088FC08300000001820FF211EF6
:103430000000F008F000E018000000211C031E212D
:103440001E0000F00888700000001E2123241927A8
:103450002110000000160E00000000000000000017
:103460000000000000E0180402000000000718201F
:10347000400000020418E00000000040201807008F
:103480000000404080F0804040000202010F010235
:103490000200000000F0000000000101011F010116
:1034A0000100000000000000000000B070000000FB
:1034B0000000000000000000000000010101010107
:1034C000010100000000000000000030300000009A
:1034D0000000000000008060180400601806010071
:1034E000000000E010080810E000000F102020107D
:1034F0000F00001010F8000000000020203F2020E6
:10350000000000700808088870000030282422217C
:103510003000003008888848300000182020201132
:103520000E000000C02010F8000000070424243F13
:10353000240000F8088888080800001921202011BC
:103540000E0000E0108888180000000F11202011E4
:103550000E0000380808C83808000000003F0000CE
:1035600000000070880808887000001C22212122B9
:103570001C0000E010080810E000000031222211B9
:103580000F00000000C0C00000000000003030004C
:103590000000000000C0C0000000000080B070000B
:1035A0000000000080402010080000010204081004
:1035B0002000404040404040400004040404040413
:1035C00004000008102040800000002010080402C1
:1035D0000100007048080808F000000000303601C3
:1035E0000000C030C828E810E00007182724231482
:1035F0000B000000C038E0000000203C230202273E
:10360000382008F8888888700000203F202020118A
:103610000E00C030080808083800071820202010C5
:10362000080008F808080810E000203F20202010BB
:103630000F0008F88888E8081000203F2020232089
:10364000180008F88888E8081000203F20000300D0
:103650000000C03008080838000007182020221E8B
:10366000020008F808000008F808203F21010121A5
:103670003F20000808F8080800000020203F202014
:10368000000000000808F8080800C08080807F0063
:10369000000008F888C028180800203F20012638BC
:1036A000200008F8080000000000203F2020202013
:1036B000300008F8F800F8F80800203F003F003F0D
:1036C000200008F830C00008F808203F2000071844
:1036D0003F00E01008080810E0000F102020201024
:1036E0000F0008F808080808F000203F2101010138
:1036F0000000E01008080810E0000F1824243850DB
:103700004F0008F8888888887000203F2000030C4C
:103710003020007088080808380000382021212255
:103720001C00180808F8080818000000203F2000B6
:10373000000008F808000008F808001F20202020DA
:103740001F000878880000C83808000007380E01FC
:103750000000F80800F80008F800033C0700073CE8
:103760000300081868808068180820302C03032C98
:1037700030200838C800C83808000000203F20006A
:10378000000010080808C83808002038262120202A
:103790001800000000FE020202000000007F40400E
:1037A0004000000C30C0000000000000000106389E
:1037B000C00000020202FE000000004040407F0006
:1037C0000000002010080408102000000000000085
:1037D00000000000000000000000808080808080E9
:1037E00080800002040800000000000000000000CB
:1037F0000000000080808080000000192422222226
:103800003F2008F8008080000000003F11202011B8
:103810000E000000008080800000000E112020209B
:103820001100000000808088F800000E1120201098
:103830003F200000808080800000001F2222222282
:103840001300008080F0888888180020203F202006
:1038500000000000808080808000006B949494932E
:10386000600008F8008080800000203F21000020D8
:103870003F2000809898000000000020203F20207A
:103880000000000000809898000000C08080807FC9
:10389000000008F8000080808000203F24022D30C6
:1038A0002000000808F8000000000020203F202031
:1038B00000008080808080808000203F20003F20AA
:1038C000003F008080008080000000203F21002019
:1038D0003F200000808080800000001F20202020EA
:1038E0001F00808000808000000080FFA120201148
:1038F0000E000000008080808000000E112020A0BB
:10390000FF80808080008080800020203F21200078
:103910000100000080808080800000332424242463
:103920001900008080E0808000000000001F20203F
:1039300000008080000000808000001F20202010F8
:103940003F20808080000080808000010E300806CB
:10395000010080800080008080800F300C030C30DC
:103960000F0000808000808080000020312E0E310A
:103970002000808080000080808080818E7018060A
:10398000010000808080808080000021302C222176
:10399000300000000000807C020200000000003FB8
:1039A000404000000000FF00000000000000FF0099
:1039B00000000002027C800000000040403F000048
:1039C00000000080404080000080000000000001F6
:1039D00001000000000000000000002F00000000B7
:1039E0000700070000147F147F1400242A7F2A1286
:1039F0000023130864620036495522500000000776
:103A0000000000001C224100000041221C000014A4
:103A1000083E08140008083E0808000000A06000E6
:103A20000008080808080000606000000020100876
:103A30000402003E5149453E0000427F40000042E2
:103A400061514946002141454B31001814127F1045
:103A5000002745454539003C4A4949300001710974
:103A6000050300364949493600064949291E000028
:103A700036360000000056360000000814224100CF
:103A800000141414141400004122140800020151FF
:103A90000906003E4955592E007C1211127C007F08
:103AA00049494936003E41414122007F4141221CA3
:103AB000007F49494941007F09090901003E414908
:103AC000497A007F0808087F0000417F41000020FC
:103AD00040413F01007F08142241007F40404040A8
:103AE000007F020C027F007F0408107F003E4141EE
:103AF000413E007F09090906003E4151215E007FD9
:103B0000091929460046494949310001017F01014F
:103B1000003F4040403F001F2040201F003F4038F2
:103B2000403F006314081463000708700807006131
:103B30005149454300007F41410000020408102024
:103B4000000041417F0000040201020400404040A7
:103B50004040000001020400002054545478007FCB
:103B60004844443800384444442000384444487FA2
:103B700000385454541800087E0901020018A4A407
:103B8000A47C007F080404780000447D40000040CD
:103B900080847D00007F102844000000417F4000A9
:103BA000007C04180478007C08040478003844443D
:103BB000443800FC242424180018242418FC007C19
:103BC0000804040800485454542000043F44402092
:103BD000003C4040207C001C2040201C003C403029
:103BE000403C004428102844001CA0A0A07C0044B5
:103BF00064544C440000087F41000000007F000036
:103C00000000417F0800000804081008A3AC000071
:103C100000000000000000000000000000000000A4
:103C2000005838000000000000000000000000A163
:103C3000A3000000000000000000000000000000E1
:103C400000000000182424180000000000000000FC
:103C50000000C4E300008060F8074020180F08C887
:103C60000808281800010000FF00100C0340807FA6
:103C70000001061800BAC3001010F01F10F00080F9
:103C80008282E2928A868000402215081661000036
:103C900040807F0000000000CAC000202020FE20DD
:103CA00020FF202020FF20202020000000007F4057
:103CB0004047444444474040400000BDE700000006
:103CC00000FE929292FE929292FE0000000008087E
:103CD0000484621E010001FE0204040808000000C2
:103CE00000FF01010131090909098971010101017F
:103CF000FFFF8080808080809681808080808080AF
:103D0000FFFF01818181FD8991A1C1FD8181810137
:103D1000FFFF808080809F888482819F8080808058
:103D2000FFAFFA0000807F00483D0008000000203F
:103D3000C4000000C40100080C3E0008C4000020BC
:103D4000DC0E0000E00100080000000000000000A0
:103D50000000000000000000000000000000000063
:103D6000FFFFFFFF00000000000000003333D33FDF
:103D70000000000000000000000000000000000043
:103D80000000003F000000000000000000000000F4
:103D90000000000000000000000000000000000023
:103DA00000000000CDCC4C3FCDCCCC3D000000004D
:103DB0000000000000000000000000000000000003
:103DC00000000000000000000000000000000000F3
:103DD000000000000000803F0000000000004040A4
:103DE000000000000000803F000000000000000014
:103DF00000000000000000000000000000000102C0
:0C3E000003040102030406070809000087
:0400000508000229C4
:00000001FF
