:020000040800F2
:10000000F00E00209D010008332100080F100008A9
:100010002F210008250B00089F3700080000000072
:10002000000000000000000000000000792A000825
:10003000290B000800000000A7270008D12B0008AA
:10004000B7010008B7010008B7010008B7010008B0
:10005000B7010008B7010008B7010008B7010008A0
:10006000B7010008B70100082B0B0008B701000812
:10007000B7010008B7010008B7010008B701000880
:10008000B7010008B7010008B7010008B701000870
:10009000B7010008B7010008B7010008450B0008C8
:1000A000B7010008B7010008B7010008B701000850
:1000B000552E00086D320008B7010008B70100088E
:1000C000B7010008B7010008B7010008B701000830
:1000D000B701000861350008B7010008B701000842
:1000E000B7010008B7010008B7010008B701000810
:1000F000B7010008B7010008B7010008B701000800
:10010000B7010008B7010008B7010008B7010008EF
:10011000B7010008B7010008B7010008B7010008DF
:10012000B7010008B7010008B7010008B7010008CF
:10013000B7010008B7010008B7010008B7010008BF
:10014000B7010008B7010008B7010008B7010008AF
:10015000B7010008B7010008B7010008B70100089F
:10016000B7010008B7010008B7010008B70100088F
:10017000B7010008B7010008B7010008B70100087F
:10018000B7010008B7010008DFF80CD000F0C0FB91
:1001900000480047E9480008F00E00200648804764
:1001A00006480047FEE7FEE7FEE7FEE7FEE7FEE75C
:1001B000FEE7FEE7FEE7FEE7D52B00088901000811
:1001C0009FED1A1AF5EE000A40EE010ABDEEE00AB4
:1001D000F5EEC00A10EE100AF1EE10FA38BF401E1C
:1001E00000EE100A1349F7EE001AB8EEC00A30EE1E
:1001F000C00ADFED0F0A20EE200AFCEEC00A10EE66
:10020000900AC0F3080000EE900A01EB8000F8EEBF
:10021000600A90ED011A70EE600A90ED000A71EE2E
:10022000E01A21EE800A00EE810A704783F9223E2F
:1002300000000044B05D0008DFED190AB5EEC00A09
:1002400060EE200ABDEEE01A11EE100AF1EE10FA8F
:1002500038BF401E00EE100A1349F7EE001AB8EE40
:10026000C00A30EEC00ADFED0F0A60EE200ABCEED5
:10027000E00A10EE100AC0F3080000EE100A01EBCD
:100280008000B8EE400A90ED011A70EEC00A90EDC1
:10029000000A71EEE01A21EE800A00EE810A704732
:1002A00083F9223E00000044B05D0008421C10F8B3
:1002B000011B0029FBD1801A70472DE9FE4F8046B3
:1002C00081EA0300C00F0C46009021F0004123F0AA
:1002D0000045B8EB0200A94105D2404621469046B0
:1002E0001C460B46024623F00040104347D0270D22
:1002F000C7F30A00C3F30A510290401A0190402844
:100300006BDAC3F3130040F4801B0098924620B1CF
:100310000023D2EB030A63EB0B0B01985946C0F1A3
:100320004002504600F017FA06460D465046594620
:10033000019A00F02FFA10EB08006141002487EACF
:10034000115284EAE7731A4340D0009A62B3019ACB
:10035000012A4FEA075215DC001B61EB02014FF046
:10036000004202EA0752CDE90042001C41F580112B
:1003700032462B4600F066FA03B0BDE8F08F4046E7
:100380002146F9E7001B61EB0201001C41F58013D7
:1003900000185B412018A2F5001747EB030140EA63
:1003A000D570B6196D4111E06D084FEA360645EA81
:1003B000C0754FEA0752001B61EB0201001C41F5BA
:1003C000801149084FEA30000019514132462B464E
:1003D00003B0BDE8F04F00F026BA009801224000BB
:1003E0000023D0EB020263EBE073009821464FEA52
:1003F000E074B8EB000061EB0401E9E783F000432F
:100400005BE781F0004158E72DE9FE4F81EA0304E4
:1004100004F0004421F0004100944FF0000B23F061
:10042000004350EA01045ED052EA03045BD0C3F3F8
:100430000A54C1F30A552C44A4F2F3340194A0FBEE
:100440000254C1F3130141F48011C3F3130343F4C5
:10045000801301FB024400FB034E840A970A44EA1E
:10046000815447EA8357A4FB076802958D0A05FB70
:1004700007854FEA932C04FB0C542705029D4FEA95
:10048000065847EA1637B5EB08056EEB070C870EE2
:10049000920E47EA811742EA8312A7FB0201B6EBEC
:1004A0000B0164EB00042B0D43EA0C335E1844EBA4
:1004B0001C50DA465146E7FB0201C5F313044FEA2C
:1004C0000B3343EA14534FEA0432019C43EA060318
:1004D000A4F10C040294009CCDE900B400F0B2F940
:1004E00003B0BDE8F08F00200146F9E72DE9F04D9B
:1004F00081EA030404F0004B21F0004514464FF05C
:10050000000A23F0004150EA050220D054EA01021B
:100510001DD0C5F30A570246C5F31303C1F31300F8
:10052000C1F30A5640F4801543F48013A7EB060884
:10053000101BD64608F2FD3873EB050002D308F114
:10054000010801E092185B41B8F1000F03DA0020C6
:100550000146BDE8F08D00204FF480110646844628
:100560000EE0171B73EB050705D3121B63EB0503A6
:1005700006434CEA010C49084FEA300092185B41EF
:1005800050EA0107EDD152EA030012D082EA0400DA
:1005900083EA0501084305D0101BAB4106D20122B6
:1005A000002306E000224FF0004302E06FF001025A
:1005B00053101AEB06004CEB085110EB0A0041EB0C
:1005C0000B01BDE8F04D00F02EB970B5C1F30A5231
:1005D00001F000450024C1F3130140F2FF3341F460
:1005E00080119A4201DA002070BD40F233439A42F2
:1005F000A2F2334203DC524200F0BCF800E090402B
:100600002C43F1D0404270BD00F0004230F0004079
:100610000AD0C10D01F56071C0F3160042EA015124
:10062000C208400711437047002001467047000090
:1006300030B5041E71F1000404DB4FF00044404269
:1006400064EB0101141E73F1000405DB1C464FF03E
:100650000043524263EB04038B4208BF824230BD29
:1006600030B5041E71F1000404DB4FF00044404239
:1006700064EB0101141E73F1000405DB1C464FF00E
:100680000043524263EB0403994208BF904230BDDD
:1006900001F0004330B421F0004150EA010206D0DD
:1006A0000A0DA2F56072C1F31301002A02DC30BC0E
:1006B00000207047440F44EAC104C100E01830BC78
:1006C00000EBC25000F078B830B50B460146002070
:1006D0002022012409E021FA02F59D4205D303FA04
:1006E00002F5491B04FA02F52844151EA2F1010285
:1006F000F1DC30BD2DE9F05F0546002092469B46B7
:1007000088460646814640241BE028464146474627
:10071000224600F02FF853465A46C01A914110D392
:1007200011461846224600F016F82D1A67EB01080C
:100730004F4622460120002100F00DF817EB00097A
:100740004E41201EA4F10104DFDC484631462A4612
:100750004346BDE8F09F202A04DB203A00FA02F16C
:10076000002070479140C2F1200320FA03F319439F
:1007700090407047202A04DB203A21FA02F0002141
:10078000704721FA02F3D040C2F1200291400843A1
:1007900019467047202A06DBCB17203A41FA02F0AF
:1007A00043EAE07306E041FA02F3D040C2F12002CE
:1007B00091400843194670470029A8BF7047401C64
:1007C000490008BF20F00100704710B4B0FA80FC67
:1007D00000FA0CF050EA010404BF10BC704749B1A4
:1007E000CCF1200421FA04F411FA0CF118BF012114
:1007F00021430843A3EB0C01CB1D4FEA00614FEAF4
:10080000102042BF002010BC704700EBC3501044C2
:100810000029A4BF10BC7047401C490008BF20F04D
:10082000010010BC704710B5141E73F1000408DA03
:10083000401C41F1000192185B411A4301D120F0A4
:10084000010010BD2DE9F04D92469B4611B1B1FA61
:1008500081F202E0B0FA80F220329046FFF77BFF8F
:1008600004460F4640EA0A0041EA0B0153465A4645
:10087000084313D0114653EA010019D0C8F14002D1
:100880005046FFF777FF05460E465046594642460A
:10089000FFF761FF084305D0012004E020463946F8
:1008A000BDE8F08D0020054346EAE0762C4337434F
:1008B0000A986305E40AA0EB08000022FD0A44EA56
:1008C00047540A3002D500200146E9E70105101916
:1008D0006941DDE9084500196941BDE8F04DA2E72D
:1008E000C1F30A52C1F3130140F2FF3341F4801106
:1008F0009A4202DA00200146704740F233439A429E
:10090000A2F2334202DC5242FFF734BFFFF723BFAB
:10091000064C074D06E0E06840F0010394E807004C
:1009200098471034AC42F6D3FFF732FC4C6600080F
:100930006C66000870B58C1810F8015B15F00703A1
:1009400001D110F8013B2A1106D110F8012B03E068
:1009500010F8016B01F8016B5B1EF9D12B0705D470
:100960000023521E0DD401F8013BFAE710F8013BB9
:10097000CB1A921C03E013F8015B01F8015B521ED5
:10098000F9D5A142D8D3002070BD000010B500F009
:10099000D7F92021094800F033FB012003F016FFAE
:1009A0004FF48071064800F02BFB00F097F801200F
:1009B00003F00CFF00F0A6F810BD00000004024098
:1009C0000008024010B5314800F06CF800205AE0F1
:1009D0002E4931F81010B1F5004F14DA2B4931F8D7
:1009E000101000EE101AB8EE400AF2EE040A20EEE3
:1009F000200ADFED270A80EE201A264901EB80014C
:100A000081ED001A1FE0214931F81010C943491C3B
:100A10001E4A22F81010114631F8101000EE101A7C
:100A2000B8EE400AF2EE040A20EE200AFFEE000AB9
:100A300020EE200ADFED160A80EE201A154901EBA0
:100A4000800181ED001A134901EB800191ED000A4C
:100A5000114901EB8001D1ED000A70EE600A0F49E7
:100A600001EB800191ED001A80EE810A0C4901EB47
:100A70008001D1ED000A30EE200A064901EB800129
:100A800081ED000A401C0828A2DB10BDE403002011
:100A900000000047F4030020140400201000002090
:100AA0003404002070B505464FF480710A4800F008
:100AB000A5FA002405E0FF2001F08CFF25F81400C2
:100AC000641C082CF7DB4FF48071034800F098FA9F
:100AD00000F018F870BD00000008024010B50121B8
:100AE000074800F08BFA0121054800F089FA01203F
:100AF00003F088FE0121024800F080FA10BD0000DA
:100B00000004024010B52021054800F077FA0120CA
:100B100003F078FE2021024800F072FA10BD0000B8
:100B20000004024000BFFEE7704710B5102000F03F
:100B3000B1F8012802D1022000F08CF8102000F05A
:100B400083F810BD10B5202000F0A4F8012806D1CC
:100B5000032000F07FF8202000F076F810BD802000
:100B600000F098F8012805D100F074F8802000F01A
:100B70006BF8F3E74FF4807000F08CF8012807D190
:100B8000002000F067F84FF4807000F05DF8E5E7B2
:100B900000BFE3E70EB50121880301F035FE072110
:100BA000012001F06BFF0821012001F067FF052102
:100BB000084601F063FF0421022001F05FFF1020CE
:100BC000009000208DF8040008208DF80500012019
:100BD0008DF80600684600F069F8A020009000201B
:100BE0008DF804000C208DF8050001208DF806001A
:100BF000684600F05BF84FF48070009008208DF894
:100C00000500684600F052F80A208DF80800002020
:100C10008DF8090002208DF80A0001208DF80B00E4
:100C200002A801F087FA17208DF8080001208DF83E
:100C3000090002208DF80A0001208DF80B0002A89F
:100C400001F078FA0EBD000001490860704700000D
:100C5000143C014070B504466CB1012C04D0022C48
:100C600011D0032C10D107E04FF48051074800F059
:100C7000BCF9054608E007E04FF40041044800F0E5
:100C8000B4F9054600E000BF00BF70BD000402409B
:100C90000010024001460020034A12680A400AB1CF
:100CA000012000E000207047143C0140002123494E
:100CB0008279002A3AD00A46126803689A430B46A2
:100CC0001A600A1D126803689A430B1D1A600279A4
:100CD00011440A6803681A430A60184A0832126805
:100CE00003689A43154B08331A601A1D126803688B
:100CF0009A43124B0C331A604279102A0ED11A1FF4
:100D0000126803681A430D4B08331A601A1D1268E3
:100D100003681A43094B0C331A600DE00749427906
:100D200011440A6803681A430A6005E00279114415
:100D30000A6803689A430A6070470000003C01405B
:100D40001CB50121084601F02FFD0121022001F010
:100D50002BFD0121042001F027FD0121082001F0D5
:100D600023FD4FF48070009001208DF804000020D6
:100D70008DF8060003208DF8050001208DF807008E
:100D800069460D4800F0C6F801208DF804000020E7
:100D90008DF8060003208DF8050001208DF807006E
:100DA00000906946054800F0B5F82020009069469B
:100DB000024800F0AFF81CBD0008024000040240E9
:100DC0001CB50121084601F0EFFC0121022001F0D1
:100DD000EBFC0121042001F0E7FC0121082001F0D7
:100DE000E3FC0121102001F0DFFC01208DF804005C
:100DF00002208DF8050000208DF8060002208DF8F5
:100E000007008002009069463E4800F083F84FF4E6
:100E10000050009069463B4800F07CF84FF40040D9
:100E200000906946374800F075F84FF48050009004
:100E30006946344800F06EF84FF4804000906946EF
:100E4000304800F067F80120009069462D4800F016
:100E500061F80220009069462A4800F05BF80420FF
:100E600000906946274800F055F808200090694630
:100E7000244800F04FF8102000906946214800F007
:100E800049F88020009069461E4800F043F84FF46E
:100E90000070009069461C4800F03CF800208DF876
:100EA000040002208DF8050001208DF806008DF861
:100EB0000700802000906946134800F02BF84FF49B
:100EC000807000906946104800F024F820200090BF
:100ED00069460E4800F01EF81020009069460B4845
:100EE00000F018F84FF4805000906946064800F072
:100EF00011F84FF4004000906946054800F00AF8E8
:100F00001CBD0000000C024000040240000802402A
:100F100000100240F0B50A4600210023002400BF63
:100F20003DE0012505FA01F3156805EA03049C423A
:100F300034D105684F000326BE40B54305601579DE
:100F40004E00B5400668354305601579012D02D085
:100F50001579022D16D185684F000326BE40B54392
:100F6000856055794E00B540866835438560456893
:100F700001268E40B5434560456896798E40B6B2ED
:100F800035434560C5684F000326BE40B543C56084
:100F9000D5794E00B540C6683543C560491C102957
:100FA000BFD3F0BDF0B5002300244D07ED0E02FACB
:100FB00005F3CE1000F1200555F826504E07F70E28
:100FC0000F26BE40B543CF1000F1200646F827504B
:100FD000CE1000F1200555F8265045EA0304CE1046
:100FE00000F1200545F82640F0BD024600201369B7
:100FF0000B400BB1012000E0002070474183704797
:10100000018370470AB1018300E04183704700BF4C
:10101000FEE710B50446052003F06AFC98B1B4F968
:101020000410206800EB0110406838B1B4F90420C6
:10103000216801EB02114868804701E000206074DC
:101040000120207413E0062003F052FC10B10020B0
:1010500060740CE0072003F04BFC404200B2E081DA
:10106000E08920B1204601F02DF80120207410BD48
:1010700010B50446012060742074A0800020E08038
:1010800020810120A08100206081608112E0B4F9FC
:101090000A10206800EB01120021084600F092FEC1
:1010A000B4F90A20216801EB021148736089401CE1
:1010B00000B26081B4F90A10206800EB01100068EA
:1010C00000782E28E3D16089401E00B2608110BDF7
:1010D00010B5012003F00CFC0AA300220521022018
:1010E00003F006FC002003F003FC09E0052003F0F8
:1010F000FFFB00B110BD062003F0FAFB00B1F9E7D9
:10110000F4E700006D656E752076322E300A427964
:101110003A4164616D0A62696C6962696C690A5579
:10112000503AE58AA0E6B2B9E593A6E5A4A7E7811F
:10113000B0E78BBC0000000010B5024800F00CF8CE
:1011400010BD0000A402002010B5024800F004F811
:1011500010BD0000AC01002010B504462046FFF78A
:1011600087FF11E0012003F0C3FB204600F098FE4A
:10117000204600F02BF8204600F012F8002003F083
:10118000B7FB2046FFF745FF607C0028EAD110BD81
:1011900010B50248FFF7E0FF10BD0000300200204C
:1011A00038B5054600240DE0C4F14000001B009056
:1011B000C4F18000031B22462146042003F098FB63
:1011C000601C04B2012CEFDB38BD000001B58CB00F
:1011D0000C98007C00287CD000210C9801740C989D
:1011E0000168B0F9040001EB0010407B022101EB23
:1011F000C000801C0B9014200A900B98C0F1800056
:10120000099000EBD070401000EE100AB8EEC00A52
:10121000FB4880ED000A0C98B0F9060000EB800056
:1012200001EB800000EE100AB8EEC00AF54880ED30
:10123000000AF348D0ED000A9DED0B0AB8EE400A13
:1012400030EE800AF7EE000A30EE600AEE4880EDDC
:10125000000AEC48D0ED000A9DED0A0AB8EE400AFB
:1012600030EE800AF7EE000A30EE600AE74880EDC3
:10127000000AE34890ED000AE548D0ED000A30EEA0
:10128000600A8DED010A0198FFF7BEF99FEDE10BB1
:1012900053EC102BCDE902019DED020B51EC100B2C
:1012A000FFF7B2F8CDE90601D5480068FFF7ACF9C1
:1012B000CDE904019DED060B53EC102B9DED040BC5
:1012C00051EC100BFEF7F9FFCDE908019DED080B7D
:1012D00000E0AEE051EC100BFFF7DAF9CF490860FF
:1012E000C84890ED000ACE48D0ED000A30EE600A02
:1012F0008DED010A0198FFF787F99FEDC60B53ECBE
:10130000102BCDE902019DED020B51EC100BFFF704
:101310007BF8CDE90601BB480068FFF775F9CDE918
:1013200004019DED060B53EC102B9DED040B51ECCD
:10133000100BFEF7C2FFCDE908019DED080B51EC43
:10134000100BFFF7A5F9B7490860AF4890ED000A08
:10135000B548D0ED000A30EE600A8DED010A019823
:10136000FFF752F99FEDAB0B53EC102BCDE90201C7
:101370009DED020B51EC100BFFF746F8CDE906018D
:10138000A1480068FFF740F9CDE904019DED060B87
:1013900053EC102B9DED040B51EC100BFEF78DFF61
:1013A000CDE908019DED080B51EC100BFFF770F92A
:1013B0009E490860954890ED000A9D48D0ED000ACE
:1013C00030EE600A8DED010A0198FFF71DF99FEDDF
:1013D000910B53EC102BCDE902019DED020B51EC6A
:1013E000100BFFF711F8CDE9060188480068FFF7F8
:1013F0000BF9CDE904019DED060B53EC102B9DED8F
:10140000040B51EC100BFEF758FFCDE908019DEDE0
:10141000080B51EC100BFFF73BF9864908600220DE
:1014200085490870854908708549087085490870A4
:1014300000BF7A4890ED000A7548D0ED000AB4EE7E
:10144000600AF1EE10FA43D17B4801780078401E23
:10145000794A1070A9B36A4890ED000A6C48D0ED43
:10146000000A30EE600A8DED030A0398FFF7CCF80E
:101470009FED680B53EC102BCDE904019DED040B9F
:1014800051EC100BFEF7C0FFCDE908015C48006885
:10149000FFF7BAF8CDE906019DED080B53EC102BD0
:1014A0009DED060B51EC100BFEF707FFCDE90A018D
:1014B0009DED0A0B51EC100BFFF7EAF85749086055
:1014C00006E0FFE74E4890ED000A544880ED000A20
:1014D000544890ED000A5248D0ED000AB4EE600A7C
:1014E000F1EE10FA43D1554801780078401E534A76
:1014F0001070A9B3434890ED000A4948D0ED000AA6
:1015000030EE600A8DED030A0398FFF77DF89FED3A
:10151000410B53EC102BCDE904019DED040B51EC74
:10152000100BFEF771FFCDE9080136480068FFF7A0
:101530006BF8CDE906019DED080B53EC102B9DEDEA
:10154000060B51EC100BFEF7B8FECDE90A019DED3C
:101550000A0B51EC100BFFF79BF83249086006E0CC
:10156000FFE7284890ED000A2E4880ED000A2F483A
:1015700090ED000A2C48D0ED000AB4EE600AF1EEBE
:1015800010FA67D12E4801780078401E2C4A10705E
:10159000A9B31D4890ED000A2348D0ED000A30EEB3
:1015A000600A8DED030A0398FFF72EF89FED190BE3
:1015B00053EC102BCDE904019DED040B51EC100B05
:1015C000FEF722FFCDE908010F480068FFF71CF87D
:1015D000CDE906019DED080B53EC102B9DED060B9C
:1015E00051EC100BFEF769FECDE90A019DED0A0BE7
:1015F00051EC100BFFF74CF80C4908602AE023E08F
:10160000280100202C01002030010020340100209E
:101610001801002025068195438BD43F3801002016
:101620001C0100203C01002020010020400100207E
:10163000240100204401002048010020490100202D
:101640004A0100204B010020FE4890ED000AFE48B0
:1016500080ED000AFD4890ED000AFD48D0ED000A3B
:10166000B4EE600AF1EE10FA43D1FA48017800783E
:10167000401EF84A1070A9B3F74890ED000AF448EC
:10168000D0ED000A30EE600A8DED030A0398FEF7F4
:10169000BBFF1FED200B53EC102BCDE904019DED9A
:1016A000040B51EC100BFEF7AFFECDE90801EA4840
:1016B0000068FEF7A9FFCDE906019DED080B53EC8C
:1016C000102B9DED060B51EC100BFEF7F6FDCDE94E
:1016D0000A019DED0A0B51EC100BFEF7D9FFDB4917
:1016E000086006E0FFE7DC4890ED000AD74880ED8F
:1016F000000ADA4890ED000AD948D0ED000A30EE31
:10170000600A8DED070A0798FEF77EFF9FEDD50B67
:1017100053EC102BCDE908019DED080B51EC100B9B
:10172000FEF79EFF37D2CD4890ED000ACC48D0EDB1
:10173000000A30EE600A8DED030A0398FEF764FF9D
:101740009FEDCA0B53EC102BCDE904019DED040B6A
:1017500051EC100BFEF758FECDE90801C0480068B7
:10176000FEF752FF9FEDBF0B53EC102BCDE90401A8
:101770009DED040B51EC100BFEF79FFDCDE906012A
:101780009DED080B53EC102B9DED060B51EC100B4F
:10179000FEF793FD55E0B14890ED000AB048D0ED5A
:1017A000000A30EE600A8DED070A0798FEF72CFF5D
:1017B0009FEDB00B53EC102BCDE908019DED080B0C
:1017C00051EC100BFEF734FF37D2A44890ED000A1D
:1017D000A348D0ED000A30EE600A8DED030A0398AD
:1017E000FEF712FF9FEDA10B53EC102BCDE9040186
:1017F0009DED040B51EC100BFEF706FECDE9080140
:1018000097480068FEF700FF9FED960B53EC102BF6
:10181000CDE904019DED040B51EC100BFEF7EEFD3C
:10182000CDE906019DED080B53EC102B9DED060B49
:1018300051EC100BFEF741FD03E088480068FEF70D
:10184000E3FECDE90A019DED0A0B51EC100BFEF70A
:101850001FFF83490860894890ED000A8848D0ED51
:10186000000A30EE600A8DED070A0798FEF7CCFEFD
:101870009FED7C0B53EC102BCDE908019DED080B7F
:1018800051EC100BFEF7ECFE37D27C4890ED000ACD
:101890007B48D0ED000A30EE600A8DED030A039814
:1018A000FEF7B2FE9FED710B53EC102BCDE9040156
:1018B0009DED040B51EC100BFEF7A6FDCDE90801E0
:1018C0006F480068FEF7A0FE9FED660B53EC102BEF
:1018D000CDE904019DED040B51EC100BFEF7EDFC7E
:1018E000CDE906019DED080B53EC102B9DED060B89
:1018F00051EC100BFEF7E1FC55E0604890ED000A5A
:101900005F48D0ED000A30EE600A8DED070A0798B7
:10191000FEF77AFE9FED570B53EC102BCDE9080133
:101920009DED080B51EC100BFEF782FE37D25348A9
:1019300090ED000A5248D0ED000A30EE600A8DEDBD
:10194000030A0398FEF760FE9FED480B53EC102B43
:10195000CDE904019DED040B51EC100BFEF754FD95
:10196000CDE9080146480068FEF74EFE9FED3D0BAD
:1019700053EC102BCDE904019DED040B51EC100B41
:10198000FEF73CFDCDE906019DED080B53EC102B55
:101990009DED060B51EC100BFEF78FFC03E0374872
:1019A0000068FEF731FECDE90A019DED0A0B51EC0E
:1019B000100BFEF76DFE32490860234890ED000AD7
:1019C0003048D0ED000A30EE600A8DED070A079826
:1019D000FEF71AFE9FED230B53EC102BCDE9080107
:1019E0009DED080B51EC100BFEF73AFE5BD216484A
:1019F00090ED000A2348D0ED000A30EE600A8DED2C
:101A0000030A0398FEF700FE9FED180B53EC102B12
:101A1000CDE904019DED040B51EC100BFEF7F4FC35
:101A2000CDE9080117480068FEF7EEFD9FED0D0BAC
:101A300053EC102BCDE904019DED040B51EC100B80
:101A400022E000003001002040010020440100207D
:101A5000240100204B010020340100203801002027
:101A600018010020000000000000B03FC976BE9FB2
:101A70001A2FDD3F000000000000B0BF3C01002035
:101A80001C01002020010020FEF717FCCDE9060113
:101A90009DED080B53EC102B9DED060B51EC100B3C
:101AA000FEF70BFC55E0BF4890ED000ABE48D0EDB4
:101AB000000A30EE600A8DED070A0798FEF7A4FDD4
:101AC0001FED140B53EC102BCDE908019DED080B15
:101AD00051EC100BFEF7ACFD37D2B24890ED000A86
:101AE000B148D0ED000A30EE600A8DED030A03988C
:101AF000FEF78AFD1FED230B53EC102BCDE90401FB
:101B00009DED040B51EC100BFEF77EFCCDE90801B6
:101B1000A5480068FEF778FD1FED2E0B53EC102B47
:101B2000CDE904019DED040B51EC100BFEF766FCB2
:101B3000CDE906019DED080B53EC102B9DED060B36
:101B400051EC100BFEF7B9FB03E096480068FEF776
:101B50005BFDCDE90A019DED0A0B51EC100BFEF780
:101B600097FD91490860914890ED000A9048D0EDAA
:101B7000000A30EE600A8DED070A0798FEF744FD73
:101B80001FED480B53EC102BCDE908019DED080B20
:101B900051EC100BFEF764FD37D2844890ED000A3B
:101BA0008348D0ED000A30EE600A8DED030A0398F9
:101BB000FEF72AFD1FED530B53EC102BCDE904016A
:101BC0009DED040B51EC100BFEF71EFCCDE9080156
:101BD00077480068FEF718FD1FED5E0B53EC102BE5
:101BE000CDE904019DED040B51EC100BFEF765FBF4
:101BF000CDE906019DED080B53EC102B9DED060B76
:101C000051EC100BFEF759FB55E0684890ED000AC7
:101C10006748D0ED000A30EE600A8DED070A07989C
:101C2000FEF7F2FC1FED6D0B53EC102BCDE9080114
:101C30009DED080B51EC100BFEF7FAFC37D25B4818
:101C400090ED000A5A48D0ED000A30EE600A8DEDA2
:101C5000030A0398FEF7D8FC1FED7C0B53EC102B06
:101C6000CDE904019DED040B51EC100BFEF7CCFB0C
:101C7000CDE908014E480068FEF7C6FC1FED870B52
:101C800053EC102BCDE904019DED040B51EC100B2E
:101C9000FEF7B4FBCDE906019DED080B53EC102BCC
:101CA0009DED060B51EC100BFEF707FB03E03F48E0
:101CB0000068FEF7A9FCCDE90A019DED0A0B51EC85
:101CC000100BFEF7E5FC3A49086008460068FEF78D
:101CD0009BFC9FED380B53EC102BCDE904019DEDDF
:101CE000040B51EC100BFEF7E8FACDE906019DED6F
:101CF000060B51EC100BFEF768FC0B902A480068AD
:101D0000FEF782FC9FED2B0B53EC102BCDE9040169
:101D10009DED040B51EC100BFEF7CFFACDE9060157
:101D20009DED060B51EC100BFEF74FFC0A9023487B
:101D30000068FEF769FC9FED1F0B53EC102BCDE9FB
:101D400004019DED040B51EC100BFEF7B6FACDE942
:101D500006019DED060B51EC100BFEF736FC0990C9
:101D600017480068FEF750FC9FED120B53EC102B48
:101D7000CDE904019DED040B51EC100BFEF79DFA2B
:101D8000CDE906019DED060B51EC100BFEF71DFC95
:101D900008900B980090032008A90EC902F0A8FD36
:101DA0000DB000BD400100202001002044010020B2
:101DB00024010020000000000000E03F1C01002082
:101DC0001801002070B52DED028B90B005460E462F
:101DD0001446207B092850D2DFE800F0050D141CC2
:101DE000232A38313E00A06890F900206846216817
:101DF00001F006FD47E0A06802786846216801F01E
:101E0000FFFC40E0A068B0F900206846216801F0BE
:101E1000F7FC38E0A06802886846216801F0F0FC11
:101E200031E0A06802686846216801F0E9FC2AE018
:101E3000A06802686846216801F0E2FC23E0A0681F
:101E400002786846216801F0DBFC1CE06846A26865
:101E5000216801F0D5FC16E0A06890ED000A10EEB4
:101E6000101A0846FEF7D0FB41EC180B53EC182B68
:101E70006846216801F0C4FC05E06846A268216854
:101E800001F0BEFC00BF00BF6B463246294602206F
:101E900002F02EFDC0B210B0BDEC028B70BD000090
:101EA0002DE9F0412DED088B0446A088E188401A09
:101EB00000B22081B4F90C00B4F90810884210D0A7
:101EC000B4F90800B4F90C10401A00EB800080004F
:101ED00000EE100AB8EEC00A704880ED000A2089B2
:101EE000A0816E4890ED000AB5EEC00AF1EE10FA3E
:101EF0007ED090ED000ADFED6A0A30EEC00A10EEE7
:101F0000101A0846FEF780FB41EC190B9FED650B9C
:101F100053EC102BFEF7A4FB2AD2604890ED000A88
:101F2000DFED5F0A30EEC00A10EE101A0846FEF729
:101F30006BFB41EC1B0B9FED5D0B53EC102BFEF785
:101F400063FA41EC190B55480068FEF75DFB41EC64
:101F50001B0B9FED540B53EC102BFEF7AEF941EC2D
:101F60001A0B53EC192BFEF7A8F941EC100B42E0C9
:101F70004A4890ED000ADFED4A0A30EEC00A10EE42
:101F8000101A0846FEF740FB41EC190B9FED490B78
:101F900053EC102BFEF74CFB2BD2404890ED000A7F
:101FA000DFED3F0A30EEC00A10EE101A0846FEF7C9
:101FB0002BFB41EC1B0B9FED3D0B53EC102BFEF765
:101FC00023FA41EC190B35480068FEF71DFB41EC84
:101FD0001B0B9FED340B53EC102BFEF70FFA41EC6B
:101FE0001A0B53EC192BFEF768F941EC100B02E0C9
:101FF0000BE09FED320BB0EE408AF0EE608A51ECC0
:10200000180BFEF745FB254908604FF0FF353DE012
:10201000B4F908002844002800DA35E0B4F90800D3
:102020002844B4F90A10884200DD31E0B4F90820F0
:102030002A44216801EB0211497B8022A2EBC100F6
:1020400000EBD0714E1005EB8500022101EB800002
:10205000801C124991ED000ABDEEC00A10EE101A64
:10206000084407B2B4F908102944206800EB0112B3
:1020700039463046FFF7A6FEB4F908202A44216805
:1020800001EB0211487300BF681C05B2032DBFDDD0
:1020900000BFBDEC088BBDE8F081000014010020FA
:1020A00000000000000000000000B03FC976BE9FA5
:1020B0001A2FDD3F000000000000B0BF000000004C
:1020C00000000000C188C289114409B2C180818822
:1020D000C289114409B28180B0F90410B0F90A2014
:1020E000914201DD41898180B0F90410002901DAB3
:1020F00000218180B0F90610022901DD0221C18092
:10210000B0F90610B0F90A20914201DD4189C18081
:10211000B0F90610B0F90420914201DD8188C18038
:10212000B0F90610002901DA0021C180704700BF14
:10213000FEE7704770B5002100230F22C4781CB35E
:10214000174C246804F4E064C4F5E064C4F3072188
:10215000C1F10404E3B20A4144789C40E1B28478BE
:10216000144021430C07210E0E4C0578615504786C
:1021700004F01F050124AC4005786D11AD0005F198
:10218000E025C5F8004109E0047804F01F050124AA
:10219000AC40054D0678761145F8264070BD00002C
:1021A0000CED00E000E400E080E100E002490143C2
:1021B000024A1160704700000000FA050CED00E0D3
:1021C00000200CE0002106E00022064B03EBC013C8
:1021D0005A544A1CD1B28029F6DB421CD0B20828DE
:1021E000F0DB7047220600202DE9F04304460D463F
:1021F00016461F46284638E0224631E0002A2DDBED
:102200007F2A2BDC002829DB3F2827DC4FEAE07CF3
:1022100000EB5C7C4FEAEC0CDFF8588008EBCC1C40
:102220001CF802C003464FEAE07800EB58784FEA0A
:10223000E808A0EBC8094FF0010808FA09F82CEAF1
:10224000080C01464FEAE07800EB58784FEAE808BE
:10225000DFF8209009EBC81808F802C0511C0AB238
:10226000A1199142CADC411C08B2E9198142C3DCC0
:10227000BDE8F0832206002070B50346002B20DB6A
:102280007F2B1EDC00291CDB3F291ADCCC1701EB5D
:102290005474E4100B4D05EBC414E45C0A46CD17EE
:1022A00001EB5575ED10A1EBC5060125B5402C439A
:1022B0000846CD1701EB5575ED10024E06EBC5151E
:1022C000EC5470BD220600202DE9F04705460E466D
:1022D00017469846DDF820A0BAF1000F24D12C460D
:1022E0000CE031462046FFF7C7FF06EB0800401E12
:1022F00001B22046FFF7C0FF601C04B2E819A042FB
:10230000EFDC34460BE021462846FFF7B5FFE9191C
:10231000491E08B22146FFF7AFFF601C04B206EB6E
:102320000800A042EFDC14E02C460FE0B14607E0C5
:1023300049462046FFF7A0FF09F101000FFA80F996
:1023400006EB08004845F3DC601C04B2E819A04223
:10235000ECDCBDE8F08700007CB5002406E0002539
:1023600000E06D1CB5F57A7FFBD3641CB4F57A7F71
:10237000F5D301210C2000F017FA01208DF804009C
:1023800003208DF8050000208DF8060001208DF84F
:102390000700C002009069461248FEF7BBFD4FF4EB
:1023A0008050009069460F48FEF7B4FD4FF48060FE
:1023B000009069460B48FEF7ADFD4FF400700090A9
:1023C00069460948FEF7A6FD002000F0A3F90120A8
:1023D00000F0ACF9012000F0C1F9012000F0B2F9E1
:1023E0007CBD000000080240000C024010B5FFF761
:1023F000B3FFAE2000F0BEF9D52000F0BBF980207D
:1024000000F0B8F9A82000F0B5F93F2000F0B2F9CB
:10241000D32000F0AFF9002000F0ACF9402000F02C
:10242000A9F9A12000F0A6F9C82000F0A3F9DA204C
:1024300000F0A0F9122000F09DF9812000F09AF937
:10244000CF2000F097F9D92000F094F9F12000F0A6
:1024500091F9DB2000F08EF9302000F08BF9A420F8
:1024600000F088F9A62000F085F98D2000F082F9AF
:10247000142000F07FF9AF2000F07CF9FFF7A0FEF8
:1024800000F034F910BD00002DE9F04304460D467C
:1024900016461F46284638E0224631E0002A2DDB4A
:1024A0007F2A2BDC002829DB3F2827DC4FEAE07C51
:1024B00000EB5C7C4FEAEC0CDFF8588008EBCC1C9E
:1024C0001CF802C003464FEAE07800EB58784FEA68
:1024D000E808A0EBC8094FF0010808FA09F88CEAEF
:1024E000080C01464FEAE07800EB58784FEAE8081C
:1024F000DFF8209009EBC81808F802C0511C0AB296
:10250000A1199142CADC411C08B2E9198142C3DC1D
:10251000BDE8F0832206002070B50546002411E0D6
:1025200080212141294009B1012100E00021084614
:1025300000F0FCF8012000F0EDF8002000F0EAF8CF
:10254000601CC4B2082CEBDB70BD70B505460C46B0
:1025500045F0B00000F00EF9102141EA141000F02F
:1025600009F904F00F0000F005F970BDF8B5064652
:102570000F4614461D46082D0CD1A4F120000E492B
:1025800001EB00101023082239460090304600F07D
:1025900017F80FE0062D0DD1A4F1200000EB40004C
:1025A000064901EB400008230622394600903046D8
:1025B00000F006F8F8BD00006E5400085E5A0008EE
:1025C0002DE9FF4F80460E469146DDF834B00025D8
:1025D00000244A4631464046039BFFF705FE00BFF4
:1025E0005EE0002558E008EB0500002852DB08EB10
:1025F00005007F284EDC3046F11706EB5171C910FB
:102600000FB2F11706EB5171C910A6EBC10A002EEB
:1026100005DA781E07B20AF108000FFA80FA3819B5
:10262000002817DB3819072814DC3819224901EB78
:10263000C01008EB0501405C04FB09511BF80110B8
:1026400001FA0AF1084339191B4A02EBC11108EBE0
:10265000050288543819401C00281BDB3819401C1F
:10266000072817DC3819401C134901EBC01008EB90
:102670000501405C04FB09511BF80110CAF1080276
:10268000114108433919491C0B4A02EBC11108EBEF
:1026900005028854681CC5B24D45A4DB601CC4B259
:1026A0000399481EC11700EB5171012202EBE101B1
:1026B000A14296DCBDE8FF8F220600202DE9F04103
:1026C0000646884615461F46002409E02A5D04FB9D
:1026D000076108B23B464146FFF748FF601CC4B2A1
:1026E000285D0028F2D1BDE8F081000010B500247B
:1026F0000BE000212046FFF728FF054901EBC4103D
:10270000802100F040F8601CC4B2082CF1DB10BD41
:102710002206002010B5044622464FF4806102488C
:10272000FEF770FC10BD00000008024010B5044622
:1027300022464FF480510248FEF764FC10BD0000B1
:102740000008024010B5044622464FF400610248DA
:10275000FEF758FC10BD00000008024010B504460A
:1027600022464FF400710248FEF74CFC10BD0000F9
:10277000000C024010B504460020FFF7E3FF20469E
:10278000FFF7CAFE10BD70B505460E460120FFF7E3
:10279000D9FF002404E0285DFFF7BEFE601CC4B230
:1027A000B442F8DB70BD704729B1064A1268024393
:1027B000044B1A6004E0034A12688243014B1A601A
:1027C000704700003038024029B1064A12680243BF
:1027D000044B1A6004E0034A12688243014B1A60FA
:1027E000704700004038024029B1064A126802438F
:1027F000044B1A6004E0034A12688243014B1A60DA
:10280000704700002038024029B1064A126802438E
:10281000044B1A6004E0034A12688243014B1A60B9
:102820007047000044380240F0B500210022002427
:10283000022500260223324F3F6807F00C0121B128
:10284000042905D0082937D105E02E4F076036E06E
:102850002D4F076033E02A4F3F1F3F68C7F3805674
:10286000274F3F1F3F6807F03F036EB1264FB7FB6E
:10287000F3F7DFF88CC0ACF1040CDCF800C0CCF34B
:10288000881C07FB0CF40CE01E4FB7FBF3F7DFF8D6
:1028900070C0ACF1040CDCF800C0CCF3881C07FB62
:1028A0000CF4174F3F1F3F68C7F301477F1C7D00A3
:1028B000B4FBF5F7076002E0124F076000BF00BFEE
:1028C0000F4F3F6807F0F0010909104F7A5C076865
:1028D000D74047600A4F3F6807F4E051890A0B4F21
:1028E0007A5C4768D7408760054F3F6807F46041CE
:1028F000490B064F7A5C4768D740C760F0BD0000BF
:10290000083802400024F40000127A00DA020020A5
:1029100000B587B001210220FFF746FF012188039F
:10292000FFF752FF4FF46040059002208DF8180029
:1029300000208DF81A0003208DF8190001208DF871
:102940001B0005A92148FEF7E5FA05220D211F48C5
:10295000FEF728FB05220E211C48FEF723FB05226B
:102960000F211A48FEF71EFB01218803FFF73CFFE9
:1029700000214FF48040FFF737FF0020ADF8000042
:102980004FF48270ADF802004FF40060ADF804001F
:102990000220ADF806000120ADF808004002ADF8B5
:1029A0000A000020ADF80C00ADF80E000720ADF8CD
:1029B00010006946064800F041F80121044800F083
:1029C00023F8FF2000F006F807B000BD0004024025
:1029D0000038004010B5044600BF0221094800F04D
:1029E0001FF80028F9D02146064800F025F800BF5E
:1029F0000121044800F014F80028F9D0014800F043
:102A000018F810BD0038004021B1028842F04002A1
:102A1000028004E002884FF6BF731A4002807047BC
:102A20000246002013890B400BB1012000E000207A
:102A300070470146888970478181704710B5002230
:102A4000028802F441520B884C8823438C8823432C
:102A5000CC8823430C8923434C8923438C8923430B
:102A6000CC8923431A430280838B4FF2FF742340A7
:102A700083830B8A038210BD7047000030B50022AB
:102A80008B071C0F0F2303FA04F20B4B8C1053F827
:102A900024309343084C8D1044F8253023468C1085
:102AA00053F824308C07240F00FA04F42343024C1B
:102AB0008D1044F8253030BD083801400CB5002099
:102AC000019000903448006840F48030324908603A
:102AD00000BF3148006800F4003000900198401CAD
:102AE0000190009818B90198B0F5A04FF1D12A488B
:102AF000006800F4003010B10120009001E00020D7
:102B000000900098012846D123484030006840F0EA
:102B100080502149403108602048006840F440401E
:102B20001E4908601C48083000681B4908310860CD
:102B30000846006840F4004008600846006840F419
:102B4000A05008601648091F0860081F006840F080
:102B50008070091F086000BF0F48006800F0007017
:102B60000028F9D040F205700E4908600A48083084
:102B7000006820F003000849083108600846006832
:102B800040F00200086000BF03480830006800F011
:102B90000C000828F8D10CBD00380240007000403D
:102BA00008544007003C0240042808D14FF0E021BF
:102BB000096941F004014FF0E022116107E04FF094
:102BC000E021096921F004014FF0E0221161704712
:102BD0007047000010B51548006840F470001349B4
:102BE00008601348006840F00100114908600020A7
:102BF0000F49083108600E4800680E4908400C492A
:102C000008600D48091D0860081F006820F4802036
:102C1000091F0860002006490C310860FFF74EFFCD
:102C20004FF0006001498039086010BD88ED00E078
:102C300000380240FFFFF6FE1030002410B500F00F
:102C40005DF800F001F810BD1CB501211020FFF760
:102C5000ABFD012208212848FEF7A4F90122092131
:102C60002548FEF79FF901220A212348FEF79AF929
:102C700001220B212048FEF795F901220C211E4864
:102C8000FEF790F901220D211B48FEF78BF9022077
:102C90008DF804008DF8050000208DF80600012055
:102CA0008DF807000002009069461348FEF732F9DC
:102CB0004FF40070009069460F48FEF72BF94FF46F
:102CC0008060009069460C48FEF724F94FF40060DC
:102CD000009069460848FEF71DF94FF480500090B7
:102CE00069460548FEF716F94FF400500090694612
:102CF0000148FEF70FF91CBD0010024000B58DB071
:102D000001210846FFF780FD40F634000B900020BB
:102D1000ADF82800ADF830002020ADF82A000AA94F
:102D2000324800F0DBFB6020ADF814000120ADF864
:102D300016000420ADF818000020ADF82000ADF812
:102D40002200ADF824004FF40070ADF826000120F9
:102D5000079005A9254800F0E1FA0120079005A990
:102D6000224800F019FB0020079005A91F4800F039
:102D700065FB4FF40060ADF804004010ADF80600AC
:102D80008010ADF808004FF4B470ADF80A000020D0
:102D9000ADF80C004FF40050ADF80E000020ADF877
:102DA000100001A9114800F071FA0E210F4800F03F
:102DB0007DFA1B208DF8000000208DF80100012015
:102DC0008DF802008DF803006846FFF7B3F9012281
:102DD0000E21064800F099FA0121044800F075FA26
:102DE0000121024800F065FA0DB000BD000001406D
:102DF0001FB501210846FFF7E7FC42F2D000029020
:102E00000420ADF804000020ADF80C00ADF8060079
:102E100001A94FF0804000F061FB0121880700F01C
:102E200045FA01221146900700F06FFA1C208DF838
:102E3000000001208DF8010002208DF80200012021
:102E40008DF803006846FFF775F90121880700F047
:102E500030FA1FBD10B52DED028BC0480068401C34
:102E6000BE490860084690ED000AB8EEC00ADFEDE2
:102E7000BC0AB4EEE00AF1EE10FA07DBB9480068CC
:102E8000401CB84908600020B44908600121880747
:102E900000F02AFA01287DD1FDF794FDB24890EDAB
:102EA000000ADFEDB20A30EE200A80ED000A90ED54
:102EB000000ADFEDAF0AB4EEE00AF1EE10FA08DB2B
:102EC00090ED000ADFEDAA0A30EE600A80ED000AFC
:102ED0000FE0A54890ED000AB5EEC00AF1EE10FA39
:102EE00007D890ED000ADFEDA20A30EE200A80ED4F
:102EF000000AA04890ED000A9F4880ED000A9D4816
:102F000090ED010A9D4880ED000A9A4890ED020A72
:102F10009B4880ED000A9B4A9B49974890ED000A28
:102F20009A4801F08DFF9A4A9A49944890ED000A18
:102F3000964801F085FF984A9849914890ED000A1B
:102F4000924801F07DFF96499648974A92ED001A03
:102F50008F4AD2ED000A8F4A92ED000A01F0A2F9E1
:102F600092499348904A92ED001A8B4AD2ED000A9A
:102F70008A4A92ED000A01F095F98E48D0ED000AD8
:102F800060EEA00A8C4890ED001AD0ED001A41EED8
:102F9000210A00E0DBE0B0EE600A884801F0A8F901
:102FA0008048D0ED000A60EEA00A7D4890ED001A3E
:102FB000D0ED001A41EE210AB0EE600A804801F01F
:102FC00097F97648D0ED000A60EEA00A724890EDBD
:102FD000001AD0ED001A41EE210AB0EE600A7948DD
:102FE00001F086F96E4890ED000A6E48D0ED000AB7
:102FF00080EE201AB0EE418AB0EE480A00F028FCBC
:10300000FFEE000A20EE200A6F4880ED000A90EDE6
:10301000000AFDF7D5F86D4880ED000A674890ED8D
:10302000000A6748D0ED000A20EE200AF6EE000AFA
:1030300020EE200A664880ED000A90ED000A634801
:10304000D0ED000A20EE200A624880ED000A6248B6
:1030500090ED000ADFED610AB4EEE00AF1EE10FA3D
:103060000EDD90ED000ADFED5E0AB4EEE00AF1EE4F
:1030700010FA05D290ED000A444801F0BFFF04E0C9
:103080009FED580A414801F0B9FF534890ED000AFE
:10309000DFED540A30EE600AB0EEC00AF7EE000A27
:1030A000B4EEE00AF1EE10FA05D801204E4908808E
:1030B0004E49086004E000204B4908804B490860F5
:1030C0004B48007898B9284890ED000A364880EDC2
:1030D000000A39493748344A92ED001A294AD2ED9C
:1030E000000A294A92ED000A01F0DCF814E03249A6
:1030F00030482D4A92ED001A224AD2ED000A224AA7
:1031000092ED000A01F0CEF8274A33492A4890EDA3
:10311000000A384801F0FAFC37480078012805D148
:1031200001F00CFE01F098F901F0E4FF2A4890ED5F
:10313000000A324880ED000A1B4890ED000A2F4833
:1031400080ED010A022201462D4800F02BFB0121EF
:10315000880700F0ABF8BDEC028B10BD0801002021
:10316000FFFFF9440C0100209C0000207CD9203E88
:10317000DB0FC940F40300207C0000208000002009
:103180003C000020A4000020A00000201405002026
:10319000B4000020B00000204C00002048000020B7
:1031A000BC000020B8000020C40000205C0000200B
:1031B00058000020A8000020AC000020840000205F
:1031C000880000206C00002098000020940000205F
:1031D0008C00002090000020C000002000009C43D4
:1031E00000009E4363149D4300000020AC824142D6
:1031F00004000020C405002003000020C4030020B8
:10320000EC0200201FB501210220FFF7DDFA41F298
:10321000A16002909020ADF804000020ADF80C00F1
:10322000ADF8060001A9104800F058F901210E4838
:1032300000F03CF8012211460B4800F066F81D2012
:103240008DF8000004208DF8010003208DF80200A5
:1032500001208DF803006846FEF76CFF012102484B
:1032600000F027F81FBD00000004004010B5012148
:10327000054800F039F8012801D1FDF765FF01216B
:10328000014800F013F810BD000400400A884B8884
:103290001A438B881A43CB881A430B891A434B89EC
:1032A0001A438B891A43A0F844207047CA4302820C
:1032B000704721B1028842F00102028004E00288D6
:1032C0004FF6FE731A400280704731B1B0F84420C7
:1032D00042F40042A0F8442005E0B0F84420C2F3D4
:1032E0000E02A0F84420704730B5024600200023AB
:1032F0000024158A05EA0103958905EA010413B142
:103300000CB1012000E0002030BD1AB183890B43CD
:10331000838102E083898B438381704770B50024E9
:1033200000220023058C4FF6FE7635400584028C82
:103330008388048B4FF68F752C40B51E2C400D886A
:103340002C43751E2A408D892A434D882A43104DEF
:10335000A84202D00F4DA84213D14FF6F7752A406C
:10336000CD892A434FF6FB752A408D882A434FF6B4
:10337000FF652B404FF6FF552B400D8A2B434D8A9E
:103380002B43838004838D684563028470BD0000F5
:10339000000001400004014070B500240022002319
:1033A000058C4FF6EF7635400584028C8388048BBC
:1033B00048F6FF752C404FF6FF452C400D884FF620
:1033C000FF7606EA05252C434FF6DF752A408D89E6
:1033D00006EA05152A434D8806EA05152A43154DC8
:1033E000A84202D0144DA8421DD14FF67F752A4045
:1033F000CD894FF6FF7606EA05152A434FF6BF75CD
:103400002A408D8806EA05152A434FF6FF352B40E2
:103410004FF2FF752B400D8A06EA85052B434D8A36
:1034200006EA85052B43838004838D6885630284C7
:1034300070BD0000000001400004014070B5002490
:1034400000220023058C4FF6FF6635400584028C70
:103450008388848B4FF68F752C404FF6FC752C407B
:103460000D882C434FF6FF552A408D894FF6FF7685
:1034700006EA05252A434D8806EA05252A43154D07
:10348000A84202D0144DA8421DD14FF2FF752A4028
:10349000CD894FF6FF7606EA05252A434FF6FF351C
:1034A0002A408D8806EA05252A434EF6FF752B40F3
:1034B0004DF6FF752B400D8A06EA05152B434D8A04
:1034C00006EA05152B43838084838D68C5630284D7
:1034D00070BD00000000014000040140002202888D
:1034E000184B98420ED0184B98420BD0B0F1804F39
:1034F00008D0164B984205D0154B984202D0154B78
:10350000984204D14FF68F731A404B881A43124BDE
:10351000984207D0114B984204D04FF6FF431A400F
:103520000B891A4302804B68C3620B880385054BE5
:10353000984202D0044B984201D18B7A0386012332
:1035400083827047000001400004014000040040F5
:1035500000080040000C0040001000400014004033
:1035600010B540F225511D4800F057F810B31B4824
:1035700000F00CF9C4B21A48008800F40040C8B941
:103580001748008800F4804060B10A2C03D0002066
:103590001349088020E01248008840F40040104998
:1035A000088019E00D2C06D10D48008840F48040B9
:1035B0000B49088010E00A480088C0F30D00094953
:1035C0000C5407480088401C0549088008460088BC
:1035D000C72801DD0020088010BD00000010014058
:1035E000D8020020220A002021B1828942F4005230
:1035F000828104E082894DF6FF731A408281704710
:1036000002460020B1F5007F00D100BF13880B40B7
:103610000BB1012000E00020704770B50246002485
:1036200000230025002040F66A16B14200D100BFF9
:10363000C1F3421501F01F03012606FA03F3012D21
:1036400002D19689334006E0022D02D1168A33401A
:1036500001E0968A33400C12012606FA04F416881B
:10366000344013B10CB1012000E0002070BDF0B572
:103670000346002400260025002040F66A17B942C0
:1036800000D100BF1846C1F3421401F01F06012704
:1036900007FA06F5012C01D10C3004E0022C01D10F
:1036A000103000E014301AB107682F43076002E0C1
:1036B0000768AF430760F0BD2DE9FF4705460E469A
:1036C0000024A14600BFA046B08900B100BF2C8AEB
:1036D00024F44054F08804432C82AC8941F20C60FD
:1036E0008443B08831890843718908430443AC811D
:1036F000AC8A24F44074B0890443AC826846FFF776
:1037000093F82048854202D01F48854202D1DDF857
:103710000C9001E0DDF80890A88900F4004040B169
:1037200009EBC90000EB091031684900B0FBF1F763
:1037300007E009EBC90000EB091031688900B0FB14
:10374000F1F76420B7FBF0F004012009642101FBCC
:103750001078A88900F4004040B1322000EBC80086
:10376000B0FBF1F000F00700044308E0322000EB6A
:1037700008106421B0FBF1F000F00F0004432C812D
:10378000BDE8FF8700100140001401400146888811
:10379000C0F308007047C1F308028280704700BF81
:1037A000FEE7000070B505460E4614464FF6FF7062
:1037B00000EA84023146284600F008F80422024953
:1037C000284600F003F870BD6A5400082DE9F04166
:1037D00007460D46164600240BE0295D0748FFF713
:1037E000DAFF00BF40210548FFF70AFF0128F9D1A1
:1037F000641CB442F1DBBDE8F08100000010014020
:103800000FB4084B10B504A902AA039800F0AEF952
:10381000044602A9002000F040FD204610BC5DF8DF
:1038200014FB00009B4200084100080218BF04205E
:103830000A0E18BF40F001004FF07F4232EA01014A
:1038400008BF40F00200012808BF052070470000B3
:1038500010B54FF00E412DED028BB0EE408A18EE00
:10386000100A01EB4001B1F1145F5CD24FF0FE4150
:10387000B1EB400F24BF9FED400AF0EE400A12D298
:1038800010F0004F19BFDFED3D0A9FED3D0ADFED5F
:103890003D0A9FED3D0AFFEE001A81EE881AB0EE58
:1038A000418A18EE100A4FF0FC41B1EB400F1BD2D9
:1038B00010F0004FDFED351A9FED352A1DBFBEEE2B
:1038C000001A70EEE10A30EE420AB6EE001A04BFAA
:1038D00070EEA10A30EE020A38EE412AF7EE001A25
:1038E00048EE011A82EE218ADFED2A1A9FED2A2A7C
:1038F00028EE081A01EE212ADFED281A41EE021AFD
:103900009FED272A01EE212ADFED261A41EE021A49
:1039100028EE011A01EE210A30EE080ABDEC028BF6
:1039200030EE200A10BD4FF0E441B1EB400F0CD94E
:1039300018EE100AFFF778FF042808BF00F03CF8E3
:10394000B0EE480ABDEC028B10BD4FF07F41B1EBE9
:10395000400F07D2B0EE480ABDEC028BBDE8104024
:1039600000F026B810F0004F14BF9FED0F0A9FED36
:103970000F0ABDEC028B10BD000000000000C9BFA3
:1039800022AAFDB90000C93F22AAFD390060ED3E20
:10399000C30ACE372DAD65BD8FB8D53D0FB511BE6D
:1039A00061C84C3EA8AAAABEDB0FC9BFDB0FC93F46
:1039B00030EE000A704700009FED020A20EE000A78
:1039C000704700000000001002E008C8121F08C184
:1039D000002AFAD170477047002001E001C1121F90
:1039E000002AFBD1704700002DE9FF5F82B0002163
:1039F000DDE90430020DDDF840B0034318D044F691
:103A00001050A2F2FF3242431514119801281FD022
:103A1000A5EB0B00401C5FEA000A4FF000064E4F7A
:103A2000DFF83891B046504615D5CAF1000413E0CE
:103A3000119801244AA3012801D16FEA0B010298D1
:103A4000119AC0E90031C0E9024206B0BDE8F09F1A
:103A5000CBF10000DFE704460021404A491842EB61
:103A60000450CDE9001012E0E00707D032463B4693
:103A700040464946FCF7C8FC8046894632463B46EC
:103A800010461946FCF7C0FC06460F466410002C91
:103A9000EAD1DDE90401DDE90023BAF1000F06DA1D
:103AA000FCF7B2FC42464B46FCF7AEFC05E0FCF7E7
:103AB0001DFD42464B46FCF719FD04460E4600220A
:103AC000284BFCF7CDFD03D84FF0FF30014607E04F
:103AD0000022254B20463146FCF7EFFBFCF700FFA8
:103AE000102409E0002C0ADB0A220023FCF702FE66
:103AF000039B30321A55641E50EA0102F2D1641C55
:103B0000039AC4F111031444119A012A03D001222B
:103B100008430DD10AE0084304D000204FF0110BF8
:103B2000119072E7A3EB0B056D1E0DE05B4504DD04
:103B30004FF0000205F1010504E003DA4FF0000246
:103B4000A5F10105002AECD002981199C0E90231D3
:103B5000C0E9004579E70000000014400000F03F94
:103B6000300000000000F0430000E03F2DE9FF4F6F
:103B700095B09B468946064600250FE2252877D159
:103B800000242746F84A0121059400E0044316F872
:103B9000013F203B01FA03F01042F7D130782A2888
:103BA00011D06FF02F033078A0F13002092A16D817
:103BB000059A44F0020402EB820203EB4202104435
:103BC000761C0590EFE759F8042B0592002A03DADA
:103BD000504244F40054059044F00204761C3078BE
:103BE0002E2816D116F8010F44F004042A280DD00F
:103BF0006FF02F023078A0F13003092B09D807EBC2
:103C0000870302EB4303C718761CF3E759F8047BDC
:103C1000761C30786C280FD006DC4C2817D068282A
:103C20000DD06A2814D104E0742810D07A280FD15E
:103C30000DE044F400140AE044F4801401E044F47C
:103C400040147278824202D104F58014761C761CEE
:103C5000307866280BD013DC582877D009DC002890
:103C600075D04528F6D04628F4D047281AD19DE1D2
:103C700018E0632835D0642879D0652812D195E101
:103C8000702873D008DC6728F1D069286FD06E28BF
:103C90000DD06F2806D1B5E073282CD0752875D0CB
:103CA000782874D05A46179990476D1C75E1C4F373
:103CB0000250022809D003280DD0D9F8001004289A
:103CC0000DD00D6009F1040967E1D9F80010EA1779
:103CD000C1E90052F6E7D9F800100D80F2E70D7047
:103CE000F0E719F8041B8DF8001000208DF8010092
:103CF000EA46012003E059F804AB4FF0FF306107BA
:103D00004FF0000102D40DE008F101018846B942EC
:103D10000FDA8045F8DB1AF808100029F4D108E022
:103D200008F1010188468142FADB1AF808100029DF
:103D3000F6D105985B46A0EB080721463846179A4E
:103D400000F094FA284400EB080507E04DE029E173
:103D50000DE01AF8010B5A4617999047B8F101087F
:103D6000F7D25B4621463846179A13E142E00A2211
:103D70000092C4F302524FF0000A022A08D059F808
:103D800004CB032A4FEAEC710AD00DE029E02AE0C7
:103D900009F1070121F00702F2E802C1914609E0AA
:103DA0000FFA8CFC4FEAEC71042A03D14FFA8CFC19
:103DB0004FEAEC71002907DA0A460021DCF1000C19
:103DC00061EB02012D2202E0220504D52B228DF8A1
:103DD0000420012203E0E20701D02022F7E7904609
:103DE00059E00A2102E010220DE010214FF0000AF4
:103DF00000910BE010224FF0000A44F00404082761
:103E0000009203E008224FF0000A0092C4F302522D
:103E1000022A05D059F804CB0021032A08D009E072
:103E200009F1070121F00702F2E802C1914605E01D
:103E30001FFA8CFC042A01D10CF0FF0C4FF0000893
:103E4000220728D5702806D0009B83F0100353EA80
:103E50000A0305D00EE040228DF80420012208E07C
:103E60005CEA010206D030228DF804208DF80500AE
:103E700002229046009B83F0080353EA0A030AD10A
:103E80005CEA010201D1620705D530228DF80420D9
:103E90004FF001087F1E582804D034A003900EA8CC
:103EA00002900DE036A0F9E753466046009AFCF711
:103EB00021FC84460398825C0298401E02900270A6
:103EC0005CEA0100F0D1029806A9081A00F1200A64
:103ED000600702D524F4803400E00127574502DD55
:103EE000A7EB0A0000E0002000EB0A010090059813
:103EF0004144401A0590E00306D45B462146179AD8
:103F0000059800F0B3F90544002706E001A85A46D9
:103F1000C05D179990476D1C7F1C4745F6DBE00399
:103F20000CD55B462146179A059800F09FF9054489
:103F300004E030205A46179990476D1C0099481E9E
:103F400000900029F5DC08E0029802995A460078B2
:103F5000491C0291179990476D1CBAF10001AAF112
:103F6000010AF1DC65E1000009280100303132333B
:103F700034353637383961626364656600000000A5
:103F8000303132333435363738394142434445468F
:103F90000000000000F058F90544761C3078002835
:103FA0007FF4ECAD19B02846BDE8F08F620700D46D
:103FB000062709F1070222F0070CFCE80223E1467C
:103FC00003F000485FEA080C02D00FF2702C0DE0FD
:103FD0005FEA045C02D50FF2682C07E05FEAC47C5C
:103FE00002D00FF2602C01E0AFF2700C4FF0FF38FE
:103FF00023F00043CDF850C065280CD006DC4528DE
:1040000009D046281DD047283DD13DE0662818D06C
:1040100067287ED138E00021112F01DB112000E05C
:10402000781CCDE9000106A90EA8FFF7DDFCDDE94B
:104030000F010E9A03910021009207F1010A0491E9
:104040004DE04FF000400097CDE9011006A90EA801
:10405000FFF7CAFCDDE90F0203920E9B11990022C3
:10406000DDF80CA00093049211B9791C00EB010A51
:10407000B7EB0A0004D4C0F1FF3007F1010A049045
:10408000AAEB0700019044E0012F00DA012700218C
:10409000112F01DD112000E03846CDE9000106A90D
:1040A0000EA8FFF7A1FCDDE90F010E9A0391002194
:1040B00004910092BA4621070CD40399514500DAC5
:1040C0008A46BAF1010F05DD009AAAF10101515C9F
:1040D000302908D0B84202DA10F1040F06DA0121C3
:1040E000CDE9011015E0AAF10101E9E7002805DC9E
:1040F000049901440491AAEB000102E0411C5145DE
:1041000000DD8A460499401A401C01904FF000409F
:104110000290200704D40198504501DBCDF80480BB
:1041200000208DF84F0002980DF14F07B0F1004FBD
:1041300025D02B200E9002984FF0020800280CDAB0
:10414000404202902D200E9007E00A210298FCF7D1
:10415000BBFA3031029007F8011DB8F10001A8F157
:104160000108F2DC02980028EFD1791E0E98087041
:10417000307800F0200040F0450007F8020D12A84A
:10418000C01B00F107081498007800B1012000EB73
:104190000A01019801EBE07105984144401A401E64
:1041A0000590E00306D45B462146179A059800F077
:1041B0005DF805441498007818B15A46179990474D
:1041C0006D1CE00324D55B462146179A059800F044
:1041D0004DF805441CE00498002807DBDDE90301E5
:1041E000884203DD0098405C179901E01799302060
:1041F0005A469047049805F10105401C0490019827
:10420000401E019004D12E205A46179990476D1CEC
:10421000BAF10001AAF1010ADDDC05E017F8010B93
:104220005A46179990476D1CB8F10001A8F1010892
:10423000F4DC5B462146179A0598ABE62D0000009A
:104240002B000000200000002DE9F041044600256D
:104250001E461746880404D405E039462020B0479E
:104260006D1C641EF9D52846BDE8F0812DE9F041AA
:10427000044600251E469046C80301D5302700E0BD
:104280002027880404D505E041463846B0476D1C18
:10429000641EF9D52846BDE8F0810A68531C0B60FE
:1042A0001070704770B52DED068BB0EE408AF0EEC1
:1042B000608AB0EE419A04460D46B0EE490AFBF71B
:1042C000BBFFF0EE409AB0EE490AFBF779FFB0EE83
:1042D00040AA28EE0A0A08EEA90A84ED000A28EE90
:1042E0008A0A08EE690A85ED000ABDEC068B70BDEE
:1042F0000146B5EEC00AF1EE10FA05DBF1EEC00A98
:10430000C1ED000A00207047DFED030AC1ED000A8D
:104310004FF0FF30F7E700000000000010B5DFEDC0
:10432000350A9FED350A354800F0E7FDDFED310A2B
:104330009FED310A324800F0E0FD9FED321ADFEDCB
:10434000310A9FED2D0A304800F062FC9FED2F1AD4
:10435000DFED2F0AB6EE000A2E4800F037FB9FED86
:104360002B1ADFED2D0A9FED2D0A2D4800F02EFBB4
:104370009FED261ADFED2B0A9FED2B0A2B4800F04C
:1043800025FB9FED221ADFED2A0A9FED2A0A2A4813
:1043900000F01CFB9FED1D1ADFED280A9FED280A97
:1043A000284800F013FB9FED191ADFED270A9FED57
:1043B000270A274800F00AFB4FF44070FDF7F6FE8D
:1043C000A82000F0E5F9FCF7E1FAFEF7A1FAFCF706
:1043D000F7FCFCF7DFFBFEF709F81E4800F0EEFFE4
:1043E000FEF72CFCFEF704FDFEF70CFFFDF7E8FEE0
:1043F00010BD000063149D436F12033A14050020A2
:104400006C0500200000C842C40500200000000028
:1044100017B7D138540400205839B43CC442AD3DDC
:10442000740400200AD7A33DCDCC4C3F9404002057
:1044300082A87B39C364AA3BB4040020E02D103B62
:104440006F12833CD40400206F12833BA69B443B35
:10445000F404002080841E0010B52DED028BB448BA
:10446000007870BBB34890ED000ADFEDB30A80EE30
:10447000201AB0EE418AB14890ED000ADFEDB00A93
:1044800060EE200A9FEDAC1A80EE810AAD48D0EDB7
:10449000000A30EE200AF0EE408AB0EE082AF8EE6C
:1044A000081AA94890ED001AF0EE480AA74800F053
:1044B000ABFAA548D0ED000A30EEC00A80ED000A44
:1044C00044E0FFE79A48007801282AD1A04890EDFF
:1044D000000AB5EEC00AF1EE10FA04D89FED9D0A6D
:1044E00080ED000A0DE09A4890ED000AF0EE000A17
:1044F000B4EEE00AF1EE10FA03DBB0EE000A80ED54
:10450000000A954890ED000AFFEE000A20EE200A0E
:104510008F48D0ED000A20EE200A8B4880ED000A7B
:1045200014E083480078022810D1B7EE000A8848CA
:1045300080ED000A894890ED000AB1EE400ADFEDF7
:104540007E0A20EE200A804880ED000A9FED810A55
:10455000834880ED000A7C4890ED000AF0EE080ADE
:10456000B4EEE00AF1EE10FA04DDB0EE080A80EDD8
:10457000000A0DE0744890ED000AF8EE080AB4EE67
:10458000E00AF1EE10FA03D2B8EE080A80ED000A54
:10459000744890ED002A90ED000AF1EE401A72483E
:1045A00090ED001A7148D0ED000A674890ED000ABE
:1045B0006F4800F029FA6C48D0ED000A30EE200A6E
:1045C00080ED000A674890ED002A90ED000AF1EEB8
:1045D000401A684890ED001A6748D0ED000A60481C
:1045E00090ED000A654800F00FFA6248D0ED000A2D
:1045F00030EE200A80ED000A5B4890ED000A594831
:10460000D0ED000AB4EEE00AF1EE10FA05DD90ED0F
:10461000000A554880ED000A13E0534890ED000A67
:104620005048D0ED000AF1EE600AB4EEE00AF1EE77
:1046300010FA06D290ED000AB1EE400A4A4880ED29
:10464000000A4C4890ED000A4648D0ED000AB4EE4E
:10465000E00AF1EE10FA05DD90ED000A454880ED24
:10466000000A11E0434890ED000A3E48D0ED000AF0
:10467000F1EE600AB4EEE00AF1EE10FA04D290ED29
:10468000000A3C4880ED000A3D493E483E4A92ED12
:10469000001A384AD2ED000A334A92ED000A00F0BF
:1046A000FDF8384890ED000A2E48D0ED000AB4EE2F
:1046B000E00AF1EE10FA05DD90ED000A314880EDD8
:1046C000000A13E02F4890ED000A2648D0ED000ABA
:1046D000F1EE600AB4EEE00AF1EE10FA06D290EDC7
:1046E000000AB1EE400A274880ED000A2548D0EDC7
:1046F000000A60EEA00A224890ED001AD0ED001AE0
:10470000B0EE600A01EE210AB5EEC00AF1EE10FA31
:1047100005DBF1EEC00A1D48C0ED000A05E0DFED43
:104720000D0A1A48C0ED000A00BFBDEC028B10BD97
:104730000400002084000020F304B53F880000201E
:10474000FB3A703E70000020C80000205404002096
:1047500034000020000000006C00002074000020E5
:10476000CC000020C8020020D8000020B8000020A3
:1047700074040020DC000020BC0000209404002011
:10478000EC000020E8000020C4000020F800002019
:1047900010B504466FF00400FEF706FAE11704EBCB
:1047A0005171C1F3C701074A11701046007800EB40
:1047B0004001C1EBC0104FF6FF7101EAC000024991
:1047C000088010BDD0020020D202002070B504463F
:1047D0004FF4077094FBF0F0C6B24FF4077094FBEF
:1047E000F0F100FB114085B205E04FF4077000F0D6
:1047F0002FF8701EC6B2002EF7D115B1284600F072
:1048000027F870BD0146114A12784A434FF0E02361
:104810005A6100229A611A46126942F001021A6135
:1048200000BF4FF0E022106900F001021AB100F45D
:104830008032002AF5D04FF0E022126922F0010206
:104840004FF0E0231A6100229A617047D0020020E5
:104850000146114A12884A434FF0E0235A61002270
:104860009A611A46126942F001021A6100BF4FF0C4
:10487000E022106900F001021AB100F48032002A2F
:10488000F5D04FF0E022126922F001024FF0E02350
:104890001A6100229A617047D202002070B52DED96
:1048A000068BB0EE408AF0EE608AB0EE419A044684
:1048B0000D46B0EE490AFBF7BFFCF0EE409AB0EEB1
:1048C000490AFBF77DFCB0EE40AA28EE0A0A08EE82
:1048D000E90A84ED000A28EE8A0A08EE290A85ED25
:1048E000000ABDEC068B70BDFFF718FD00BFFEE7A8
:1048F0000FB42DE9F84300279DF8200008285BD26B
:10490000DFE800F004070A1B2F41474DFDF7EEFEDC
:1049100053E0FDF755FC50E009AC2668D4F804805C
:10492000A56808232A460FFA88F130B2FDF7C6FEC3
:104930002846FBF7BBFC07463FE009AC25686668E4
:10494000D4F80890D4F80C80A8EB0600401CC3B241
:10495000A9EB0500401CC2B231B228B2FDF794FDAC
:104960002BE009AC25686668D4F80880D4F80C9070
:10497000002009F0FF0308F0FF0231B2009028B2D6
:10498000FDF7A2FC19E010480078532800D1012758
:1049900013E00D480078422800D101270DE00A48B5
:1049A00000784E2801D1012705E007480078462805
:1049B00001D14FF0FF3700E000BF00BF3846BDE82F
:1049C000F8035DF814FB000005000020DFED0D1A70
:1049D000C0ED001ADFED0B1AC0ED011ADFED091A68
:1049E000C0ED021ADFED071AC0ED031ADFED051A5C
:1049F000C0ED041A80ED050AC0ED060A80ED071A25
:104A00007047000000000000F0EE402AC0ED002AD0
:104A1000C0ED010A90ED003AD0ED013A33EE633A71
:104A200080ED023A90ED023AB5EEC03AF1EE10FA9E
:104A300008DB90ED023ADFED323AB4EEE33AF1EE04
:104A400010FA0FD990ED023AB5EEC03AF1EE10FA35
:104A500010D890ED023ADFED2B3AB4EEE33AF1EEE6
:104A600010FA07DB9FED283A80ED023A9FED263AD7
:104A700080ED033A90ED023AD0ED033A33EE633A1B
:104A8000D0ED053A23EE233AD0ED063A90ED024AF6
:104A900003EE843AD0ED023A90ED034AF0EE004A7C
:104AA00044EEC43A90ED044A73EE843A90ED074A1E
:104AB000B0EE430A04EE230A31EE003AB4EEC23AF5
:104AC000F1EE10FA06DA31EE003AB4EEE13AF1EE28
:104AD00010FA0BD890ED023AD0ED033A33EE633A78
:104AE000D0ED053A23EE233AB0EE430A90ED033AB7
:104AF00080ED043A90ED023A80ED033A70470000F1
:104B00000AD7A33C0AD7A3BC00000000D0ED130ACB
:104B1000C0ED140AD0ED120AC0ED130A80ED120A9E
:104B2000D0ED100AC0ED110AD0ED090A90ED121A6D
:104B300060EE810A90ED0A1AD0ED131A41EE210AB7
:104B400090ED0B1AD0ED111A41EE610A90ED0C1A9E
:104B5000C0EE811AC0ED101AD0ED0E0AC0ED0F0A9A
:104B6000D0ED0D0AC0ED0E0AD0ED080A90ED121A34
:104B700060EE810A90ED071AD0ED131A41EE210A7A
:104B800090ED061AD0ED141A41EE210A90ED041AA8
:104B9000D0ED0E1A41EE610A90ED031AD0ED0F1A16
:104BA00041EE610A90ED051AC0EE811AC0ED0D1AB2
:104BB000D0ED0D0A9FED151AF4EEC10AF1EE10FAD0
:104BC00008DDD0ED0D0A9FED111A70EEC10AC0ED9F
:104BD0000D0A0EE0D0ED0D0AF5EEC00AF1EE10FA66
:104BE00007D8D0ED0D0A9FED091A70EE810AC0EDCD
:104BF0000D0AD0ED0D0AC2ED000AD0ED100AB0EE9C
:104C0000001AC0EE811AC1ED001A7047DB0FC940CF
:104C100080ED000AC0ED010A80ED021AF1EE001AE3
:104C2000C0ED031AFAEE001AC0ED041AF1EE001AF4
:104C3000C0ED051AD0ED021A90ED002A61EE821A3D
:104C400090ED002A61EE821A90ED012AF0EE002A22
:104C500022EE222AD0ED002A42EE621AC0ED061A98
:104C6000D0ED021AB0EE002A61EE821A90ED002A11
:104C700061EE821A90ED002A61EE821AC0ED071AE9
:104C8000D0ED011AB0EE002A61EE821A90ED002AF2
:104C900061EE821A90ED002A22EE022AD0ED022A5D
:104CA00042EE221AC0ED081AD0ED001A90ED022A49
:104CB00061EE821A90ED012AF0EE002A42EE821A8D
:104CC000C0ED091AD0ED001A90ED022A61EE821AA9
:104CD00090ED012AF0EE002A42EEC21AC0ED0A1A47
:104CE000F8EE001AC0ED0B1AF0EE001AC0ED0C1A27
:104CF000DFED101AC0ED0D1ADFED0E1AC0ED0E1A21
:104D0000DFED0C1AC0ED0F1ADFED0B1AC0ED101A13
:104D1000DFED091AC0ED111ADFED061AC0ED121A07
:104D2000DFED041AC0ED131ADFED021AC0ED141AFC
:104D3000704700000000000063149D4310B529482F
:104D400090ED000ADFED280AB4EEE00AF1EE10FA69
:104D500009DC264890ED000ADFED250AB4EEE00AF2
:104D6000F1EE10FA3ADD00F081FA002021490870D6
:104D70009FED211ADFED210AB6EE000A2048FFF769
:104D800025FE9FED1D1ADFED1F0A9FED1F0A1F482C
:104D9000FFF71CFE9FED181ADFED1D0A9FED1D0A9F
:104DA0001D48FFF713FE9FED141ADFED1C0A9FED5F
:104DB0001C0A1C48FFF70AFE9FED0F1ADFED1A0AC6
:104DC0009FED1A0A1A48FFF701FE9FED0B1ADFED5F
:104DD000190A9FED190A1948FFF7F8FD00BF00BF37
:104DE00010BD000084000020000034428800002034
:104DF000A60ABE40030000200000000017B7D1380B
:104E0000540400205839B43CC442AD3D7404002021
:104E10000AD7A33DCDCC4C3F9404002082A87B3917
:104E2000C364AA3BB4040020E02D103B6F12833C06
:104E3000D40400206F12833BA69B443BF404002063
:104E4000D0ED070AC0ED080AD0ED060AC0ED070A4A
:104E500080ED060AD0ED010AC0ED020AD0ED000A8D
:104E6000C0ED010AD0ED0F0A90ED061A60EE810A3E
:104E700090ED101AD0ED081A41EE210A90ED111AAA
:104E8000D0ED011A41EE210A90ED121AD0ED021A6E
:104E900041EE210AC0ED000AD0ED040AC0ED050A7A
:104EA000D0ED030AC0ED040AD0ED130A90ED061A06
:104EB00060EE810A90ED141AD0ED071A41EE210A36
:104EC00090ED151AD0ED081A41EE210A90ED111A55
:104ED000D0ED041A41EE210A90ED121AD0ED051A18
:104EE00041EE210AC0ED030AD0ED000AC1ED000A2F
:104EF000D0ED030AC2ED000A704780ED0B0AB6EE52
:104F0000001A80ED0A1AC0ED090A90ED0A1AF0EEB7
:104F1000001A21EE211AD0ED091A21EE211AD0ED46
:104F20000B1A21EE211A80ED0C1A90ED091AD0ED22
:104F30000B1A21EE211AD0ED091A21EE211AD0ED1B
:104F40000B1A21EE211A80ED0D1A90ED0C1AD0EDFE
:104F50000D1A31EE211AF1EE001A31EE211AF7EE98
:104F6000001A81EE812A80ED0E2A90ED0C1AD0ED08
:104F70000E1A21EE211A80ED0F1A90ED0F1AFFEE96
:104F8000001A21EE211A80ED101A90ED0D1AF1EEA3
:104F9000001A31EEC11AF0EE001A21EE211AD0EDFE
:104FA0000E1A21EE211A80ED111A90ED0C1AD0ED97
:104FB0000D1A31EE611AF1EE001A31EE611AD0EDE0
:104FC0000E1A21EE211A80ED121A90ED0A1AD0ED78
:104FD0000D1A21EE211AD0ED0E1A21EE211A80EDC4
:104FE000131A90ED131AF0EE001A21EE211A80ED3B
:104FF000141A90ED131A80ED151A704780ED090A06
:10500000D0ED0A0AB0EE001A60EE810A90ED091A9E
:1050100060EE810A90ED0B1A60EE810AC0ED0C0A79
:10502000D0ED090A90ED0B1A60EE810A90ED091A95
:1050300060EE810A90ED0B1A60EE810AC0ED0D0A58
:10504000D0ED0C0A90ED0D1A70EE810AB1EE001A47
:1050500070EE810AB7EE001AC1EE201AC0ED0E1AEA
:10506000D0ED0C0A90ED0E1A60EE810AC0ED0F0A29
:10507000D0ED0F0ABFEE001A60EE810AC0ED100AF3
:10508000D0ED0D0AB1EE001A71EE600AB0EE001A12
:1050900060EE810A90ED0E1A60EE810AC0ED110AF1
:1050A000D0ED0C0A90ED0D1A70EEC10AB1EE001AA7
:1050B00070EEC10A90ED0E1A60EE810AC0ED120A80
:1050C000D0ED0A0A90ED0D1A60EE810A90ED0E1AED
:1050D00060EE810AC0ED130AD0ED130AB0EE001A9B
:1050E00060EE810AC0ED140AD0ED130AC0ED150A76
:1050F0007047000041F2680052490860084690ED90
:10510000000AB8EE400ADFED500A20EE200A4F48B0
:1051100080ED000A084690ED000AB8EE400ADFED87
:105120004C0A20EE200A4B4880ED000A084690ED1C
:10513000000AB8EE400A4848D0ED000A474890ED12
:10514000001A00EE810AF0EE000A80EE201ABCEE92
:10515000C10A434880ED000A084690ED000AB8EE07
:10516000400A3D48D0ED000A3C4890ED001A00EEA0
:10517000C10AF0EE000A80EE201ABCEEC10A3948DE
:1051800080ED000A364890ED000AB8EE400A2F483C
:10519000D0ED000AB4EEE00AF1EE10FA08DD90ED71
:1051A000000ABCEEC00A10EE100A2F49486348E01E
:1051B0002B4890ED000AB8EE400A2648D0ED000AD0
:1051C000B4EEE00AF1EE10FA08D290ED000ABCEE5F
:1051D000C00A10EE100A2449486332E0214890EDDD
:1051E000000AB8EE400A1948D0ED000AB4EEE00A11
:1051F000F1EE10FA08DD90ED000ABCEEC00A10EEE8
:10520000100A194988631CE0164890ED000AB8EEB0
:10521000400A1048D0ED000AB4EEE00AF1EE10FAB0
:1052200008D290ED000ABCEEC00A10EE100A0E493A
:10523000886306E00A4800680B494863094800682B
:1052400088637047BC0200203333733FC8020020DC
:10525000CDCC4C3DCC020020E8000020B80200205C
:10526000C0020020C40200200000014010B54FF42D
:1052700080513848FBF7C4FE4FF480413548FBF7B6
:10528000BFFE01213348FBF7BBFE3348008C20F002
:105290000500314908840846008C20F0500008843D
:1052A0000846008C20F4A06008849FED2C1ADFEDE6
:1052B0002C0AB6EE000A2B48FFF788FB9FED271A51
:1052C000DFED290A9FED290A2948FFF77FFB9FEDB3
:1052D000231ADFED280A9FED280A2848FFF776FBFE
:1052E0009FED1E1ADFED260A9FED260A2648FFF7DE
:1052F0006DFB9FED1A1ADFED250A9FED250A254863
:10530000FFF764FB9FED151ADFED230A9FED230ADB
:105310002348FFF75BFB9FED110A224880ED000A4E
:105320009FED0E0A204880ED000A9FED0C0A1F48F1
:1053300080ED000A9FED090A1D4880ED000A9FEDEF
:10534000070A1C4880ED000A9FED040A1A4880ED08
:10535000000A10BD000C02400000014000000000E7
:1053600017B7D138540400205839B43CC442AD3D7D
:10537000740400200AD7A33DCDCC4C3F94040020F8
:1053800082A87B39C364AA3BB4040020E02D103B03
:105390006F12833CD40400206F12833BA69B443BD6
:1053A000F4040020C8000020CC000020D800002019
:1053B000DC000020E8000020EC00002010B588B0E0
:1053C000044601210846FDF7EFF901211020FDF701
:1053D0001BFA072209212248FBF7E4FD07220A21D4
:1053E0001F48FBF7DFFD4FF4C060069002208DF8E8
:1053F0001C008DF81D0000208DF81E0001208DF886
:105400001F0006A91648FBF785FD02940020ADF8A1
:105410000C00ADF80E00ADF81000ADF814000C2033
:10542000ADF8120002A90F48FEF746F901210D4818
:10543000FEF7DAF8012240F225510A48FEF717F983
:1054400025208DF8040003208DF805008DF8060056
:1054500001208DF8070001A8FCF76CFE08B010BD14
:105460000000024000100140AFFA0000807F000001
:10547000000000000000000000000000000000002C
:1054800000F80000000000000033300000000016AB
:105490000E00160E0000000000000000000040C0DA
:1054A0007840C0784000043F04043F0404000070CA
:1054B00088FC08300000001820FF211E0000F008C2
:1054C000F000E018000000211C031E211E0000F067
:1054D0000888700000001E212324192721100000D5
:1054E00000160E0000000000000000000000000098
:1054F00000E018040200000000071820400000022D
:105500000418E000000000402018070000004040A0
:1055100080F0804040000202010F01020200000002
:1055200000F0000000000101011F01010100000066
:1055300000000000000000B070000000000000004B
:105540000000000000000001010101010101000054
:1055500000000000000000303000000000000000EB
:10556000000080601804006018060100000000E0E0
:1055700010080810E000000F102020100F0000108D
:1055800010F8000000000020203F202000000070E4
:1055900008080888700000302824222130000030DC
:1055A0000888884830000018202020110E000000D4
:1055B000C02010F8000000070424243F240000F855
:1055C0000888880808000019212020110E0000E03A
:1055D000108888180000000F112020110E000038DC
:1055E0000808C83808000000003F000000000070F4
:1055F000880808887000001C222121221C0000E07D
:1056000010080810E0000000312222110F000000F5
:1056100000C0C000000000000030300000000000AA
:1056200000C0C0000000000080B07000000000005A
:1056300080402010080000010204081020004040B3
:1056400040404040400004040404040404000008F6
:1056500010204080000000201008040201000070AB
:1056600048080808F0000000003036010000C03093
:10567000C828E810E0000718272423140B000000B6
:10568000C038E0000000203C23020227382008F840
:10569000888888700000203F202020110E00C03034
:1056A000080808083800071820202010080008F80B
:1056B00008080810E000203F202020100F0008F804
:1056C0008888E8081000203F20202320180008F8D0
:1056D0008888E8081000203F200003000000C03048
:1056E00008080838000007182020221E020008F8C9
:1056F00008000008F808203F210101213F20000890
:1057000008F8080800000020203F202000000000CA
:105710000808F8080800C08080807F00000008F8B2
:1057200088C028180800203F20012638200008F8EB
:10573000080000000000203F20202020300008F852
:10574000F800F8F80800203F003F003F200008F86C
:1057500030C00008F808203F200007183F00E01084
:1057600008080810E0000F10202020100F0008F893
:1057700008080808F000203F210101010000E010A6
:1057800008080810E0000F18242438504F0008F8CB
:10579000888888887000203F2000030C302000702B
:1057A0008808080838000038202121221C00180829
:1057B00008F8080818000000203F2000000008F842
:1057C00008000008F808001F202020201F0008788B
:1057D000880000C83808000007380E010000F808EB
:1057E00000F80008F800033C0700073C0300081815
:1057F00068808068180820302C03032C302008387B
:10580000C800C83808000000203F20000000100831
:105810000808C83808002038262120201800000079
:1058200000FE020202000000007F40404000000C29
:1058300030C000000000000000010638C000000277
:105840000202FE000000004040407F0000000020F7
:1058500010080408102000000000000000000000F4
:105860000000000000008080808080808080000236
:10587000040800000000000000000000000000001C
:105880008080808000000019242222223F2008F816
:10589000008080000000003F112020110E00000059
:1058A000008080800000000E1120202011000000E8
:1058B00000808088F800000E112020103F2000009A
:1058C000808080800000001F22222222130000809E
:1058D00080F0888888180020203F202000000000E9
:1058E000808080808000006B94949493600008F81E
:1058F000008080800000203F210000203F200080A9
:105900009898000000000020203F202000000000A8
:1059100000809898000000C08080807F000008F818
:10592000000080808000203F24022D3020000008ED
:1059300008F8000000000020203F202000008080A8
:10594000808080808000203F20003F20003F00803A
:1059500080008080000000203F2100203F200000C8
:10596000808080800000001F202020201F00808079
:1059700000808000000080FFA12020110E000000A8
:10598000008080808000000E112020A0FF80808099
:1059900080008080800020203F2120000100000046
:1059A000808080808000003324242424190000801B
:1059B00080E0808000000000001F20200000808028
:1059C000000000808000001F202020103F208080E9
:1059D00080000080808000010E3008060100808079
:1059E0000080008080800F300C030C300F0000809E
:1059F0008000808080000020312E0E3120008080C9
:105A000080000080808080818E70180601000080F8
:105A10008080808080000021302C22213000000016
:105A20000000807C020200000000003F40400000B7
:105A30000000FF00000000000000FF000000000266
:105A4000027C800000000040403F00000000008019
:105A500040408000008000000000000101000000C4
:105A6000000000000000002F0000000007000700F9
:105A700000147F147F1400242A7F2A1200231308A5
:105A80006462003649552250000000070000000003
:105A90001C224100000041221C000014083E081492
:105AA0000008083E0808000000A060000008080880
:105AB0000808000060600000002010080402003E9A
:105AC0005149453E0000427F400000426151494635
:105AD000002141454B31001814127F100027454525
