:020000040800F2
:10000000680B00209D010008230900081B09000857
:100010001F0900087D030008D71D0008000000002C
:10002000000000000000000000000000E1110008D6
:100030003504000800000000750E000839130008A0
:10004000B7010008B7010008B7010008B7010008B0
:10005000B7010008B7010008B7010008B7010008A0
:10006000B7010008B701000837040008B70100080D
:10007000B7010008B7010008B7010008B701000880
:10008000B7010008B7010008B7010008B701000870
:10009000B7010008B7010008B701000851040008C3
:1000A000B7010008B7010008B7010008B701000850
:1000B0008915000861180008B7010008B701000899
:1000C000B7010008B7010008B7010008B701000830
:1000D000B7010008991B0008B7010008B701000824
:1000E000B7010008B7010008B7010008B701000810
:1000F000B7010008B7010008B7010008B701000800
:10010000B7010008B7010008B7010008B7010008EF
:10011000B7010008B7010008B7010008B7010008DF
:10012000B7010008B7010008B7010008B7010008CF
:10013000B7010008B7010008B7010008B7010008BF
:10014000B7010008B7010008B7010008B7010008AF
:10015000B7010008B7010008B7010008B70100089F
:10016000B7010008B7010008B7010008B70100088F
:10017000B7010008B7010008B7010008B70100087F
:10018000B7010008B7010008DFF80CD000F018F83C
:100190000048004705210008680B002006488047FA
:1001A00006480047FEE7FEE7FEE7FEE7FEE7FEE75C
:1001B000FEE7FEE7FEE7FEE73D13000889010008C1
:1001C000064C074D06E0E06840F0010394E80700A4
:1001D00098471034AC42F6D3FFF7DAFF202D000821
:1001E000402D000810B500F031FA2021094800F038
:1001F0008DFB012001F04EFE4FF48071064800F0A7
:1002000085FB00F097F8012001F044FE00F0A6F80D
:1002100010BD0000000402400008024010B5314843
:1002200000F06CF800205AE02E4931F81010B1F5BA
:10023000004F14DA2B4931F8101000EE101AB8EE06
:10024000400AF2EE040A20EE200ADFED270A80EED3
:10025000201A264901EB800181ED001A1FE0214997
:1002600031F81010C943491C1E4A22F810101146DB
:1002700031F8101000EE101AB8EE400AF2EE040A3F
:1002800020EE200AFFEE000A20EE200ADFED160A1B
:1002900080EE201A154901EB800181ED001A134907
:1002A00001EB800191ED000A114901EB8001D1EDD4
:1002B000000A70EE600A0F4901EB800191ED001A0F
:1002C00080EE810A0C4901EB8001D1ED000A30EE8D
:1002D000200A064901EB800181ED000A401C082834
:1002E000A2DB10BDB001002000000047C0010020CB
:1002F00060020020240000208002002070B5054626
:100300004FF480710A4800F0FFFA002405E0FF2056
:1003100000F014FF25F81400641C082CF7DB4FF4E0
:100320008071034800F0F2FA00F018F870BD000088
:100330000008024010B50121074800F0E5FA01214C
:10034000054800F0E3FA012001F0C0FD0121024858
:1003500000F0DAFA10BD00000004024010B52021C0
:10036000054800F0D1FA012001F0B0FD202102483B
:1003700000F0CCFA10BD00000004024000BFFEE710
:1003800010B50020064908710220487101208871CB
:100390000220C8713C200860024800F041FA10BDFC
:1003A000B40000200010024010B501200E49087171
:1003B00002204871002088710120C8713C2008602B
:1003C0000A4800F02DFA0421084800F09FFA08219D
:1003D000064800F09BFA1021044800F097FA20210B
:1003E000024800F093FA10BDB40000200010024053
:1003F0000020084908700849087008490870084931
:1004000008700849087008490870084908700849C8
:1004100008707047AC000020AD000020AE00002046
:10042000AF000020B0000020B1000020B20000208A
:10043000B3000020704710B5102000F0B1F801287B
:1004400002D1022000F08CF8102000F083F810BDDB
:1004500010B5202000F0A4F8012806D1032000F0F8
:100460007FF8202000F076F810BD802000F098F88A
:10047000012805D100F074F8802000F06BF8F3E754
:100480004FF4807000F08CF8012807D1002000F0B4
:1004900067F84FF4807000F05DF8E5E700BFE3E730
:1004A0000EB50121880300F017FD0721012000F09F
:1004B00099FE0821012000F095FE0521084600F074
:1004C00091FE0421022000F08DFE102000900020FB
:1004D0008DF8040008208DF8050001208DF8060035
:1004E000684600F069F8A020009000208DF8040014
:1004F0000C208DF8050001208DF80600684600F0FC
:100500005BF84FF48070009008208DF80500684675
:1005100000F052F80A208DF8080000208DF809003C
:1005200002208DF80A0001208DF80B0002A800F0CF
:10053000F9F917208DF8080001208DF80900022034
:100540008DF80A0001208DF80B0002A800F0EAF9EE
:100550000EBD00000149086070470000143C0140D6
:1005600070B504466CB1012C04D0022C11D0032CC0
:1005700010D107E04FF48051074800F0BCF9054660
:1005800008E007E04FF40041044800F0B4F90546E4
:1005900000E000BF00BF70BD000402400010024038
:1005A00001460020034A12680A400AB1012000E017
:1005B00000207047143C0140002123498279002A21
:1005C0003AD00A46126803689A430B461A600A1D1D
:1005D000126803689A430B1D1A60027911440A6875
:1005E00003681A430A60184A0832126803689A437B
:1005F000154B08331A601A1D126803689A43124B90
:100600000C331A604279102A0ED11A1F126803683F
:100610001A430D4B08331A601A1D126803681A43F7
:10062000094B0C331A600DE00749427911440A68FE
:1006300003681A430A6005E0027911440A680368F6
:100640009A430A6070470000003C01401CB501213C
:10065000084600F011FC0121022000F00DFC0121F0
:10066000042000F009FC0121082000F005FC4FF4F3
:100670008070009001208DF8040000208DF80600A5
:1006800003208DF8050001208DF8070069460D480C
:1006900000F0C6F801208DF8040000208DF8060057
:1006A00003208DF8050001208DF8070000906946B1
:1006B000054800F0B5F8202000906946024800F097
:1006C000AFF81CBD00080240000402401CB5012127
:1006D000084600F0D1FB0121022000F0CDFB0121F2
:1006E000042000F0C9FB0121082000F0C5FB012116
:1006F000102000F0C1FB01208DF8040002208DF8CD
:10070000050000208DF8060002208DF80700800209
:10071000009069463E4800F083F84FF40050009086
:1007200069463B4800F07CF84FF400400090694671
:10073000374800F075F84FF480500090694634480F
:1007400000F06EF84FF4804000906946304800F0A9
:1007500067F80120009069462D4800F061F80220FA
:10076000009069462A4800F05BF804200090694632
:10077000274800F055F8082000906946244800F00A
:100780004FF8102000906946214800F049F8802079
:10079000009069461E4800F043F84FF40070009046
:1007A00069461C4800F03CF800208DF80400022047
:1007B0008DF8050001208DF806008DF807008020D7
:1007C00000906946134800F02BF84FF480700090B9
:1007D0006946104800F024F82020009069460E4831
:1007E00000F01EF81020009069460B4800F018F841
:1007F0004FF4805000906946064800F011F84FF41D
:10080000004000906946054800F00AF81CBD000051
:10081000000C0240000402400008024000100240A8
:10082000F0B50A4600210023002400BF3DE0012569
:1008300005FA01F3156805EA03049C4234D1056802
:100840004F000326BE40B543056015794E00B54004
:100850000668354305601579012D02D01579022D02
:1008600016D185684F000326BE40B5438560557993
:100870004E00B540866835438560456801268E4048
:10088000B5434560456896798E40B6B235434560BC
:10089000C5684F000326BE40B543C560D5794E00FC
:1008A000B540C6683543C560491C1029BFD3F0BDAB
:1008B000F0B5002300244D07ED0E02FA05F3CE102B
:1008C00000F1200555F826504E07F70E0F26BE40C2
:1008D000B543CF1000F1200646F82750CE1000F1A6
:1008E000200555F8265045EA0304CE1000F12005F6
:1008F00045F82640F0BD0246002013690B400BB1BD
:10090000012000E000207047418370470183704759
:100910000AB1018300E04183704700BFFEE700BFDA
:10092000FEE7704770B5002100230F22C4781CB386
:10093000174C246804F4E064C4F5E064C4F30721B0
:10094000C1F10404E3B20A4144789C40E1B28478E6
:10095000144021430C07210E0E4C05786155047894
:1009600004F01F050124AC4005786D11AD0005F1C0
:10097000E025C5F8004109E0047804F01F050124D2
:10098000AC40054D0678761145F8264070BD000054
:100990000CED00E000E400E080E100E002490143EA
:1009A000024A1160704700000000FA050CED00E0FB
:1009B00000200CE0002106E00022064B03EBC013F0
:1009C0005A544A1CD1B28029F6DB421CD0B2082806
:1009D000F0DB7047A00200202DE9F04304460D46ED
:1009E00016461F46284638E0224631E0002A2DDB15
:1009F0007F2A2BDC002829DB3F2827DC4FEAE07C1C
:100A000000EB5C7C4FEAEC0CDFF8588008EBCC1C68
:100A10001CF802C003464FEAE07800EB58784FEA32
:100A2000E808A0EBC8094FF0010808FA09F82CEA19
:100A3000080C01464FEAE07800EB58784FEAE808E6
:100A4000DFF8209009EBC81808F802C0511C0AB260
:100A5000A1199142CADC411C08B2E9198142C3DCE8
:100A6000BDE8F083A00200207CB5002406E000254C
:100A700000E06D1CB5F57A7FFBD3641CB4F57A7F7A
:100A8000F5D301210C2000F0F7F901208DF80400C6
:100A900003208DF8050000208DF8060001208DF858
:100AA0000700C002009069461248FFF7B9FE4FF4F4
:100AB0008050009069460F48FFF7B2FE4FF4806007
:100AC000009069460B48FFF7ABFE4FF400700090B2
:100AD00069460948FFF7A4FE002000F043F9012011
:100AE00000F04CF9012000F061F9012000F052F90A
:100AF0007CBD000000080240000C024010B5FFF76A
:100B0000B3FFAE2000F05EF9D52000F05BF9802045
:100B100000F058F9A82000F055F93F2000F052F9F4
:100B2000D32000F04FF9002000F04CF9402000F0F5
:100B300049F9A12000F046F9C82000F043F9DA2075
:100B400000F040F9122000F03DF9812000F03AF960
:100B5000CF2000F037F9D92000F034F9F12000F06F
:100B600031F9DB2000F02EF9302000F02BF9A42021
:100B700000F028F9A62000F025F98D2000F022F9D8
:100B8000142000F01FF9AF2000F01CF9FFF710FF50
:100B900000F0D4F810BD70B50546002411E08021A6
:100BA0002141294009B1012100E00021084600F05F
:100BB000E5F8012000F0D6F8002000F0D3F8601C22
:100BC000C4B2082CEBDB70BD70B505460C4645F091
:100BD000B00000F0F7F8102141EA141000F0F2F82C
:100BE00004F00F0000F0EEF870BD0000F8B5064606
:100BF0000F4614461D46082D0CD1A4F120000E49C5
:100C000001EB00101023082239460090304600F016
:100C100017F80FE0062D0DD1A4F1200000EB4000E5
:100C2000064901EB40000823062239460090304671
:100C300000F006F8F8BD0000DE230008CE29000809
:100C40002DE9FF4F80460E469146DDF834B0002571
:100C500000244A4631464046039BFFF7BDFE00BFD5
:100C60005EE0002558E008EB0500002852DB08EBA9
:100C700005007F284EDC3046F11706EB5171C91094
:100C80000FB2F11706EB5171C910A6EBC10A002E85
:100C900005DA781E07B20AF108000FFA80FA38194F
:100CA000002817DB3819072814DC3819224901EB12
:100CB000C01008EB0501405C04FB09511BF8011052
:100CC00001FA0AF1084339191B4A02EBC11108EB7A
:100CD000050288543819401C00281BDB3819401CB9
:100CE000072817DC3819401C134901EBC01008EB2A
:100CF0000501405C04FB09511BF80110CAF1080210
:100D0000114108433919491C0B4A02EBC11108EB88
:100D100005028854681CC5B24D45A4DB601CC4B2F2
:100D20000399481EC11700EB5171012202EBE1014A
:100D3000A14296DCBDE8FF8FA002002010B5002480
:100D40000BE000212046FFF73FFF054901EBC410EF
:100D5000802100F040F8601CC4B2082CF1DB10BD0B
:100D6000A002002010B5044622464FF480610248DC
:100D7000FFF7CEFD10BD00000008024010B504468C
:100D800022464FF480510248FFF7C2FD10BD00001B
:100D90000008024010B5044622464FF400610248A4
:100DA000FFF7B6FD10BD00000008024010B5044674
:100DB00022464FF400710248FFF7AAFD10BD000063
:100DC000000C024010B504460020FFF7E3FF204668
:100DD000FFF7E1FE10BD70B505460E460120FFF796
:100DE000D9FF002404E0285DFFF7D5FE601CC4B2E3
:100DF000B442F8DB70BD00001CB500211B4800F0B8
:100E000072FD02208DF804008DF8050000208DF899
:100E1000060002208DF80700C001009069461448C2
:100E2000FFF7FEFC4FF40070009069461048FFF792
:100E3000F7FC4FF48060009069460D48FFF7F0FC26
:100E40004FF40060009069460948FFF7E9FC4FF451
:100E50008050009069460648FFF7E2FC4FF40050CE
:100E6000009069460248FFF7DBFC1CBD0000014012
:100E7000001002407047000029B1064A1268024380
:100E8000044B1A6004E0034A12688243014B1A6063
:100E9000704700003038024029B1064A1268024308
:100EA000044B1A6004E0034A12688243014B1A6043
:100EB000704700004038024029B1064A12680243D8
:100EC000044B1A6004E0034A12688243014B1A6023
:100ED000704700002038024029B1064A12680243D8
:100EE000044B1A6004E0034A12688243014B1A6003
:100EF0007047000044380240F0B500210022002471
:100F0000022500260223324F3F6807F00C0121B171
:100F1000042905D0082937D105E02E4F076036E0B7
:100F20002D4F076033E02A4F3F1F3F68C7F38056BD
:100F3000274F3F1F3F6807F03F036EB1264FB7FBB7
:100F4000F3F7DFF88CC0ACF1040CDCF800C0CCF394
:100F5000881C07FB0CF40CE01E4FB7FBF3F7DFF81F
:100F600070C0ACF1040CDCF800C0CCF3881C07FBAB
:100F70000CF4174F3F1F3F68C7F301477F1C7D00EC
:100F8000B4FBF5F7076002E0124F076000BF00BF37
:100F90000F4F3F6807F0F0010909104F7A5C0768AE
:100FA000D74047600A4F3F6807F4E051890A0B4F6A
:100FB0007A5C4768D7408760054F3F6807F4604117
:100FC000490B064F7A5C4768D740C760F0BD000008
:100FD000083802400024F40000127A00C600002005
:100FE00010B500200A49087102204871012088715B
:100FF0000220C871432008600648FFF711FC4FF437
:101000000050034908600448FFF70AFC10BD0000C7
:10101000B4000020001002400008024010B501207A
:101020001249087102204871002088710120C8719E
:10103000432008600E48FFF7F3FB4FF400500B49C4
:1010400008600C48FFF7ECFB40210948FFF75EFC05
:1010500001210748FFF75AFC02210548FFF756FC1B
:101060004FF400510348FFF751FC10BDB4000020BD
:10107000001002400008024000B587B001210220A4
:10108000FFF7FAFE01218803FFF706FF4FF46040E7
:10109000059002208DF8180000208DF81A0003201A
:1010A0008DF8190001208DF81B0005A92148FFF7D4
:1010B000B7FB05220D211F48FFF7FAFB05220E2181
:1010C0001C48FFF7F5FB05220F211A48FFF7F0FB3C
:1010D00001218803FFF7F0FE00214FF48040FFF765
:1010E000EBFE0020ADF800004FF48270ADF8020076
:1010F0004FF40060ADF804000220ADF806000120B6
:10110000ADF808004002ADF80A000020ADF80C0070
:10111000ADF80E000720ADF810006946064800F053
:1011200041F80121044800F023F8FF2000F006F800
:1011300007B000BD000402400038004010B504466E
:1011400000BF0221094800F01FF80028F9D021460D
:10115000064800F025F800BF0121044800F014F80B
:101160000028F9D0014800F018F810BD0038004000
:1011700021B1028842F04002028004E002884FF66A
:10118000BF731A40028070470246002013890B404B
:101190000BB1012000E000207047014688897047AC
:1011A0008181704710B50022028802F441520B88F9
:1011B0004C8823438C882343CC8823430C892343C6
:1011C0004C8923438C892343CC8923431A430280CF
:1011D000838B4FF2FF74234083830B8A038210BDFD
:1011E0007047000030B500228B071C0F0F2303FA55
:1011F00004F20B4B8C1053F824309343084C8D10A1
:1012000044F8253023468C1053F824308C07240FE3
:1012100000FA04F42343024C8D1044F8253030BD0D
:10122000083801400CB50020019000903448006857
:1012300040F480303249086000BF3148006800F453
:10124000003000900198401C0190009818B9019856
:10125000B0F5A04FF1D12A48006800F4003010B179
:101260000120009001E0002000900098012846D164
:1012700023484030006840F08050214940310860E8
:101280002048006840F440401E4908601C4808306F
:1012900000681B49083108600846006840F40040B7
:1012A00008600846006840F4A05008601648091F0E
:1012B0000860081F006840F08070091F086000BFC8
:1012C0000F48006800F000700028F9D040F2057067
:1012D0000E4908600A480830006820F003000849F9
:1012E000083108600846006840F00200086000BF4E
:1012F00003480830006800F00C000828F8D10CBD45
:10130000003802400070004008544007003C024092
:10131000042808D14FF0E021096941F004014FF0A1
:10132000E022116107E04FF0E021096921F004019A
:101330004FF0E022116170477047000010B515486A
:10134000006840F47000134908601348006840F0DA
:1013500001001149086000200F49083108600E485B
:1013600000680E4908400C4908600D48091D0860D6
:10137000081F006820F48020091F0860002006492B
:101380000C310860FFF74EFF4FF0006001498039D3
:10139000086010BD88ED00E000380240FFFFF6FE57
:1013A0001030002410B500F05DF800F001F810BD19
:1013B0001CB501211020FFF75FFD012208212848FC
:1013C000FFF776FA012209212548FFF771FA012279
:1013D0000A212348FFF76CFA01220B212048FFF76E
:1013E00067FA01220C211E48FFF762FA01220D2143
:1013F0001B48FFF75DFA02208DF804008DF8050008
:1014000000208DF8060002208DF80700C001009032
:1014100069461348FFF704FA4FF4007000906946DC
:101420000F48FFF7FDF94FF48060009069460C48C3
:10143000FFF7F6F94FF40060009069460848FFF79F
:10144000EFF94FF48050009069460548FFF7E8F93E
:101450004FF40050009069460148FFF7E1F91CBDC8
:101460000010024000B58DB001210846FFF734FDA1
:1014700042F2D0000B900020ADF82800ADF830000B
:101480002020ADF82A000AA9264800F043FB60207E
:10149000ADF814000120ADF816000420ADF81800D6
:1014A0000020ADF82000ADF82200ADF824004FF484
:1014B0000070ADF826000020079005A9194800F03B
:1014C00047FA0020079005A9164800F07FFA00208F
:1014D000079005A9134800F0CBFA4FF40060ADF86F
:1014E00004004010ADF806008010ADF8080014208C
:1014F000ADF80A000020ADF80C004FF40050ADF834
:101500000E000020ADF8100001A9064800F0D8F93F
:101510000121044800F0F3F90121024800F0E3F949
:101520000DB000BD000001401FB501210846FFF7C6
:10153000B3FC4FF4D26002900420ADF80400002008
:10154000ADF80C00ADF8060001A94FF0804000F0A6
:10155000E1FA0121880700F0C3F901221146900742
:1015600000F0EDF91C208DF8000001208DF801003D
:101570008DF802008DF803006846FFF7D3F90121CA
:10158000880700F0B0F91FBD10B50121880700F0F1
:10159000C5F901287ED1FEF741FE82480088401C33
:1015A00080490880804890ED000A8048D0ED000A0C
:1015B00030EE200A80ED000A7B4890ED010A7C485D
:1015C000D0ED000A30EE200A80ED000A764890ED5A
:1015D000020A7848D0ED000A30EE200A80ED000AB9
:1015E000714890ED030A7448D0ED000A30EE200AED
:1015F00080ED000A08460088642847DD6B4890EDBE
:10160000000ADFED6E0A80EE201A6D4880ED001AA8
:10161000674890ED000ADFED690A80EE201A6948FC
:1016200080ED001A634890ED000ADFED640A80EE59
:10163000201A654880ED001A5F4890ED000ADFED42
:101640005F0A80EE201A614880ED001A90ED000AD2
:101650005C48D0ED000A80EE201A5D4880ED001A4B
:10166000002008809FED5B0A504880ED000A9FED46
:10167000590A4F4880ED000A9FED560A4D4880ED0B
:10168000000A9FED540A4C4880ED000A4E4890ED48
:10169000000A00E080E0F3EE070AB4EEE00AF1EEA3
:1016A00010FA03D202204C4908701EE0454890ED24
:1016B000000AF0EE040AB4EEE00AF1EE10FA03DDDF
:1016C00001204549087010E0414890ED000ADFED27
:1016D000430AB4EEE00AF1EE10FA03D203203E49C9
:1016E000087002E000203C4908703D48007801285D
:1016F00006D1FFF757FE00203749087038490870B7
:1017000035480078F0BB374890ED002A90ED000A8C
:10171000F1EE401A344890ED001A2C48D0ED000A42
:10172000324890ED000A324800F062FD2E48D0EDBC
:10173000000A30EE200A80ED000A90ED000A2948E8
:10174000D0ED000AB4EEE00AF1EE10FA04DB90ED01
:10175000000A254880ED000A234890ED000A25483C
:10176000D0ED000AB4EEE00AF1EE10FA04D890EDE4
:10177000000A1D4880ED000A1B48D0ED000AB7EEB4
:10178000001A00E006E071EE600AB0EE600A00F0B8
:10179000B1FD01E0FFF730FB0121880700F0A0F860
:1017A00010BD00001E000020C0010020000000202D
:1017B00004000020080000200C0000200000C842A7
:1017C0004800002050000020440000204C00002071
:1017D000540000200000000015000020CDCCCC3DBE
:1017E000160000207C000020580000205C00002033
:1017F00000020020800000201FB501210220FFF719
:101800004BFB41F2A16002909020ADF80400002053
:10181000ADF80C00ADF8060001A9104800F07AF907
:1018200001210E4800F05CF8012211460B4800F03F
:1018300086F81D208DF8000004208DF8010003209B
:101840008DF8020001208DF803006846FFF76AF862
:101850000121024800F047F81FBD000000040040CD
:1018600010B50121114800F059F8012818D10122C2
:101870000F49104800F0B2FA0F4800F0ABFB0E48D9
:101880000078232803D00C4800780C4908700823FE
:101890000A48027800210846FFF7A8F9FFF74EFA38
:1018A0000121024800F01CF810BD000000040040B7
:1018B000C0010020D80000201700002010000020E8
:1018C0000A884B881A438B881A43CB881A430B89A2
:1018D0001A434B891A438B891A43A0F84420704756
:1018E000CA430282704721B1028842F0010202809D
:1018F00004E002884FF6FE731A400280704731B14F
:10190000B0F8442042F40042A0F8442005E0B0F8CA
:101910004420C2F30E02A0F84420704730B50246BE
:10192000002000230024158A05EA0103958905EAB1
:10193000010413B10CB1012000E0002030BD1AB148
:1019400083890B43838102E083898B4383817047C2
:1019500070B5002400220023058C4FF6FE7635403A
:101960000584028C8388048B4FF68F752C40B51E3E
:101970002C400D882C43751E2A408D892A434D88A2
:101980002A43104DA84202D00F4DA84213D14FF662
:10199000F7752A40CD892A434FF6FB752A408D887A
:1019A0002A434FF6FF652B404FF6FF552B400D8A1B
:1019B0002B434D8A2B43838004838D6845630284C7
:1019C00070BD0000000001400004014070B500241B
:1019D00000220023058C4FF6EF7635400584028CFB
:1019E0008388048B48F6FF752C404FF6FF452C404A
:1019F0000D884FF6FF7606EA05252C434FF6DF7576
:101A00002A408D8906EA05152A434D8806EA051500
:101A10002A43154DA84202D0144DA8421DD14FF6BD
:101A20007F752A40CD894FF6FF7606EA05152A43D1
:101A30004FF6BF752A408D8806EA05152A434FF6F2
:101A4000FF352B404FF2FF752B400D8A06EA8505C6
:101A50002B434D8A06EA85052B43838004838D68DA
:101A60008563028470BD0000000001400004014055
:101A700070B5002400220023058C4FF6FF66354028
:101A80000584028C8388848B4FF68F752C404FF62B
:101A9000FC752C400D882C434FF6FF552A408D894C
:101AA0004FF6FF7606EA05252A434D8806EA052506
:101AB0002A43154DA84202D0144DA8421DD14FF221
:101AC000FF752A40CD894FF6FF7606EA05252A43A1
:101AD0004FF6FF352A408D8806EA05252A434EF643
:101AE000FF752B404DF6FF752B400D8A06EA051554
:101AF0002B434D8A06EA05152B43838084838D682A
:101B0000C563028470BD0000000001400004014074
:101B10004163704700220288184B98420ED0184B40
:101B200098420BD0B0F1804F08D0164B984205D0A8
:101B3000154B984202D0154B984204D14FF68F7343
:101B40001A404B881A43124B984207D0114B9842C7
:101B500004D04FF6FF431A400B891A4302804B68AA
:101B6000C3620B880385054B984202D0044B984210
:101B700001D18B7A038601238382704700000140E4
:101B8000000401400004004000080040000C004038
:101B9000001000400014004010B540F225511D48CF
:101BA00000F057F810B31B4800F00CF9C4B21A4803
:101BB000008800F40040C8B91748008800F480404D
:101BC00060B10A2C03D000201349088020E012489D
:101BD000008840F400401049088019E00D2C06D11F
:101BE0000D48008840F480400B49088010E00A4806
:101BF0000088C0F30D0009490C5407480088401CB8
:101C00000549088008460088C72801DD00200880B3
:101C100010BD000000100140C4000020A0060020FC
:101C200021B1828942F40052828104E082894DF61A
:101C3000FF731A408281704702460020B1F5007F91
:101C400000D100BF13880B400BB1012000E0002041
:101C5000704770B50246002400230025002040F69E
:101C60006A16B14200D100BFC1F3421501F01F0353
:101C7000012606FA03F3012D02D19689334006E0CE
:101C8000022D02D1168A334001E0968A33400C12AD
:101C9000012606FA04F41688344013B10CB1012071
:101CA00000E0002070BDF0B50346002400260025AA
:101CB000002040F66A17B94200D100BF1846C1F3B0
:101CC000421401F01F06012707FA06F5012C01D185
:101CD0000C3004E0022C01D1103000E014301AB1B5
:101CE00007682F43076002E00768AF430760F0BD55
:101CF0002DE9FF4705460E460024A14600BFA04639
:101D0000B08900B100BF2C8A24F44054F088044309
:101D10002C82AC8941F20C608443B088318908433D
:101D2000718908430443AC81AC8A24F44074B089BF
:101D30000443AC826846FFF7DFF82048854202D0B2
:101D40001F48854202D1DDF80C9001E0DDF80890D3
:101D5000A88900F4004040B109EBC90000EB09106C
:101D600031684900B0FBF1F707E009EBC90000EB6F
:101D7000091031688900B0FBF1F76420B7FBF0F07F
:101D800004012009642101FB1078A88900F40040B7
:101D900040B1322000EBC800B0FBF1F000F00700CA
:101DA000044308E0322000EB08106421B0FBF1F09E
:101DB00000F00F0004432C81BDE8FF8700100140B4
:101DC0000014014001468888C0F308007047C1F341
:101DD00008028280704700BFFEE7000070B505462C
:101DE0000E4614464FF6FF7000EA8402314628463C
:101DF00000F008F804220249284600F003F870BDFC
:101E0000DA2300082DE9F04107460D461646002466
:101E10000BE0295D0748FFF7DAFF00BF40210548C6
:101E2000FFF70AFF0128F9D1641CB442F1DBBDE8D9
:101E3000F08100000010014002E008C8121F08C134
:101E4000002AFAD170477047002001E001C1121F3B
:101E5000002AFBD17047000010B504466FF0040063
:101E6000FFF756FAE11704EB5171C1F3C701074AB6
:101E700011701046007800EB4001C1EBC0104FF626
:101E8000FF7101EAC0000249088010BDBC000020BB
:101E9000BE00002070B504464FF4077094FBF0F0CC
:101EA000C6B24FF4077094FBF0F100FB114085B20D
:101EB00005E04FF4077000F02FF8701EC6B2002E38
:101EC000F7D115B1284600F027F870BD0146114A38
:101ED00012784A434FF0E0235A6100229A611A4671
:101EE000126942F001021A6100BF4FF0E02210694E
:101EF00000F001021AB100F48032002AF5D04FF050
:101F0000E022126922F001024FF0E0231A61002260
:101F10009A617047BC0000200146114A12884A436A
:101F20004FF0E0235A6100229A611A46126942F08A
:101F300001021A6100BF4FF0E022106900F00102B7
:101F40001AB100F48032002AF5D04FF0E022126975
:101F500022F001024FF0E0231A6100229A617047DB
:101F6000BE00002010B5FFF759F8FEF709FA04216A
:101F70001348FEF7C0FC1349087008211048FEF70B
:101F8000BAFC1149087010210D48FEF7B4FC0F4946
:101F9000087020210A48FEF7AEFC0D490870094878
:101FA000007840B90848007828B90848007810B986
:101FB0000846007808B1012010BD0020FCE70000B1
:101FC00000100240B0000020B1000020B20000204C
:101FD000B300002070B504462325FFF7C3FF002897
:101FE00077D01420FFF756FFFFF7BCFF002868D01A
:101FF000FEF7DAF9FEF7F4FF40213848FEF77BFCE4
:10200000374908704FF400513648FEF774FC3649E2
:10201000087001213148FEF76EFC34490870022136
:102020002E48FEF768FC324908702F48007878B1D6
:102030003048007800B135252F48007800B13625AA
:102040002E48007800B137252D48007800B138259A
:102050002348007878B12748007800B13125264818
:10206000007800B132252548007800B13325244896
:10207000007800B134251D48007878B11D480078FB
:1020800000B139251C48007800B130251B48007884
:1020900000B12E251A48007800B12D25144800788B
:1020A00078B11448007800B14E251348007800B18B
:1020B00046251248007800B142251148007800B149
:1020C000532500BFFFF74EFF0028FBD11420FFF778
:1020D000E1FEFEF78DF9257070BD00000010024092
:1020E000AC00002000080240AD000020AE0000203F
:1020F000AF000020B3000020B2000020B10000209B
:10210000B00000209FED211ADFED210A9FED210A8A
:10211000214800F04FF89FED1D1ADFED200A9FEDDA
:10212000200A204800F046F84FF44070FEF736FCD5
:10213000A820FFF791FEFEF7C9FAFEF7B1F9FEF706
:1021400051F8FEF799FFFEF7D9FC4FF4E13000F0AB
:10215000EDF8FFF727F9FFF7E7F9FFF74DFBB7EECB
:10216000080A114880ED000AB3EE0E0A0F4880ED10
:10217000000AB6EE000A0E4880ED000A90ED000A53
:1021800000F0B8F8FEF714FC00BFFEE70000000006
:10219000ACC5A73882A8FB37E001002017B7D138BB
:1021A0000AD7233C00020020600000205C000020D1
:1021B00058000020DFED0D1AC0ED001ADFED0B1AFC
:1021C000C0ED011ADFED091AC0ED021ADFED071AA2
:1021D000C0ED031ADFED051AC0ED041A80ED050A03
:1021E000C0ED060A80ED071A7047000000000000ED
:1021F000F0EE402AC0ED002AC0ED010A90ED003A51
:10220000D0ED013A33EE633A80ED023A90ED023AB6
:10221000B5EEC03AF1EE10FA08DB90ED023ADFEDD0
:10222000323AB4EEE33AF1EE10FA0FD990ED023AF9
:10223000B5EEC03AF1EE10FA10D890ED023ADFEDAB
:102240002B3AB4EEE33AF1EE10FA07DB9FED283AB1
:1022500080ED023A9FED263A80ED033A90ED023A86
:10226000D0ED033A33EE633AD0ED053A23EE233A4C
:10227000D0ED063A90ED024A03EE843AD0ED023AF0
:1022800090ED034AF0EE004A44EEC43A90ED044A61
:1022900073EE843A90ED074AB0EE430A04EE230A47
:1022A00031EE003AB4EEC23AF1EE10FA06DA31EE4F
:1022B000003AB4EEE13AF1EE10FA0BD890ED023AA2
:1022C000D0ED033A33EE633AD0ED053A23EE233AEC
:1022D000B0EE430A90ED033A80ED043A90ED023AF5
:1022E00080ED033A704700000AD7A33C0AD7A3BC8D
:1022F0000000000010B52DED028BB0EE408AB7EE65
:10230000000A30EE480ADFED070A20EE200ABCEE94
:10231000C00A10EE101A0448FFF7FAFBBDEC028B5E
:1023200010BD0000004003460000014010B588B019
:10233000044601210846FEF79FFD01211020FEF70B
:10234000CBFD072209212248FEF7B2FA07220A2113
:102350001F48FEF7ADFA4FF4C060069002208DF8DA
:102360001C008DF81D0000208DF81E0001208DF846
:102370001F0006A91648FEF753FA02940020ADF894
:102380000C00ADF80E00ADF81000ADF814000C20F4
:10239000ADF8120002A90F48FFF7AAFC01210D4871
:1023A000FFF73EFC012240F225510A48FFF77BFC73
:1023B00025208DF8040003208DF805008DF8060017
:1023C00001208DF8070001A8FEF7ACFA08B010BD97
:1023D0000000024000100140AFFA0000807F0000C2
:1023E00000000000000000000000000000000000ED
:1023F00000F800000000000000333000000000166C
:102400000E00160E0000000000000000000040C09A
:102410007840C0784000043F04043F04040000708A
:1024200088FC08300000001820FF211E0000F00882
:10243000F000E018000000211C031E211E0000F027
:102440000888700000001E21232419272110000095
:1024500000160E0000000000000000000000000058
:1024600000E01804020000000007182040000002ED
:102470000418E00000000040201807000000404061
:1024800080F0804040000202010F010202000000C3
:1024900000F0000000000101011F01010100000027
:1024A00000000000000000B070000000000000000C
:1024B0000000000000000001010101010101000015
:1024C00000000000000000303000000000000000AC
:1024D000000080601804006018060100000000E0A1
:1024E00010080810E000000F102020100F0000104E
:1024F00010F8000000000020203F202000000070A5
:10250000080808887000003028242221300000309C
:102510000888884830000018202020110E00000094
:10252000C02010F8000000070424243F240000F815
:102530000888880808000019212020110E0000E0FA
:10254000108888180000000F112020110E0000389C
:102550000808C83808000000003F000000000070B4
:10256000880808887000001C222121221C0000E03D
:1025700010080810E0000000312222110F000000B6
:1025800000C0C0000000000000303000000000006B
:1025900000C0C0000000000080B07000000000001B
:1025A0008040201008000001020408102000404074
:1025B00040404040400004040404040404000008B7
:1025C000102040800000002010080402010000706C
:1025D00048080808F0000000003036010000C03054
:1025E000C828E810E0000718272423140B00000077
:1025F000C038E0000000203C23020227382008F801
:10260000888888700000203F202020110E00C030F4
:10261000080808083800071820202010080008F8CB
:1026200008080810E000203F202020100F0008F8C4
:102630008888E8081000203F20202320180008F890
:102640008888E8081000203F200003000000C03008
:1026500008080838000007182020221E020008F889
:1026600008000008F808203F210101213F20000850
:1026700008F8080800000020203F2020000000008B
:102680000808F8080800C08080807F00000008F873
:1026900088C028180800203F20012638200008F8AC
:1026A000080000000000203F20202020300008F813
:1026B000F800F8F80800203F003F003F200008F82D
:1026C00030C00008F808203F200007183F00E01045
:1026D00008080810E0000F10202020100F0008F854
:1026E00008080808F000203F210101010000E01067
:1026F00008080810E0000F18242438504F0008F88C
:10270000888888887000203F2000030C30200070EB
:102710008808080838000038202121221C001808E9
:1027200008F8080818000000203F2000000008F802
:1027300008000008F808001F202020201F0008784B
:10274000880000C83808000007380E010000F808AB
:1027500000F80008F800033C0700073C03000818D5
:1027600068808068180820302C03032C302008383B
:10277000C800C83808000000203F200000001008F2
:102780000808C8380800203826212020180000003A
:1027900000FE020202000000007F40404000000CEA
:1027A00030C000000000000000010638C000000238
:1027B0000202FE000000004040407F0000000020B8
:1027C00010080408102000000000000000000000B5
:1027D00000000000000080808080808080800002F7
:1027E00004080000000000000000000000000000DD
:1027F0008080808000000019242222223F2008F8D7
:10280000008080000000003F112020110E00000019
:10281000008080800000000E1120202011000000A8
:1028200000808088F800000E112020103F2000005A
:10283000808080800000001F22222222130000805E
:1028400080F0888888180020203F202000000000A9
:10285000808080808000006B94949493600008F8DE
:10286000008080800000203F210000203F20008069
:102870009898000000000020203F20200000000069
:1028800000809898000000C08080807F000008F8D9
:10289000000080808000203F24022D3020000008AE
:1028A00008F8000000000020203F20200000808069
:1028B000808080808000203F20003F20003F0080FB
:1028C00080008080000000203F2100203F20000089
:1028D000808080800000001F202020201F0080803A
:1028E00000808000000080FFA12020110E00000069
:1028F000008080808000000E112020A0FF8080805A
:1029000080008080800020203F2120000100000006
:1029100080808080800000332424242419000080DB
:1029200080E0808000000000001F202000008080E8
:10293000000000808000001F202020103F208080A9
:1029400080000080808000010E3008060100808039
:102950000080008080800F300C030C300F0000805E
:102960008000808080000020312E0E312000808089
:1029700080000080808080818E70180601000080B9
:102980008080808080000021302C222130000000D7
:102990000000807C020200000000003F4040000078
:1029A0000000FF00000000000000FF000000000227
:1029B000027C800000000040403F000000000080DA
:1029C0004040800000800000000000010100000085
:1029D000000000000000002F0000000007000700BA
:1029E00000147F147F1400242A7F2A120023130866
:1029F00064620036495522500000000700000000C4
:102A00001C224100000041221C000014083E081452
:102A10000008083E0808000000A060000008080840
:102A20000808000060600000002010080402003E5A
:102A30005149453E0000427F4000004261514946F5
:102A4000002141454B31001814127F1000274545E5
:102A50004539003C4A4949300001710905030036F7
:102A60004949493600064949291E0000363600000A
:102A7000000056360000000814224100001414140F
:102A80001414000041221408000201510906003EFE
:102A90004955592E007C1211127C007F4949493654
:102AA000003E41414122007F4141221C007F4949B3
:102AB0004941007F09090901003E4149497A007FE7
:102AC0000808087F0000417F4100002040413F018D
:102AD000007F08142241007F40404040007F020CEC
:102AE000027F007F0408107F003E4141413E007F8D
:102AF00009090906003E4151215E007F0919294656
:102B00000046494949310001017F0101003F404031
:102B1000403F001F2040201F003F4038403F0063DF
:102B20001408146300070870080700615149454301
:102B300000007F41410000020408102000004141D4
:102B40007F000004020102040040404040400000B9
:102B500001020400002054545478007F4844443853
:102B600000384444442000384444487F00385454DA
:102B7000541800087E0901020018A4A4A47C007F58
:102B8000080404780000447D4000004080847D00FB
:102B9000007F102844000000417F4000007C0418A2
:102BA0000478007C0804047800384444443800FC6D
:102BB000242424180018242418FC007C0804040889
:102BC00000485454542000043F444020003C4040FE
:102BD000207C001C2040201C003C4030403C004435
:102BE00028102844001CA0A0A07C004464544C443D
:102BF0000000087F41000000007F00000000417FCE
:102C00000800000804081008EFBC8C000000000059
:102C10000000000000000000000000000058380024
:102C20000000000000000000000000E380820000BF
:102C30000000000000000000000000000000000094
:102C40001824241800000000000000000000E4BD6B
:102C5000A0008060F8074020180F08C8080828184E
:102C600000010000FF00100C0340807F00010618E7
:102C700000E5A5BD1010F01F10F000808282E292E6
:102C80008A868000402215081661000040807F007F
:102C900000000000E4B896202020FE2020FF202025
:102CA00020FF20202020000000007F4040474444B7
:102CB00044474040400000E7958C000000FE92929F
:102CC00092FE929292FE0000000008080484621EA8
:102CD000010001FE020404080800000000FF0101D9
:102CE000013109090909897101010101FFFF808092
:102CF000808080809681808080808080FFFF01813D
:102D00008181FD8991A1C1FD81818101FFFF8080C9
:102D100080809F888482819F80808080FF00000067
:102D2000402D000800000020D8000000381E0008D8
:102D3000182E0008D8000020900A0000481E000845
:102D40000000000000000000000000000000000083
:102D50002300000000000000000000000000000050
:102D60003333D33F0000803F0000803F0000803FAE
:102D70000000803F0000803F0000803F0000803F57
:102D80000000803F00000000000000000000000084
:102D900000000000002474490000003F0000000013
:102DA0000000000000000000000000000000000023
:102DB000000000000000000000000000CDCC4C3FEF
:102DC000CDCCCC3D00000000000000000000000061
:102DD000000000000000803F0000000000004040B4
:102DE000000000000000803F000000000000000024
:102DF00000000000000000000000000000000000D3
:102E000000000000000000000000010203040102B5
:082E1000030406070809000095
:040000050800019D51
:00000001FF
