:020000040800F2
:10000000480D00209D0100085B0E0008530E0008FB
:10001000570E0008690900088B2500080000000041
:100020000000000000000000000000006117000850
:100030006D090008000000008F140008B9180008BE
:10004000B7010008B7010008B7010008B7010008B0
:10005000B7010008B7010008B7010008B7010008A0
:10006000B7010008B70100086F090008B7010008D0
:10007000B7010008B7010008B7010008B701000880
:10008000B7010008B7010008B7010008B701000870
:10009000B7010008B7010008B70100088909000886
:1000A000B7010008B7010008B701000825190008CA
:1000B000691B0008CD1F0008B7010008B701000840
:1000C000B7010008B7010008B7010008B701000830
:1000D000B70100084D230008B7010008B701000868
:1000E000B7010008B7010008B7010008B701000810
:1000F000B7010008B7010008B7010008B701000800
:10010000B7010008B7010008B7010008B7010008EF
:10011000B7010008B7010008B7010008B7010008DF
:10012000B7010008B7010008B7010008B7010008CF
:10013000B7010008B7010008B7010008B7010008BF
:10014000B7010008B7010008B7010008B7010008AF
:10015000B7010008B7010008B7010008B70100089F
:10016000B7010008B7010008B7010008B70100088F
:10017000B7010008B7010008B7010008B70100087F
:10018000B7010008B7010008DFF80CD000F0E2FA70
:1001900000480047D52E0008480D0020064880473B
:1001A00006480047FEE7FEE7FEE7FEE7FEE7FEE75C
:1001B000FEE7FEE7FEE7FEE7BD180008890100083C
:1001C0009FED1A1AF5EE000A40EE010ABDEEE00AB4
:1001D000F5EEC00A10EE100AF1EE10FA38BF401E1C
:1001E00000EE100A1349F7EE001AB8EEC00A30EE1E
:1001F000C00ADFED0F0A20EE200AFCEEC00A10EE66
:10020000900AC0F3080000EE900A01EB8000F8EEBF
:10021000600A90ED011A70EE600A90ED000A71EE2E
:10022000E01A21EE800A00EE810A704783F9223E2F
:1002300000000044C0420008DFED190AB5EEC00A14
:1002400060EE200ABDEEE01A11EE100AF1EE10FA8F
:1002500038BF401E00EE100A1349F7EE001AB8EE40
:10026000C00A30EEC00ADFED0F0A60EE200ABCEED5
:10027000E00A10EE100AC0F3080000EE100A01EBCD
:100280008000B8EE400A90ED011A70EEC00A90EDC1
:10029000000A71EEE01A21EE800A00EE810A704732
:1002A00083F9223E00000044C04200082DE9FE4FC1
:1002B000804681EA0300C00F0C46009021F0004107
:1002C00023F00045B8EB0200A94105D24046214683
:1002D00090461C460B46024623F00040104347D090
:1002E000270DC7F30A00C3F30A510290401A019088
:1002F00040286BDAC3F3130040F4801B0098924649
:1003000020B10023D2EB030A63EB0B0B0198594693
:10031000C0F14002504600F04BF906460D465046EB
:100320005946019A00F063F910EB0800614100247E
:1003300087EA115284EAE7731A4340D0009A62B305
:10034000019A012A4FEA075215DC001B61EB0201FA
:100350004FF0004202EA0752CDE90042001C41F58D
:10036000801132462B4600F063F903B0BDE8F08FF0
:1003700040462146F9E7001B61EB0201001C41F5F4
:10038000801300185B412018A2F5001747EB03010A
:1003900040EAD570B6196D4111E06D084FEA360696
:1003A00045EAC0754FEA0752001B61EB0201001CD1
:1003B00041F5801149084FEA300000195141324699
:1003C0002B4603B0BDE8F04F00F023B9009801229E
:1003D00040000023D0EB020263EBE073009821465B
:1003E0004FEAE074B8EB000061EB0401E9E783F049
:1003F00000435BE781F0004158E72DE9FE4F81EAB9
:10040000030404F0004421F0004100944FF0000B7D
:1004100023F0004350EA01045ED052EA03045BD0AB
:10042000C3F30A54C1F30A552C44A4F2F3340194E3
:10043000A0FB0254C1F3130141F48011C3F3130371
:1004400043F4801301FB024400FB034E840A970A25
:1004500044EA815447EA8357A4FB076802958D0A52
:1004600005FB07854FEA932C04FB0C542705029DDE
:100470004FEA065847EA1637B5EB08056EEB070C4E
:10048000870E920E47EA811742EA8312A7FB020108
:10049000B6EB0B0164EB00042B0D43EA0C335E1842
:1004A00044EB1C50DA465146E7FB0201C5F3130446
:1004B0004FEA0B3343EA14534FEA0432019C43EAF8
:1004C0000603A4F10C040294009CCDE900B400F0F2
:1004D000AFF803B0BDE8F08F00200146F9E70EB594
:1004E00040F2334102910021CDE900110A460B464A
:1004F00000F09EF803B000BDC1F30A5210B5C1F37D
:10050000130140F2FF3341F480119A4201DA0020D6
:1005100010BD40F233439A42A2F2334203DC52420E
:1005200000F055F810BD904010BD00F0004230F0D2
:1005300000400AD0C10D01F56071C0F3160042EA17
:100540000151C2084007114370470020014670471F
:1005500030B5041E71F1000404DB4FF0004440424A
:1005600064EB0101141E73F1000405DB1C464FF01F
:100570000043524263EB04038B4208BF824230BD0A
:1005800030B5041E71F1000404DB4FF0004440421A
:1005900064EB0101141E73F1000405DB1C464FF0EF
:1005A0000043524263EB0403994208BF904230BDBE
:1005B000202A04DB203A00FA02F100207047914023
:1005C000C2F1200320FA03F3194390407047202A18
:1005D00004DB203A21FA02F00021704721FA02F3ED
:1005E000D040C2F120029140084319467047202AAA
:1005F00006DBCB17203A41FA02F043EAE07306E04B
:1006000041FA02F3D040C2F120029140084319465A
:10061000704710B5141E73F1000408DA401C41F154
:10062000000192185B411A4301D120F0010010BD76
:100630002DE9F04D92469B4611B1B1FA81F202E0EC
:10064000B0FA80F220329046FFF7B2FF04460F4620
:1006500040EA0A0041EA0B0153465A46084313D0C8
:10066000114653EA010019D0C8F140025046FFF785
:10067000AEFF05460E46504659464246FFF798FFE4
:10068000084305D0012004E020463946BDE8F08D3E
:100690000020054346EAE0762C4337430A98630579
:1006A000E40AA0EB08000022FD0A44EA47540A309D
:1006B00002D500200146E9E7010510196941DDE98D
:1006C000084500196941BDE8F04DA2E72DE9F04168
:1006D000054621F000400C46284309D0C4F30A50D7
:1006E00040F23341884205DD28462146BDE8F081CD
:1006F0002846FBE740F2FE31884210DC0CDB4FEA73
:10070000043040EA155050EA053105D0104804F095
:10071000004101430020E9E700200146E6E7A0F29E
:1007200033404642C6F1400228462146FFF740FFCB
:1007300007468846284621463246FFF748FF43468B
:100740003A46FFF766FF3246BDE8F041FFF730BF9B
:100750000000F03F064C074D06E0E06840F0010362
:1007600094E8070098471034AC42F6D3FFF710FD29
:10077000C44A0008E44A000870B58C1810F8015B00
:1007800015F0070301D110F8013B2A1106D110F82A
:10079000012B03E010F8016B01F8016B5B1EF9D12E
:1007A0002B0705D40023521E0DD401F8013BFAE7B4
:1007B00010F8013BCB1A921C03E013F8015B01F81F
:1007C000015B521EF9D5A142D8D3002070BD0000B4
:1007D00010B500F0D7F92021094800F033FB0120C3
:1007E00002F0EAFA4FF48071064800F02BFB00F0AB
:1007F00097F8012002F0E0FA00F0A6F810BD000022
:10080000000402400008024010B5314800F06CF8C6
:1008100000205AE02E4931F81010B1F5004F14DADB
:100820002B4931F8101000EE101AB8EE400AF2EE23
:10083000040A20EE200ADFED270A80EE201A26495E
:1008400001EB800181ED001A1FE0214931F8101001
:10085000C943491C1E4A22F81010114631F81010E5
:1008600000EE101AB8EE400AF2EE040A20EE200A5A
:10087000FFEE000A20EE200ADFED160A80EE201AB5
:10088000154901EB800181ED001A134901EB80014C
:1008900091ED000A114901EB8001D1ED000A70EEE3
:1008A000600A0F4901EB800191ED001A80EE810A88
:1008B0000C4901EB8001D1ED000A30EE200A064917
:1008C00001EB800181ED000A401C0828A2DB10BD6D
:1008D000400200200000004750020020700200206B
:1008E000100000209002002070B505464FF4807182
:1008F0000A4800F0A5FA002405E0FF2000F0DEFE23
:1009000025F81400641C082CF7DB4FF480710348B1
:1009100000F098FA00F018F870BD000000080240DE
:1009200010B50121074800F08BFA0121054800F0BD
:1009300089FA012002F05CFA0121024800F080FAF5
:1009400010BD00000004024010B52021054800F051
:1009500077FA012002F04CFA2021024800F072FAE6
:1009600010BD00000004024000BFFEE7704710B554
:10097000102000F0B1F8012802D1022000F08CF81C
:10098000102000F083F810BD10B5202000F0A4F86E
:10099000012806D1032000F07FF8202000F076F82F
:1009A00010BD802000F098F8012805D100F074F8FF
:1009B000802000F06BF8F3E74FF4807000F08CF8C3
:1009C000012807D1002000F067F84FF4807000F094
:1009D0005DF8E5E700BFE3E70EB50121880300F00D
:1009E00087FD0721012000F0BDFE0821012000F055
:1009F000B9FE0521084600F0B5FE0421022000F0F2
:100A0000B1FE1020009000208DF8040008208DF821
:100A1000050001208DF80600684600F069F8A02066
:100A2000009000208DF804000C208DF805000120B6
:100A30008DF80600684600F05BF84FF48070009077
:100A400008208DF80500684600F052F80A208DF85D
:100A5000080000208DF8090002208DF80A0001200E
:100A60008DF80B0002A800F0F9F917208DF80800A6
:100A700001208DF8090002208DF80A0001208DF870
:100A80000B0002A800F0EAF90EBD00000149086061
:100A900070470000143C014070B504466CB1012C55
:100AA00004D0022C11D0032C10D107E04FF4805158
:100AB000074800F0BCF9054608E007E04FF40041A4
:100AC000044800F0B4F9054600E000BF00BF70BD67
:100AD000000402400010024001460020034A126850
:100AE0000A400AB1012000E000207047143C014098
:100AF000002123498279002A3AD00A461268036805
:100B00009A430B461A600A1D126803689A430B1D2C
:100B10001A60027911440A6803681A430A60184A85
:100B20000832126803689A43154B08331A601A1D7D
:100B3000126803689A43124B0C331A604279102AE8
:100B40000ED11A1F126803681A430D4B08331A603E
:100B50001A1D126803681A43094B0C331A600DE022
:100B60000749427911440A6803681A430A6005E09C
:100B7000027911440A6803689A430A6070470000CA
:100B8000003C01401CB50121084600F081FC012118
:100B9000022000F07DFC0121042000F079FC0121FD
:100BA000082000F075FC4FF48070009001208DF853
:100BB000040000208DF8060003208DF805000120B8
:100BC0008DF8070069460D4800F0C6F801208DF841
:100BD000040000208DF8060003208DF80500012098
:100BE0008DF8070000906946054800F0B5F8202010
:100BF00000906946024800F0AFF81CBD00080240B2
:100C0000000402401CB50121084600F041FC01210E
:100C1000022000F03DFC0121042000F039FC0121FC
:100C2000082000F035FC0121102000F031FC0120EB
:100C30008DF8040002208DF8050000208DF80600D4
:100C400002208DF807008002009069463E4800F0BF
:100C500083F84FF40050009069463B4800F07CF860
:100C60004FF4004000906946374800F075F84FF4A3
:100C7000805000906946344800F06EF84FF4804090
:100C800000906946304800F067F8012000906946FE
:100C90002D4800F061F80220009069462A4800F0D3
:100CA0005BF8042000906946274800F055F80820BA
:100CB00000906946244800F04FF8102000906946E3
:100CC000214800F049F88020009069461E4800F055
:100CD00043F84FF40070009069461C4800F03CF85F
:100CE00000208DF8040002208DF8050001208DF809
:100CF00006008DF80700802000906946134800F038
:100D00002BF84FF4807000906946104800F024F8EA
:100D10002020009069460E4800F01EF81020009038
:100D200069460B4800F018F84FF48050009069466F
:100D3000064800F011F84FF400400090694605485D
:100D400000F00AF81CBD0000000C02400004024044
:100D50000008024000100240F0B50A4600210023BE
:100D6000002400BF3DE0012505FA01F3156805EAFE
:100D700003049C4234D105684F000326BE40B543AE
:100D8000056015794E00B540066835430560157954
:100D9000012D02D01579022D16D185684F0003264A
:100DA000BE40B543856055794E00B54086683543F1
:100DB0008560456801268E40B54345604568967953
:100DC0008E40B6B235434560C5684F000326BE402D
:100DD000B543C560D5794E00B540C6683543C5609A
:100DE000491C1029BFD3F0BDF0B5002300244D07E6
:100DF000ED0E02FA05F3CE1000F1200555F826504D
:100E00004E07F70E0F26BE40B543CF1000F1200667
:100E100046F82750CE1000F1200555F8265045EA37
:100E20000304CE1000F1200545F82640F0BD02462F
:100E3000002013690B400BB1012000E00020704737
:100E400041837047018370470AB1018300E0418309
:100E5000704700BFFEE700BFFEE7704770B5002196
:100E600000230F22C4781CB3174C246804F4E064F8
:100E7000C4F5E064C4F30721C1F10404E3B20A41FC
:100E800044789C40E1B28478144021430C07210E41
:100E90000E4C05786155047804F01F050124AC4020
:100EA00005786D11AD0005F1E025C5F8004109E0B8
:100EB000047804F01F050124AC40054D0678761136
:100EC00045F8264070BD00000CED00E000E400E0B5
:100ED00080E100E002490143024A116070470000CE
:100EE0000000FA050CED00E000200CE0002106E017
:100EF0000022064B03EBC0135A544A1CD1B280297E
:100F0000F6DB421CD0B20828F0DB70477E040020DC
:100F10002DE9F04304460D4616461F46284638E0A4
:100F2000224631E0002A2DDB7F2A2BDC002829DB3A
:100F30003F2827DC4FEAE07C00EB5C7C4FEAEC0CBE
:100F4000DFF8588008EBCC1C1CF802C003464FEABF
:100F5000E07800EB58784FEAE808A0EBC8094FF0BA
:100F6000010808FA09F82CEA080C01464FEAE07873
:100F700000EB58784FEAE808DFF8209009EBC81832
:100F800008F802C0511C0AB2A1199142CADC411CE6
:100F900008B2E9198142C3DCBDE8F0837E04002079
:100FA0007CB5002406E0002500E06D1CB5F57A7FD5
:100FB000FBD3641CB4F57A7FF5D301210C2000F03B
:100FC00067FA01208DF8040003208DF80500002049
:100FD0008DF8060001208DF80700C00200906946D8
:100FE0001248FFF7B9FE4FF48050009069460F4851
:100FF000FFF7B2FE4FF48060009069460B48FFF7A0
:10100000ABFE4FF40070009069460948FFF7A4FE5C
:10101000002000F0F3F9012000F0FCF9012000F0BD
:1010200011FA012000F002FA7CBD00000008024025
:10103000000C024010B5FFF7B3FFAE2000F00EFA2F
:10104000D52000F00BFA802000F008FAA82000F06C
:1010500005FA3F2000F002FAD32000F0FFF900204B
:1010600000F0FCF9402000F0F9F9A12000F0F6F9B9
:10107000C82000F0F3F9DA2000F0F0F9122000F0B7
:10108000EDF9812000F0EAF9CF2000F0E7F9D9204E
:1010900000F0E4F9F12000F0E1F9DB2000F0DEF9E6
:1010A000302000F0DBF9A42000F0D8F9A62000F0F1
:1010B000D5F98D2000F0D2F9142000F0CFF9AF203F
:1010C00000F0CCF9FFF710FF00F084F910BD10B567
:1010D0000246012000E050430B1EA1F10101FAD1AC
:1010E00010BD70B50546002411E080212141294042
:1010F00009B1012100E00021084600F08BF9012030
:1011000000F07CF9002000F079F9601CC4B2082CD2
:10111000EBDB70BD70B505460C4645F0B00000F045
:101120009DF9102141EA141000F098F904F00F0025
:1011300000F094F970BD0000F8B506460F4614465D
:101140001D46082D0CD1A4F120000E4901EB001022
:101150001023082239460090304600F097F80FE03F
:10116000062D0DD1A4F1200000EB4000064901EB53
:1011700040000823062239460090304600F086F8E9
:10118000F8BD00007E3900086E3F00082DE9F04FE1
:101190002DED088B81B005468B46B0EE408AF0EE0F
:1011A000608A16469A46129C9FED360B53EC102B24
:1011B00051EC180BFFF7E4F906D823462B225946C9
:1011C0002846FFF7B9FF0BE023462D225946284653
:1011D000FFF7B2FF51EC180B81F0004141EC180B06
:1011E00051EC180BFFF788F980464046FFF777F976
:1011F00041EC190B53EC182BFFF7FCF841EC180BE2
:1012000051460A20FFF763FF07463846FFF767F9A4
:1012100041EC1B0B53EC182BFFF7EFF841EC1A0BCA
:10122000B0EE4A0AF0EE6A0A01F0A6FAB0EE409A71
:10123000F0EE609A51EC190BFFF75EF98146B9FBAD
:10124000F7F08044291908B23346424659460094C3
:1012500000F09AF8711C01FB045108B223462E22BB
:101260005946FFF769FFB11C01FB045108B2534610
:101270004A465946009400F087F801B0BDEC088B4F
:10128000BDE8F08F00000000000000002DE9FF4FD6
:1012900080460E469146DDF834B0002500244A46CB
:1012A00031464046039BFFF733FE00BF5EE000255A
:1012B00058E008EB0500002852DB08EB05007F280A
:1012C0004EDC3046F11706EB5171C9100FB2F11721
:1012D00006EB5171C910A6EBC10A002E05DA781E83
:1012E00007B20AF108000FFA80FA3819002817DB54
:1012F0003819072814DC3819224901EBC01008EB13
:101300000501405C04FB09511BF8011001FA0AF1C8
:10131000084339191B4A02EBC11108EB0502885436
:101320003819401C00281BDB3819401C072817DC23
:101330003819401C134901EBC01008EB0501405C53
:1013400004FB09511BF80110CAF1080211410843BE
:101350003919491C0B4A02EBC11108EB05028854EC
:10136000681CC5B24D45A4DB601CC4B20399481E7D
:10137000C11700EB5171012202EBE101A14296DCA1
:10138000BDE8FF8F7E0400202DE9F0470646894620
:1013900017461D46DDF82080002417E0281B411E5B
:1013A0000A20FFF794FEB7FBF0F00A21B0FBF1F240
:1013B00001FB120000F1300A04FB086108B2434649
:1013C00052464946FFF7B8FE601CC4B2AC42E5DBAA
:1013D000BDE8F08710B500240BE000212046FFF7A0
:1013E00099FE054901EBC410802100F040F8601C13
:1013F000C4B2082CF1DB10BD7E04002010B50446F9
:1014000022464FF480610248FFF71EFD10BD000028
:101410000008024010B5044622464FF480510248AD
:10142000FFF712FD10BD00000008024010B5044691
:1014300022464FF400610248FFF706FD10BD000090
:101440000008024010B5044622464FF400710248DD
:10145000FFF7FAFC10BD0000000C024010B5044676
:101460000020FFF7E3FF2046FFF73BFE10BD70B5FD
:1014700005460E460120FFF7D9FF002404E0285D51
:10148000FFF72FFE601CC4B2B442F8DB70BD70479A
:1014900029B1064A12680243044B1A6004E0034A69
:1014A00012688243014B1A607047000030380240D6
:1014B00029B1064A12680243044B1A6004E0034A49
:1014C00012688243014B1A607047000040380240A6
:1014D00029B1064A12680243044B1A6004E0034A29
:1014E00012688243014B1A607047000020380240A6
:1014F00029B1064A12680243044B1A6004E0034A09
:1015000012688243014B1A60704700004438024061
:10151000F0B5002100220024022500260223324FCC
:101520003F6807F00C0121B1042905D0082937D103
:1015300005E02E4F076036E02D4F076033E02A4F5D
:101540003F1F3F68C7F38056274F3F1F3F6807F094
:101550003F036EB1264FB7FBF3F7DFF88CC0ACF159
:10156000040CDCF800C0CCF3881C07FB0CF40CE086
:101570001E4FB7FBF3F7DFF870C0ACF1040CDCF8DA
:1015800000C0CCF3881C07FB0CF4174F3F1F3F68CB
:10159000C7F301477F1C7D00B4FBF5F7076002E04D
:1015A000124F076000BF00BF0F4F3F6807F0F00108
:1015B0000909104F7A5C0768D74047600A4F3F68B7
:1015C00007F4E051890A0B4F7A5C4768D74087607F
:1015D000054F3F6807F46041490B064F7A5C476846
:1015E000D740C760F0BD0000083802400024F40076
:1015F00000127A003601002000B587B001210220D8
:10160000FFF746FF01218803FFF752FF4FF46040C8
:10161000059002208DF8180000208DF81A00032094
:101620008DF8190001208DF81B0005A92148FFF74E
:1016300093FB05220D211F48FFF7D6FB05220E2143
:101640001C48FFF7D1FB05220F211A48FFF7CCFBFE
:1016500001218803FFF73CFF00214FF48040FFF792
:1016600037FF0020ADF800004FF48270ADF80200A3
:101670004FF40060ADF804000220ADF80600012030
:10168000ADF808004002ADF80A000020ADF80C00EB
:10169000ADF80E000720ADF810006946064800F0CE
:1016A00041F80121044800F023F8FF2000F006F87B
:1016B00007B000BD000402400038004010B50446E9
:1016C00000BF0221094800F01FF80028F9D0214688
:1016D000064800F025F800BF0121044800F014F886
:1016E0000028F9D0014800F018F810BD003800407B
:1016F00021B1028842F04002028004E002884FF6E5
:10170000BF731A40028070470246002013890B40C5
:101710000BB1012000E00020704701468889704726
:101720008181704710B50022028802F441520B8873
:101730004C8823438C882343CC8823430C89234340
:101740004C8923438C892343CC8923431A43028049
:10175000838B4FF2FF74234083830B8A038210BD77
:101760007047000030B500228B071C0F0F2303FACF
:1017700004F20B4B8C1053F824309343084C8D101B
:1017800044F8253023468C1053F824308C07240F5E
:1017900000FA04F42343024C8D1044F8253030BD88
:1017A000083801400CB500200190009034480068D2
:1017B00040F480303249086000BF3148006800F4CE
:1017C000003000900198401C0190009818B90198D1
:1017D000B0F5A04FF1D12A48006800F4003010B1F4
:1017E0000120009001E0002000900098012846D1DF
:1017F00023484030006840F0805021494031086063
:101800002048006840F440401E4908601C480830E9
:1018100000681B49083108600846006840F4004031
:1018200008600846006840F4A05008601648091F88
:101830000860081F006840F08070091F086000BF42
:101840000F48006800F000700028F9D040F20570E1
:101850000E4908600A480830006820F00300084973
:10186000083108600846006840F00200086000BFC8
:1018700003480830006800F00C000828F8D10CBDBF
:10188000003802400070004008544007003C02400D
:10189000042808D14FF0E021096941F004014FF01C
:1018A000E022116107E04FF0E021096921F0040115
:1018B0004FF0E022116170477047000010B51548E5
:1018C000006840F47000134908601348006840F055
:1018D00001001149086000200F49083108600E48D6
:1018E00000680E4908400C4908600D48091D086051
:1018F000081F006820F48020091F086000200649A6
:101900000C310860FFF74EFF4FF00060014980394D
:10191000086010BD88ED00E000380240FFFFF6FED1
:101920001030002410B50221084800F0D3FB18B194
:101930000221064800F0B0FB0421044800F0CAFB75
:1019400018B10421014800F0A7FB10BD00000140C0
:1019500010B500F05DF800F001F810BD1CB50121D4
:101960001020FFF795FD012208212848FFF73CFAD7
:10197000012209212548FFF737FA01220A212348CD
:10198000FFF732FA01220B212048FFF72DFA01223E
:101990000C211E48FFF728FA01220D211B48FFF7F2
:1019A00023FA02208DF804008DF8050000208DF840
:1019B000060001208DF807000002009069461348D8
:1019C000FFF7CAF94FF40070009069460F48FFF71F
:1019D000C3F94FF48060009069460C48FFF7BCF9EA
:1019E0004FF40060009069460848FFF7B5F94FF4DE
:1019F0008050009069460548FFF7AEF94FF400505B
:101A0000009069460148FFF7A7F91CBD001002408D
:101A100000B58DB001210846FFF76AFD40F634009D
:101A20000B900020ADF82800ADF830002020ADF874
:101A30002A000AA9324800F047FC6020ADF81400E3
:101A40000120ADF816000420ADF818000020ADF814
:101A50002000ADF82200ADF824004FF40070ADF87E
:101A600026000120079005A9254800F04DFB012024
:101A7000079005A9224800F085FB0020079005A9E2
:101A80001F4800F0D1FB4FF40060ADF80400401097
:101A9000ADF806008010ADF808004FF4B470ADF852
:101AA0000A000020ADF80C004FF40050ADF80E0015
:101AB0000020ADF8100001A9114800F0DDFA0E2158
:101AC0000F4800F0E9FA1B208DF8000000208DF887
:101AD000010001208DF802008DF803006846FFF731
:101AE000BDF901220E21064800F005FB0121044842
:101AF00000F0E1FA0121024800F0D1FA0DB000BD7A
:101B0000000001401FB501210846FFF7D1FC42F259
:101B1000D00002900420ADF804000020ADF80C00C5
:101B2000ADF8060001A94FF0804000F0CDFB012187
:101B3000880700F0B1FA01221146900700F0DBFAA5
:101B40001C208DF8000001208DF8010002208DF886
:101B5000020001208DF803006846FFF77FF901219C
:101B6000880700F09CFA1FBD10B52DED028BCD4803
:101B70000068401CCB490860084690ED000AB8EEAA
:101B8000C00ADFEDC90AB4EEE00AF1EE10FA07DB95
:101B9000C6480068401CC54908600020C14908606B
:101BA0000121880700F096FA01287DD1FEF72CFE6E
:101BB000BF4890ED000ADFEDBF0A30EE200A80ED4D
:101BC000000A90ED000ADFEDBC0AB4EEE00AF1EE87
:101BD00010FA08DB90ED000ADFEDB70A30EE600A7C
:101BE00080ED000A0FE0B24890ED000AB5EEC00AA1
:101BF000F1EE10FA07D890ED000ADFEDAF0A30EEF3
:101C0000200A80ED000AAD4890ED000AAC4880ED56
:101C1000000AAA4890ED010AAA4880ED000AA748E8
:101C200090ED020AA84880ED000AA84AA849A448F5
:101C300090ED000AA74801F08BFBA74AA749A148ED
:101C400090ED000AA34801F083FBA54AA5499E48F0
:101C500090ED000A9F4801F07BFBA349A348A44AEA
:101C600092ED001A9C4AD2ED000A9C4A92ED000ABD
:101C700000F00DFE9F49A0489D4A92ED001A984A37
:101C8000D2ED000A974A92ED000A00F000FE9B4850
:101C9000D0ED000A60EEA00A994890ED001AD0ED50
:101CA000001A41EE210A00E0F4E0B0EE600A954827
:101CB00000F014FE8D48D0ED000A60EEA00A8A48BC
:101CC00090ED001AD0ED001A41EE210AB0EE600A44
:101CD0008D4800F003FE8348D0ED000A60EEA00AB4
:101CE0007F4890ED001AD0ED001A41EE210AB0EEC7
:101CF000600A864800F0F2FD7B4890ED000A7B48C0
:101D0000D0ED000A80EE201AB0EE418AB0EE480A0B
:101D100000F080FCFFEE000A20EE200A7C4880EDF7
:101D2000000A90ED000AFEF74BFA7A4880ED000AAF
:101D3000744890ED000A7448D0ED000A20EE200AA5
:101D4000F6EE000A20EE200A734880ED000A90EDBE
:101D5000000A7048D0ED000A20EE200A6F4880ED9E
:101D6000000A6F4890ED000ADFED6E0AB4EEE00A5B
:101D7000F1EE10FA0EDD90ED000ADFED6B0AB4EE25
:101D8000E00AF1EE10FA05D290ED000A514801F098
:101D9000BDFB04E09FED650A4E4801F0B7FB6048CB
:101DA00090ED000ADFED610A30EE600AB0EEC00A85
:101DB000F7EE000AB4EEE00AF1EE10FA05D80120C1
:101DC0005B4908805B49086004E0002058490880AE
:101DD000584908605848007898B9354890ED000A8D
:101DE000434880ED000A46494448414A92ED001AB2
:101DF000364AD2ED000A364A92ED000A00F047FD5D
:101E000014E03F493D483A4A92ED001A2F4AD2ED7C
:101E1000000A2F4A92ED000A00F039FD344A404989
:101E2000374890ED000A454801F0F8F89FED440A64
:101E3000444880ED000A9FED440A444880ED000AC2
:101E4000434944482A4A92ED001A404AD2ED000A1A
:101E50003C4A92ED000A01F017F801F0D3FB3E482E
:101E60000078012805D101F0F1F900F0EBFD01F057
:101E7000C9FB384890ED000A384880ED000A344824
:101E800090ED000A354880ED010A022201463448EF
:101E900000F07EFB0121880700F0FEF8BDEC028B0C
:101EA00010BD000008010020FFFFF9440C010020D4
:101EB0009C0000207CD9203EDB0FC940500200204E
:101EC0007C000020800000203C000020A4000020B6
:101ED000A000002070030020B4000020B00000200B
:101EE0004C00002048000020BC000020B80000206A
:101EF000C40000205C00002058000020A800002042
:101F0000AC00002084000020880000206C0000202D
:101F100098000020940000208C00002090000020F9
:101F2000C000002000009C4300009E4363149D43BA
:101F300000000020AC824142040000202004002068
:101F400000400345D800002000000000DC00002015
:101F5000EC000020E8000020030000202002002008
:101F6000480100201FB501210220FFF7A1FA41F22C
:101F7000A16002909020ADF804000020ADF80C00A4
:101F8000ADF8060001A9104800F09EF901210E48A5
:101F900000F082F8012211460B4800F0ACF81D2039
:101FA0008DF8000004208DF8010003208DF8020058
:101FB00001208DF803006846FEF750FF012102481A
:101FC00000F06DF81FBD00000004004010B52DEDBD
:101FD000028B82B00121234800F07CF8012838D11F
:101FE000FEF782FF0820042300901F4800210268AA
:101FF0000846FFF7C9F91D4890ED000ADFED1C0AFD
:1020000080EE201A11EE104A2046FEF78EFA41ECBF
:10201000180B082002230322B0EE480AF0EE680AEB
:10202000102100900020FFF7B1F812480068FEF779
:102030007CFA41EC180B082002230322B0EE480A78
:10204000F0EE680A302100900020FFF79FF8FFF7BC
:10205000C1F90121034800F01FF802B0BDEC028B6A
:1020600010BD0000000400400C010020C000002052
:10207000DB0FC940C40000200A884B881A438B88B4
:102080001A43CB881A430B891A434B891A438B890D
:102090001A43A0F844207047CA430282704721B116
:1020A000028842F00102028004E002884FF6FE73CB
:1020B0001A400280704731B1B0F8442042F4004227
:1020C000A0F8442005E0B0F84420C2F30E02A0F8C6
:1020D0004420704730B50246002000230024158AB2
:1020E00005EA0103958905EA010413B10CB1012049
:1020F00000E0002030BD1AB183890B43838102E0E8
:1021000083898B438381704770B5002400220023AC
:10211000058C4FF6FE7635400584028C8388048B4F
:102120004FF68F752C40B51E2C400D882C43751E24
:102130002A408D892A434D882A43104DA84202D057
:102140000F4DA84213D14FF6F7752A40CD892A4387
:102150004FF6FB752A408D882A434FF6FF652B40CA
:102160004FF6FF552B400D8A2B434D8A2B4383801E
:1021700004838D684563028470BD00000000014047
:102180000004014070B5002400220023058C4FF6A6
:10219000EF7635400584028C8388048B48F6FF7502
:1021A0002C404FF6FF452C400D884FF6FF7606EA8F
:1021B00005252C434FF6DF752A408D8906EA051563
:1021C0002A434D8806EA05152A43154DA84202D038
:1021D000144DA8421DD14FF67F752A40CD894FF688
:1021E000FF7606EA05152A434FF6BF752A408D880B
:1021F00006EA05152A434FF6FF352B404FF2FF75CF
:102200002B400D8A06EA85052B434D8A06EA850593
:102210002B43838004838D688563028470BD000036
:10222000000001400004014070B50024002200239A
:10223000058C4FF6FF6635400584028C8388848BBD
:102240004FF68F752C404FF6FC752C400D882C43B3
:102250004FF6FF552A408D894FF6FF7606EA052591
:102260002A434D8806EA05252A43154DA84202D087
:10227000144DA8421DD14FF2FF752A40CD894FF66B
:10228000FF7606EA05252A434FF6FF352A408D885A
:1022900006EA05252A434EF6FF752B404DF6FF75DD
:1022A0002B400D8A06EA05152B434D8A06EA0515D3
:1022B0002B43838084838D68C563028470BD0000D6
:1022C000000001400004014000220288184B98429F
:1022D0000ED0184B98420BD0B0F1804F08D0164B5F
:1022E000984205D0154B984202D0154B984204D124
:1022F0004FF68F731A404B881A43124B984207D0FF
:10230000114B984204D04FF6FF431A400B891A43F1
:1023100002804B68C3620B880385054B984202D04C
:10232000044B984201D18B7A038601238382704744
:10233000000001400004014000040040000800408B
:10234000000C0040001000400014004010B540F2A6
:1023500025511D4800F057F810B31B4800F00CF948
:10236000C4B21A48008800F40040C8B91748008871
:1023700000F4804060B10A2C03D00020134908808B
:1023800020E01248008840F400401049088019E01D
:102390000D2C06D10D48008840F480400B49088080
:1023A00010E00A480088C0F30D0009490C540748A2
:1023B0000088401C0549088008460088C72801DDC0
:1023C0000020088010BD00000010014034010020F2
:1023D0007E08002021B1828942F40052828104E00B
:1023E00082894DF6FF731A408281704702460020B1
:1023F000B1F5007F00D100BF13880B400BB1012065
:1024000000E00020704770B502460024002300253C
:10241000002040F66A16B14200D100BFC1F3421558
:1024200001F01F03012606FA03F3012D02D196895C
:10243000334006E0022D02D1168A334001E0968A2D
:1024400033400C12012606FA04F41688344013B106
:102450000CB1012000E0002070BDF0B5034600245F
:1024600000260025002040F66A17B94200D100BFBF
:102470001846C1F3421401F01F06012707FA06F5BA
:10248000012C01D10C3004E0022C01D1103000E00D
:1024900014301AB107682F43076002E00768AF43A2
:1024A0000760F0BD2DE9FF4705460E460024A14612
:1024B00000BFA046B08900B100BF2C8A24F440546C
:1024C000F08804432C82AC8941F20C608443B088CC
:1024D00031890843718908430443AC81AC8A24F4F0
:1024E0004074B0890443AC826846FFF711F8204875
:1024F000854202D01F48854202D1DDF80C9001E0F0
:10250000DDF80890A88900F4004040B109EBC9004B
:1025100000EB091031684900B0FBF1F707E009EB67
:10252000C90000EB091031688900B0FBF1F76420A5
:10253000B7FBF0F004012009642101FB1078A889A1
:1025400000F4004040B1322000EBC800B0FBF1F0D5
:1025500000F00700044308E0322000EB081064217B
:10256000B0FBF1F000F00F0004432C81BDE8FF87C1
:10257000001001400014014001468888C0F30800A3
:102580007047C1F308028280704700BFFEE7000079
:1025900070B505460E4614464FF6FF7000EA8402F9
:1025A0003146284600F008F804220249284600F087
:1025B00003F870BD7A3900082DE9F04107460D4651
:1025C000164600240BE0295D0748FFF7DAFF00BF3D
:1025D00040210548FFF70AFF0128F9D1641CB442E5
:1025E000F1DBBDE8F081000000100140410008026D
:1025F00018BF04200A0E18BF40F001004FF07F42C0
:1026000032EA010108BF40F00200012808BF05209E
:102610007047000010B54FF00E412DED028BB0EE6B
:10262000408A18EE100A01EB4001B1F1145F5CD250
:102630004FF0FE41B1EB400F24BF9FED400AF0EE9A
:10264000400A12D210F0004F19BFDFED3D0A9FED96
:102650003D0ADFED3D0A9FED3D0AFFEE001A81EED7
:10266000881AB0EE418A18EE100A4FF0FC41B1EB27
:10267000400F1BD210F0004FDFED351A9FED352AC9
:102680001DBFBEEE001A70EEE10A30EE420AB6EE51
:10269000001A04BF70EEA10A30EE020A38EE412A99
:1026A000F7EE001A48EE011A82EE218ADFED2A1AAF
:1026B0009FED2A2A28EE081A01EE212ADFED281ABA
:1026C00041EE021A9FED272A01EE212ADFED261A9C
:1026D00041EE021A28EE011A01EE210A30EE080A34
:1026E000BDEC028B30EE200A10BD4FF0E441B1EB9F
:1026F000400F0CD918EE100AFFF778FF042808BF26
:1027000000F0AEF8B0EE480ABDEC028B10BD4FF001
:102710007F41B1EB400F07D2B0EE480ABDEC028B0F
:10272000BDE8104000F098B810F0004F14BF9FEDC6
:102730000F0A9FED0F0ABDEC028B10BD00000000D8
:102740000000C9BF22AAFDB90000C93F22AAFD3975
:102750000060ED3EC30ACE372DAD65BD8FB8D53DC7
:102760000FB511BE61C84C3EA8AAAABEDB0FC9BFF7
:10277000DB0FC93F0000000010B52DED020B2DED61
:10278000088B84B09DED0C0B51EC100BFDF79EFFF8
:1027900041EC180B9DED0C0B53EC182B51EC100B6E
:1027A000FDF725FE41EC190B0D989FED290B10F05C
:1027B000004F53EC102B51EC190B9FED21AB9FED0B
:1027C00022BB0ED0FDF7C4FE0ED953EC1B2B51ECEF
:1027D000190BFDF7D5FE1CD214E000BF41EC180B1D
:1027E00017E0FDF7B5FE06D253EC1A2B51EC180B8F
:1027F000FDF7FDFDF2E753EC1B2B51EC190BFDF738
:10280000BFFE06D853EC1A2B51EC180BFDF74EFD0A
:10281000E4E78DED028B9DED0C0B18EE901A10EE97
:10282000900A8DED000B61F31E0003909DED020BED
:1028300004B0BDEC088B02B010BD00000000000029
:10284000000000000000F03F000000000000E03F3A
:10285000000000000000E0BF30EE000A70470000FA
:102860009FED020A20EE000A7047000000000010F1
:1028700002E008C8121F08C1002AFAD17047704749
:10288000002001E001C1121F002AFBD1704770B582
:102890002DED068BB0EE408AF0EE608AB0EE419AE4
:1028A00004460D46B0EE490AFDF7C6FCF0EE409A2C
:1028B000B0EE490AFDF784FCB0EE40AA28EE0A0A01
:1028C00008EEA90A84ED000A28EE8A0A08EE690AD1
:1028D00085ED000ABDEC068B70BD00000146B5EE2B
:1028E000C00AF1EE10FA05DBF1EEC00AC1ED000AF4
:1028F00000207047DFED030AC1ED000A4FF0FF3002
:10290000F7E700000000000010B5DFED350A9FED8D
:10291000350A354800F079FDDFED310A9FED310AC7
:10292000324800F072FD9FED321ADFED310A9FED63
:102930002D0A304800F0F4FB9FED2F1ADFED2F0A2F
:10294000B6EE000A2E4800F0C9FA9FED2B1ADFED13
:102950002D0A9FED2D0A2D4800F0C0FA9FED261A92
:10296000DFED2B0A9FED2B0A2B4800F0B7FA9FED05
:10297000221ADFED2A0A9FED2A0A2A4800F0AEFA51
:102980009FED1D1ADFED280A9FED280A284800F068
:10299000A5FA9FED191ADFED270A9FED270A2748B0
:1029A00000F09CFA4FF44070FEF794FAA82000F073
:1029B000E5F9FDF70DFFFEF71FFEFEF723F9FEF721
:1029C0000BF8FEF737FB1E4800F080FFFEF7C0FF54
:1029D000FFF798F8FFF7C6FAFEF786FA10BD000079
:1029E00063149D436F12033A70030020C803002054
:1029F0000000C842200400200000000017B7D138B2
:102A0000B00200205839B43CC442AD3DD002002091
:102A10000AD7A33DCDCC4C3FF002002082A87B39E1
:102A2000C364AA3B10030020E02D103B6F12833CCF
:102A3000300300206F12833BA69B443B50030020D1
:102A400080841E0010B52DED028BB448007870BB59
:102A5000B34890ED000ADFEDB30A80EE201AB0EE25
:102A6000418AB14890ED000ADFEDB00A60EE200A1D
:102A70009FEDAC1A80EE810AAD48D0ED000A30EE31
:102A8000200AF0EE408AB0EE082AF8EE081AA948AB
:102A900090ED001AF0EE480AA74800F03DFAA5486C
:102AA000D0ED000A30EEC00A80ED000A44E0FFE7F6
:102AB0009A48007801282AD1A04890ED000AB5EE86
:102AC000C00AF1EE10FA04D89FED9D0A80ED000ACD
:102AD0000DE09A4890ED000AF0EE000AB4EEE00A2C
:102AE000F1EE10FA03DBB0EE000A80ED000A954823
:102AF00090ED000AFFEE000A20EE200A8F48D0ED8C
:102B0000000A20EE200A8B4880ED000A14E083487A
:102B10000078022810D1B7EE000A884880ED000A3C
:102B2000894890ED000AB1EE400ADFED7E0A20EE02
:102B3000200A804880ED000A9FED810A834880EDDD
:102B4000000A7C4890ED000AF0EE080AB4EEE00AB4
:102B5000F1EE10FA04DDB0EE080A80ED000A0DE097
:102B6000744890ED000AF8EE080AB4EEE00AF1EEBF
:102B700010FA03D2B8EE080A80ED000A744890ED0E
:102B8000002A90ED000AF1EE401A724890ED001A0A
:102B90007148D0ED000A674890ED000A6F4800F0D8
:102BA000BBF96C48D0ED000A30EE200A80ED000A37
:102BB000674890ED002A90ED000AF1EE401A68484F
:102BC00090ED001A6748D0ED000A604890ED000AC9
:102BD000654800F0A1F96248D0ED000A30EE200A05
:102BE00080ED000A5B4890ED000A5948D0ED000ADC
:102BF000B4EEE00AF1EE10FA05DD90ED000A55485A
:102C000080ED000A13E0534890ED000A5048D0EDE3
:102C1000000AF1EE600AB4EEE00AF1EE10FA06D214
:102C200090ED000AB1EE400A4A4880ED000A4C4897
:102C300090ED000A4648D0ED000AB4EEE00AF1EE4D
:102C400010FA05DD90ED000A454880ED000A11E01C
:102C5000434890ED000A3E48D0ED000AF1EE600ACC
:102C6000B4EEE00AF1EE10FA04D290ED000A3C480E
:102C700080ED000A3D493E483E4A92ED001A384A2E
:102C8000D2ED000A334A92ED000A00F0FDF8384810
:102C900090ED000A2E48D0ED000AB4EEE00AF1EE05
:102CA00010FA05DD90ED000A314880ED000A13E0CE
:102CB0002F4890ED000A2648D0ED000AF1EE600A98
:102CC000B4EEE00AF1EE10FA06D290ED000AB1EE91
:102CD000400A274880ED000A2548D0ED000A60EE42
:102CE000A00A224890ED001AD0ED001AB0EE600A5A
:102CF00001EE210AB5EEC00AF1EE10FA05DBF1EEA5
:102D0000C00A1D48C0ED000A05E0DFED0D0A1A48B3
:102D1000C0ED000A00BFBDEC028B10BD0400002016
:102D200084000020F304B53F88000020FB3A703E89
:102D300070000020C8000020B002002034000020F5
:102D4000000000006C00002074000020CC00002077
:102D500024010020D8000020B8000020D00200206C
:102D6000DC000020BC000020F0020020EC0000206D
:102D7000E8000020C4000020F800002010B5044640
:102D80006FF00400FEF784FDE11704EB5171C1F30D
:102D9000C701074A11701046007800EB4001C1EBF3
:102DA000C0104FF6FF7101EAC0000249088010BD53
:102DB0002C0100202E01002070B504464FF407704E
:102DC00094FBF0F0C6B24FF4077094FBF0F100FBF7
:102DD000114085B205E04FF4077000F02FF8701E27
:102DE000C6B2002EF7D115B1284600F027F870BD05
:102DF0000146114A12784A434FF0E0235A610022FB
:102E00009A611A46126942F001021A6100BF4FF03E
:102E1000E022106900F001021AB100F48032002AA9
:102E2000F5D04FF0E022126922F001024FF0E023CA
:102E30001A6100229A6170472C0100200146114A54
:102E400012884A434FF0E0235A6100229A611A46E1
:102E5000126942F001021A6100BF4FF0E0221069CE
:102E600000F001021AB100F48032002AF5D04FF0D0
:102E7000E022126922F001024FF0E0231A610022E1
:102E80009A6170472E01002070B52DED068BB0EED3
:102E9000408AF0EE608AB0EE419A04460D46B0EEEC
:102EA000490AFDF7C9F9F0EE409AB0EE490AFDF77C
:102EB00087F9B0EE40AA28EE0A0A08EEE90A84ED86
:102EC000000A28EE8A0A08EE290A85ED000ABDEC00
:102ED000068B70BDFFF718FD00BFFEE7DFED0D1A92
:102EE000C0ED001ADFED0B1AC0ED011ADFED091A73
:102EF000C0ED021ADFED071AC0ED031ADFED051A67
:102F0000C0ED041A80ED050AC0ED060A80ED071A2F
:102F10007047000000000000F0EE402AC0ED002ADB
:102F2000C0ED010A90ED003AD0ED013A33EE633A7C
:102F300080ED023A90ED023AB5EEC03AF1EE10FAA9
:102F400008DB90ED023ADFED323AB4EEE33AF1EE0F
:102F500010FA0FD990ED023AB5EEC03AF1EE10FA40
:102F600010D890ED023ADFED2B3AB4EEE33AF1EEF1
:102F700010FA07DB9FED283A80ED023A9FED263AE2
:102F800080ED033A90ED023AD0ED033A33EE633A26
:102F9000D0ED053A23EE233AD0ED063A90ED024A01
:102FA00003EE843AD0ED023A90ED034AF0EE004A87
:102FB00044EEC43A90ED044A73EE843A90ED074A29
:102FC000B0EE430A04EE230A31EE003AB4EEC23A00
:102FD000F1EE10FA06DA31EE003AB4EEE13AF1EE33
:102FE00010FA0BD890ED023AD0ED033A33EE633A83
:102FF000D0ED053A23EE233AB0EE430A90ED033AC2
:1030000080ED043A90ED023A80ED033A70470000FB
:103010000AD7A33C0AD7A3BC00000000D0ED130AD6
:10302000C0ED140AD0ED120AC0ED130A80ED120AA9
:10303000D0ED100AC0ED110AD0ED090A90ED121A78
:1030400060EE810A90ED0A1AD0ED131A41EE210AC2
:1030500090ED0B1AD0ED111A41EE610A90ED0C1AA9
:10306000C0EE811AC0ED101AD0ED0E0AC0ED0F0AA5
:10307000D0ED0D0AC0ED0E0AD0ED080A90ED121A3F
:1030800060EE810A90ED071AD0ED131A41EE210A85
:1030900090ED061AD0ED141A41EE210A90ED041AB3
:1030A000D0ED0E1A41EE610A90ED031AD0ED0F1A21
:1030B00041EE610A90ED051AC0EE811AC0ED0D1ABD
:1030C000D0ED0D0A9FED151AF4EEC10AF1EE10FADB
:1030D00008DDD0ED0D0A9FED111A70EEC10AC0EDAA
:1030E0000D0A0EE0D0ED0D0AF5EEC00AF1EE10FA71
:1030F00007D8D0ED0D0A9FED091A70EE810AC0EDD8
:103100000D0AD0ED0D0AC2ED000AD0ED100AB0EEA6
:10311000001AC0EE811AC1ED001A7047DB0FC940DA
:1031200080ED000AC0ED010A80ED021AF1EE001AEE
:10313000C0ED031AFAEE001AC0ED041AF1EE001AFF
:10314000C0ED051AD0ED021A90ED002A61EE821A48
:1031500090ED002A61EE821A90ED012AF0EE002A2D
:1031600022EE222AD0ED002A42EE621AC0ED061AA3
:10317000D0ED021AB0EE002A61EE821A90ED002A1C
:1031800061EE821A90ED002A61EE821AC0ED071AF4
:10319000D0ED011AB0EE002A61EE821A90ED002AFD
:1031A00061EE821A90ED002A22EE022AD0ED022A68
:1031B00042EE221AC0ED081AD0ED001A90ED022A54
:1031C00061EE821A90ED012AF0EE002A42EE821A98
:1031D000C0ED091AD0ED001A90ED022A61EE821AB4
:1031E00090ED012AF0EE002A42EEC21AC0ED0A1A52
:1031F000F8EE001AC0ED0B1AF0EE001AC0ED0C1A32
:10320000DFED101AC0ED0D1ADFED0E1AC0ED0E1A2B
:10321000DFED0C1AC0ED0F1ADFED0B1AC0ED101A1E
:10322000DFED091AC0ED111ADFED061AC0ED121A12
:10323000DFED041AC0ED131ADFED021AC0ED141A07
:10324000704700000000000063149D4310B529483A
:1032500090ED000ADFED280AB4EEE00AF1EE10FA74
:1032600009DC264890ED000ADFED250AB4EEE00AFD
:10327000F1EE10FA3ADD00F081FA002021490870E1
:103280009FED211ADFED210AB6EE000A2048FFF774
:1032900025FE9FED1D1ADFED1F0A9FED1F0A1F4837
:1032A000FFF71CFE9FED181ADFED1D0A9FED1D0AAA
:1032B0001D48FFF713FE9FED141ADFED1C0A9FED6A
:1032C0001C0A1C48FFF70AFE9FED0F1ADFED1A0AD1
:1032D0009FED1A0A1A48FFF701FE9FED0B1ADFED6A
:1032E000190A9FED190A1948FFF7F8FD00BF00BF42
:1032F00010BD00008400002000003442880000203F
:10330000A60ABE40030000200000000017B7D13815
:10331000B00200205839B43CC442AD3DD002002078
:103320000AD7A33DCDCC4C3FF002002082A87B39C8
:10333000C364AA3B10030020E02D103B6F12833CB6
:10334000300300206F12833BA69B443B50030020B8
:10335000D0ED070AC0ED080AD0ED060AC0ED070A55
:1033600080ED060AD0ED010AC0ED020AD0ED000A98
:10337000C0ED010AD0ED0F0A90ED061A60EE810A49
:1033800090ED101AD0ED081A41EE210A90ED111AB5
:10339000D0ED011A41EE210A90ED121AD0ED021A79
:1033A00041EE210AC0ED000AD0ED040AC0ED050A85
:1033B000D0ED030AC0ED040AD0ED130A90ED061A11
:1033C00060EE810A90ED141AD0ED071A41EE210A41
:1033D00090ED151AD0ED081A41EE210A90ED111A60
:1033E000D0ED041A41EE210A90ED121AD0ED051A23
:1033F00041EE210AC0ED030AD0ED000AC1ED000A3A
:10340000D0ED030AC2ED000A704780ED0B0AB6EE5C
:10341000001A80ED0A1AC0ED090A90ED0A1AF0EEC2
:10342000001A21EE211AD0ED091A21EE211AD0ED51
:103430000B1A21EE211A80ED0C1A90ED091AD0ED2D
:103440000B1A21EE211AD0ED091A21EE211AD0ED26
:103450000B1A21EE211A80ED0D1A90ED0C1AD0ED09
:103460000D1A31EE211AF1EE001A31EE211AF7EEA3
:10347000001A81EE812A80ED0E2A90ED0C1AD0ED13
:103480000E1A21EE211A80ED0F1A90ED0F1AFFEEA1
:10349000001A21EE211A80ED101A90ED0D1AF1EEAE
:1034A000001A31EEC11AF0EE001A21EE211AD0ED09
:1034B0000E1A21EE211A80ED111A90ED0C1AD0EDA2
:1034C0000D1A31EE611AF1EE001A31EE611AD0EDEB
:1034D0000E1A21EE211A80ED121A90ED0A1AD0ED83
:1034E0000D1A21EE211AD0ED0E1A21EE211A80EDCF
:1034F000131A90ED131AF0EE001A21EE211A80ED46
:10350000141A90ED131A80ED151A704780ED090A10
:10351000D0ED0A0AB0EE001A60EE810A90ED091AA9
:1035200060EE810A90ED0B1A60EE810AC0ED0C0A84
:10353000D0ED090A90ED0B1A60EE810A90ED091AA0
:1035400060EE810A90ED0B1A60EE810AC0ED0D0A63
:10355000D0ED0C0A90ED0D1A70EE810AB1EE001A52
:1035600070EE810AB7EE001AC1EE201AC0ED0E1AF5
:10357000D0ED0C0A90ED0E1A60EE810AC0ED0F0A34
:10358000D0ED0F0ABFEE001A60EE810AC0ED100AFE
:10359000D0ED0D0AB1EE001A71EE600AB0EE001A1D
:1035A00060EE810A90ED0E1A60EE810AC0ED110AFC
:1035B000D0ED0C0A90ED0D1A70EEC10AB1EE001AB2
:1035C00070EEC10A90ED0E1A60EE810AC0ED120A8B
:1035D000D0ED0A0A90ED0D1A60EE810A90ED0E1AF8
:1035E00060EE810AC0ED130AD0ED130AB0EE001AA6
:1035F00060EE810AC0ED140AD0ED130AC0ED150A81
:103600007047000041F2680052490860084690ED9A
:10361000000AB8EE400ADFED500A20EE200A4F48BB
:1036200080ED000A084690ED000AB8EE400ADFED92
:103630004C0A20EE200A4B4880ED000A084690ED27
:10364000000AB8EE400A4848D0ED000A474890ED1D
:10365000001A00EE810AF0EE000A80EE201ABCEE9D
:10366000C10A434880ED000A084690ED000AB8EE12
:10367000400A3D48D0ED000A3C4890ED001A00EEAB
:10368000C10AF0EE000A80EE201ABCEEC10A3948E9
:1036900080ED000A364890ED000AB8EE400A2F4847
:1036A000D0ED000AB4EEE00AF1EE10FA08DD90ED7C
:1036B000000ABCEEC00A10EE100A2F49486348E029
:1036C0002B4890ED000AB8EE400A2648D0ED000ADB
:1036D000B4EEE00AF1EE10FA08D290ED000ABCEE6A
:1036E000C00A10EE100A2449486332E0214890EDE8
:1036F000000AB8EE400A1948D0ED000AB4EEE00A1C
:10370000F1EE10FA08DD90ED000ABCEEC00A10EEF2
:10371000100A194988631CE0164890ED000AB8EEBB
:10372000400A1048D0ED000AB4EEE00AF1EE10FABB
:1037300008D290ED000ABCEEC00A10EE100A0E4945
:10374000886306E00A4800680B4948630948006836
:1037500088637047180100203333733F2401002031
:10376000CDCC4C3D28010020E800002014010020B1
:103770001C010020200100200000014010B54FF482
:1037800080513848FDF75EFB4FF480413548FDF726
:1037900059FB01213348FDF755FB3348008C20F0DD
:1037A0000500314908840846008C20F05000088448
:1037B0000846008C20F4A06008849FED2C1ADFEDF1
:1037C0002C0AB6EE000A2B48FFF788FB9FED271A5C
:1037D000DFED290A9FED290A2948FFF77FFB9FEDBE
:1037E000231ADFED280A9FED280A2848FFF776FB09
:1037F0009FED1E1ADFED260A9FED260A2648FFF7E9
:103800006DFB9FED1A1ADFED250A9FED250A25486D
:10381000FFF764FB9FED151ADFED230A9FED230AE6
:103820002348FFF75BFB9FED110A224880ED000A59
:103830009FED0E0A204880ED000A9FED0C0A1F48FC
:1038400080ED000A9FED090A1D4880ED000A9FEDFA
:10385000070A1C4880ED000A9FED040A1A4880ED13
:10386000000A10BD000C02400000014000000000F2
:1038700017B7D138B00200205839B43CC442AD3D2E
:10388000D00200200AD7A33DCDCC4C3FF00200204F
:1038900082A87B39C364AA3B10030020E02D103BB3
:1038A0006F12833C300300206F12833BA69B443B86
:1038B00050030020C8000020CC000020D8000020C9
:1038C000DC000020E8000020EC00002010B588B0EB
:1038D000044601210846FDF7DBFD01211020FDF71C
:1038E00007FE072209212248FDF77EFA07220A2156
:1038F0001F48FDF779FA4FF4C060069002208DF85A
:103900001C008DF81D0000208DF81E0001208DF890
:103910001F0006A91648FDF71FFA02940020ADF813
:103920000C00ADF80E00ADF81000ADF814000C203E
:10393000ADF8120002A90F48FEF7B4FD01210D48B1
:10394000FEF748FD012240F225510A48FEF785FDA9
:1039500025208DF8040003208DF805008DF8060061
:1039600001208DF8070001A8FDF778FA08B010BD16
:103970000000024000100140AFFA0000807F00000C
:103980000000000000000000000000000000000037
:1039900000F80000000000000033300000000016B6
:1039A0000E00160E0000000000000000000040C0E5
:1039B0007840C0784000043F04043F0404000070D5
:1039C00088FC08300000001820FF211E0000F008CD
:1039D000F000E018000000211C031E211E0000F072
:1039E0000888700000001E212324192721100000E0
:1039F00000160E00000000000000000000000000A3
:103A000000E0180402000000000718204000000237
:103A10000418E000000000402018070000004040AB
:103A200080F0804040000202010F0102020000000D
:103A300000F0000000000101011F01010100000071
:103A400000000000000000B0700000000000000056
:103A5000000000000000000101010101010100005F
:103A600000000000000000303000000000000000F6
:103A7000000080601804006018060100000000E0EB
:103A800010080810E000000F102020100F00001098
:103A900010F8000000000020203F202000000070EF
:103AA00008080888700000302824222130000030E7
:103AB0000888884830000018202020110E000000DF
:103AC000C02010F8000000070424243F240000F860
:103AD0000888880808000019212020110E0000E045
:103AE000108888180000000F112020110E000038E7
:103AF0000808C83808000000003F000000000070FF
:103B0000880808887000001C222121221C0000E087
:103B100010080810E0000000312222110F00000000
:103B200000C0C000000000000030300000000000B5
:103B300000C0C0000000000080B070000000000065
:103B400080402010080000010204081020004040BE
:103B50004040404040000404040404040400000801
:103B600010204080000000201008040201000070B6
:103B700048080808F0000000003036010000C0309E
:103B8000C828E810E0000718272423140B000000C1
:103B9000C038E0000000203C23020227382008F84B
:103BA000888888700000203F202020110E00C0303F
:103BB000080808083800071820202010080008F816
:103BC00008080810E000203F202020100F0008F80F
:103BD0008888E8081000203F20202320180008F8DB
:103BE0008888E8081000203F200003000000C03053
:103BF00008080838000007182020221E020008F8D4
:103C000008000008F808203F210101213F2000089A
:103C100008F8080800000020203F202000000000D5
:103C20000808F8080800C08080807F00000008F8BD
:103C300088C028180800203F20012638200008F8F6
:103C4000080000000000203F20202020300008F85D
:103C5000F800F8F80800203F003F003F200008F877
:103C600030C00008F808203F200007183F00E0108F
:103C700008080810E0000F10202020100F0008F89E
:103C800008080808F000203F210101010000E010B1
:103C900008080810E0000F18242438504F0008F8D6
:103CA000888888887000203F2000030C3020007036
:103CB0008808080838000038202121221C00180834
:103CC00008F8080818000000203F2000000008F84D
:103CD00008000008F808001F202020201F00087896
:103CE000880000C83808000007380E010000F808F6
:103CF00000F80008F800033C0700073C0300081820
:103D000068808068180820302C03032C3020083885
:103D1000C800C83808000000203F2000000010083C
:103D20000808C83808002038262120201800000084
:103D300000FE020202000000007F40404000000C34
:103D400030C000000000000000010638C000000282
:103D50000202FE000000004040407F000000002002
:103D600010080408102000000000000000000000FF
:103D70000000000000008080808080808080000241
:103D80000408000000000000000000000000000027
:103D90008080808000000019242222223F2008F821
:103DA000008080000000003F112020110E00000064
:103DB000008080800000000E1120202011000000F3
:103DC00000808088F800000E112020103F200000A5
:103DD000808080800000001F2222222213000080A9
:103DE00080F0888888180020203F202000000000F4
:103DF000808080808000006B94949493600008F829
:103E0000008080800000203F210000203F200080B3
:103E10009898000000000020203F202000000000B3
:103E200000809898000000C08080807F000008F823
:103E3000000080808000203F24022D3020000008F8
:103E400008F8000000000020203F202000008080B3
:103E5000808080808000203F20003F20003F008045
:103E600080008080000000203F2100203F200000D3
:103E7000808080800000001F202020201F00808084
:103E800000808000000080FFA12020110E000000B3
:103E9000008080808000000E112020A0FF808080A4
:103EA00080008080800020203F2120000100000051
:103EB0008080808080000033242424241900008026
:103EC00080E0808000000000001F20200000808033
:103ED000000000808000001F202020103F208080F4
:103EE00080000080808000010E3008060100808084
:103EF0000080008080800F300C030C300F000080A9
:103F00008000808080000020312E0E3120008080D3
:103F100080000080808080818E7018060100008003
:103F20008080808080000021302C22213000000021
:103F30000000807C020200000000003F40400000C2
:103F40000000FF00000000000000FF000000000271
:103F5000027C800000000040403F00000000008024
:103F600040408000008000000000000101000000CF
:103F7000000000000000002F000000000700070004
:103F800000147F147F1400242A7F2A1200231308B0
:103F9000646200364955225000000007000000000E
:103FA0001C224100000041221C000014083E08149D
:103FB0000008083E0808000000A06000000808088B
:103FC0000808000060600000002010080402003EA5
:103FD0005149453E0000427F400000426151494640
:103FE000002141454B31001814127F100027454530
:103FF0004539003C4A494930000171090503003642
:104000004949493600064949291E00003636000054
:104010000000563600000008142241000014141459
:104020001414000041221408000201510906003E48
:104030004955592E007C1211127C007F494949369E
:10404000003E41414122007F4141221C007F4949FD
:104050004941007F09090901003E4149497A007F31
:104060000808087F0000417F4100002040413F01D7
:10407000007F08142241007F40404040007F020C36
:10408000027F007F0408107F003E4141413E007FD7
:1040900009090906003E4151215E007F09192946A0
:1040A0000046494949310001017F0101003F40407C
:1040B000403F001F2040201F003F4038403F00632A
:1040C000140814630007087008070061514945434C
:1040D00000007F414100000204081020000041411F
:1040E0007F00000402010204004040404040000004
:1040F00001020400002054545478007F484444389E
:1041000000384444442000384444487F0038545424
:10411000541800087E0901020018A4A4A47C007FA2
:10412000080404780000447D4000004080847D0045
:10413000007F102844000000417F4000007C0418EC
:104140000478007C0804047800384444443800FCB7
:10415000242424180018242418FC007C08040408D3
:1041600000485454542000043F444020003C404048
:10417000207C001C2040201C003C4030403C00447F
:1041800028102844001CA0A0A07C004464544C4487
:104190000000087F41000000007F00000000417F18
:1041A0000800000804081008EFBC8C0000000000A4
:1041B000000000000000000000000000005838006F
:1041C0000000000000000000000000E3808200000A
:1041D00000000000000000000000000000000000DF
:1041E0001824241800000000000000000000E4BDB6
:1041F000A0008060F8074020180F08C80808281899
:1042000000010000FF00100C0340807F0001061831
:1042100000E5A5BD1010F01F10F000808282E29230
:104220008A868000402215081661000040807F00C9
:1042300000000000E4B896202020FE2020FF20206F
:1042400020FF20202020000000007F404047444401
:1042500044474040400000E7958C000000FE9292E9
:1042600092FE929292FE0000000008080484621EF2
:10427000010001FE020404080800000000FF010123
:10428000013109090909897101010101FFFF8080DC
:10429000808080809681808080808080FFFF018187
:1042A0008181FD8991A1C1FD81818101FFFF808014
:1042B00080809F888482819F80808080FF000000B2
:1042C00000000000920E493CB10AC93C2BC3163DC8
:1042D0002EFB483D752B7B3D04A9963D80B6AF3D36
:1042E00036BDC83D2FBCE13D73B2FA3D87CF093ED4
:1042F0008340163EB5AB223EA2102F3ECF6E3B3E12
:10430000C2C5473E0115543E135C603E7F9A6C3E29
:10431000CCCF783EC07D823E938E883E229A8E3EE0
:1043200032A0943E86A09A3EE59AA03E128FA63E09
:10433000D47CAC3EEF63B23E2A44B83E491DBE3E3B
:1043400015EFC33E53B9C93ECA7BCF3E4136D53E79
:1043500080E8DA3E4F92E03E7533E63EBBCBEB3E63
:10436000EA5AF13ECBE0F63E275DFC3EE4E7003F33
:104370003D9C033F824B063F9BF5083F6B9A0B3FEA
:10438000DA390E3FCDD3103F2A68133FD9F6153FD7
:10439000C07F183FC6021B3FD17F1D3FCBF61F3F9A
:1043A0009967223F25D2243F5636273F1594293F4F
:1043B0004AEB2B3FDE3B2E3FBB85303FC9C8323F27
:1043C000F304353F233A373F4268393F3B8F3B3F49
:1043D000F9AE3D3F67C73F3F70D8413F01E2433FE1
:1043E00003E4453F65DE473F12D1493FF8BB4B3FF1
:1043F000029F4D3F207A4F3F3D4D513F4918533F5B
:1044000031DB543FE595563F5348583F6AF2593FD8
:104410001A945B3F532D5D3F05BE5E3F2146603FD2
:1044200097C5613F5A3C633F59AA643F880F663F76
:10443000D86B673F3CBF683FA7096A3F0C4B6B3F97
:104440005E836C3F93B26D3F9ED86E3F73F56F3FB6
:104450000809713F5213723F4714733FDD0B743FDD
:104460000BFA743FC6DE753F07BA763FC58B773FC0
:10447000F853783F9812793F9DC7793F02737A3F8E
:10448000BE147B3FCDAC7B3F283B7C3FC9BF7C3F0C
:10449000AC3A7D3FCCAB7D3F23137E3FB0707E3F77
:1044A0006DC47E3F580E7F3F6D4E7F3FAB847F3F94
:1044B0000FB17F3F97D37F3F43EC7F3F11FB7F3F9F
:1044C0000000803F11FB7F3F43EC7F3F97D37F3F4E
:1044D0000FB17F3FAB847F3F6D4E7F3F580E7F3FD4
:1044E0006DC47E3FB0707E3F23137E3FCCAB7D3FDB
:1044F000AC3A7D3FC9BF7C3F283B7C3FCDAC7B3F86
:10450000BE147B3F02737A3F9DC7793F9812793F73
:10451000F853783FC58B773F07BA763FC6DE753FC5
:104520000BFA743FDD0B743F4714733F5213723F15
:104530000809713F73F56F3F9ED86E3F93B26D3F90
:104540005E836C3F0C4B6B3FA7096A3F3CBF683FE3
:10455000D86B673F880F663F59AA643F5A3C633F58
:1045600097C5613F2146603F05BE5E3F532D5D3FCD
:104570001A945B3F6AF2593F5348583FE595563FBE
:1045800031DB543F4918533F3D4D513F207A4F3F57
:10459000029F4D3FF8BB4B3F12D1493F65DE473F7D
:1045A00003E4453F01E2433F70D8413F67C73F3FC7
:1045B000F9AE3D3F3B8F3B3F4268393F233A373F9F
:1045C000F304353FC9C8323FBB85303FDE3B2E3F49
:1045D0004AEB2B3F1594293F5636273F25D2243FDF
:1045E0009967223FCBF61F3FD17F1D3FC6021B3F7D
:1045F000C07F183FD9F6153F2A68133FCDD3103F2F
:10460000DA390E3F6B9A0B3F9BF5083F824B063F12
:104610003D9C033FE4E7003F275DFC3ECBE0F63ED8
:10462000EA5AF13EBBCBEB3E7533E63E4F92E03E9D
:1046300080E8DA3E4136D53ECA7BCF3E53B9C93E0B
:1046400015EFC33E491DBE3E2A44B83EEF63B23E5D
:10465000D47CAC3E128FA63EE59AA03E86A09A3E40
:1046600032A0943E229A8E3E938E883EC07D823E3A
:10467000CCCF783E7F9A6C3E135C603E0115543E71
:10468000C2C5473ECF6E3B3EA2102F3EB5AB223E89
:104690008340163E87CF093E73B2FA3D2FBCE13D01
:1046A00036BDC83D80B6AF3D04A9963D752B7B3D18
:1046B0002EFB483D2BC3163DB10AC93C920E493C26
:1046C00000000000920E49BCB10AC9BC2BC316BD44
:1046D0002EFB48BD752B7BBD04A996BD80B6AFBD32
:1046E00036BDC8BD2FBCE1BD73B2FABD87CF09BED0
:1046F000834016BEB5AB22BEA2102FBECF6E3BBE0E
:10470000C2C547BE011554BE135C60BE7F9A6CBE25
:10471000CCCF78BEC07D82BE938E88BE229A8EBEDC
:1047200032A094BE86A09ABEE59AA0BE128FA6BE05
:10473000D47CACBEEF63B2BE2A44B8BE491DBEBE37
:1047400015EFC3BE53B9C9BECA7BCFBE4136D5BE75
:1047500080E8DABE4F92E0BE7533E6BEBBCBEBBE5F
:10476000EA5AF1BECBE0F6BE275DFCBEE4E700BF2F
:104770003D9C03BF824B06BF9BF508BF6B9A0BBFE6
:10478000DA390EBFCDD310BF2A6813BFD9F615BFD3
:10479000C07F18BFC6021BBFD17F1DBFCBF61FBF96
:1047A000996722BF25D224BF563627BF159429BF4B
:1047B0004AEB2BBFDE3B2EBFBB8530BFC9C832BF23
:1047C000F30435BF233A37BF426839BF3B8F3BBF45
:1047D000F9AE3DBF67C73FBF70D841BF01E243BFDD
:1047E00003E445BF65DE47BF12D149BFF8BB4BBFED
:1047F000029F4DBF207A4FBF3D4D51BF491853BF57
:1048000031DB54BFE59556BF534858BF6AF259BFD4
:104810001A945BBF532D5DBF05BE5EBF214660BFCE
:1048200097C561BF5A3C63BF59AA64BF880F66BF72
:10483000D86B67BF3CBF68BFA7096ABF0C4B6BBF93
:104840005E836CBF93B26DBF9ED86EBF73F56FBFB2
:10485000080971BF521372BF471473BFDD0B74BFD9
:104860000BFA74BFC6DE75BF07BA76BFC58B77BFBC
:10487000F85378BF981279BF9DC779BF02737ABF8A
:10488000BE147BBFCDAC7BBF283B7CBFC9BF7CBF08
:10489000AC3A7DBFCCAB7DBF23137EBFB0707EBF73
:1048A0006DC47EBF580E7FBF6D4E7FBFAB847FBF90
:1048B0000FB17FBF97D37FBF43EC7FBF11FB7FBF9B
:1048C000000080BF11FB7FBF43EC7FBF97D37FBF4A
:1048D0000FB17FBFAB847FBF6D4E7FBF580E7FBFD0
:1048E0006DC47EBFB0707EBF23137EBFCCAB7DBFD7
:1048F000AC3A7DBFC9BF7CBF283B7CBFCDAC7BBF82
:10490000BE147BBF02737ABF9DC779BF981279BF6F
:10491000F85378BFC58B77BF07BA76BFC6DE75BFC1
:104920000BFA74BFDD0B74BF471473BF521372BF11
:10493000080971BF73F56FBF9ED86EBF93B26DBF8C
:104940005E836CBF0C4B6BBFA7096ABF3CBF68BFDF
:10495000D86B67BF880F66BF59AA64BF5A3C63BF54
:1049600097C561BF214660BF05BE5EBF532D5DBFC9
:104970001A945BBF6AF259BF534858BFE59556BFBA
:1049800031DB54BF491853BF3D4D51BF207A4FBF53
:10499000029F4DBFF8BB4BBF12D149BF65DE47BF79
:1049A00003E445BF01E243BF70D841BF67C73FBFC3
:1049B000F9AE3DBF3B8F3BBF426839BF233A37BF9B
:1049C000F30435BFC9C832BFBB8530BFDE3B2EBF45
:1049D0004AEB2BBF159429BF563627BF25D224BFDB
:1049E000996722BFCBF61FBFD17F1DBFC6021BBF79
:1049F000C07F18BFD9F615BF2A6813BFCDD310BF2B
:104A0000DA390EBF6B9A0BBF9BF508BF824B06BF0E
:104A10003D9C03BFE4E700BF275DFCBECBE0F6BED4
:104A2000EA5AF1BEBBCBEBBE7533E6BE4F92E0BE99
:104A300080E8DABE4136D5BECA7BCFBE53B9C9BE07
:104A400015EFC3BE491DBEBE2A44B8BEEF63B2BE59
:104A5000D47CACBE128FA6BEE59AA0BE86A09ABE3C
:104A600032A094BE229A8EBE938E88BEC07D82BE36
:104A7000CCCF78BE7F9A6CBE135C60BE011554BE6D
:104A8000C2C547BECF6E3BBEA2102FBEB5AB22BE85
:104A9000834016BE87CF09BE73B2FABD2FBCE1BDFD
:104AA00036BDC8BD80B6AFBD04A996BD752B7BBD14
:104AB0002EFB48BD2BC316BDB10AC9BC920E49BC22
:104AC00000000080E44A00080000002048010000C7
:104AD00078070008284B000848010020000C00005F
:104AE000802800080110258716D93D0B18803F0447
:104AF00011690401375BC0414801456563149D435A
:104B0000092E540918302748E17A3F68104B3408C1
:104B10000411246079455AD268812D0102030404EE
:084B200025060708090000004A
:040000050800019D51
:00000001FF
