:020000040800F2
:10000000200D00209D010008030E0008FB0D0008D4
:10001000FF0D0008110900083F2300080000000040
:1000200000000000000000000000000009170008A8
:1000300015090008000000003714000861180008C6
:10004000B7010008B7010008B7010008B7010008B0
:10005000B7010008B7010008B7010008B7010008A0
:10006000B7010008B701000817090008B701000828
:10007000B7010008B7010008B7010008B701000880
:10008000B7010008B7010008B7010008B701000870
:10009000B7010008B7010008B701000831090008DE
:1000A000B7010008B7010008B7010008CD18000823
:1000B000711B0008791D0008B7010008B70100088E
:1000C000B7010008B7010008B7010008B701000830
:1000D000B701000801210008B7010008B7010008B6
:1000E000B7010008B7010008B7010008B701000810
:1000F000B7010008B7010008B7010008B701000800
:10010000B7010008B7010008B7010008B7010008EF
:10011000B7010008B7010008B7010008B7010008DF
:10012000B7010008B7010008B7010008B7010008CF
:10013000B7010008B7010008B7010008B7010008BF
:10014000B7010008B7010008B7010008B7010008AF
:10015000B7010008B7010008B7010008B70100089F
:10016000B7010008B7010008B7010008B70100088F
:10017000B7010008B7010008B7010008B70100087F
:10018000B7010008B7010008DFF80CD000F0E2FA70
:1001900000480047A5260008200D0020064880479B
:1001A00006480047FEE7FEE7FEE7FEE7FEE7FEE75C
:1001B000FEE7FEE7FEE7FEE7651800088901000894
:1001C0009FED1A1AF5EE000A40EE010ABDEEE00AB4
:1001D000F5EEC00A10EE100AF1EE10FA38BF401E1C
:1001E00000EE100A1349F7EE001AB8EEC00A30EE1E
:1001F000C00ADFED0F0A20EE200AFCEEC00A10EE66
:10020000900AC0F3080000EE900A01EB8000F8EEBF
:10021000600A90ED011A70EE600A90ED000A71EE2E
:10022000E01A21EE800A00EE810A704783F9223E2F
:1002300000000044003C0008DFED190AB5EEC00ADA
:1002400060EE200ABDEEE01A11EE100AF1EE10FA8F
:1002500038BF401E00EE100A1349F7EE001AB8EE40
:10026000C00A30EEC00ADFED0F0A60EE200ABCEED5
:10027000E00A10EE100AC0F3080000EE100A01EBCD
:100280008000B8EE400A90ED011A70EEC00A90EDC1
:10029000000A71EEE01A21EE800A00EE810A704732
:1002A00083F9223E00000044003C00082DE9FE4F87
:1002B000804681EA0300C00F0C46009021F0004107
:1002C00023F00045B8EB0200A94105D24046214683
:1002D00090461C460B46024623F00040104347D090
:1002E000270DC7F30A00C3F30A510290401A019088
:1002F00040286BDAC3F3130040F4801B0098924649
:1003000020B10023D2EB030A63EB0B0B0198594693
:10031000C0F14002504600F04BF906460D465046EB
:100320005946019A00F063F910EB0800614100247E
:1003300087EA115284EAE7731A4340D0009A62B305
:10034000019A012A4FEA075215DC001B61EB0201FA
:100350004FF0004202EA0752CDE90042001C41F58D
:10036000801132462B4600F063F903B0BDE8F08FF0
:1003700040462146F9E7001B61EB0201001C41F5F4
:10038000801300185B412018A2F5001747EB03010A
:1003900040EAD570B6196D4111E06D084FEA360696
:1003A00045EAC0754FEA0752001B61EB0201001CD1
:1003B00041F5801149084FEA300000195141324699
:1003C0002B4603B0BDE8F04F00F023B9009801229E
:1003D00040000023D0EB020263EBE073009821465B
:1003E0004FEAE074B8EB000061EB0401E9E783F049
:1003F00000435BE781F0004158E72DE9FE4F81EAB9
:10040000030404F0004421F0004100944FF0000B7D
:1004100023F0004350EA01045ED052EA03045BD0AB
:10042000C3F30A54C1F30A552C44A4F2F3340194E3
:10043000A0FB0254C1F3130141F48011C3F3130371
:1004400043F4801301FB024400FB034E840A970A25
:1004500044EA815447EA8357A4FB076802958D0A52
:1004600005FB07854FEA932C04FB0C542705029DDE
:100470004FEA065847EA1637B5EB08056EEB070C4E
:10048000870E920E47EA811742EA8312A7FB020108
:10049000B6EB0B0164EB00042B0D43EA0C335E1842
:1004A00044EB1C50DA465146E7FB0201C5F3130446
:1004B0004FEA0B3343EA14534FEA0432019C43EAF8
:1004C0000603A4F10C040294009CCDE900B400F0F2
:1004D000AFF803B0BDE8F08F00200146F9E70EB594
:1004E00040F2334102910021CDE900110A460B464A
:1004F00000F09EF803B000BDC1F30A5210B5C1F37D
:10050000130140F2FF3341F480119A4201DA0020D6
:1005100010BD40F233439A42A2F2334203DC52420E
:1005200000F055F810BD904010BD00F0004230F0D2
:1005300000400AD0C10D01F56071C0F3160042EA17
:100540000151C2084007114370470020014670471F
:1005500030B5041E71F1000404DB4FF0004440424A
:1005600064EB0101141E73F1000405DB1C464FF01F
:100570000043524263EB04038B4208BF824230BD0A
:1005800030B5041E71F1000404DB4FF0004440421A
:1005900064EB0101141E73F1000405DB1C464FF0EF
:1005A0000043524263EB0403994208BF904230BDBE
:1005B000202A04DB203A00FA02F100207047914023
:1005C000C2F1200320FA03F3194390407047202A18
:1005D00004DB203A21FA02F00021704721FA02F3ED
:1005E000D040C2F120029140084319467047202AAA
:1005F00006DBCB17203A41FA02F043EAE07306E04B
:1006000041FA02F3D040C2F120029140084319465A
:10061000704710B5141E73F1000408DA401C41F154
:10062000000192185B411A4301D120F0010010BD76
:100630002DE9F04D92469B4611B1B1FA81F202E0EC
:10064000B0FA80F220329046FFF7B2FF04460F4620
:1006500040EA0A0041EA0B0153465A46084313D0C8
:10066000114653EA010019D0C8F140025046FFF785
:10067000AEFF05460E46504659464246FFF798FFE4
:10068000084305D0012004E020463946BDE8F08D3E
:100690000020054346EAE0762C4337430A98630579
:1006A000E40AA0EB08000022FD0A44EA47540A309D
:1006B00002D500200146E9E7010510196941DDE98D
:1006C000084500196941BDE8F04DA2E72DE9F04168
:1006D000054621F000400C46284309D0C4F30A50D7
:1006E00040F23341884205DD28462146BDE8F081CD
:1006F0002846FBE740F2FE31884210DC0CDB4FEA73
:10070000043040EA155050EA053105D0104804F095
:10071000004101430020E9E700200146E6E7A0F29E
:1007200033404642C6F1400228462146FFF740FFCB
:1007300007468846284621463246FFF748FF43468B
:100740003A46FFF766FF3246BDE8F041FFF730BF9B
:100750000000F03F064C074D06E0E06840F0010362
:1007600094E8070098471034AC42F6D3FFF710FD29
:10077000044400082444000810B500F0D7F92021F3
:10078000094800F033FB012001F024FF4FF4807191
:10079000064800F02BFB00F097F8012001F01AFF4B
:1007A00000F0A6F810BD000000040240000802405E
:1007B00010B5314800F06CF800205AE02E4931F8AD
:1007C0001010B1F5004F14DA2B4931F8101000EE7B
:1007D000101AB8EE400AF2EE040A20EE200ADFED0D
:1007E000270A80EE201A264901EB800181ED001ACC
:1007F0001FE0214931F81010C943491C1E4A22F854
:100800001010114631F8101000EE101AB8EE400A20
:10081000F2EE040A20EE200AFFEE000A20EE200A83
:10082000DFED160A80EE201A154901EB800181EDFB
:10083000001A134901EB800191ED000A114901EB07
:100840008001D1ED000A70EE600A0F4901EB8001D2
:1008500091ED001A80EE810A0C4901EB8001D1ED87
:10086000000A30EE200A064901EB800181ED000A02
:10087000401C0828A2DB10BD200200200000004719
:1008800030020020500200201000002070020020E2
:1008900070B505464FF480710A4800F0A5FA0024AF
:1008A00005E0FF2000F0DEFE25F81400641C082C93
:1008B000F7DB4FF48071034800F098FA00F018F865
:1008C00070BD00000008024010B50121074800F08B
:1008D0008BFA0121054800F089FA012001F096FE0B
:1008E0000121024800F080FA10BD0000000402401F
:1008F00010B52021054800F077FA012001F086FEAE
:100900002021024800F072FA10BD000000040240ED
:1009100000BFFEE7704710B5102000F0B1F80128C5
:1009200002D1022000F08CF8102000F083F810BDF6
:1009300010B5202000F0A4F8012806D1032000F013
:100940007FF8202000F076F810BD802000F098F8A5
:10095000012805D100F074F8802000F06BF8F3E76F
:100960004FF4807000F08CF8012807D1002000F0CF
:1009700067F84FF4807000F05DF8E5E700BFE3E74B
:100980000EB50121880300F087FD0721012000F04A
:10099000BDFE0821012000F0B9FE0521084600F047
:1009A000B5FE0421022000F0B1FE102000900020CE
:1009B0008DF8040008208DF8050001208DF8060050
:1009C000684600F069F8A020009000208DF804002F
:1009D0000C208DF8050001208DF80600684600F017
:1009E0005BF84FF48070009008208DF80500684691
:1009F00000F052F80A208DF8080000208DF8090058
:100A000002208DF80A0001208DF80B0002A800F0EA
:100A1000F9F917208DF8080001208DF8090002204F
:100A20008DF80A0001208DF80B0002A800F0EAF909
:100A30000EBD00000149086070470000143C0140F1
:100A400070B504466CB1012C04D0022C11D0032CDB
:100A500010D107E04FF48051074800F0BCF905467B
:100A600008E007E04FF40041044800F0B4F90546FF
:100A700000E000BF00BF70BD000402400010024053
:100A800001460020034A12680A400AB1012000E032
:100A900000207047143C0140002123498279002A3C
:100AA0003AD00A46126803689A430B461A600A1D38
:100AB000126803689A430B1D1A60027911440A6890
:100AC00003681A430A60184A0832126803689A4396
:100AD000154B08331A601A1D126803689A43124BAB
:100AE0000C331A604279102A0ED11A1F126803685B
:100AF0001A430D4B08331A601A1D126803681A4313
:100B0000094B0C331A600DE00749427911440A6819
:100B100003681A430A6005E0027911440A68036811
:100B20009A430A6070470000003C01401CB5012157
:100B3000084600F081FC0121022000F07DFC01212B
:100B4000042000F079FC0121082000F075FC4FF42E
:100B50008070009001208DF8040000208DF80600C0
:100B600003208DF8050001208DF8070069460D4827
:100B700000F0C6F801208DF8040000208DF8060072
:100B800003208DF8050001208DF8070000906946CC
:100B9000054800F0B5F8202000906946024800F0B2
:100BA000AFF81CBD00080240000402401CB5012142
:100BB000084600F041FC0121022000F03DFC01212B
:100BC000042000F039FC0121082000F035FC01214F
:100BD000102000F031FC01208DF8040002208DF877
:100BE000050000208DF8060002208DF80700800225
:100BF000009069463E4800F083F84FF400500090A2
:100C000069463B4800F07CF84FF40040009069468C
:100C1000374800F075F84FF480500090694634482A
:100C200000F06EF84FF4804000906946304800F0C4
:100C300067F80120009069462D4800F061F8022015
:100C4000009069462A4800F05BF80420009069464D
:100C5000274800F055F8082000906946244800F025
:100C60004FF8102000906946214800F049F8802094
:100C7000009069461E4800F043F84FF40070009061
:100C800069461C4800F03CF800208DF80400022062
:100C90008DF8050001208DF806008DF807008020F2
:100CA00000906946134800F02BF84FF480700090D4
:100CB0006946104800F024F82020009069460E484C
:100CC00000F01EF81020009069460B4800F018F85C
:100CD0004FF4805000906946064800F011F84FF438
:100CE000004000906946054800F00AF81CBD00006D
:100CF000000C0240000402400008024000100240C4
:100D0000F0B50A4600210023002400BF3DE0012584
:100D100005FA01F3156805EA03049C4234D105681D
:100D20004F000326BE40B543056015794E00B5401F
:100D30000668354305601579012D02D01579022D1D
:100D400016D185684F000326BE40B54385605579AE
:100D50004E00B540866835438560456801268E4063
:100D6000B5434560456896798E40B6B235434560D7
:100D7000C5684F000326BE40B543C560D5794E0017
:100D8000B540C6683543C560491C1029BFD3F0BDC6
:100D9000F0B5002300244D07ED0E02FA05F3CE1046
:100DA00000F1200555F826504E07F70E0F26BE40DD
:100DB000B543CF1000F1200646F82750CE1000F1C1
:100DC000200555F8265045EA0304CE1000F1200511
:100DD00045F82640F0BD0246002013690B400BB1D8
:100DE000012000E000207047418370470183704775
:100DF0000AB1018300E04183704700BFFEE700BFF6
:100E0000FEE7704770B5002100230F22C4781CB3A1
:100E1000174C246804F4E064C4F5E064C4F30721CB
:100E2000C1F10404E3B20A4144789C40E1B2847801
:100E3000144021430C07210E0E4C057861550478AF
:100E400004F01F050124AC4005786D11AD0005F1DB
:100E5000E025C5F8004109E0047804F01F050124ED
:100E6000AC40054D0678761145F8264070BD00006F
:100E70000CED00E000E400E080E100E00249014305
:100E8000024A1160704700000000FA050CED00E016
:100E900000200CE0002106E00022064B03EBC0130B
:100EA0005A544A1CD1B28029F6DB421CD0B2082821
:100EB000F0DB7047540400202DE9F04304460D4652
:100EC00016461F46284638E0224631E0002A2DDB30
:100ED0007F2A2BDC002829DB3F2827DC4FEAE07C37
:100EE00000EB5C7C4FEAEC0CDFF8588008EBCC1C84
:100EF0001CF802C003464FEAE07800EB58784FEA4E
:100F0000E808A0EBC8094FF0010808FA09F82CEA34
:100F1000080C01464FEAE07800EB58784FEAE80801
:100F2000DFF8209009EBC81808F802C0511C0AB27B
:100F3000A1199142CADC411C08B2E9198142C3DC03
:100F4000BDE8F083540400207CB5002406E00025B1
:100F500000E06D1CB5F57A7FFBD3641CB4F57A7F95
:100F6000F5D301210C2000F067FA01208DF8040070
:100F700003208DF8050000208DF8060001208DF873
:100F80000700C002009069461248FFF7B9FE4FF40F
:100F90008050009069460F48FFF7B2FE4FF4806022
:100FA000009069460B48FFF7ABFE4FF400700090CD
:100FB00069460948FFF7A4FE002000F0F3F901207C
:100FC00000F0FCF9012000F011FA012000F002FA13
:100FD0007CBD000000080240000C024010B5FFF785
:100FE000B3FFAE2000F00EFAD52000F00BFA8020FF
:100FF00000F008FAA82000F005FA3F2000F002FAFD
:10100000D32000F0FFF9002000F0FCF9402000F0B0
:10101000F9F9A12000F0F6F9C82000F0F3F9DA2080
:1010200000F0F0F9122000F0EDF9812000F0EAF96B
:10103000CF2000F0E7F9D92000F0E4F9F12000F02A
:10104000E1F9DB2000F0DEF9302000F0DBF9A4202C
:1010500000F0D8F9A62000F0D5F98D2000F0D2F9E3
:10106000142000F0CFF9AF2000F0CCF9FFF710FF0B
:1010700000F084F910BD10B50246012000E0504395
:101080000B1EA1F10101FAD110BD70B50546002477
:1010900011E080212141294009B1012100E0002116
:1010A000084600F08BF9012000F07CF9002000F0E8
:1010B00079F9601CC4B2082CEBDB70BD70B5054635
:1010C0000C4645F0B00000F09DF9102141EA1410E3
:1010D00000F098F904F00F0000F094F970BD0000E2
:1010E000F8B506460F4614461D46082D0CD1A4F14E
:1010F00020000E4901EB0010102308223946009011
:10110000304600F097F80FE0062D0DD1A4F1200035
:1011100000EB4000064901EB400008230622394657
:101120000090304600F086F8F8BD0000BE3200089E
:10113000AE3800082DE9F04F2DED088B81B0054643
:101140008B46B0EE408AF0EE608A16469A46129CB4
:101150009FED360B53EC102B51EC180BFFF710FAE8
:1011600006D823462B2259462846FFF7B9FF0BE045
:1011700023462D2259462846FFF7B2FF51EC180BA3
:1011800081F0004141EC180B51EC180BFFF7B4F95A
:1011900080464046FFF7A3F941EC190B53EC182B9E
:1011A000FFF728F941EC180B51460A20FFF763FFBF
:1011B00007463846FFF793F941EC1B0B53EC182B0D
:1011C000FFF71BF941EC1A0BB0EE4A0AF0EE6A0A7F
:1011D00001F0E6F8B0EE409AF0EE609A51EC190B8F
:1011E000FFF78AF98146B9FBF7F08044291908B264
:1011F000334642465946009400F09AF8711C01FBB0
:10120000045108B223462E225946FFF769FFB11C4C
:1012100001FB045108B253464A465946009400F077
:1012200087F801B0BDEC088BBDE8F08F000000002E
:10123000000000002DE9FF4F80460E469146DDF884
:1012400034B0002500244A4631464046039BFFF750
:1012500033FE00BF5EE0002558E008EB05000028E3
:1012600052DB08EB05007F284EDC3046F11706EB19
:101270005171C9100FB2F11706EB5171C910A6EBED
:10128000C10A002E05DA781E07B20AF108000FFA2B
:1012900080FA3819002817DB3819072814DC3819A8
:1012A000224901EBC01008EB0501405C04FB095129
:1012B0001BF8011001FA0AF1084339191B4A02EB25
:1012C000C11108EB050288543819401C00281BDBAB
:1012D0003819401C072817DC3819401C134901EB4A
:1012E000C01008EB0501405C04FB09511BF801101C
:1012F000CAF10802114108433919491C0B4A02EB93
:10130000C11108EB05028854681CC5B24D45A4DB29
:10131000601CC4B20399481EC11700EB5171012231
:1013200002EBE101A14296DCBDE8FF8F54040020EE
:101330002DE9F0470646894617461D46DDF8208010
:10134000002417E0281B411E0A20FFF794FEB7FB7C
:10135000F0F00A21B0FBF1F201FB120000F1300ABB
:1013600004FB086108B2434652464946FFF7B8FEFF
:10137000601CC4B2AC42E5DBBDE8F08710B50024C8
:101380000BE000212046FFF799FE054901EBC41050
:10139000802100F040F8601CC4B2082CF1DB10BDC5
:1013A0005404002010B5044622464FF480610248E0
:1013B000FFF71EFD10BD00000008024010B50446F6
:1013C00022464FF480510248FFF712FD10BD000085
:1013D0000008024010B5044622464FF4006102485E
:1013E000FFF706FD10BD00000008024010B50446DE
:1013F00022464FF400710248FFF7FAFC10BD0000CE
:10140000000C024010B504460020FFF7E3FF204621
:10141000FFF73BFE10BD70B505460E460120FFF7F5
:10142000D9FF002404E0285DFFF72FFE601CC4B242
:10143000B442F8DB70BD704729B1064A1268024316
:10144000044B1A6004E0034A12688243014B1A609D
:10145000704700003038024029B1064A1268024342
:10146000044B1A6004E0034A12688243014B1A607D
:10147000704700004038024029B1064A1268024312
:10148000044B1A6004E0034A12688243014B1A605D
:10149000704700002038024029B1064A1268024312
:1014A000044B1A6004E0034A12688243014B1A603D
:1014B0007047000044380240F0B5002100220024AB
:1014C000022500260223324F3F6807F00C0121B1AC
:1014D000042905D0082937D105E02E4F076036E0F2
:1014E0002D4F076033E02A4F3F1F3F68C7F38056F8
:1014F000274F3F1F3F6807F03F036EB1264FB7FBF2
:10150000F3F7DFF88CC0ACF1040CDCF800C0CCF3CE
:10151000881C07FB0CF40CE01E4FB7FBF3F7DFF859
:1015200070C0ACF1040CDCF800C0CCF3881C07FBE5
:101530000CF4174F3F1F3F68C7F301477F1C7D0026
:10154000B4FBF5F7076002E0124F076000BF00BF71
:101550000F4F3F6807F0F0010909104F7A5C0768E8
:10156000D74047600A4F3F6807F4E051890A0B4FA4
:101570007A5C4768D7408760054F3F6807F4604151
:10158000490B064F7A5C4768D740C760F0BD000042
:10159000083802400024F40000127A0016010020EE
:1015A00000B587B001210220FFF746FF0121880323
:1015B000FFF752FF4FF46040059002208DF81800AD
:1015C00000208DF81A0003208DF8190001208DF8F5
:1015D0001B0005A92148FFF793FB05220D211F4899
:1015E000FFF7D6FB05220E211C48FFF7D1FB052291
:1015F0000F211A48FFF7CCFB01218803FFF73CFFBE
:1016000000214FF48040FFF737FF0020ADF80000C5
:101610004FF48270ADF802004FF40060ADF80400A2
:101620000220ADF806000120ADF808004002ADF838
:101630000A000020ADF80C00ADF80E000720ADF850
:1016400010006946064800F041F80121044800F006
:1016500023F8FF2000F006F807B000BD00040240A8
:101660000038004010B5044600BF0221094800F0D0
:101670001FF80028F9D02146064800F025F800BFE1
:101680000121044800F014F80028F9D0014800F0C6
:1016900018F810BD0038004021B1028842F0400225
:1016A000028004E002884FF6BF731A400280704740
:1016B0000246002013890B400BB1012000E00020FE
:1016C00070470146888970478181704710B50022B4
:1016D000028802F441520B884C8823438C882343B0
:1016E000CC8823430C8923434C8923438C8923438F
:1016F000CC8923431A430280838B4FF2FF7423402B
:1017000083830B8A038210BD7047000030B500222E
:101710008B071C0F0F2303FA04F20B4B8C1053F8AA
:1017200024309343084C8D1044F8253023468C1008
:1017300053F824308C07240F00FA04F42343024C9E
:101740008D1044F8253030BD083801400CB500201C
:10175000019000903448006840F4803032490860BD
:1017600000BF3148006800F4003000900198401C30
:101770000190009818B90198B0F5A04FF1D12A480E
:10178000006800F4003010B10120009001E000205A
:1017900000900098012846D123484030006840F06E
:1017A00080502149403108602048006840F44040A2
:1017B0001E4908601C48083000681B490831086051
:1017C0000846006840F4004008600846006840F49D
:1017D000A05008601648091F0860081F006840F004
:1017E0008070091F086000BF0F48006800F000709B
:1017F0000028F9D040F205700E4908600A48083008
:10180000006820F0030008490831086008460068B5
:1018100040F00200086000BF03480830006800F094
:101820000C000828F8D10CBD0038024000700040C0
:1018300008544007003C0240042808D14FF0E02142
:10184000096941F004014FF0E022116107E04FF017
:10185000E021096921F004014FF0E0221161704795
:101860007047000010B51548006840F47000134937
:1018700008601348006840F001001149086000202A
:101880000F49083108600E4800680E4908400C49AD
:1018900008600D48091D0860081F006820F48020BA
:1018A000091F0860002006490C310860FFF74EFF51
:1018B0004FF0006001498039086010BD88ED00E0FC
:1018C00000380240FFFFF6FE1030002410B51E481D
:1018D0000088B0F5C87F02DB00201B4908801B4848
:1018E0000088B0F5C87F02DB00201849088002217B
:1018F000174800F0C5FA80B11648134A128850F80C
:101900002210134800F0B6FB0F480088401C0E4917
:10191000088002210E4800F095FA04210C4800F0DE
:10192000AFFA80B10B48094A128850F822100848D3
:1019300000F0A2FB05480088401C044908800421EF
:10194000034800F07FFA10BDFC000020FE000020DC
:1019500000000140782C000810B500F05DF800F0A0
:1019600001F810BD1CB501211020FFF765FD012213
:1019700008212848FFF70CFA012209212548FFF722
:1019800007FA01220A212348FFF702FA01220B215C
:101990002048FFF7FDF901220C211E48FFF7F8F956
:1019A00001220D211B48FFF7F3F902208DF80400F6
:1019B0008DF8050000208DF8060001208DF8070045
:1019C0000002009069461348FFF79AF94FF400703F
:1019D000009069460F48FFF793F94FF4806000903C
:1019E00069460C48FFF78CF94FF400600090694697
:1019F0000848FFF785F94FF4805000906946054884
:101A0000FFF77EF94FF40050009069460148FFF758
:101A100077F91CBD0010024000B58DB001210846C9
:101A2000FFF73AFD40F634000B900020ADF8280097
:101A3000ADF830002020ADF82A000AA9324800F0A5
:101A40001DFB6020ADF814000120ADF81600042045
:101A5000ADF818000020ADF82000ADF82200ADF878
:101A600024004FF40070ADF826000120079005A96E
:101A7000254800F01FFA0120079005A9224800F030
:101A800057FA0020079005A91F4800F0A3FA4FF469
:101A90000060ADF804004010ADF806008010ADF80D
:101AA00008004FF4B470ADF80A000020ADF80C0047
:101AB0004FF40050ADF80E000020ADF8100001A961
:101AC000114800F0AFF90E210F4800F0BBF91B20C0
:101AD0008DF8000000208DF8010001208DF8020033
:101AE0008DF803006846FFF78DF901220E210648A4
:101AF00000F0D7F90121044800F0B3F901210248B0
:101B000000F0A3F90DB000BD000001401FB5012198
:101B10000846FFF7A1FC42F2D00002900420ADF885
:101B200004000020ADF80C00ADF8060001A94FF04C
:101B3000804000F0A3FA0121880700F083F9012218
:101B40001146900700F0ADF91C208DF8000001202F
:101B50008DF8010002208DF8020001208DF80300AD
:101B60006846FFF74FF90121880700F06EF91FBDA5
:101B700010B52DED028B0121880700F081F90128B5
:101B80007ED1FEF715FE4E4890ED000A4D4880EDDF
:101B9000000A4D4A4D4990ED000A4D4800F0BCFE48
:101BA0004C494D484D4A92ED001A474AD2ED000A81
:101BB000464A92ED000A00F072FC484A48494548FE
:101BC00090ED000A474800F08FFD454890ED000A6F
:101BD000DFED450AB4EEE00AF1EE10FA0EDD90ED0D
:101BE000000ADFED420AB4EEE00AF1EE10FA05D287
:101BF00090ED000A364800F06DFF04E09FED3C0ACE
:101C0000334800F067FF364890ED000ADFED380AF0
:101C100030EE600A10EE101A0846FEF786FC41EC22
:101C2000180BB0EE480AF0EE680A20F0004000EE13
:101C3000100AB8EEC00AF7EE000AB4EEE00AF1EEC0
:101C400010FA05D801202B4908802B49086004E0D0
:101C500000202849088028490860214890ED000AA2
:101C6000264880ED000A1D4890ED000A234880EDCB
:101C7000010A02220146224800F064FB214800E0EC
:101C800017E00068401C1F490860084690ED000AF4
:101C9000B8EEC00ADFED1C0AB4EEE00AF1EE10FA6D
:101CA00007DB1A480068401C1849086000201549E5
:101CB00008600121880700F0C5F8BDEC028B10BD5B
:101CC000300200207C000020A00000209C000020AA
:101CD00050030020A8000020A4000020C000002025
:101CE000BC0000200004002000009C4300009E4334
:101CF00063149D4300000020AC824142000200209A
:101D00002801002000010020FFFFF9440401002009
:101D10001FB501210220FFF79FFB41F2A160029055
:101D20009020ADF804000020ADF80C00ADF80600DE
:101D300001A9104800F0A2F901210E4800F082F834
:101D4000012211460B4800F0ACF81D208DF8000070
:101D500004208DF8010003208DF8020001208DF889
:101D600003006846FFF74EF80121024800F06DF8C5
:101D70001FBD00000004004010B52DED028B82B0A5
:101D80000121234800F07CF8012838D1FFF780F8C2
:101D90000820042300901F48002102680846FFF72E
:101DA000C7FA1D4890ED000ADFED1C0A80EE201AEC
:101DB00011EE104A2046FEF7B8FB41EC180B082044
:101DC00002230322B0EE480AF0EE680A10210090C8
:101DD0000020FFF7AFF912480068FEF7A6FB41ECC0
:101DE000180B082002230322B0EE480AF0EE680A1E
:101DF000302100900020FFF79DF9FFF7BFFA012185
:101E0000034800F01FF802B0BDEC028B10BD0000CB
:101E10000004004004010020BC000020DB0FC9408A
:101E2000C00000200A884B881A438B881A43CB884D
:101E30001A430B891A434B891A438B891A43A0F81A
:101E400044207047CA430282704721B1028842F0A1
:101E50000102028004E002884FF6FE731A400280FD
:101E6000704731B1B0F8442042F40042A0F8442059
:101E700005E0B0F84420C2F30E02A0F844207047F9
:101E800030B50246002000230024158A05EA01032C
:101E9000958905EA010413B10CB1012000E000208E
:101EA00030BD1AB183890B43838102E083898B4360
:101EB0008381704770B5002400220023058C4FF603
:101EC000FE7635400584028C8388048B4FF68F752F
:101ED0002C40B51E2C400D882C43751E2A408D8940
:101EE0002A434D882A43104DA84202D00F4DA842E4
:101EF00013D14FF6F7752A40CD892A434FF6FB756B
:101F00002A408D882A434FF6FF652B404FF6FF5538
:101F10002B400D8A2B434D8A2B43838004838D688D
:101F20004563028470BD00000000014000040140D0
:101F300070B5002400220023058C4FF6EF76354063
:101F40000584028C8388048B48F6FF752C404FF67D
:101F5000FF452C400D884FF6FF7606EA05252C43F9
:101F60004FF6DF752A408D8906EA05152A434D880C
:101F700006EA05152A43154DA84202D0144DA84281
:101F80001DD14FF67F752A40CD894FF6FF7606EAC0
:101F900005152A434FF6BF752A408D8806EA0515B8
:101FA0002A434FF6FF352B404FF2FF752B400D8A29
:101FB00006EA85052B434D8A06EA85052B43838077
:101FC00004838D688563028470BD000000000140B9
:101FD0000004014070B5002400220023058C4FF658
:101FE000FF6635400584028C8388848B4FF68F759D
:101FF0002C404FF6FC752C400D882C434FF6FF55B6
:102000002A408D894FF6FF7606EA05252A434D883A
:1020100006EA05252A43154DA84202D0144DA842D0
:102020001DD14FF2FF752A40CD894FF6FF7606EAA3
:1020300005252A434FF6FF352A408D8806EA0525F7
:102040002A434EF6FF752B404DF6FF752B400D8A47
:1020500006EA05152B434D8A06EA05152B438380B6
:1020600084838D68C563028470BD00000000014058
:102070000004014041637047816370470022028879
:10208000184B98420ED0184B98420BD0B0F1804FAD
:1020900008D0164B984205D0154B984202D0154BEC
:1020A000984204D14FF68F731A404B881A43124B53
:1020B000984207D0114B984204D04FF6FF431A4084
:1020C0000B891A4302804B68C3620B880385054B5A
:1020D000984202D0044B984201D18B7A03860123A7
:1020E000838270470000014000040140000400406A
:1020F00000080040000C00400010004000140040A8
:1021000010B540F225511D4800F057F810B31B4898
:1021100000F00CF9C4B21A48008800F40040C8B9B5
:102120001748008800F4804060B10A2C03D00020DA
:102130001349088020E01248008840F4004010490C
:10214000088019E00D2C06D10D48008840F480402D
:102150000B49088010E00A480088C0F30D000949C7
:102160000C5407480088401C054908800846008830
:10217000C72801DD0020088010BD000000100140CC
:10218000140100205408002021B1828942F4005239
:10219000828104E082894DF6FF731A408281704784
:1021A00002460020B1F5007F00D100BF13880B402C
:1021B0000BB1012000E00020704770B502460024FA
:1021C00000230025002040F66A16B14200D100BF6E
:1021D000C1F3421501F01F03012606FA03F3012D96
:1021E00002D19689334006E0022D02D1168A33408F
:1021F00001E0968A33400C12012606FA04F4168890
:10220000344013B10CB1012000E0002070BDF0B5E6
:102210000346002400260025002040F66A17B94234
:1022200000D100BF1846C1F3421401F01F06012778
:1022300007FA06F5012C01D10C3004E0022C01D183
:10224000103000E014301AB107682F43076002E035
:102250000768AF430760F0BD2DE9FF4705460E460E
:102260000024A14600BFA046B08900B100BF2C8A5F
:1022700024F44054F08804432C82AC8941F20C6071
:102280008443B08831890843718908430443AC8191
:10229000AC8A24F44074B0890443AC826846FFF7EA
:1022A0000BF92048854202D01F48854202D1DDF853
:1022B0000C9001E0DDF80890A88900F4004040B1DE
:1022C00009EBC90000EB091031684900B0FBF1F7D8
:1022D00007E009EBC90000EB091031688900B0FB89
:1022E000F1F76420B7FBF0F004012009642101FB41
:1022F0001078A88900F4004040B1322000EBC800FB
:10230000B0FBF1F000F00700044308E0322000EBDE
:1023100008106421B0FBF1F000F00F0004432C81A1
:10232000BDE8FF8700100140001401400146888885
:10233000C0F308007047C1F308028280704700BFF5
:10234000FEE7000070B505460E4614464FF6FF70D6
:1023500000EA84023146284600F008F804220249C7
:10236000284600F003F870BDBA3200082DE9F041AC
:1023700007460D46164600240BE0295D0748FFF787
:10238000DAFF00BF40210548FFF70AFF0128F9D115
:10239000641CB442F1DBBDE8F08100000010014094
:1023A00010B52DED020B2DED088B84B09DED0C0BBF
:1023B00051EC100BFEF78AF941EC180B9DED0C0B5C
:1023C00053EC182B51EC100BFEF711F841EC190BE4
:1023D0000D989FED290B10F0004F53EC102B51EC92
:1023E000190B9FED21AB9FED22BB0ED0FEF7B0F88D
:1023F0000ED953EC1B2B51EC190BFEF7C1F81CD274
:1024000014E000BF41EC180B17E0FEF7A1F806D26C
:1024100053EC1A2B51EC180BFDF7E9FFF2E753ECE4
:102420001B2B51EC190BFEF7ABF806D853EC1A2B0B
:1024300051EC180BFDF73AFFE4E78DED028B9DEDB3
:102440000C0B18EE901A10EE900A8DED000B61F354
:102450001E0003909DED020B04B0BDEC088B02B092
:1024600010BD000000000000000000000000F03F70
:10247000000000000000E03F000000000000E0BF9E
:1024800002E008C8121F08C1002AFAD1704770473D
:10249000002001E001C1121F002AFBD1704770B576
:1024A0002DED068BB0EE408AF0EE608AB0EE419AD8
:1024B00004460D46B0EE490AFDF7BEFEF0EE409A26
:1024C000B0EE490AFDF77CFEB0EE40AA28EE0A0AFB
:1024D00008EEA90A84ED000A28EE8A0A08EE690AC5
:1024E00085ED000ABDEC068B70BD000010B59FEDB8
:1024F0001F1ADFED1F0A9FED1F0A1F4800F0D6F8D4
:102500009FED1A1ADFED1A0A9FED1A0A1B4800F018
:10251000CDF8DFED1B0A9FED1B0A1B4800F059FAAE
:102520009FED1A1ADFED190A9FED160A184800F000
:102530005DF94FF44070FEF7A1FCA82000F02CF8E4
:10254000FEF71AF9FFF72CF8FEF730FBFEF718FA42
:10255000FEF744FD0F4800F039FBFFF7FDF9FFF7E8
:10256000D5FAFFF7D5FBFEF793FC10BD0000000085
:10257000ACC5A73882A8FB3790020020B00200202B
:1025800063149D436F12033A500300200000C842B9
:102590000004002080841E0010B504466FF0040083
:1025A000FFF74AF9E11704EB5171C1F3C701074A7C
:1025B00011701046007800EB4001C1EBC0104FF6DF
:1025C000FF7101EAC0000249088010BD0C01002023
:1025D0000E01002070B504464FF4077094FBF0F034
:1025E000C6B24FF4077094FBF0F100FB114085B2C6
:1025F00005E04FF4077000F02FF8701EC6B2002EF1
:10260000F7D115B1284600F027F870BD0146114AF0
:1026100012784A434FF0E0235A6100229A611A4629
:10262000126942F001021A6100BF4FF0E022106906
:1026300000F001021AB100F48032002AF5D04FF008
:10264000E022126922F001024FF0E0231A61002219
:102650009A6170470C0100200146114A12884A43D2
:102660004FF0E0235A6100229A611A46126942F043
:1026700001021A6100BF4FF0E022106900F0010270
:102680001AB100F48032002AF5D04FF0E02212692E
:1026900022F001024FF0E0231A6100229A61704794
:1026A0000E010020FFF722FF00BFFEE7DFED0D1A4D
:1026B000C0ED001ADFED0B1AC0ED011ADFED091AAB
:1026C000C0ED021ADFED071AC0ED031ADFED051A9F
:1026D000C0ED041A80ED050AC0ED060A80ED071A68
:1026E0007047000000000000D0ED130AC0ED140A8E
:1026F000D0ED120AC0ED130A80ED120AD0ED100AD7
:10270000C0ED110AD0ED090A90ED121A60EE810AAF
:1027100090ED0A1AD0ED131A41EE210A90ED0B1A32
:10272000D0ED111A41EE610A90ED0C1AC0EE811A3B
:10273000C0ED101AD0ED0E0AC0ED0F0AD0ED0D0A53
:10274000C0ED0E0AD0ED080A90ED121A60EE810A73
:1027500090ED071AD0ED131A41EE210A90ED061AFA
:10276000D0ED141A41EE210A90ED041AD0ED0E1AA4
:1027700041EE610A90ED031AD0ED0F1A41EE610AA5
:1027800090ED051AC0EE811AC0ED0D1AD0ED0D0ABC
:102790009FED151AF4EEC10AF1EE10FA08DDD0ED46
:1027A0000D0A9FED111A70EEC10AC0ED0D0A0EE080
:1027B000D0ED0D0AF5EEC00AF1EE10FA07D8D0ED13
:1027C0000D0A9FED091A70EE810AC0ED0D0AD0EDD9
:1027D0000D0AC2ED000AD0ED100AB0EE001AC0EEEC
:1027E000811AC1ED001A7047DB0FC94080ED000A65
:1027F000C0ED010A80ED021AF1EE001AC0ED031AD5
:10280000FAEE001AC0ED041AF1EE001AC0ED051A36
:10281000D0ED021A90ED002A61EE821A90ED002AA6
:1028200061EE821A90ED012AF0EE002A22EE222AB1
:10283000D0ED002A42EE621AC0ED061AD0ED021A5F
:10284000B0EE002A61EE821A90ED002A61EE821A43
:1028500090ED002A61EE821AC0ED071AD0ED011A40
:10286000B0EE002A61EE821A90ED002A61EE821A23
:1028700090ED002A22EE022AD0ED022A42EE221A20
:10288000C0ED081AD0ED001A90ED022A61EE821A0E
:1028900090ED012AF0EE002A42EE821AC0ED091AEC
:1028A000D0ED001A90ED022A61EE821A90ED012A15
:1028B000F0EE002A42EEC21AC0ED0A1AF8EE001A33
:1028C000C0ED0B1AF0EE001AC0ED0C1ADFED101A75
:1028D000C0ED0D1ADFED0E1AC0ED0E1ADFED0C1A69
:1028E000C0ED0F1ADFED0B1AC0ED101ADFED091A5B
:1028F000C0ED111ADFED061AC0ED121ADFED041A51
:10290000C0ED131ADFED021AC0ED141A7047000073
:102910000000000063149D43D0ED070AC0ED080AD3
:10292000D0ED060AC0ED070A80ED060AD0ED010AD7
:10293000C0ED020AD0ED000AC0ED010AD0ED0F0A89
:1029400090ED061A60EE810A90ED101AD0ED081A8B
:1029500041EE210A90ED111AD0ED011A41EE210A43
:1029600090ED121AD0ED021A41EE210AC0ED000AD4
:10297000D0ED040AC0ED050AD0ED030AC0ED040A4B
:10298000D0ED130A90ED061A60EE810A90ED141A4C
:10299000D0ED071A41EE210A90ED151AD0ED081A74
:1029A00041EE210A90ED111AD0ED041A41EE210AF0
:1029B00090ED121AD0ED051A41EE210AC0ED030A7E
:1029C000D0ED000AC1ED000AD0ED030AC2ED000A05
:1029D000704780ED0B0AB6EE001A80ED0A1AC0EDC2
:1029E000090A90ED0A1AF0EE001A21EE211AD0ED34
:1029F000091A21EE211AD0ED0B1A21EE211A80EDD1
:102A00000C1A90ED091AD0ED0B1A21EE211AD0ED17
:102A1000091A21EE211AD0ED0B1A21EE211A80EDB0
:102A20000D1A90ED0C1AD0ED0D1A31EE211AF1EEBF
:102A3000001A31EE211AF7EE001A81EE812A80ED9C
:102A40000E2A90ED0C1AD0ED0E1A21EE211A80ED0F
:102A50000F1A90ED0F1AFFEE001A21EE211A80EDE9
:102A6000101A90ED0D1AF1EE001A31EEC11AF0EEC7
:102A7000001A21EE211AD0ED0E1A21EE211A80ED56
:102A8000111A90ED0C1AD0ED0D1A31EE611AF1EE1B
:102A9000001A31EE611AD0ED0E1A21EE211A80EDE6
:102AA000121A90ED0A1AD0ED0D1A21EE211AD0ED6E
:102AB0000E1A21EE211A80ED131A90ED131AF0EE82
:102AC000001A21EE211A80ED141A90ED131A80EDF0
:102AD000151A704780ED090AD0ED0A0AB0EE001A07
:102AE00060EE810A90ED091A60EE810A90ED0B1AF2
:102AF00060EE810AC0ED0C0AD0ED090A90ED0B1AC8
:102B000060EE810A90ED091A60EE810A90ED0B1AD1
:102B100060EE810AC0ED0D0AD0ED0C0A90ED0D1AA1
:102B200070EE810AB1EE001A70EE810AB7EE001A5B
:102B3000C1EE201AC0ED0E1AD0ED0C0A90ED0E1A5F
:102B400060EE810AC0ED0F0AD0ED0F0ABFEE001A49
:102B500060EE810AC0ED100AD0ED0D0AB1EE001A48
:102B600071EE600AB0EE001A60EE810A90ED0E1A66
:102B700060EE810AC0ED110AD0ED0C0A90ED0D1A3D
:102B800070EEC10AB1EE001A70EEC10A90ED0E1A95
:102B900060EE810AC0ED120AD0ED0A0A90ED0D1A1E
:102BA00060EE810A90ED0E1A60EE810AC0ED130A04
:102BB000D0ED130AB0EE001A60EE810AC0ED140ADF
:102BC000D0ED130AC0ED150A7047000010B588B0AB
:102BD000044601210846FEF72FFC01211020FEF7D4
:102BE0005BFC072209212248FEF7D2F807220A21BE
:102BF0001F48FEF7CDF84FF4C060069002208DF814
:102C00001C008DF81D0000208DF81E0001208DF89D
:102C10001F0006A91648FEF773F802940020ADF8CD
:102C20000C00ADF80E00ADF81000ADF814000C204B
:102C3000ADF8120002A90F48FFF70EFB01210D4865
:102C4000FFF7A2FA012240F225510A48FFF7DFFA06
:102C500025208DF8040003208DF805008DF806006E
:102C600001208DF8070001A8FEF7CCF808B010BDD0
:102C70000000024000100140340800005408000029
:102C80007408000094080000B5080000D508000092
:102C9000F50800001509000035090000550900007D
:102CA0007509000095090000B5090000D50900006C
:102CB000F4090000140A0000330A0000530A00005F
:102CC000720A0000910A0000AF0A0000CE0A00005C
:102CD000ED0A00000B0B0000290B0000470B000061
:102CE000650B0000820B0000A00B0000BD0B000074
:102CF000DA0B0000F60B0000130C00002F0C000094
:102D00004B0C0000670C0000820C00009D0C0000C2
:102D1000B80C0000D30C0000ED0C0000070D000003
:102D2000210D00003A0D0000530D00006C0D000055
:102D3000840D00009D0D0000B40D0000CC0D0000BE
:102D4000E30D0000F90D0000100E0000260E00003B
:102D50003B0E0000500E0000650E00007A0E0000D1
:102D60008E0E0000A10E0000B40E0000C70E000081
:102D7000DA0E0000EC0E0000FD0E00000E0F000049
:102D80001F0F00002F0F00003F0F00004E0F00002C
:102D90005D0F00006C0F00007A0F0000870F00002D
:102DA000940F0000A10F0000AD0F0000B90F00004C
:102DB000C40F0000CF0F0000D90F0000E30F000088
:102DC000EC0F0000F50F0000FD0F000005100000E3
:102DD0000C10000013100000191000001F1000005C
:102DE00024100000291000002D10000031100000F8
:102DF0003410000037100000391000003B100000B4
:102E00003C1000003D1000003E1000003D1000008E
:102E10003C1000003B10000039100000371000008B
:102E200034100000311000002D10000029100000A7
:102E3000241000001F1000001910000013100000E3
:102E40000C10000005100000FD0F0000F50F000041
:102E5000EC0F0000E30F0000D90F0000CF0F0000BF
:102E6000C40F0000B90F0000AD0F0000A10F00005B
:102E7000940F0000870F00007A0F00006C0F000015
:102E80005D0F00004E0F00003F0F00002F0F0000ED
:102E90001F0F00000E0F0000FD0E0000EC0E0000E2
:102EA000DA0E0000C70E0000B40E0000A10E0000F4
:102EB0008E0E00007A0E0000650E0000500E00001D
:102EC0003B0E0000260E0000100E0000F90D000061
:102ED000E30D0000CC0D0000B40D00009D0D0000BE
:102EE000840D00006C0D0000530D00003A0D000031
:102EF000210D0000070D0000ED0C0000D30C0000B8
:102F0000B80C00009D0C0000820C0000670C000053
:102F10004B0C00002F0C0000130C0000F60B0000FF
:102F2000DA0B0000BD0B0000A00B0000820B0000BC
:102F3000650B0000470B0000290B00000B0B000085
:102F4000ED0A0000CE0A0000AF0A0000910A00005E
:102F5000720A0000530A0000330A0000140A00003D
:102F6000F4090000D5090000B5090000950900002A
:102F70007509000055090000350900001509000019
:102F8000F5080000D5080000B5080000940800000E
:102F90007408000054080000340800001308000002
:102FA000F3070000D3070000B207000092070000FB
:102FB00072070000520700003207000012070000ED
:102FC000F2060000D2060000B206000092060000E1
:102FD00073060000530600003406000014060000CB
:102FE000F5050000D6050000B805000099050000B1
:102FF0007A0500005C0500003E0500002005000089
:1030000002050000E5040000C7040000AA04000057
:103010008D04000071040000540400003804000016
:103020001C04000000040000E5030000CA030000C7
:10303000AF030000940300007A0300006003000067
:10304000460300002D03000014030000FB020000F3
:10305000E3020000CA020000B30200009B0200006D
:10306000840200006E0200005702000041020000CE
:103070002C0200001702000002020000ED01000017
:10308000D9010000C6010000B3010000A00100004A
:103090008D0100007B0100006A0100005901000061
:1030A000480100003801000028010000190100005B
:1030B0000A010000FB000000ED000000E00000003D
:1030C000D3000000C6000000BA000000AE000000FF
:1030D000A3000000980000008E00000084000000A3
:1030E0007B000000720000006A0000006200000027
:1030F0005B000000540000004E000000480000008B
:10310000430000003E0000003A00000036000000CE
:1031100033000000300000002E0000002C000000F2
:103120002B0000002A0000002A0000002A000000F6
:103130002B0000002C0000002E00000030000000DA
:1031400033000000360000003A0000003E0000009E
:1031500043000000480000004E0000005400000042
:103160005B000000620000006A00000072000000C6
:103170007B000000840000008E000000980000002A
:10318000A3000000AE000000BA000000C60000006E
:10319000D3000000E0000000ED000000FB00000094
:1031A0000A01000019010000280100003801000098
:1031B00048010000590100006A0100007B01000085
:1031C0008D010000A0010000B3010000C601000055
:1031D000D9010000ED01000002020000170200000A
:1031E0002C02000041020000570200006E020000A5
:1031F000840200009B020000B3020000CA0200002B
:10320000E3020000FB020000140300002D03000095
:1032100046030000600300007A03000094030000EE
:10322000AF030000CA030000E50300000004000033
:103230001C04000038040000540400007104000065
:103240008D040000AA040000C7040000E50400008B
:1032500002050000200500003E0500005C0500009E
:103260007A05000099050000B8050000D6050000A9
:10327000F5050000140600003406000053060000A7
:103280007306000092060000B2060000D20600009D
:10329000F20600001207000032070000520700008B
:1032A0007207000092070000B2070000D307000079
:1032B000F307000013080000AFFA0000807F000051
:1032C00000000000000000000000000000000000FE
:1032D00000F800000000000000333000000000167D
:1032E0000E00160E0000000000000000000040C0AC
:1032F0007840C0784000043F04043F04040000709C
:1033000088FC08300000001820FF211E0000F00893
:10331000F000E018000000211C031E211E0000F038
:103320000888700000001E212324192721100000A6
:1033300000160E0000000000000000000000000069
:1033400000E01804020000000007182040000002FE
:103350000418E00000000040201807000000404072
:1033600080F0804040000202010F010202000000D4
:1033700000F0000000000101011F01010100000038
:1033800000000000000000B070000000000000001D
:103390000000000000000001010101010101000026
:1033A00000000000000000303000000000000000BD
:1033B000000080601804006018060100000000E0B2
:1033C00010080810E000000F102020100F0000105F
:1033D00010F8000000000020203F202000000070B6
:1033E00008080888700000302824222130000030AE
:1033F0000888884830000018202020110E000000A6
:10340000C02010F8000000070424243F240000F826
:103410000888880808000019212020110E0000E00B
:10342000108888180000000F112020110E000038AD
:103430000808C83808000000003F000000000070C5
:10344000880808887000001C222121221C0000E04E
:1034500010080810E0000000312222110F000000C7
:1034600000C0C0000000000000303000000000007C
:1034700000C0C0000000000080B07000000000002C
:103480008040201008000001020408102000404085
:1034900040404040400004040404040404000008C8
:1034A000102040800000002010080402010000707D
:1034B00048080808F0000000003036010000C03065
:1034C000C828E810E0000718272423140B00000088
:1034D000C038E0000000203C23020227382008F812
:1034E000888888700000203F202020110E00C03006
:1034F000080808083800071820202010080008F8DD
:1035000008080810E000203F202020100F0008F8D5
:103510008888E8081000203F20202320180008F8A1
:103520008888E8081000203F200003000000C03019
:1035300008080838000007182020221E020008F89A
:1035400008000008F808203F210101213F20000861
:1035500008F8080800000020203F2020000000009C
:103560000808F8080800C08080807F00000008F884
:1035700088C028180800203F20012638200008F8BD
:10358000080000000000203F20202020300008F824
:10359000F800F8F80800203F003F003F200008F83E
:1035A00030C00008F808203F200007183F00E01056
:1035B00008080810E0000F10202020100F0008F865
:1035C00008080808F000203F210101010000E01078
:1035D00008080810E0000F18242438504F0008F89D
:1035E000888888887000203F2000030C30200070FD
:1035F0008808080838000038202121221C001808FB
:1036000008F8080818000000203F2000000008F813
:1036100008000008F808001F202020201F0008785C
:10362000880000C83808000007380E010000F808BC
:1036300000F80008F800033C0700073C03000818E6
:1036400068808068180820302C03032C302008384C
:10365000C800C83808000000203F20000000100803
:103660000808C8380800203826212020180000004B
:1036700000FE020202000000007F40404000000CFB
:1036800030C000000000000000010638C000000249
:103690000202FE000000004040407F0000000020C9
:1036A00010080408102000000000000000000000C6
:1036B0000000000000008080808080808080000208
:1036C00004080000000000000000000000000000EE
:1036D0008080808000000019242222223F2008F8E8
:1036E000008080000000003F112020110E0000002B
:1036F000008080800000000E1120202011000000BA
:1037000000808088F800000E112020103F2000006B
:10371000808080800000001F22222222130000806F
:1037200080F0888888180020203F202000000000BA
:10373000808080808000006B94949493600008F8EF
:10374000008080800000203F210000203F2000807A
:103750009898000000000020203F2020000000007A
:1037600000809898000000C08080807F000008F8EA
:10377000000080808000203F24022D3020000008BF
:1037800008F8000000000020203F2020000080807A
:10379000808080808000203F20003F20003F00800C
:1037A00080008080000000203F2100203F2000009A
:1037B000808080800000001F202020201F0080804B
:1037C00000808000000080FFA12020110E0000007A
:1037D000008080808000000E112020A0FF8080806B
:1037E00080008080800020203F2120000100000018
:1037F00080808080800000332424242419000080ED
:1038000080E0808000000000001F202000008080F9
:10381000000000808000001F202020103F208080BA
:1038200080000080808000010E300806010080804A
:103830000080008080800F300C030C300F0000806F
:103840008000808080000020312E0E31200080809A
:1038500080000080808080818E70180601000080CA
:103860008080808080000021302C222130000000E8
:103870000000807C020200000000003F4040000089
:103880000000FF00000000000000FF000000000238
:10389000027C800000000040403F000000000080EB
:1038A0004040800000800000000000010100000096
:1038B000000000000000002F0000000007000700CB
:1038C00000147F147F1400242A7F2A120023130877
:1038D00064620036495522500000000700000000D5
:1038E0001C224100000041221C000014083E081464
:1038F0000008083E0808000000A060000008080852
:103900000808000060600000002010080402003E6B
:103910005149453E0000427F400000426151494606
:10392000002141454B31001814127F1000274545F6
:103930004539003C4A494930000171090503003608
:103940004949493600064949291E0000363600001B
:103950000000563600000008142241000014141420
:103960001414000041221408000201510906003E0F
:103970004955592E007C1211127C007F4949493665
:10398000003E41414122007F4141221C007F4949C4
:103990004941007F09090901003E4149497A007FF8
:1039A0000808087F0000417F4100002040413F019E
:1039B000007F08142241007F40404040007F020CFD
:1039C000027F007F0408107F003E4141413E007F9E
:1039D00009090906003E4151215E007F0919294667
:1039E0000046494949310001017F0101003F404043
:1039F000403F001F2040201F003F4038403F0063F1
:103A00001408146300070870080700615149454312
:103A100000007F41410000020408102000004141E5
:103A20007F000004020102040040404040400000CA
:103A300001020400002054545478007F4844443864
:103A400000384444442000384444487F00385454EB
:103A5000541800087E0901020018A4A4A47C007F69
:103A6000080404780000447D4000004080847D000C
:103A7000007F102844000000417F4000007C0418B3
:103A80000478007C0804047800384444443800FC7E
:103A9000242424180018242418FC007C080404089A
:103AA00000485454542000043F444020003C40400F
:103AB000207C001C2040201C003C4030403C004446
:103AC00028102844001CA0A0A07C004464544C444E
:103AD0000000087F41000000007F00000000417FDF
:103AE0000800000804081008EFBC8C00000000006B
:103AF0000000000000000000000000000058380036
:103B00000000000000000000000000E380820000D0
:103B100000000000000000000000000000000000A5
:103B20001824241800000000000000000000E4BD7C
:103B3000A0008060F8074020180F08C8080828185F
:103B400000010000FF00100C0340807F00010618F8
:103B500000E5A5BD1010F01F10F000808282E292F7
:103B60008A868000402215081661000040807F0090
:103B700000000000E4B896202020FE2020FF202036
:103B800020FF20202020000000007F4040474444C8
:103B900044474040400000E7958C000000FE9292B0
:103BA00092FE929292FE0000000008080484621EB9
:103BB000010001FE020404080800000000FF0101EA
:103BC000013109090909897101010101FFFF8080A3
:103BD000808080809681808080808080FFFF01814E
:103BE0008181FD8991A1C1FD81818101FFFF8080DB
:103BF00080809F888482819F80808080FF00000079
:103C000000000000920E493CB10AC93C2BC3163D8E
:103C10002EFB483D752B7B3D04A9963D80B6AF3DFC
:103C200036BDC83D2FBCE13D73B2FA3D87CF093E9A
:103C30008340163EB5AB223EA2102F3ECF6E3B3ED8
:103C4000C2C5473E0115543E135C603E7F9A6C3EF0
:103C5000CCCF783EC07D823E938E883E229A8E3EA7
:103C600032A0943E86A09A3EE59AA03E128FA63ED0
:103C7000D47CAC3EEF63B23E2A44B83E491DBE3E02
:103C800015EFC33E53B9C93ECA7BCF3E4136D53E40
:103C900080E8DA3E4F92E03E7533E63EBBCBEB3E2A
:103CA000EA5AF13ECBE0F63E275DFC3EE4E7003FFA
:103CB0003D9C033F824B063F9BF5083F6B9A0B3FB1
:103CC000DA390E3FCDD3103F2A68133FD9F6153F9E
:103CD000C07F183FC6021B3FD17F1D3FCBF61F3F61
:103CE0009967223F25D2243F5636273F1594293F16
:103CF0004AEB2B3FDE3B2E3FBB85303FC9C8323FEE
:103D0000F304353F233A373F4268393F3B8F3B3F0F
:103D1000F9AE3D3F67C73F3F70D8413F01E2433FA7
:103D200003E4453F65DE473F12D1493FF8BB4B3FB7
:103D3000029F4D3F207A4F3F3D4D513F4918533F21
:103D400031DB543FE595563F5348583F6AF2593F9F
:103D50001A945B3F532D5D3F05BE5E3F2146603F99
:103D600097C5613F5A3C633F59AA643F880F663F3D
:103D7000D86B673F3CBF683FA7096A3F0C4B6B3F5E
:103D80005E836C3F93B26D3F9ED86E3F73F56F3F7D
:103D90000809713F5213723F4714733FDD0B743FA4
:103DA0000BFA743FC6DE753F07BA763FC58B773F87
:103DB000F853783F9812793F9DC7793F02737A3F55
:103DC000BE147B3FCDAC7B3F283B7C3FC9BF7C3FD3
:103DD000AC3A7D3FCCAB7D3F23137E3FB0707E3F3E
:103DE0006DC47E3F580E7F3F6D4E7F3FAB847F3F5B
:103DF0000FB17F3F97D37F3F43EC7F3F11FB7F3F66
:103E00000000803F11FB7F3F43EC7F3F97D37F3F14
:103E10000FB17F3FAB847F3F6D4E7F3F580E7F3F9A
:103E20006DC47E3FB0707E3F23137E3FCCAB7D3FA1
:103E3000AC3A7D3FC9BF7C3F283B7C3FCDAC7B3F4C
:103E4000BE147B3F02737A3F9DC7793F9812793F3A
:103E5000F853783FC58B773F07BA763FC6DE753F8C
:103E60000BFA743FDD0B743F4714733F5213723FDC
:103E70000809713F73F56F3F9ED86E3F93B26D3F57
:103E80005E836C3F0C4B6B3FA7096A3F3CBF683FAA
:103E9000D86B673F880F663F59AA643F5A3C633F1F
:103EA00097C5613F2146603F05BE5E3F532D5D3F94
:103EB0001A945B3F6AF2593F5348583FE595563F85
:103EC00031DB543F4918533F3D4D513F207A4F3F1E
:103ED000029F4D3FF8BB4B3F12D1493F65DE473F44
:103EE00003E4453F01E2433F70D8413F67C73F3F8E
:103EF000F9AE3D3F3B8F3B3F4268393F233A373F66
:103F0000F304353FC9C8323FBB85303FDE3B2E3F0F
:103F10004AEB2B3F1594293F5636273F25D2243FA5
:103F20009967223FCBF61F3FD17F1D3FC6021B3F43
:103F3000C07F183FD9F6153F2A68133FCDD3103FF5
:103F4000DA390E3F6B9A0B3F9BF5083F824B063FD9
:103F50003D9C033FE4E7003F275DFC3ECBE0F63E9F
:103F6000EA5AF13EBBCBEB3E7533E63E4F92E03E64
:103F700080E8DA3E4136D53ECA7BCF3E53B9C93ED2
:103F800015EFC33E491DBE3E2A44B83EEF63B23E24
:103F9000D47CAC3E128FA63EE59AA03E86A09A3E07
:103FA00032A0943E229A8E3E938E883EC07D823E01
:103FB000CCCF783E7F9A6C3E135C603E0115543E38
:103FC000C2C5473ECF6E3B3EA2102F3EB5AB223E50
:103FD0008340163E87CF093E73B2FA3D2FBCE13DC8
:103FE00036BDC83D80B6AF3D04A9963D752B7B3DDF
:103FF0002EFB483D2BC3163DB10AC93C920E493CED
:1040000000000000920E49BCB10AC9BC2BC316BD0A
:104010002EFB48BD752B7BBD04A996BD80B6AFBDF8
:1040200036BDC8BD2FBCE1BD73B2FABD87CF09BE96
:10403000834016BEB5AB22BEA2102FBECF6E3BBED4
:10404000C2C547BE011554BE135C60BE7F9A6CBEEC
:10405000CCCF78BEC07D82BE938E88BE229A8EBEA3
:1040600032A094BE86A09ABEE59AA0BE128FA6BECC
:10407000D47CACBEEF63B2BE2A44B8BE491DBEBEFE
:1040800015EFC3BE53B9C9BECA7BCFBE4136D5BE3C
:1040900080E8DABE4F92E0BE7533E6BEBBCBEBBE26
:1040A000EA5AF1BECBE0F6BE275DFCBEE4E700BFF6
:1040B0003D9C03BF824B06BF9BF508BF6B9A0BBFAD
:1040C000DA390EBFCDD310BF2A6813BFD9F615BF9A
:1040D000C07F18BFC6021BBFD17F1DBFCBF61FBF5D
:1040E000996722BF25D224BF563627BF159429BF12
:1040F0004AEB2BBFDE3B2EBFBB8530BFC9C832BFEA
:10410000F30435BF233A37BF426839BF3B8F3BBF0B
:10411000F9AE3DBF67C73FBF70D841BF01E243BFA3
:1041200003E445BF65DE47BF12D149BFF8BB4BBFB3
:10413000029F4DBF207A4FBF3D4D51BF491853BF1D
:1041400031DB54BFE59556BF534858BF6AF259BF9B
:104150001A945BBF532D5DBF05BE5EBF214660BF95
:1041600097C561BF5A3C63BF59AA64BF880F66BF39
:10417000D86B67BF3CBF68BFA7096ABF0C4B6BBF5A
:104180005E836CBF93B26DBF9ED86EBF73F56FBF79
:10419000080971BF521372BF471473BFDD0B74BFA0
:1041A0000BFA74BFC6DE75BF07BA76BFC58B77BF83
:1041B000F85378BF981279BF9DC779BF02737ABF51
:1041C000BE147BBFCDAC7BBF283B7CBFC9BF7CBFCF
:1041D000AC3A7DBFCCAB7DBF23137EBFB0707EBF3A
:1041E0006DC47EBF580E7FBF6D4E7FBFAB847FBF57
:1041F0000FB17FBF97D37FBF43EC7FBF11FB7FBF62
:10420000000080BF11FB7FBF43EC7FBF97D37FBF10
:104210000FB17FBFAB847FBF6D4E7FBF580E7FBF96
:104220006DC47EBFB0707EBF23137EBFCCAB7DBF9D
:10423000AC3A7DBFC9BF7CBF283B7CBFCDAC7BBF48
:10424000BE147BBF02737ABF9DC779BF981279BF36
:10425000F85378BFC58B77BF07BA76BFC6DE75BF88
:104260000BFA74BFDD0B74BF471473BF521372BFD8
:10427000080971BF73F56FBF9ED86EBF93B26DBF53
:104280005E836CBF0C4B6BBFA7096ABF3CBF68BFA6
:10429000D86B67BF880F66BF59AA64BF5A3C63BF1B
:1042A00097C561BF214660BF05BE5EBF532D5DBF90
:1042B0001A945BBF6AF259BF534858BFE59556BF81
:1042C00031DB54BF491853BF3D4D51BF207A4FBF1A
:1042D000029F4DBFF8BB4BBF12D149BF65DE47BF40
:1042E00003E445BF01E243BF70D841BF67C73FBF8A
:1042F000F9AE3DBF3B8F3BBF426839BF233A37BF62
:10430000F30435BFC9C832BFBB8530BFDE3B2EBF0B
:104310004AEB2BBF159429BF563627BF25D224BFA1
:10432000996722BFCBF61FBFD17F1DBFC6021BBF3F
:10433000C07F18BFD9F615BF2A6813BFCDD310BFF1
:10434000DA390EBF6B9A0BBF9BF508BF824B06BFD5
:104350003D9C03BFE4E700BF275DFCBECBE0F6BE9B
:10436000EA5AF1BEBBCBEBBE7533E6BE4F92E0BE60
:1043700080E8DABE4136D5BECA7BCFBE53B9C9BECE
:1043800015EFC3BE491DBEBE2A44B8BEEF63B2BE20
:10439000D47CACBE128FA6BEE59AA0BE86A09ABE03
:1043A00032A094BE229A8EBE938E88BEC07D82BEFD
:1043B000CCCF78BE7F9A6CBE135C60BE011554BE34
:1043C000C2C547BECF6E3BBEA2102FBEB5AB22BE4C
:1043D000834016BE87CF09BE73B2FABD2FBCE1BDC4
:1043E00036BDC8BD80B6AFBD04A996BD752B7BBDDB
:1043F0002EFB48BD2BC316BDB10AC9BC920E49BCE9
:104400000000008024440008000000202801000073
:10441000802400084C45000828010020F80B00000B
:1044200090240008000000000000000000000000D0
:10443000000000008716D93D0000803F0000803F4B
:104440000000803F0000803F0000803F0000803F70
:104450000000803F0000003F0000003F000000001F
:10446000000000000000000000000000000000004C
:10447000000000000000000000000000000000003C
:10448000000000000000000000000000000000002C
:10449000000000000000C0410000803F000000005C
:1044A000000000000000000000000000000000000C
:1044B00000000000000000000000000000000000FC
:1044C00000000000000000000000000000000000EC
:1044D00000000000000000000000000000000000DC
:1044E00063149D43000000000000803F00000000B6
:1044F00000000000000000000000000000000000BC
:1045000000000000000000000000000000000000AB
:1045100000000000000000000000803F00000000DC
:104520000000C800000000000000000000000000C3
:104530000000000000000000000000000000010278
:0C45400003040102030406070809000040
:040000050800019D51
:00000001FF
