:020000040800F2
:10000000000B00209D010008BF0D0008B70D00087F
:10001000BB0D0008CD0800089F2500080000000067
:10002000000000000000000000000000F5160008BD
:10003000D108000800000000231400084D18000833
:10004000B7010008B7010008B7010008B7010008B0
:10005000B7010008B7010008B7010008B7010008A0
:10006000B7010008B7010008D3080008B70100086D
:10007000B7010008B7010008B7010008B701000880
:10008000B7010008B7010008B7010008B701000870
:10009000B7010008B7010008B7010008ED08000823
:1000A000B7010008B7010008B7010008B701000850
:1000B000D11A0008FD1E0008B7010008B7010008AA
:1000C000B7010008B7010008B7010008B701000830
:1000D000B701000861230008B7010008B701000854
:1000E000B7010008B7010008B7010008B701000810
:1000F000B7010008B7010008B7010008B701000800
:10010000B7010008B7010008B7010008B7010008EF
:10011000B7010008B7010008B7010008B7010008DF
:10012000B7010008B7010008B7010008B7010008CF
:10013000B7010008B7010008B7010008B7010008BF
:10014000B7010008B7010008B7010008B7010008AF
:10015000B7010008B7010008B7010008B70100089F
:10016000B7010008B7010008B7010008B70100088F
:10017000B7010008B7010008B7010008B70100087F
:10018000B7010008B7010008DFF80CD000F030FB21
:10019000004800470D280008000B00200648804753
:1001A00006480047FEE7FEE7FEE7FEE7FEE7FEE75C
:1001B000FEE7FEE7FEE7FEE75118000889010008A8
:1001C0002DE9FE4F804681EA0300C00F0C460090E7
:1001D00021F0004123F00045B8EB0200A94105D20F
:1001E0004046214690461C460B46024623F00040FE
:1001F000104347D0270DC7F30A00C3F30A510290FA
:10020000401A019040286BDAC3F3130040F4801BBE
:100210000098924620B10023D2EB030A63EB0B0B4C
:1002200001985946C0F14002504600F0D7F9064601
:100230000D4650465946019A00F0EFF910EB0800C0
:100240006141002487EA115284EAE7731A4340D0DF
:10025000009A62B3019A012A4FEA075215DC001B8B
:1002600061EB02014FF0004202EA0752CDE9004281
:10027000001C41F5801132462B4600F026FA03B0EF
:10028000BDE8F08F40462146F9E7001B61EB020113
:10029000001C41F5801300185B412018A2F50017DF
:1002A00047EB030140EAD570B6196D4111E06D08C6
:1002B0004FEA360645EAC0754FEA0752001B61EB6C
:1002C0000201001C41F5801149084FEA3000001975
:1002D000514132462B4603B0BDE8F04F00F0E6B97D
:1002E0000098012240000023D0EB020263EBE07390
:1002F000009821464FEAE074B8EB000061EB04017E
:10030000E9E783F000435BE781F0004158E72DE91E
:10031000FE4F81EA030404F0004421F00041009400
:100320004FF0000B23F0004350EA01045ED052EA84
:1003300003045BD0C3F30A54C1F30A552C44A4F25E
:10034000F3340194A0FB0254C1F3130141F4801172
:10035000C3F3130343F4801301FB024400FB034E79
:10036000840A970A44EA815447EA8357A4FB076842
:1003700002958D0A05FB07854FEA932C04FB0C546C
:100380002705029D4FEA065847EA1637B5EB0805E0
:100390006EEB070C870E920E47EA811742EA831232
:1003A000A7FB0201B6EB0B0164EB00042B0D43EA43
:1003B0000C335E1844EB1C50DA465146E7FB020151
:1003C000C5F313044FEA0B3343EA14534FEA0432E4
:1003D000019C43EA0603A4F10C040294009CCDE9BD
:1003E00000B400F072F903B0BDE8F08F00200146C0
:1003F000F9E72DE9F04D81EA030404F0004B21F008
:10040000004514464FF0000A23F0004150EA05026F
:1004100020D054EA01021DD0C5F30A570246C5F3A5
:100420001303C1F31300C1F30A5640F4801543F4DB
:100430008013A7EB0608101BD64608F2FD3873EBB5
:10044000050002D308F1010801E092185B41B8F100
:10045000000F03DA00200146BDE8F08D00204FF4C4
:100460008011064684460EE0171B73EB050705D383
:10047000121B63EB050306434CEA010C49084FEAE3
:10048000300092185B4150EA0107EDD152EA0300B7
:1004900012D082EA040083EA0501084305D0101B4C
:1004A000AB4106D20122002306E000224FF00043B8
:1004B00002E06FF0010253101AEB06004CEB0851FA
:1004C00010EB0A0041EB0B01BDE8F04D00F0EEB877
:1004D0000EB540F2334102910021CDE900110A46E8
:1004E0000B4600F0F2F803B000BDC1F30A5210B59C
:1004F000C1F3130140F2FF3341F480119A4201DA53
:10050000002010BD40F233439A42A2F2334203DC92
:10051000524200F072F810BD904010BD00F0004251
:1005200030F000400AD0C10D01F56071C0F3160033
:1005300042EA0151C20840071143704700200146BA
:100540007047000030B5041E71F1000404DB4FF069
:100550000044404264EB0101141E73F1000405DB0A
:100560001C464FF00043524263EB04038B4208BF2A
:10057000824230BD30B5041E71F1000404DB4FF03F
:100580000044404264EB0101141E73F1000405DBDA
:100590001C464FF00043524263EB0403994208BFEC
:1005A000904230BD01F0004330B421F0004150EAE8
:1005B000010206D00A0DA2F56072C1F31301002AF0
:1005C00002DC30BC00207047440F44EAC104C10083
:1005D000E01830BC00EBC25000F031B8202A04DB38
:1005E000203A00FA02F1002070479140C2F1200346
:1005F00020FA03F3194390407047202A04DB203A85
:1006000021FA02F00021704721FA02F3D040C2F132
:1006100020029140084319467047202A06DBCB1779
:10062000203A41FA02F043EAE07306E041FA02F3AD
:10063000D040C2F12002914008431946704700297A
:10064000A8BF7047401C490008BF20F00100704758
:1006500010B4B0FA80FC00FA0CF050EA010404BFB8
:1006600010BC704749B1CCF1200421FA04F411FA0E
:100670000CF118BF012121430843A3EB0C01CB1D52
:100680004FEA00614FEA102042BF002010BC7047C3
:1006900000EBC35010440029A4BF10BC7047401C9D
:1006A000490008BF20F0010010BC704710B5141EAF
:1006B00073F1000408DA401C41F1000192185B411B
:1006C0001A4301D120F0010010BD2DE9F04D9246F2
:1006D0009B4611B1B1FA81F202E0B0FA80F2203209
:1006E0009046FFF77BFF04460F4640EA0A0041EAC6
:1006F0000B0153465A46084313D0114653EA0100F2
:1007000019D0C8F140025046FFF777FF05460E4664
:10071000504659464246FFF761FF084305D0012085
:1007200004E020463946BDE8F08D0020054346EA46
:10073000E0762C4337430A986305E40AA0EB0800EF
:100740000022FD0A44EA47540A3002D5002001463F
:10075000E9E7010510196941DDE90845001969411A
:10076000BDE8F04DA2E700002DE9F041054621F07B
:1007700000400C46284309D0C4F30A5040F23341EC
:10078000884205DD28462146BDE8F0812846FBE782
:1007900040F2FE31884210DC0CDB4FEA043040EAC4
:1007A000155050EA053105D0104804F000410143CE
:1007B0000020E9E700200146E6E7A0F23340464288
:1007C000C6F1400228462146FFF708FF0746884643
:1007D000284621463246FFF710FF43463A46FFF7C8
:1007E00065FF3246BDE8F041FFF7F8BE0000F03F7C
:1007F000064C074D06E0E06840F0010394E807006E
:1008000098471034AC42F6D3FFF7C2FC28340008F6
:100810004834000810B500F067F92021094800F0BD
:10082000C3FA012001F08AFF4FF48071064800F0FE
:10083000BBFA00F027F8012001F080FF00F036F845
:1008400010BD0000000402400008024070B50546DB
:100850004FF480710A4800F0A5FA002405E0FF205B
:1008600000F0F6FE25F81400641C082CF7DB4FF4AA
:100870008071034800F098FA00F018F870BD00008D
:100880000008024010B50121074800F08BFA012151
:10089000054800F089FA012001F06CFF01210248AF
:1008A00000F080FA10BD00000004024010B52021C5
:1008B000054800F077FA012001F05CFF2021024892
:1008C00000F072FA10BD00000004024000BFFEE715
:1008D000704710B5102000F0B1F8012802D10220B5
:1008E00000F08CF8102000F083F810BD10B5202027
:1008F00000F0A4F8012806D1032000F07FF82020A2
:1009000000F076F810BD802000F098F8012805D19D
:1009100000F074F8802000F06BF8F3E74FF480707B
:1009200000F08CF8012807D1002000F067F84FF4A0
:10093000807000F05DF8E5E700BFE3E70EB5012148
:10094000880300F09FFD0721012000F0D5FE08215B
:10095000012000F0D1FE0521084600F0CDFE042163
:10096000022000F0C9FE1020009000208DF8040045
:1009700008208DF8050001208DF80600684600F07B
:1009800069F8A020009000208DF804000C208DF85C
:10099000050001208DF80600684600F05BF84FF472
:1009A0008070009008208DF80500684600F052F82D
:1009B0000A208DF8080000208DF8090002208DF82B
:1009C0000A0001208DF80B0002A800F0F9F91720A9
:1009D0008DF8080001208DF8090002208DF80A002A
:1009E00001208DF80B0002A800F0EAF90EBD00000E
:1009F0000149086070470000143C014070B504468E
:100A00006CB1012C04D0022C11D0032C10D107E0C2
:100A10004FF48051074800F0BCF9054608E007E0B4
:100A20004FF40041044800F0B4F9054600E000BF6F
:100A300000BF70BD000402400010024001460020CB
:100A4000034A12680A400AB1012000E00020704702
:100A5000143C0140002123498279002A3AD00A46F9
:100A6000126803689A430B461A600A1D12680368ED
:100A70009A430B1D1A60027911440A6803681A43ED
:100A80000A60184A0832126803689A43154B083303
:100A90001A601A1D126803689A43124B0C331A60CD
:100AA0004279102A0ED11A1F126803681A430D4B9F
:100AB00008331A601A1D126803681A43094B0C3375
:100AC0001A600DE00749427911440A6803681A4325
:100AD0000A6005E0027911440A6803689A430A60D3
:100AE00070470000003C01401CB50121084600F0A1
:100AF00099FC0121022000F095FC0121042000F066
:100B000091FC0121082000F08DFC4FF480700090D2
:100B100001208DF8040000208DF8060003208DF8D8
:100B2000050001208DF8070069460D4800F0C6F861
:100B300001208DF8040000208DF8060003208DF8B8
:100B4000050001208DF8070000906946054800F077
:100B5000B5F8202000906946024800F0AFF81CBDAF
:100B600000080240000402401CB50121084600F0C4
:100B700059FC0121022000F055FC0121042000F065
:100B800051FC0121082000F04DFC0121102000F053
:100B900049FC01208DF8040002208DF8050000209A
:100BA0008DF8060002208DF807008002009069464B
:100BB0003E4800F083F84FF40050009069463B48EF
:100BC00000F07CF84FF4004000906946374800F090
:100BD00075F84FF4805000906946344800F06EF884
:100BE0004FF4804000906946304800F067F80120DB
:100BF000009069462D4800F061F802200090694697
:100C00002A4800F05BF8042000906946274800F06D
:100C100055F8082000906946244800F04FF810204D
:100C200000906946214800F049F88020009069460C
:100C30001E4800F043F84FF40070009069461C48CD
:100C400000F03CF800208DF8040002208DF805002B
:100C500001208DF806008DF807008020009069467D
:100C6000134800F02BF84FF480700090694610484C
:100C700000F024F82020009069460E4800F01EF88D
:100C80001020009069460B4800F018F84FF480508F
:100C900000906946064800F011F84FF400400090BB
:100CA0006946054800F00AF81CBD0000000C02402F
:100CB000000402400008024000100240F0B50A465D
:100CC00000210023002400BF3DE0012505FA01F3C7
:100CD000156805EA03049C4234D105684F000326D9
:100CE000BE40B543056015794E00B54006683543F2
:100CF00005601579012D02D01579022D16D1856870
:100D00004F000326BE40B543856055794E00B5407F
:100D1000866835438560456801268E40B543456049
:100D2000456896798E40B6B235434560C5684F0038
:100D30000326BE40B543C560D5794E00B540C668B0
:100D40003543C560491C1029BFD3F0BDF0B5002361
:100D500000244D07ED0E02FA05F3CE1000F1200538
:100D600055F826504E07F70E0F26BE40B543CF105C
:100D700000F1200646F82750CE1000F1200555F866
:100D8000265045EA0304CE1000F1200545F8264020
:100D9000F0BD0246002013690B400BB1012000E0BA
:100DA0000020704741837047018370470AB1018377
:100DB00000E04183704700BFFEE700BFFEE77047D9
:100DC00070B5002100230F22C4781CB3174C24688F
:100DD00004F4E064C4F5E064C4F30721C1F1040441
:100DE000E3B20A4144789C40E1B284781440214344
:100DF0000C07210E0E4C05786155047804F01F0590
:100E00000124AC4005786D11AD0005F1E025C5F871
:100E1000004109E0047804F01F050124AC40054DB1
:100E20000678761145F8264070BD00000CED00E014
:100E300000E400E080E100E002490143024A116061
:100E4000704700000000FA050CED00E000200CE007
:100E5000002106E00022064B03EBC0135A544A1C43
:100E6000D1B28029F6DB421CD0B20828F0DB7047F3
:100E7000380200202DE9F04304460D4616461F4671
:100E8000284638E0224631E0002A2DDB7F2A2BDC81
:100E9000002829DB3F2827DC4FEAE07C00EB5C7C64
:100EA0004FEAEC0CDFF8588008EBCC1C1CF802C0B1
:100EB00003464FEAE07800EB58784FEAE808A0EBE9
:100EC000C8094FF0010808FA09F82CEA080C014695
:100ED0004FEAE07800EB58784FEAE808DFF8209016
:100EE00009EBC81808F802C0511C0AB2A1199142B6
:100EF000CADC411C08B2E9198142C3DCBDE8F083B9
:100F0000380200207CB5002406E0002500E06D1CBE
:100F1000B5F57A7FFBD3641CB4F57A7FF5D3012154
:100F20000C2000F07FFA01208DF8040003208DF8DA
:100F3000050000208DF8060001208DF80700C00292
:100F4000009069461248FFF7B9FE4FF480500090B8
:100F500069460F48FFF7B2FE4FF480600090694683
:100F60000B48FFF7ABFE4FF400700090694609484C
:100F7000FFF7A4FE002000F00BFA012000F014FAA5
:100F8000012000F029FA012000F01AFA7CBD0000CF
:100F900000080240000C024010B5FFF7B3FFAE207E
:100FA00000F026FAD52000F023FA802000F020FA85
:100FB000A82000F01DFA3F2000F01AFAD32000F01C
:100FC00017FA002000F014FA402000F011FAA120D6
:100FD00000F00EFAC82000F00BFADA2000F008FA50
:100FE000122000F005FA812000F002FACF2000F074
:100FF000FFF9D92000F0FCF9F12000F0F9F9DB202D
:1010000000F0F6F9302000F0F3F9A42000F0F0F938
:10101000A62000F0EDF98D2000F0EAF9142000F090
:10102000E7F9AF2000F0E4F9FFF710FF00F09CF9BA
:1010300010BD10B50246012000E050430B1EA1F187
:101040000101FAD110BD70B50546002411E08021E0
:101050002141294009B1012100E00021084600F0AA
:10106000A3F9012000F094F9002000F091F9601C30
:10107000C4B2082CEBDB70BD70B505460C4645F0DC
:10108000B00000F0B5F9102141EA141000F0B0F9F9
:1010900004F00F0000F0ACF970BD0000F8B5064692
:1010A0000F4614461D46082D0CD1A4F120000E4910
:1010B00001EB00101023082239460090304600F062
:1010C00097F80FE0062D0DD1A4F1200000EB4000B1
:1010D000064901EB400008230622394600903046BD
:1010E00000F086F8F8BD0000E62A0008D6300008B7
:1010F0002DE9F04F2DED088B81B005468B46B0EE03
:10110000408AF0EE608A16469A46129C9FED360B96
:1011100053EC102B51EC180BFFF72CFA06D8234692
:101120002B2259462846FFF7B9FF0BE023462D2214
:1011300059462846FFF7B2FF51EC180B81F00041E9
:1011400041EC180B51EC180BFFF7CFF980464046E5
:10115000FFF7BEF941EC190B53EC182BFFF7D4F84D
:1011600041EC180B51460A20FFF763FF074638464B
:10117000FFF7AEF941EC1B0B53EC182BFFF7C7F848
:1011800041EC1A0BB0EE4A0AF0EE6A0A01F038FAA6
:10119000B0EE409AF0EE609A51EC190BFFF7A5F90A
:1011A0008146B9FBF7F08044291908B2334642461C
:1011B0005946009400F09AF8711C01FB045108B2E2
:1011C00023462E225946FFF769FFB11C01FB04514B
:1011D00008B253464A465946009400F087F801B0D9
:1011E000BDEC088BBDE8F08F00000000000000009F
:1011F0002DE9FF4F80460E469146DDF834B00025BC
:1012000000244A4631464046039BFFF733FE00BFA9
:101210005EE0002558E008EB0500002852DB08EBF3
:1012200005007F284EDC3046F11706EB5171C910DE
:101230000FB2F11706EB5171C910A6EBC10A002ECF
:1012400005DA781E07B20AF108000FFA80FA381999
:10125000002817DB3819072814DC3819224901EB5C
:10126000C01008EB0501405C04FB09511BF801109C
:1012700001FA0AF1084339191B4A02EBC11108EBC4
:10128000050288543819401C00281BDB3819401C03
:10129000072817DC3819401C134901EBC01008EB74
:1012A0000501405C04FB09511BF80110CAF108025A
:1012B000114108433919491C0B4A02EBC11108EBD3
:1012C00005028854681CC5B24D45A4DB601CC4B23D
:1012D0000399481EC11700EB5171012202EBE10195
:1012E000A14296DCBDE8FF8F380200202DE9F047CF
:1012F0000646894617461D46DDF82080002417E083
:10130000281B411E0A20FFF794FEB7FBF0F00A21CC
:10131000B0FBF1F201FB120000F1300A04FB08619E
:1013200008B2434652464946FFF7B8FE601CC4B2B5
:10133000AC42E5DBBDE8F0872DE9F0410646884682
:1013400015461F46002409E02A5D04FB076108B228
:101350003B464146FFF7A2FE601CC4B2285D002850
:10136000F2D1BDE8F081000010B500240BE00021AF
:101370002046FFF781FE054901EBC410802100F0F3
:1013800040F8601CC4B2082CF1DB10BD380200200C
:1013900010B5044622464FF480610248FFF706FD6F
:1013A00010BD00000008024010B5044622464FF46C
:1013B00080510248FFF7FAFC10BD0000000802400F
:1013C00010B5044622464FF400610248FFF7EEFCD8
:1013D00010BD00000008024010B5044622464FF43C
:1013E00000710248FFF7E2FC10BD0000000C024053
:1013F00010B504460020FFF7E3FF2046FFF723FE69
:1014000010BD70B505460E460120FFF7D9FF002438
:1014100004E0285DFFF717FE601CC4B2B442F8DB9D
:1014200070BD704729B1064A12680243044B1A6026
:1014300004E0034A12688243014B1A6070470000BF
:101440003038024029B1064A12680243044B1A6040
:1014500004E0034A12688243014B1A60704700009F
:101460004038024029B1064A12680243044B1A6010
:1014700004E0034A12688243014B1A60704700007F
:101480002038024029B1064A12680243044B1A6010
:1014900004E0034A12688243014B1A60704700005F
:1014A00044380240F0B50021002200240225002625
:1014B0000223324F3F6807F00C0121B1042905D007
:1014C000082937D105E02E4F076036E02D4F076021
:1014D00033E02A4F3F1F3F68C7F38056274F3F1F17
:1014E0003F6807F03F036EB1264FB7FBF3F7DFF815
:1014F0008CC0ACF1040CDCF800C0CCF3881C07FBFA
:101500000CF40CE01E4FB7FBF3F7DFF870C0ACF142
:10151000040CDCF800C0CCF3881C07FB0CF4174F5C
:101520003F1F3F68C7F301477F1C7D00B4FBF5F701
:10153000076002E0124F076000BF00BF0F4F3F6817
:1015400007F0F0010909104F7A5C0768D74047603F
:101550000A4F3F6807F4E051890A0B4F7A5C4768ED
:10156000D7408760054F3F6807F46041490B064F3D
:101570007A5C4768D740C760F0BD00000838024079
:101580000024F40000127A008E00002000B587B01D
:1015900001210220FFF746FF01218803FFF752FFD8
:1015A0004FF46040059002208DF8180000208DF85F
:1015B0001A0003208DF8190001208DF81B0005A9E1
:1015C0002148FFF77BFB05220D211F48FFF7BEFBDB
:1015D00005220E211C48FFF7B9FB05220F211A48EE
:1015E000FFF7B4FB01218803FFF73CFF00214FF414
:1015F0008040FFF737FF0020ADF800004FF4827005
:10160000ADF802004FF40060ADF804000220ADF820
:1016100006000120ADF808004002ADF80A000020E5
:10162000ADF80C00ADF80E000720ADF810006946CB
:10163000064800F041F80121044800F023F8FF209B
:1016400000F006F807B000BD00040240003800407A
:1016500010B5044600BF0221094800F01FF8002819
:10166000F9D02146064800F025F800BF01210448C2
:1016700000F014F80028F9D0014800F018F810BD67
:101680000038004021B1028842F04002028004E0AC
:1016900002884FF6BF731A4002807047024600204E
:1016A00013890B400BB1012000E000207047014678
:1016B000888970478181704710B50022028802F442
:1016C00041520B884C8823438C882343CC88234386
:1016D0000C8923434C8923438C892343CC8923439E
:1016E0001A430280838B4FF2FF74234083830B8A5B
:1016F000038210BD7047000030B500228B071C0F1D
:101700000F2303FA04F20B4B8C1053F8243093434D
:10171000084C8D1044F8253023468C1053F82430A3
:101720008C07240F00FA04F42343024C8D1044F874
:10173000253030BD083801400CB5002001900090E4
:101740003448006840F480303249086000BF3148B6
:10175000006800F4003000900198401C019000984F
:1017600018B90198B0F5A04FF1D12A48006800F4EB
:10177000003010B10120009001E00020009000989E
:10178000012846D123484030006840F0805021496C
:10179000403108602048006840F440401E4908601D
:1017A0001C48083000681B4908310860084600687A
:1017B00040F4004008600846006840F4A05008600B
:1017C0001648091F0860081F006840F08070091F54
:1017D000086000BF0F48006800F000700028F9D0D2
:1017E00040F205700E4908600A480830006820F091
:1017F00003000849083108600846006840F002000C
:10180000086000BF03480830006800F00C0008289A
:10181000F8D10CBD00380240007000400854400769
:10182000003C0240042808D14FF0E021096941F052
:1018300004014FF0E022116107E04FF0E021096957
:1018400021F004014FF0E022116170477047000061
:1018500010B51548006840F470001349086013483B
:10186000006840F001001149086000200F4908316C
:1018700008600E4800680E4908400C4908600D4891
:10188000091D0860081F006820F48020091F0860F7
:10189000002006490C310860FFF74EFF4FF0006052
:1018A00001498039086010BD88ED00E00038024031
:1018B000FFFFF6FE1030002410B500F05DF800F0D8
:1018C00001F810BD1CB501211020FFF7ABFD01226E
:1018D00008212848FFF73AFA012209212548FFF795
:1018E00035FA01220A212348FFF730FA01220B21A1
:1018F0002048FFF72BFA01220C211E48FFF726FA99
:1019000001220D211B48FFF721FA02208DF8040067
:101910008DF8050000208DF8060001208DF80700E5
:101920000002009069461348FFF7C8F94FF40070B1
:10193000009069460F48FFF7C1F94FF480600090AE
:1019400069460C48FFF7BAF94FF400600090694609
:101950000848FFF7B3F94FF48050009069460548F6
:10196000FFF7ACF94FF40050009069460148FFF7CB
:10197000A5F91CBD0010024000B58DB0012108463C
:10198000FFF780FD40F634000B900020ADF82800F2
:10199000ADF830002020ADF82A000AA9324800F046
:1019A0009DFC6020ADF814000120ADF81600042065
:1019B000ADF818000020ADF82000ADF82200ADF819
:1019C00024004FF40070ADF826000120079005A90F
:1019D000254800F0A1FB0120079005A9224800F04E
:1019E000D9FB0020079005A91F4800F025FC4FF403
:1019F0000060ADF804004010ADF806008010ADF8AE
:101A000008004FF4B470ADF80A000020ADF80C00E7
:101A10004FF40050ADF80E000020ADF8100001A901
:101A2000114800F031FB0E210F4800F03DFB1B2058
:101A30008DF8000000208DF8010001208DF80200D3
:101A40008DF803006846FFF7BBF901220E21064816
:101A500000F059FB0121044800F035FB0121024848
:101A600000F025FB0DB000BD000001401FB50121B5
:101A70000846FFF7E7FC4FF4D26002900420ADF86F
:101A800004000020ADF80C00ADF8060001A94FF0ED
:101A9000804000F023FC0121880700F005FB0122B3
:101AA0001146900700F02FFB1C208DF8000001204C
:101AB0008DF8010002208DF8020001208DF803004E
:101AC0006846FFF77DF90121880700F0F0FA1FBD95
:101AD00010B52DED0A8B0121880700F003FB0128CA
:101AE0007DD1C848FEF7B2FE00244EE0C54830F86C
:101AF0001400B0F5004F1CDAC24931F81400FEF7AB
:101B0000E7FC41EC1A0B9FEDC00B53EC102BFEF7DA
:101B1000FEFB41EC190B9FEDBE0B53EC102BFEF7B7
:101B200068FC41EC180BFEF73DFDBB4941F8240071
:101B30002AE0B44830F81400C043401CB14921F8F1
:101B4000140031F81400FEF7C3FC41EC1B0B9FEDB1
:101B5000AE0B53EC102BFEF7DAFB41EC1A0B9FEDAA
:101B6000AF0B53EC102BFEF7D2FB41EC190B9FEDA2
:101B7000A80B53EC102BFEF73CFC41EC180BFEF7C6
:101B800011FDA54941F82400641C082CAEDBA548D2
:101B90000088401CA34908809F4890ED000AA24895
:101BA000D0ED000A30EE200A80ED000A9A4890ED50
:101BB000010A9E48D0ED000A30EE200A80ED000AAE
:101BC000954890ED020A9A48D0ED000A30EE200ABE
:101BD00080ED000A904890ED030A964800E00AE183
:101BE000D0ED000A30EE200A80ED000A0846008899
:101BF00064287DDD8C4890ED000ADFED8F0A80EED1
:101C0000201A8E4880ED001A884890ED000ADFED1A
:101C10008A0A80EE201A894880ED011A844890EDE6
:101C2000000ADFED850A80EE201A844880ED021A52
:101C3000804890ED000ADFED800A80EE201A7F4890
:101C400080ED031A002008809FED7D0A764880ED24
:101C5000000A9FED7B0A754880ED000A9FED780A27
:101C6000734880ED000A9FED760A724880ED000A05
:101C700004227249734800F095FC704890ED000A08
:101C800010EE101A0846FEF749FC41EC1C0B9FEDC4
:101C90006E0B53EC102BFEF734FB41EC1B0B9FED4E
:101CA0005F0B53EC102BFEF732FB41EC1A0B9FED50
:101CB000680B53EC102BFEF79CFB41EC190B9FEDCE
:101CC000660B53EC102BFEF71CFB41EC180BFEF7D8
:101CD00069FC63490860594890ED010A10EE101A3A
:101CE0000846FEF71BFC41EC1A0B9FED5E0B00E073
:101CF0003DE053EC102BFEF704FB41EC190B9FED7C
:101D0000540B53EC102BFEF774FB41EC180BFEF751
:101D100049FC56490860404890ED020A10EE101A3E
:101D20000846FEF7FBFB41EC190B9FED510B53EC02
:101D3000102BFEF7ECFA41EC180BFEF733FC4E4982
:101D40000860354890ED030A10EE101A0846FEF7B9
:101D5000E5FB41EC190B9FED460B53EC102BFEF706
:101D6000D6FA41EC180BFEF71DFC444908604448C4
:101D700090ED002A90ED000AF1EE401A414890EDF6
:101D8000001A3E48D0ED000A3F4890ED000A3F4857
:101D900000F0B2FD3B48D0ED000A30EE200A80EDA5
:101DA000000A90ED000A3648D0ED000AB4EEE00AD1
:101DB000F1EE10FA04DB90ED000A324880ED000AE3
:101DC000304890ED000A3248D0ED000AB4EEE00A47
:101DD000F1EE10FA04D890ED000A2A4880ED000ACE
:101DE0002848D0ED000AB7EE001A71EE600AB0EE96
:101DF000600A00F003FE0121880700F055F9BDECF0
:101E00000A8B10BD88010020000000000000244063
:101E1000000000000000E0409801002000000000E9
:101E20000000F0BF1A00002004000020080000207D
:101E30000C000020100000200000C842A00000207C
:101E400000000000B00000207B14AE47E17A743F30
:101E50000AD7A3703D0AFF3F7B14AE47E17A843F67
:101E6000240000209A9999999999993F2C00002073
:101E7000CDCCCCCCCCCC18402000002028000020B9
:101E8000540000203000002034000020D801002041
:101E9000580000201FB501210220FFF7D3FA41F2BC
:101EA000A16002909020ADF804000020ADF80C0075
:101EB000ADF8060001A9104800F010FA01210E4803
:101EC00000F0F2F8012211460B4800F01CF91D2029
:101ED0008DF8000004208DF8010003208DF8020029
:101EE00001208DF803006846FEF76AFF01210248D1
:101EF00000F0DDF81FBD00000004004000B52DED2E
:101F0000028B81B00121504800F0ECF801287CD10F
:101F100006234EA200210846FFF70EFA06234CA224
:101F200000214820FFF708FA4A480068FEF7F6FA51
:101F300041EC180B062003230222B0EE480AF0EE13
:101F4000680A002100901820FFF7D2F8062342A269
:101F500008210020FFF7F0F9062340A208214820BD
:101F6000FFF7EAF93E480068FEF7D8FA41EC180B93
:101F7000062003230222B0EE480AF0EE680A082188
:101F800000901820FFF7B4F8062336A21021002095
:101F9000FFF7D2F935480068FEF7C0FA41EC180B9C
:101FA000062004230122B0EE480AF0EE680A102150
:101FB00000901820FFF79CF806232DA2282100206E
:101FC000FFF7BAF9062322A228214820FFF7B4F927
:101FD00029480068FEF7A2FA41EC180B06200323FB
:101FE0000222B0EE480AF0EE680A2821009018207C
:101FF000FFF77EF8062321A230210020FFF79CF98D
:10200000062316A23021482000E015E0FFF794F9DE
:102010001C480068FEF782FA41EC180B06200323E7
:102020000222B0EE480AF0EE680A30210090182033
:10203000FFF75EF8FFF798F90121034800F034F844
:1020400001B0BDEC028B00BD0004004049323A00F3
:10205000410000002400002055313A0056000000E5
:1020600028000020647574793A00000030000020D8
:10207000497365743A000000380000205573657498
:102080003A000000340000200A884B881A438B88ED
:102090001A43CB881A430B891A434B891A438B89FD
:1020A0001A43A0F844207047CA430282704721B106
:1020B000028842F00102028004E002884FF6FE73BB
:1020C0001A400280704731B1B0F8442042F4004217
:1020D000A0F8442005E0B0F84420C2F30E02A0F8B6
:1020E0004420704730B50246002000230024158AA2
:1020F00005EA0103958905EA010413B10CB1012039
:1021000000E0002030BD1AB183890B43838102E0D7
:1021100083898B438381704770B50024002200239C
:10212000058C4FF6FE7635400584028C8388048B3F
:102130004FF68F752C40B51E2C400D882C43751E14
:102140002A408D892A434D882A43104DA84202D047
:102150000F4DA84213D14FF6F7752A40CD892A4377
:102160004FF6FB752A408D882A434FF6FF652B40BA
:102170004FF6FF552B400D8A2B434D8A2B4383800E
:1021800004838D684563028470BD00000000014037
:102190000004014070B5002400220023058C4FF696
:1021A000EF7635400584028C8388048B48F6FF75F2
:1021B0002C404FF6FF452C400D884FF6FF7606EA7F
:1021C00005252C434FF6DF752A408D8906EA051553
:1021D0002A434D8806EA05152A43154DA84202D028
:1021E000144DA8421DD14FF67F752A40CD894FF678
:1021F000FF7606EA05152A434FF6BF752A408D88FB
:1022000006EA05152A434FF6FF352B404FF2FF75BE
:102210002B400D8A06EA85052B434D8A06EA850583
:102220002B43838004838D688563028470BD000026
:10223000000001400004014070B50024002200238A
:10224000058C4FF6FF6635400584028C8388848BAD
:102250004FF68F752C404FF6FC752C400D882C43A3
:102260004FF6FF552A408D894FF6FF7606EA052581
:102270002A434D8806EA05252A43154DA84202D077
:10228000144DA8421DD14FF2FF752A40CD894FF65B
:10229000FF7606EA05252A434FF6FF352A408D884A
:1022A00006EA05252A434EF6FF752B404DF6FF75CD
:1022B0002B400D8A06EA05152B434D8A06EA0515C3
:1022C0002B43838084838D68C563028470BD0000C6
:1022D0000000014000040140416370470022028871
:1022E000184B98420ED0184B98420BD0B0F1804F4B
:1022F00008D0164B984205D0154B984202D0154B8A
:10230000984204D14FF68F731A404B881A43124BF0
:10231000984207D0114B984204D04FF6FF431A4021
:102320000B891A4302804B68C3620B880385054BF7
:10233000984202D0044B984201D18B7A0386012344
:102340008382704700000140000401400004004007
:1023500000080040000C0040001000400014004045
:1023600010B540F225511D4800F057F810B31B4836
:1023700000F00CF9C4B21A48008800F40040C8B953
:102380001748008800F4804060B10A2C03D0002078
:102390001349088020E01248008840F400401049AA
:1023A000088019E00D2C06D10D48008840F48040CB
:1023B0000B49088010E00A480088C0F30D00094965
:1023C0000C5407480088401C0549088008460088CE
:1023D000C72801DD0020088010BD0000001001406A
:1023E0008C0000203806002021B1828942F400527E
:1023F000828104E082894DF6FF731A408281704722
:1024000002460020B1F5007F00D100BF13880B40C9
:102410000BB1012000E00020704770B50246002497
:1024200000230025002040F66A16B14200D100BF0B
:10243000C1F3421501F01F03012606FA03F3012D33
:1024400002D19689334006E0022D02D1168A33402C
:1024500001E0968A33400C12012606FA04F416882D
:10246000344013B10CB1012000E0002070BDF0B584
:102470000346002400260025002040F66A17B942D2
:1024800000D100BF1846C1F3421401F01F06012716
:1024900007FA06F5012C01D10C3004E0022C01D121
:1024A000103000E014301AB107682F43076002E0D3
:1024B0000768AF430760F0BD2DE9FF4705460E46AC
:1024C0000024A14600BFA046B08900B100BF2C8AFD
:1024D00024F44054F08804432C82AC8941F20C600F
:1024E0008443B08831890843718908430443AC812F
:1024F000AC8A24F44074B0890443AC826846FEF789
:10250000D1FF2048854202D01F48854202D1DDF824
:102510000C9001E0DDF80890A88900F4004040B17B
:1025200009EBC90000EB091031684900B0FBF1F775
:1025300007E009EBC90000EB091031688900B0FB26
:10254000F1F76420B7FBF0F004012009642101FBDE
:102550001078A88900F4004040B1322000EBC80098
:10256000B0FBF1F000F00700044308E0322000EB7C
:1025700008106421B0FBF1F000F00F0004432C813F
:10258000BDE8FF8700100140001401400146888823
:10259000C0F308007047C1F308028280704700BF93
:1025A000FEE7000070B505460E4614464FF6FF7074
:1025B00000EA84023146284600F008F80422024965
:1025C000284600F003F870BDE22A00082DE9F0412A
:1025D00007460D46164600240BE0295D0748FFF725
:1025E000DAFF00BF40210548FFF70AFF0128F9D1B3
:1025F000641CB442F1DBBDE8F08100000010014032
:1026000010B52DED020B2DED088B84B09DED0C0B5C
:1026100051EC100BFEF7A8F841EC180B9DED0C0BDC
:1026200053EC182B51EC100BFDF76BFE41EC190B22
:102630000D989FED290B10F0004F53EC102B51EC2F
:10264000190B9FED21AB9FED22BB0ED0FDF77AFF5A
:102650000ED953EC1B2B51EC190BFDF78BFF1CD241
:1026600014E000BF41EC180B17E0FDF76BFF06D23A
:1026700053EC1A2B51EC180BFDF743FEF2E753EC29
:102680001B2B51EC190BFDF775FF06D853EC1A2BD9
:1026900051EC180BFDF794FDE4E78DED028B9DEDF9
:1026A0000C0B18EE901A10EE900A8DED000B61F3F2
:1026B0001E0003909DED020B04B0BDEC088B02B030
:1026C00010BD000000000000000000000000F03F0E
:1026D000000000000000E03F000000000000E0BF3C
:1026E00002E008C8121F08C1002AFAD170477047DB
:1026F000002001E001C1121F002AFBD17047000039
:1027000010B504466FF00400FFF78CF8E11704EBF6
:102710005171C1F3C701074A11701046007800EBF0
:102720004001C1EBC0104FF6FF7101EAC000024941
:10273000088010BD840000208600002070B504468B
:102740004FF4077094FBF0F0C6B24FF4077094FB9F
:10275000F0F100FB114085B205E04FF4077000F086
:102760002FF8701EC6B2002EF7D115B1284600F022
:1027700027F870BD0146114A12784A434FF0E02312
:102780005A6100229A611A46126942F001021A61E6
:1027900000BF4FF0E022106900F001021AB100F40E
:1027A0008032002AF5D04FF0E022126922F00102B7
:1027B0004FF0E0231A6100229A61704784000020E4
:1027C0000146114A12884A434FF0E0235A61002221
:1027D0009A611A46126942F001021A6100BF4FF075
:1027E000E022106900F001021AB100F48032002AE0
:1027F000F5D04FF0E022126922F001024FF0E02301
:102800001A6100229A617047860000209FED211A0C
:10281000DFED210A9FED210A214800F04FF89FEDDE
:102820001D1ADFED200A9FED200A204800F046F82F
:102830004FF44070FEF700FBA820FFF761FFFEF7A2
:1028400093F9FEF77BF8FDF7E5FFFEF79FFEFEF735
:10285000A3FB4FF4E13000F0EDF8FFF71BFBFFF7AF
:102860002BF8FFF703F9B7EE080A114880ED000ACC
:10287000B3EE0E0A0F4880ED000AB6EE000A0E48CD
:1028800080ED000A90ED000A00F0B8F8FEF7DEFADD
:1028900000BFFEE700000000ACC5A73882A8FB37E8
:1028A000B801002017B7D1380AD7233CD80100203F
:1028B000380000203400002030000020DFED0D1A29
:1028C000C0ED001ADFED0B1AC0ED011ADFED091A99
:1028D000C0ED021ADFED071AC0ED031ADFED051A8D
:1028E000C0ED041A80ED050AC0ED060A80ED071A56
:1028F0007047000000000000F0EE402AC0ED002A02
:10290000C0ED010A90ED003AD0ED013A33EE633AA2
:1029100080ED023A90ED023AB5EEC03AF1EE10FACF
:1029200008DB90ED023ADFED323AB4EEE33AF1EE35
:1029300010FA0FD990ED023AB5EEC03AF1EE10FA66
:1029400010D890ED023ADFED2B3AB4EEE33AF1EE17
:1029500010FA07DB9FED283A80ED023A9FED263A08
:1029600080ED033A90ED023AD0ED033A33EE633A4C
:10297000D0ED053A23EE233AD0ED063A90ED024A27
:1029800003EE843AD0ED023A90ED034AF0EE004AAD
:1029900044EEC43A90ED044A73EE843A90ED074A4F
:1029A000B0EE430A04EE230A31EE003AB4EEC23A26
:1029B000F1EE10FA06DA31EE003AB4EEE13AF1EE59
:1029C00010FA0BD890ED023AD0ED033A33EE633AA9
:1029D000D0ED053A23EE233AB0EE430A90ED033AE8
:1029E00080ED043A90ED023A80ED033A7047000022
:1029F0000AD7A33C0AD7A3BC0000000010B52DEDF8
:102A0000028BB0EE408AB7EE000A30EE480ADFEDE6
:102A1000070A20EE200ABCEEC00A10EE101A044885
:102A2000FFF75AFCBDEC028B10BD000000400345CF
:102A30000000014010B588B0044601210846FEF7A9
:102A4000F1FC01211020FEF71DFD0722092122487B
:102A5000FEF77CF907220A211F48FEF777F94FF4A9
:102A6000C060069002208DF81C008DF81D0000202B
:102A70008DF81E0001208DF81F0006A91648FEF7EC
:102A80001DF902940020ADF80C00ADF80E00ADF871
:102A90001000ADF814000C20ADF8120002A90F4888
:102AA000FFF70AFD01210D48FFF79EFC012240F2CD
:102AB00025510A48FFF7DBFC25208DF80400032090
:102AC0008DF805008DF8060001208DF8070001A89B
:102AD000FEF776F908B010BD00000240001001407A
:102AE000AFFA0000807F000000000000000000003E
:102AF000000000000000000000F8000000000000DE
:102B000000333000000000160E00160E000000001A
:102B100000000000000040C07840C0784000043F42
:102B200004043F040400007088FC08300000001812
:102B300020FF211E0000F008F000E0180000002136
:102B40001C031E211E0000F00888700000001E21DA
:102B5000232419272110000000160E000000000099
:102B6000000000000000000000E018040200000067
:102B700000071820400000020418E0000000004098
:102B8000201807000000404080F080404000020212
:102B9000010F01020200000000F00000000001012E
:102BA000011F01010100000000000000000000B052
:102BB00070000000000000000000000000000001A4
:102BC00001010101010100000000000000000030CF
:102BD0003000000000000000000080601804006069
:102BE00018060100000000E010080810E000000FC7
:102BF000102020100F00001010F80000000000202E
:102C0000203F202000000070080808887000003075
:102C1000282422213000003008888848300000181D
:102C2000202020110E000000C02010F80000000736
:102C30000424243F240000F80888880808000019AC
:102C4000212020110E0000E0108888180000000FDD
:102C5000112020110E0000380808C83808000000B4
:102C6000003F000000000070880808887000001C09
:102C7000222121221C0000E010080810E0000000C2
:102C8000312222110F00000000C0C000000000002F
:102C9000003030000000000000C0C0000000000054
:102CA00080B070000000000080402010080000018B
:102CB000020408102000404040404040400004040E
:102CC00004040404040000081020408000000020D8
:102CD000100804020100007048080808F000000015
:102CE000003036010000C030C828E810E0000718A6
:102CF000272423140B000000C038E0000000203C13
:102D000023020227382008F8888888700000203FB6
:102D1000202020110E00C0300808080838000718CD
:102D200020202010080008F808080810E000203FC4
:102D3000202020100F0008F88888E8081000203FA5
:102D400020202320180008F88888E8081000203F79
:102D5000200003000000C0300808083800000718F1
:102D60002020221E020008F808000008F808203F72
:102D7000210101213F20000808F808080000002078
:102D8000203F2020000000000808F8080800C0804C
:102D900080807F00000008F888C028180800203FC5
:102DA00020012638200008F8080000000000203F1D
:102DB00020202020300008F8F800F8F80800203F14
:102DC000003F003F200008F830C00008F808203F0E
:102DD000200007183F00E01008080810E0000F105E
:102DE000202020100F0008F808080808F000203FF5
:102DF000210101010000E01008080810E0000F1890
:102E0000242438504F0008F8888888887000203FB4
:102E10002000030C302000708808080838000038B3
:102E2000202121221C00180808F8080818000000BA
:102E3000203F2000000008F808000008F808001FE4
:102E4000202020201F000878880000C838080000D3
:102E500007380E010000F80800F80008F800033CED
:102E60000700073C030008186880806818082030B5
:102E70002C03032C30200838C800C8380800000094
:102E8000203F2000000010080808C838080020383B
:102E9000262120201800000000FE0202020000008F
:102EA000007F40404000000C30C0000000000000E7
:102EB00000010638C00000020202FE0000000040CF
:102EC00040407F000000002010080408102000008F
:102ED00000000000000000000000000000008080F2
:102EE00080808080808000020408000000000000D4
:102EF00000000000000000008080808000000019B9
:102F0000242222223F2008F8008080000000003F99
:102F1000112020110E000000008080800000000EB3
:102F2000112020201100000000808088F800000E91
:102F3000112020103F200000808080800000001FB2
:102F4000222222221300008080F088888818002026
:102F5000203F202000000000808080808000006BE7
:102F600094949493600008F8008080800000203FD3
:102F7000210000203F2000809898000000000020E1
:102F8000203F20200000000000809898000000C032
:102F90008080807F000008F8000080808000203F53
:102FA00024022D302000000808F800000000002056
:102FB000203F202000008080808080808000203F93
:102FC00020003F20003F0080800080800000002023
:102FD0003F2100203F200000808080800000001FF3
:102FE000202020201F00808000808000000080FFC3
:102FF000A12020110E000000008080808000000EC3
:10300000112020A0FF808080800080808000202010
:103010003F2120000100000080808080800000337C
:10302000242424241900008080E080800000000017
:10303000001F202000008080000000808000001F12
:10304000202020103F2080808000008080800001B0
:103050000E300806010080800080008080800F30E4
:103060000C030C300F000080800080808000002066
:10307000312E0E3120008080800000808080808191
:103080008E70180601000080808080808000002102
:10309000302C2221300000000000807C0202000061
:1030A0000000003F404000000000FF000000000062
:1030B0000000FF0000000002027C800000000040D1
:1030C000403F000000000080404080000080000081
:1030D0000000000101000000000000000000002FBF
:1030E000000000000700070000147F147F14002474
:1030F0002A7F2A12002313086462003649552250A1
:1031000000000007000000001C22410000004122D6
:103110001C000014083E08140008083E08080000BF
:1031200000A06000000808080808000060600000B7
:10313000002010080402003E5149453E0000427F35
:103140004000004261514946002141454B31001881
:1031500014127F10002745454539003C4A49493043
:1031600000017109050300364949493600064949FD
:10317000291E000036360000000056360000000808
:1031800014224100001414141414000041221408E5
:10319000000201510906003E4955592E007C1211CA
:1031A000127C007F49494936003E41414122007F5F
:1031B0004141221C007F49494941007F0909090119
:1031C000003E4149497A007F0808087F0000417F9E
:1031D0004100002040413F01007F08142241007F50
:1031E00040404040007F020C027F007F0408107FB7
:1031F000003E4141413E007F09090906003E415120
:10320000215E007F091929460046494949310001DC
:10321000017F0101003F4040403F001F2040201F30
:10322000003F4038403F00631408146300070870F3
:10323000080700615149454300007F4141000002F9
:1032400004081020000041417F0000040201020434
:10325000004040404040000001020400002054545F
:103260005478007F484444380038444444200038AF
:103270004444487F00385454541800087E09010221
:103280000018A4A4A47C007F080404780000447DF6
:103290004000004080847D00007F10284400000032
:1032A000417F4000007C04180478007C0804047806
:1032B00000384444443800FC2424241800182424F2
:1032C00018FC007C080404080048545454200004EE
:1032D0003F444020003C4040207C001C2040201CFB
:1032E000003C4030403C004428102844001CA0A072
:1032F000A07C004464544C440000087F410000005E
:10330000007F00000000417F08000008040810084A
:10331000EFBC8C0000000000000000000000000076
:10332000000000000058380000000000000000000D
:10333000000000E3808200000000000000000000A8
:103340000000000000000000182424180000000005
:10335000000000000000E4BDA0008060F8074020ED
:10336000180F08C80808281800010000FF00100CFA
:103370000340807F0001061800E5A5BD1010F01F76
:1033800010F000808282E2928A8680004022150836
:103390001661000040807F0000000000E4B8962025
:1033A0002020FE2020FF202020FF202020200000C1
:1033B00000007F404047444444474040400000E70D
:1033C000958C000000FE929292FE929292FE000076
:1033D000000008080484621E010001FE02040408C3
:1033E0000800000000FF0101013109090909897184
:1033F00001010101FFFF80808080808096818080B4
:1034000080808080FFFF01818181FD8991A1C1FDC4
:1034100081818101FFFF808080809F888482819FDD
:1034200080808080FF0000004834000800000020F9
:10343000A0000000E0260008E8340008A0000020FA
:10344000600A0000F02600080000000000000000F4
:10345000000000000000000000000000000000006C
:10346000000000003333D33F0000000000000000E4
:1034700000000000000000000000003F000000000D
:10348000000000000000000000000000000000003C
:10349000000000000000000000000000CDCC4C3F08
:1034A000CDCCCC3D0000000000000000000000007A
:1034B000000000000000803F0000000000004040CD
:1034C000000000000000803F00000000000000003D
:1034D00000000000000000000000010203040102DF
:0834E0000304060708090000BF
:040000050800019D51
:00000001FF
