:020000040800F2
:10000000C80B00209D010008171500080F150008F7
:1000100013150008CD0E0008132F00080000000083
:10002000000000000000000000000000751F000834
:10003000850F0008000000000B1C0008CD20000800
:10004000B7010008B7010008B7010008B7010008B0
:10005000B7010008B7010008B7010008B7010008A0
:10006000B7010008B7010008870F0008B7010008B2
:10007000B7010008B7010008B7010008B701000880
:10008000B7010008B7010008B7010008B701000870
:10009000B7010008B7010008B7010008A10F000868
:1000A000B7010008B7010008B7010008B701000850
:1000B0001D23000889260008B7010008B7010008C1
:1000C000B7010008B7010008B7010008B701000830
:1000D000B7010008D52C0008B7010008B7010008D7
:1000E000B7010008B7010008B7010008B701000810
:1000F000B7010008B7010008B7010008B701000800
:10010000B7010008B7010008B7010008B7010008EF
:10011000B7010008B7010008B7010008B7010008DF
:10012000B7010008B7010008B7010008B7010008CF
:10013000B7010008B7010008B7010008B7010008BF
:10014000B7010008B7010008B7010008B7010008AF
:10015000B7010008B7010008B7010008B70100089F
:10016000B7010008B7010008B7010008B70100088F
:10017000B7010008B7010008B7010008B70100087F
:10018000B7010008B7010008DFF80CD000F04EFB03
:1001900000480047F5340008C80B00200648804797
:1001A00006480047FEE7FEE7FEE7FEE7FEE7FEE75C
:1001B000FEE7FEE7FEE7FEE7D12000088901000820
:1001C000D2B201E000F8012B491EFBD27047002299
:1001D000F6E710B513460A4604461946FFF7F0FF46
:1001E000204610BD2DE9FE4F804681EA0300C00F76
:1001F0000C46009021F0004123F00045B8EB0200CE
:10020000A94105D24046214690461C460B4602466F
:1002100023F00040104347D0270DC7F30A00C3F373
:100220000A510290401A019040286BDAC3F3130080
:1002300040F4801B0098924620B10023D2EB030AC1
:1002400063EB0B0B01985946C0F14002504600F099
:10025000D7F906460D4650465946019A00F0EFF987
:1002600010EB08006141002487EA115284EAE77329
:100270001A4340D0009A62B3019A012A4FEA07520A
:1002800015DC001B61EB02014FF0004202EA07524D
:10029000CDE90042001C41F5801132462B4600F0AA
:1002A00033FA03B0BDE8F08F40462146F9E7001B62
:1002B00061EB0201001C41F5801300185B4120181E
:1002C000A2F5001747EB030140EAD570B6196D415E
:1002D00011E06D084FEA360645EAC0754FEA07524D
:1002E000001B61EB0201001C41F5801149084FEA37
:1002F00030000019514132462B4603B0BDE8F04FA3
:1003000000F0F3B90098012240000023D0EB020274
:1003100063EBE073009821464FEAE074B8EB00000D
:1003200061EB0401E9E783F000435BE781F0004102
:1003300058E72DE9FE4F81EA030404F0004421F060
:10034000004100944FF0000B23F0004350EA0104F9
:100350005ED052EA03045BD0C3F30A54C1F30A55DA
:100360002C44A4F2F3340194A0FB0254C1F3130112
:1003700041F48011C3F3130343F4801301FB0244DF
:1003800000FB034E840A970A44EA815447EA8357E4
:10039000A4FB076802958D0A05FB07854FEA932C9D
:1003A00004FB0C542705029D4FEA065847EA16370E
:1003B000B5EB08056EEB070C870E920E47EA811726
:1003C00042EA8312A7FB0201B6EB0B0164EB0004C7
:1003D0002B0D43EA0C335E1844EB1C50DA465146B1
:1003E000E7FB0201C5F313044FEA0B3343EA14534E
:1003F0004FEA0432019C43EA0603A4F10C04029480
:10040000009CCDE900B400F07FF903B0BDE8F08FA7
:1004100000200146F9E72DE9F04D81EA030404F0DC
:10042000004B21F0004514464FF0000A23F0004134
:1004300050EA050220D054EA01021DD0C5F30A5744
:100440000246C5F31303C1F31300C1F30A5640F487
:10045000801543F48013A7EB0608101BD64608F25C
:10046000FD3873EB050002D308F1010801E0921892
:100470005B41B8F1000F03DA00200146BDE8F08DC2
:1004800000204FF48011064684460EE0171B73EBE4
:10049000050705D3121B63EB050306434CEA010C69
:1004A00049084FEA300092185B4150EA0107EDD14C
:1004B00052EA030012D082EA040083EA05010843ED
:1004C00005D0101BAB4106D20122002306E000221A
:1004D0004FF0004302E06FF0010253101AEB0600E8
:1004E0004CEB085110EB0A0041EB0B01BDE8F04D5D
:1004F00000F0FBB80EB540F2334102910021CDE986
:1005000000110A460B4600F0FFF803B000BDC1F32E
:100510000A5210B5C1F3130140F2FF3341F48011C8
:100520009A4201DA002010BD40F233439A42A2F20F
:10053000334203DC524200F072F810BD904010BD0F
:1005400000F0004230F000400AD0C10D01F56071AA
:10055000C0F3160042EA0151C20840071143704738
:10056000002001467047000030B5041E71F1000400
:1005700004DB4FF00044404264EB0101141E73F1B0
:10058000000405DB1C464FF00043524263EB0403BA
:100590008B4208BF824230BD30B5041E71F10004A9
:1005A00004DB4FF00044404264EB0101141E73F180
:1005B000000405DB1C464FF00043524263EB04038A
:1005C000994208BF904230BD01F0004330B421F0A1
:1005D000004150EA010206D00A0DA2F56072C1F393
:1005E0001301002A02DC30BC00207047440F44EAAB
:1005F000C104C100E01830BC00EBC25000F03EB8AE
:10060000202A04DB203A00FA02F1002070479140D2
:10061000C2F1200320FA03F3194390407047202AC7
:1006200004DB203A21FA02F00021704721FA02F39C
:10063000D040C2F120029140084319467047202A59
:1006400006DBCB17203A41FA02F043EAE07306E0FA
:1006500041FA02F3D040C2F120029140084319460A
:1006600070477CB50023CDE900330546684600F0AD
:100670000AF96946284602F07BFD7CBD0029A8BF27
:100680007047401C490008BF20F00100704710B4BB
:10069000B0FA80FC00FA0CF050EA010404BF10BC70
:1006A000704749B1CCF1200421FA04F411FA0CF19D
:1006B00018BF012121430843A3EB0C01CB1D4FEAD6
:1006C00000614FEA102042BF002010BC704700EBD1
:1006D000C35010440029A4BF10BC7047401C4900FF
:1006E00008BF20F0010010BC704710B5141E73F154
:1006F000000408DA401C41F1000192185B411A43E2
:1007000001D120F0010010BD2DE9F04D92469B462D
:1007100011B1B1FA81F202E0B0FA80F220329046D3
:10072000FFF76EFF04460F4640EA0A0041EA0B015C
:1007300053465A46084313D0114653EA010019D0D4
:10074000C8F140025046FFF76AFF05460E46504684
:1007500059464246FFF754FF084305D0012004E004
:1007600020463946BDE8F08D0020054346EAE07694
:100770002C4337430A986305E40AA0EB08000022E3
:10078000FD0A44EA47540A3002D500200146E9E751
:10079000010510196941DDE9084500196941BDE805
:1007A000F04DA2E72DE9F041054621F000400C464E
:1007B000284309D0C4F30A5040F23341884205DD92
:1007C00028462146BDE8F0812846FBE740F2FE318D
:1007D000884210DC0CDB4FEA043040EA155050EA46
:1007E000053105D0104804F0004101430020E9E73D
:1007F00000200146E6E7A0F233404642C6F140023F
:1008000028462146FFF7FCFE074688462846214633
:100810003246FFF704FF43463A46FFF766FF32468B
:10082000BDE8F041FFF7ECBE0000F03F064C074D7D
:1008300006E0E06840F0010394E8070098471034B0
:10084000AC42F6D3FFF7A4FCE040000800410008EA
:100850000FB4002300B589B00CA900910B996FF07B
:100860000042CB601E4B06931E4B07930423CDE939
:1008700001321D4A089202466B46002000F0D0F873
:1008800009B05DF814FB70B586B006464FF0FF3036
:100890000091CDE90101002015460C460490324636
:1008A000694604A8FFF7D4FF02460498211825B131
:1008B00008B1084600E020462860049800280DD0C2
:1008C000002A02DD0098884208D0081B0094CDE978
:1008D00001043246694604A8FFF7BAFF06B070BDAE
:1008E000590C0008770C0008ED080008C0B24FF45E
:1008F000F05100F0D3B900002DE9FF4F087883B024
:100900009946FF2805D0491C2D2804D0002400203A
:1009100008E000200BE00124F9E700EB800003EB86
:100920004000491C0B78FF2BF7D104B14042002353
:100930000293147819461D462D2C01D02B2C04D17E
:10094000521C2D2C13D000240294AA461478FF2C9C
:100950000FD00A25A3FB057801FB05814FF0000CA1
:1009600003FB0C11521CE3194AEB0101EEE70124D1
:10097000EAE7814453EA010002D019F5C87F06DA9C
:1009800003980021C0E9001107B0BDE8F08F0025F1
:10099000AE4E2F46DFF8B882184600F093F9CDE945
:1009A0000001B9F1000002DAC9F1000400E00446D8
:1009B0000023A74A1AEB030B42EB045A12E0E007AC
:1009C00007D02A46334638464146FFF7B2FC074671
:1009D00088462A46334610461946FFF7AAFC0546C4
:1009E0000E466410002CEAD1DDE90001B9F1000FD8
:1009F0005A46534606DAFFF70EFD3A464346FFF7DE
:100A00000AFD05E0FFF795FC3A464346FFF791FCE7
:100A1000029A0AB181F00041039AC2E90001B3E7EA
:100A20002DE9FF4F1F468DB0D7E901464FF0FF3843
:100A30002E2045464FF000090B90B9696D1C0E98A9
:100A40008847396A824688470028F6D1BAF1FF3FC5
:100A50000AD024F4D064002E11DDBAF12B0F08D097
:100A6000BAF12D0F0BD102E0404611B08DE744F4EE
:100A70008064B9696D1C0E9888478246761E694667
:100A8000600501D52D2000E02B208DF8000001F13C
:100A9000010B0DF1200809E0B9696D1C0E9888471B
:100AA00082460F9844F40074761E0560002E02DD25
:100AB000BAF1300FF0D00B998A453ED144F0800452
:100AC00006E00F99681CA9F1010944F4007408605C
:100AD000B9696D1C761E0E98884782463028F0D082
:100AE0002BE00B998A4505D1200603D444F08004FD
:100AF000761E18E0504602F059FB08B30DF11301C1
:100B0000761E44F400748B4508D2AAF130000BF82D
:100B1000010B200607D5A9F1010003E0200602D44D
:100B200009F101008146A00502D50F99681C0860F3
:100B3000B9696D1C0E9888478246002ED1DC53E0BF
:100B4000002E51DDBAF1650F02D0BAF1450F4BD13D
:100B5000A00549D5B9696D1C24F44074761E0E9821
:100B600088478246002E0CDD2B2804D0BAF12D0FC9
:100B700007D144F48074B9696D1C0E988847824689
:100B8000761EE00501D52D2100E02B2108F8011B80
:100B9000CDF82C8021E00DF12901761E44F400747B
:100BA00088450CD2AAF1300010F0FF0088F8000050
:100BB00002D10B99884509D908F1010806E0E00542
:100BC00001D5244801E042F20F708146B9696D1CDD
:100BD0000E98884782460F980560002E04DD504627
:100BE00002F0E4FA0028D6D1F9690E988847FF2070
:100BF0008BF8000088F800000020069007904B4614
:100C00006A4608A906A8FFF777FEA00502D46FF090
:100C100001002AE714F0240F0AD0E00714D1DDE91F
:100C200006123868031D3B600068C0E900120BE043
:100C3000DDE90601FFF7C8FC0146E00704D138688A
:100C4000021D3A600068016028460EE7000014406B
:100C50000000F03FF1D8FFFF426842B1016811F88F
:100C6000013B23B1521EC0E9001218467047012112
:100C7000C160881E704742685AB1C368016843B9B1
:100C800083688B4205D0491E521CC0E90012002027
:100C900070474FF0FF307047002070477F2801D920
:100CA000002208E0064A02EB5002C007127800D189
:100CB000120902F00F020120904008407047000026
:100CC0009D4000080EB540F2334202920022CDE969
:100CD00000221346FFF718FD03B000BD70B58C1855
:100CE00010F8015B15F0070301D110F8013B2A1140
:100CF00006D110F8012B03E010F8016B01F8016B2D
:100D00005B1EF9D12B0705D40023521E0DD401F828
:100D1000013BFAE710F8013BCB1A921C03E013F8F1
:100D2000015B01F8015B521EF9D5A142D8D3002026
:100D300070BD000010B500F083FA2021094800F0D2
:100D4000DFFB012002F058FA4FF48071064800F0F2
:100D5000D7FB00F097F8012002F04EFA00F0A6F859
:100D600010BD0000000402400008024010B53148E8
:100D700000F06CF800205AE02E4931F81010B1F55F
:100D8000004F14DA2B4931F8101000EE101AB8EEAB
:100D9000400AF2EE040A20EE200ADFED270A80EE78
:100DA000201A264901EB800181ED001A1FE021493C
:100DB00031F81010C943491C1E4A22F81010114680
:100DC00031F8101000EE101AB8EE400AF2EE040AE4
:100DD00020EE200AFFEE000A20EE200ADFED160AC0
:100DE00080EE201A154901EB800181ED001A1349AC
:100DF00001EB800191ED000A114901EB8001D1ED79
:100E0000000A70EE600A0F4901EB800191ED001AB3
:100E100080EE810A0C4901EB8001D1ED000A30EE31
:100E2000200A064901EB800181ED000A401C0828D8
:100E3000A2DB10BD5002002000000047600200202D
:100E400060000020400000208000002070B50546B2
:100E50004FF480710A4800F051FB002405E0FF20A8
:100E600001F036F825F81400641C082CF7DB4FF469
:100E70008071034800F044FB00F018F870BD0000DA
:100E80000008024010B50121074800F037FB01219E
:100E9000054800F035FB012002F0CAF901210248A3
:100EA00000F02CFB10BD00000004024010B5202112
:100EB000054800F023FB012002F0BAF92021024886
:100EC00000F01EFB10BD00000004024000BFFEE762
:100ED00010B5002006490871022048710120887170
:100EE0000220C8713C200860024800F093FA10BD4F
:100EF000100100200010024010B501200E490871B9
:100F000002204871002088710120C8713C200860CF
:100F10000A4800F07FFA0421084800F0F1FA08219D
:100F2000064800F0EDFA1021044800F0E9FA20210B
:100F3000024800F0E5FA10BD100100200010024048
:100F400000200849087008490870084908700849D5
:100F5000087008490870084908700849087008496D
:100F60000870704708010020090100200A010020D4
:100F70000B0100200C0100200D0100200E010020BB
:100F80000F010020704710B5102000F003F9012870
:100F900002D1022000F092F8102000F089F810BD74
:100FA00010B5202000F0F6F8012809D1032000F048
:100FB00085F8202000F07CF8C82002F039F910BD37
:100FC000802000F0E7F8012808D100F077F88020B1
:100FD00000F06EF8C82002F02BF9F0E74FF48070B3
:100FE00000F0D8F8012807D1002000F067F84FF48E
:100FF000807000F05DF8E2E700BFE0E70EB5012188
:10100000880300F033FE0721012000F0B5FF08211E
:10101000012000F0B1FF0521084600F0ADFF0421DA
:10102000022000F0A9FF1020009000208DF804009D
:101030000C208DF8050001208DF80600684600F0B0
:10104000B5F8A020009000208DF804000C208DF849
:10105000050001208DF80600684600F0A7F84FF45F
:101060008070009008208DF80500684600F09EF81A
:101070000A208DF8080001208DF8090002208DF863
:101080000A0001208DF80B0002A800F045FA172095
:101090008DF8080001208DF8090003208DF80A0062
:1010A00001208DF80B0002A800F036FA0EBD0000FA
:1010B0000149086070470000143C014070B52DEDF7
:1010C000048B0446A4B3012C04D0022C49D0032C79
:1010D0004BD132E04FF48051264800F006FA054625
:1010E000012D12D124480068FFF72AFA41EC190BB0
:1010F0009FED220B53EC102BFFF774F841EC180B0B
:10110000FFF762FA1C49086011E01B480068FFF70E
:1011100017FA41EC190B9FED190B53EC102BFFF74D
:1011200002F941EC180BFFF74FFA134908601CE075
:10113000FFE701201349087017E04FF400411248FF
:1011400000F0D3F90546012D05D110480088401C58
:101150000E49088004E00D480088401E0B490880B5
:1011600003E000200A49086000BF00BFBDEC048B0B
:1011700070BD000000040240B80000209A999999BF
:101180009999B93F26000020001002402800002055
:10119000AC82414201460020034A12680A400AB16B
:1011A000012000E000207047143C01400021234949
:1011B0008279002A3AD00A46126803689A430B469D
:1011C0001A600A1D126803689A430B1D1A6002799F
:1011D00011440A6803681A430A60184A0832126800
:1011E00003689A43154B08331A601A1D1268036886
:1011F0009A43124B0C331A604279102A0ED11A1FEF
:10120000126803681A430D4B08331A601A1D1268DE
:1012100003681A43094B0C331A600DE00749427901
:1012200011440A6803681A430A6005E00279114410
:101230000A6803689A430A6070470000003C014056
:101240001CB50121084600F0E1FC0121022000F05C
:10125000DDFC0121042000F0D9FC0121082000F070
:10126000D5FC4FF48070009001208DF80400002020
:101270008DF8060003208DF8050001208DF8070089
:1012800069460D4800F0C6F801208DF804000020E2
:101290008DF8060003208DF8050001208DF8070069
:1012A00000906946054800F0B5F820200090694696
:1012B000024800F0AFF81CBD0008024000040240E4
:1012C0001CB50121084600F0A1FC0121022000F01C
:1012D0009DFC0121042000F099FC0121082000F070
:1012E00095FC0121102000F091FC01208DF80400F4
:1012F00002208DF8050000208DF8060002208DF8F0
:1013000007008002009069463E4800F083F84FF4E1
:101310000050009069463B4800F07CF84FF40040D4
:1013200000906946374800F075F84FF480500090FF
:101330006946344800F06EF84FF4804000906946EA
:10134000304800F067F80120009069462D4800F011
:1013500061F80220009069462A4800F05BF80420FA
:1013600000906946274800F055F80820009069462B
:10137000244800F04FF8102000906946214800F002
:1013800049F88020009069461E4800F043F84FF469
:101390000070009069461C4800F03CF800208DF871
:1013A000040002208DF8050001208DF806008DF85C
:1013B0000700802000906946134800F02BF84FF496
:1013C000807000906946104800F024F820200090BA
:1013D00069460E4800F01EF81020009069460B4840
:1013E00000F018F84FF4805000906946064800F06D
:1013F00011F84FF4004000906946054800F00AF8E3
:101400001CBD0000000C0240000402400008024025
:1014100000100240F0B50A4600210023002400BF5E
:101420003DE0012505FA01F3156805EA03049C4235
:1014300034D105684F000326BE40B54305601579D9
:101440004E00B5400668354305601579012D02D080
:101450001579022D16D185684F000326BE40B5438D
:10146000856055794E00B54086683543856045688E
:1014700001268E40B5434560456896798E40B6B2E8
:1014800035434560C5684F000326BE40B543C5607F
:10149000D5794E00B540C6683543C560491C102952
:1014A000BFD3F0BDF0B5002300244D07ED0E02FAC6
:1014B00005F3CE1000F1200555F826504E07F70E23
:1014C0000F26BE40B543CF1000F1200646F8275046
:1014D000CE1000F1200555F8265045EA0304CE1041
:1014E00000F1200545F82640F0BD024600201369B2
:1014F0000B400BB1012000E0002070474183704792
:10150000018370470AB1018300E04183704700BF47
:10151000FEE700BFFEE7704770B5002100230F22F1
:10152000C4781CB3174C246804F4E064C4F5E06488
:10153000C4F30721C1F10404E3B20A4144789C409A
:10154000E1B28478144021430C07210E0E4C05783B
:101550006155047804F01F050124AC4005786D1135
:10156000AD0005F1E025C5F8004109E0047804F07C
:101570001F050124AC40054D0678761145F826403C
:1015800070BD00000CED00E000E400E080E100E050
:1015900002490143024A1160704700000000FA0549
:1015A0000CED00E000200CE0002106E00022064BDC
:1015B00003EBC0135A544A1CD1B28029F6DB421CFB
:1015C000D0B20828F0DB7047000300202DE9F0437B
:1015D00004460D4616461F46284638E0224631E0AE
:1015E000002A2DDB7F2A2BDC002829DB3F2827DC83
:1015F0004FEAE07C00EB5C7C4FEAEC0CDFF85880B3
:1016000008EBCC1C1CF802C003464FEAE07800EB64
:1016100058784FEAE808A0EBC8094FF0010808FA2B
:1016200009F82CEA080C01464FEAE07800EB5878FC
:101630004FEAE808DFF8209009EBC81808F802C064
:10164000511C0AB2A1199142CADC411C08B2E91925
:101650008142C3DCBDE8F083000300207CB5002498
:1016600006E0002500E06D1CB5F57A7FFBD3641C15
:10167000B4F57A7FF5D301210C2000F0C7FA0120E0
:101680008DF8040003208DF8050000208DF8060079
:1016900001208DF80700C002009069461248FFF74C
:1016A000B9FE4FF48050009069460F48FFF7B2FE34
:1016B0004FF48060009069460B48FFF7ABFE4FF493
:1016C0000070009069460948FFF7A4FE002000F072
:1016D00053FA012000F05CFA012000F071FA0120B9
:1016E00000F062FA7CBD000000080240000C0240DD
:1016F00010B5FFF7B3FFAE2000F06EFAD52000F072
:101700006BFA802000F068FAA82000F065FA3F200C
:1017100000F062FAD32000F05FFA002000F05CFADB
:10172000402000F059FAA12000F056FAC82000F03D
:1017300053FADA2000F050FA122000F04DFA81201E
:1017400000F04AFACF2000F047FAD92000F044FA1E
:10175000F12000F041FADB2000F03EFA302000F0EA
:101760003BFAA42000F038FAA62000F035FA8D20CC
:1017700000F032FA142000F02FFAAF2000F02CFA1B
:10178000FFF710FF00F0E4F910BD10B5024601208C
:1017900000E050430B1EA1F10101FAD110BD000081
:1017A0002DE9F04304460D4616461F46284638E00C
:1017B000224631E0002A2DDB7F2A2BDC002829DBA2
:1017C0003F2827DC4FEAE07C00EB5C7C4FEAEC0C26
:1017D000DFF8588008EBCC1C1CF802C003464FEA27
:1017E000E07800EB58784FEAE808A0EBC8094FF022
:1017F000010808FA09F88CEA080C01464FEAE0787B
:1018000000EB58784FEAE808DFF8209009EBC81899
:1018100008F802C0511C0AB2A1199142CADC411C4D
:1018200008B2E9198142C3DCBDE8F083000300205F
:1018300070B50546002411E080212141294009B1FD
:10184000012100E00021084600F0A2F9012000F08B
:1018500093F9002000F090F9601CC4B2082CEBDB77
:1018600070BD70B505460C4645F0B00000F0B4F907
:10187000102141EA141000F0AFF904F00F0000F05D
:10188000ABF970BDF8B506460F4614461D46082D47
:101890000CD1A4F120000E4901EB00101023082206
:1018A00039460090304600F097F80FE0062D0DD134
:1018B000A4F1200000EB4000064901EB40000823A2
:1018C000062239460090304600F086F8F8BD000048
:1018D0005E3700084E3D00082DE9F04F2DED088BD6
:1018E00081B005468B46B0EE408AF0EE608A16461F
:1018F0009A46129C9FED360B53EC102B51EC180BB3
:10190000FEF74AFE06D823462B2259462846FFF703
:10191000B9FF0BE023462D2259462846FFF7B2FFB8
:1019200051EC180B81F0004141EC180B51EC180BF5
:10193000FEF7EDFD80464046FEF7DCFD41EC190B5D
:1019400053EC182BFEF7F2FC41EC180B51460A2021
:10195000FFF71BFF07463846FEF7CCFD41EC1B0B9B
:1019600053EC182BFEF7E5FC41EC1A0BB0EE4A0ADB
:10197000F0EE6A0A01F07CFBB0EE409AF0EE609A5D
:1019800051EC190BFEF7C3FD8146B9FBF7F080441B
:10199000291908B2334642465946009400F09AF895
:1019A000711C01FB045108B223462E225946FFF751
:1019B00069FFB11C01FB045108B253464A4659461F
:1019C000009400F087F801B0BDEC088BBDE8F08F03
:1019D00000000000000000002DE9FF4F80460E4689
:1019E0009146DDF834B0002500244A463146404691
:1019F000039BFFF7EBFD00BF5EE0002558E008EB1E
:101A00000500002852DB08EB05007F284EDC30463D
:101A1000F11706EB5171C9100FB2F11706EB5171B6
:101A2000C910A6EBC10A002E05DA781E07B20AF12A
:101A300008000FFA80FA3819002817DB3819072830
:101A400014DC3819224901EBC01008EB0501405C99
:101A500004FB09511BF8011001FA0AF10843391976
:101A60001B4A02EBC11108EB050288543819401CCF
:101A700000281BDB3819401C072817DC3819401CCC
:101A8000134901EBC01008EB0501405C04FB095150
:101A90001BF80110CAF10802114108433919491C09
:101AA0000B4A02EBC11108EB05028854681CC5B251
:101AB0004D45A4DB601CC4B20399481EC11700EB5E
:101AC0005171012202EBE101A14296DCBDE8FF8FDA
:101AD000000300202DE9F0470646894617461D46BB
:101AE000DDF82080002417E0281B411E0A20FFF7A4
:101AF0004CFEB7FBF0F00A21B0FBF1F201FB120043
:101B000000F1300A04FB086108B2434652464946D8
:101B1000FFF7B8FE601CC4B2AC42E5DBBDE8F0875D
:101B20002DE9F0410646884615461F46002409E087
:101B30002A5D04FB076108B23B464146FFF7A2FE5F
:101B4000601CC4B2285D0028F2D1BDE8F08100001D
:101B500010B500240BE000212046FFF782FE054966
:101B600001EBC410802100F040F8601CC4B2082CC6
:101B7000F1DB10BD0003002010B5044622464FF4EF
:101B800080610248FFF7BEFC10BD00000008024063
:101B900010B5044622464FF480510248FFF7B2FCCC
:101BA00010BD00000008024010B5044622464FF464
:101BB00000610248FFF7A6FC10BD000000080240CB
:101BC00010B5044622464FF400710248FFF79AFC14
:101BD00010BD0000000C024010B504460020FFF7C5
:101BE000E3FF2046FFF724FE10BD70B505460E4604
:101BF0000120FFF7D9FF002404E0285DFFF718FE5D
:101C0000601CC4B2B442F8DB70BD704729B1064A0B
:101C100012680243044B1A6004E0034A12688243CC
:101C2000014B1A60704700003038024029B1064A63
:101C300012680243044B1A6004E0034A12688243AC
:101C4000014B1A60704700004038024029B1064A33
:101C500012680243044B1A6004E0034A126882438C
:101C6000014B1A60704700002038024029B1064A33
:101C700012680243044B1A6004E0034A126882436C
:101C8000014B1A607047000044380240F0B5002153
:101C900000220024022500260223324F3F6807F06D
:101CA0000C0121B1042905D0082937D105E02E4FB8
:101CB000076036E02D4F076033E02A4F3F1F3F6833
:101CC000C7F38056274F3F1F3F6807F03F036EB1B1
:101CD000264FB7FBF3F7DFF88CC0ACF1040CDCF84F
:101CE00000C0CCF3881C07FB0CF40CE01E4FB7FBC4
:101CF000F3F7DFF870C0ACF1040CDCF800C0CCF3F3
:101D0000881C07FB0CF4174F3F1F3F68C7F30147C0
:101D10007F1C7D00B4FBF5F7076002E0124F0760FF
:101D200000BF00BF0F4F3F6807F0F0010909104FD7
:101D30007A5C0768D74047600A4F3F6807F4E05174
:101D4000890A0B4F7A5C4768D7408760054F3F6828
:101D500007F46041490B064F7A5C4768D740C7607B
:101D6000F0BD0000083802400024F40000127A00A0
:101D70002201002010B500200A4908710220487194
:101D8000012088710220C871432008600648FFF7CF
:101D900041FB4FF40050034908600448FFF73AFB49
:101DA00010BD000010010020001002400008024099
:101DB00010B5012012490871022048710020887175
:101DC0000120C871432008600E48FFF723FB4FF441
:101DD00000500B4908600C48FFF71CFB40210948E4
:101DE000FFF78EFB01210748FFF78AFB0221054818
:101DF000FFF786FB4FF400510348FFF781FB10BD4E
:101E000010010020001002400008024000B587B019
:101E100001210220FFF7FAFE01218803FFF706FFE8
:101E20004FF46040059002208DF8180000208DF8D6
:101E30001A0003208DF8190001208DF81B0005A958
:101E40002148FFF7E7FA05220D211F48FFF72AFB7B
:101E500005220E211C48FFF725FB05220F211A48F9
:101E6000FFF720FB01218803FFF7F0FE00214FF46C
:101E70008040FFF7EBFE0020ADF800004FF48270C9
:101E8000ADF802004FF40060ADF804000220ADF898
:101E900006000120ADF808004002ADF80A0000205D
:101EA000ADF80C00ADF80E000720ADF81000694643
:101EB000064800F041F80121044800F023F8FF2013
:101EC00000F006F807B000BD0004024000380040F2
:101ED00010B5044600BF0221094800F01FF8002891
:101EE000F9D02146064800F025F800BF012104483A
:101EF00000F014F80028F9D0014800F018F810BDDF
:101F00000038004021B1028842F04002028004E023
:101F100002884FF6BF731A400280704702460020C5
:101F200013890B400BB1012000E0002070470146EF
:101F3000888970478181704710B50022028802F4B9
:101F400041520B884C8823438C882343CC882343FD
:101F50000C8923434C8923438C892343CC89234315
:101F60001A430280838B4FF2FF74234083830B8AD2
:101F7000038210BD7047000030B500228B071C0F94
:101F80000F2303FA04F20B4B8C1053F824309343C5
:101F9000084C8D1044F8253023468C1053F824301B
:101FA0008C07240F00FA04F42343024C8D1044F8EC
:101FB000253030BD083801400CB50020019000905C
:101FC0003448006840F480303249086000BF31482E
:101FD000006800F4003000900198401C01900098C7
:101FE00018B90198B0F5A04FF1D12A48006800F463
:101FF000003010B10120009001E000200090009816
:10200000012846D123484030006840F080502149E3
:10201000403108602048006840F440401E49086094
:102020001C48083000681B490831086008460068F1
:1020300040F4004008600846006840F4A050086082
:102040001648091F0860081F006840F08070091FCB
:10205000086000BF0F48006800F000700028F9D049
:1020600040F205700E4908600A480830006820F008
:1020700003000849083108600846006840F0020083
:10208000086000BF03480830006800F00C00082812
:10209000F8D10CBD003802400070004008544007E1
:1020A000003C0240042808D14FF0E021096941F0CA
:1020B00004014FF0E022116107E04FF0E0210969CF
:1020C00021F004014FF0E0221161704770470000D9
:1020D00010B51548006840F47000134908601348B3
:1020E000006840F001001149086000200F490831E4
:1020F00008600E4800680E4908400C4908600D4809
:10210000091D0860081F006820F48020091F08606E
:10211000002006490C310860FFF74EFF4FF00060C9
:1021200001498039086010BD88ED00E000380240A8
:10213000FFFFF6FE1030002410B500F05DF800F04F
:1021400001F810BD1CB501211020FFF75FFD012231
:1021500008212848FFF7A6F9012209212548FFF7A1
:10216000A1F901220A212348FFF79CF901220B2142
:102170002048FFF797F901220C211E48FFF792F93A
:1021800001220D211B48FFF78DF902208DF8040074
:102190008DF8050000208DF8060002208DF807005C
:1021A000C001009069461348FFF734F94FF40070FE
:1021B000009069460F48FFF72DF94FF480600090BA
:1021C00069460C48FFF726F94FF400600090694615
:1021D0000848FFF71FF94FF4805000906946054802
:1021E000FFF718F94FF40050009069460148FFF7D7
:1021F00011F91CBD0010024000B58DB00121084648
:10220000FFF734FD41F268000B900020ADF8280084
:10221000ADF830002020ADF82A000AA9264800F0C9
:1022200017FD6020ADF814000120ADF81600042061
:10223000ADF818000020ADF82000ADF82200ADF890
:1022400024004FF40070ADF826000020079005A987
:10225000194800F01BFC0020079005A9164800F063
:1022600053FC0020079005A9134800F09FFC4FF491
:102270000060ADF804004010ADF806008010ADF825
:1022800008001420ADF80A000020ADF80C004FF44F
:102290000050ADF80E000020ADF8100001A906486E
:1022A00000F0ACFB0121044800F0C7FB012102480B
:1022B00000F0B7FB0DB000BD000001401FB50121CB
:1022C0000846FFF7B3FC4FF4D26002900420ADF84B
:1022D00004000020ADF80C00ADF8060001A94FF095
:1022E000804000F0B5FC0121880700F097FB012237
:1022F0001146900700F0C1FB1C208DF80000012062
:102300008DF801008DF802008DF803006846FFF794
:1023100003F90121880700F084FB1FBD10B50121DE
:10232000880700F099FB01287ED1FEF71FFDA24827
:102330000088401CA0490880A04890ED000AA048F1
:10234000D0ED000A30EE200A80ED000A9B4890EDA7
:10235000010A9C48D0ED000A30EE200A80ED000A08
:10236000964890ED020A9848D0ED000A30EE200A17
:1023700080ED000A914890ED030A9448D0ED000AE0
:1023800030EE200A80ED000A08460088642847DD08
:102390008B4890ED000ADFED8E0A80EE201A8D4802
:1023A00080ED001A874890ED000ADFED890A80EE83
:1023B000201A894880ED001A834890ED000ADFED6D
:1023C000840A80EE201A854880ED001A7F4890ED3F
:1023D000000ADFED7F0A80EE201A814880ED001AA6
:1023E00090ED000A7C48D0ED000A80EE201A7D486E
:1023F00080ED001A002008809FED7B0A704880ED78
:10240000000A9FED790A6F4880ED000A9FED760A79
:102410006D4880ED000A9FED740A6C4880ED000A5B
:102420006E4890ED000A00E0C0E0F3EE070AB4EE5B
:10243000E00AF1EE10FA0ED26C480068401C6B49BD
:102440000860B0F5FA7F09DD0220694908700020B4
:102450006649086002E00020644908605E4890ED2B
:10246000000AF0EE040AB4EEE00AF1EE10FA0EDD16
:1024700060480068401C5F490860B0F5FA7F09DDDC
:1024800001205B49087000205A49086002E00020E2
:1024900058490860534890ED000ADFED570AB4EE42
:1024A000E00AF1EE10FA0ED254480068401C53497D
:1024B0000860B0F5FA7F09DD03204D49087000205F
:1024C0004E49086002E000204C4908604848007806
:1024D00002280AD046480078012806D044480078EF
:1024E000032802D00020424908704548007801289E
:1024F00006D1FFF721FE00203D49087040490870D1
:102500003B480078F0BB01203E49086000203E496E
:10251000C1F8BC023D4890ED002A90ED000AF1EEB2
:10252000401A3B4890ED001A2D48D0ED000A39487A
:1025300090ED000A384801F049F83548D0ED000A1E
:1025400030EE200A80ED000A90ED000A2F48D0ED11
:10255000000AB4EEE00AF1EE10FA04DB90ED000A96
:102560002B4880ED000A2A4890ED000A2B48D0ED58
:10257000000AB4EEE00AF1EE10FA06D890ED000A77
:10258000234800E007E080ED000A214890ED000AB2
:1025900001F070F80AE000201A49086001201A4989
:1025A000C1F8BC029FED100A01F064F80121880710
:1025B00000F034FA10BD00003A0000206002002054
:1025C0000000002004000020080000200C00002073
:1025D0000000C842A4000020AC000020A0000020A1
:1025E000A8000020B000002000000000180000201B
:1025F000250000201C000020CDCCCC3D2000002078
:1026000026000020AC82414200804142D8000020D8
:10261000B4000020B8000020A0020020DC00002050
:102620001FB501210220FFF701FB41F2A1600290DA
:102630009020ADF804000020ADF80C00ADF80600C5
:1026400001A9104800F004FB01210E4800F0E6F952
:10265000012211460B4800F010FA1D208DF80000F1
:1026600004208DF8010003208DF8020001208DF870
:1026700003006846FEF750FF0121024800F0D1F93F
:102680001FBD00000004004000B52DED048B81B09B
:102690000121B54800F0E0F901287DD1FEF782FF65
:1026A000B24890ED000AB24880ED000AB14890EDC2
:1026B000000AAF4880ED010AAF4890ED000AF7EE3E
:1026C000000A30EEC00ADFEDAD0A20EE200AA8486D
:1026D00080ED020AA54890ED000AA54880ED030AA6
:1026E00003220146A64800F017FCA64800F06AFE47
:1026F000A4480078302803DBA2480078392803DD9D
:10270000A04800782E2813D19F4800681F2871D256
:102710009C4801789C4802680068401C9A4B1860ED
:102720009A488154002099491A461268885461E0F9
:102730009448007853281ED193480068002859DD3A
:102740006946924800F004FDB0EE408A0098007897
:1027500018B9884880ED008A05E008238CA2002182
:102760000846FFF7DDF900208749086020218748E7
:10277000FDF72DFD3EE08348007842280DD18248C8
:102780000068002836DD00217F480068401E7E4A30
:1027900010607E4A11542DE0DDE07A4800784E2822
:1027A00012D174480068FDF7CBFE41EC190B9FED88
:1027B0007C0B53EC102BFDF715FD41EC180BFDF7CE
:1027C00003FF6C49086015E06E480078462811D177
:1027D00068480068FDF7B4FE41EC190B9FED700BE3
:1027E00053EC102BFDF79FFD41EC180BFDF7ECFEB1
:1027F0006049086008236CA200210846FFF790F9A1
:1028000008236BA200216C20FFF78AF95E4800685C
:1028100000280CDD08235D4A00213020FFF780F9F5
:1028200010236C2200213020FEF7BAFF28E0514827
:1028300090ED000AB5EEC00AF1EE10FA1ADB90ED49
:10284000000AF2EE0E0AB4EEE00AF1EE10FA11D828
:102850000068FDF775FE41EC180B082002231A46AC
:10286000B0EE480AF0EE680A002100903020FFF731
:1028700033F805E008234FA200213020FFF750F97C
:1028800008234DA210210020FFF74AF9082348A28F
:1028900010216C20FFF744F934480068FDF750FE22
:1028A00041EC180B082002231A46B0EE480AF0EE5D
:1028B000680A102100903020FFF70EF8082340A28C
:1028C00020210020FFF72CF908233FA220216C20B3
:1028D000FFF726F93D480068FDF732FE41EC180B82
:1028E000082002231A46B0EE480AF0EE680A2021BA
:1028F00000903020FEF7F0FF082335A230210020A1
:10290000FFF70EF935480078022806D1082334A2D3
:1029100030214020FFF704F91BE0304800780128FF
:1029200006D1082330A230214020FFF7F9F810E04B
:102930002A480078032806D108232CA23021402001
:10294000FFF7EEF805E008232AA230214020FFF728
:10295000E7F8FFF7FDF80121034800F05FF801B048
:10296000BDEC048B00BD000000040040A800002066
:1029700010020020B8000020B40000200040834571
:102980003801002034000020100000203002002018
:10299000496E76616C696420496E70757400000040
:1029A0009A9999999999B93F557365743A000000BD
:1029B0005600000045525200556F75743A000000F1
:1029C000496F75743A00000041000000AC0000201F
:1029D00050726F746563743A000000002500002097
:1029E0004C565F494E0000004F43000053435F4F79
:1029F000555400004E4F524D414C00000A884B8800
:102A00001A438B881A43CB881A430B891A434B8984
:102A10001A438B891A43A0F844207047CA430282A4
:102A2000704721B1028842F00102028004E002886E
:102A30004FF6FE731A400280704731B1B0F844205F
:102A400042F40042A0F8442005E0B0F84420C2F36C
:102A50000E02A0F84420704730B502460020002343
:102A60000024158A05EA0103958905EA010413B1DA
:102A70000CB1012000E0002030BD1AB183890B4366
:102A8000838102E083898B438381704770B5002482
:102A900000220023058C4FF6FE7635400584028C1B
:102AA0008388048B4FF68F752C40B51E2C400D8803
:102AB0002C43751E2A408D892A434D882A43104D88
:102AC000A84202D00F4DA84213D14FF6F7752A4005
:102AD000CD892A434FF6FB752A408D882A434FF64D
:102AE000FF652B404FF6FF552B400D8A2B434D8A37
:102AF0002B43838004838D684563028470BD00008E
:102B0000000001400004014070B5002400220023B1
:102B1000058C4FF6EF7635400584028C8388048B54
:102B200048F6FF752C404FF6FF452C400D884FF6B8
:102B3000FF7606EA05252C434FF6DF752A408D897E
:102B400006EA05152A434D8806EA05152A43154D60
:102B5000A84202D0144DA8421DD14FF67F752A40DD
:102B6000CD894FF6FF7606EA05152A434FF6BF7565
:102B70002A408D8806EA05152A434FF6FF352B407B
:102B80004FF2FF752B400D8A06EA85052B434D8ACF
:102B900006EA85052B43838004838D688563028460
:102BA00070BD0000000001400004014070B5002429
:102BB00000220023058C4FF6FF6635400584028C09
:102BC0008388848B4FF68F752C404FF6FC752C4014
:102BD0000D882C434FF6FF552A408D894FF6FF761E
:102BE00006EA05252A434D8806EA05252A43154DA0
:102BF000A84202D0144DA8421DD14FF2FF752A40C1
:102C0000CD894FF6FF7606EA05252A434FF6FF35B4
:102C10002A408D8806EA05252A434EF6FF752B408B
:102C20004DF6FF752B400D8A06EA05152B434D8A9C
:102C300006EA05152B43838084838D68C56302846F
:102C400070BD000000000140000401404163704776
:102C500000220288184B98420ED0184B98420BD095
:102C6000B0F1804F08D0164B984205D0154B9842D2
:102C700002D0154B984204D14FF68F731A404B88FF
:102C80001A43124B984207D0114B984204D04FF68A
:102C9000FF431A400B891A4302804B68C3620B88BA
:102CA0000385054B984202D0044B984201D18B7AA0
:102CB0000386012383827047000001400004014025
:102CC0000004004000080040000C004000100040DC
:102CD0000014004010B540F225511D4800F057F88F
:102CE00010B31B4800F00CF9C4B21A48008800F475
:102CF0000040C8B91748008800F4804060B10A2C31
:102D000003D000201349088020E01248008840F4D6
:102D100000401049088019E00D2C06D10D480088AC
:102D200040F480400B49088010E00A480088C0F356
:102D30000D0009490C5407480088401C05490880CB
:102D400008460088C72801DD0020088010BD00006B
:102D500000100140200100200007002021B18289DD
:102D600042F40052828104E082894DF6FF731A40DA
:102D70008281704702460020B1F5007F00D100BF7C
:102D800013880B400BB1012000E00020704770B5A4
:102D90000246002400230025002040F66A16B142B6
:102DA00000D100BFC1F3421501F01F03012606FA4E
:102DB00003F3012D02D19689334006E0022D02D1A2
:102DC000168A334001E0968A33400C12012606FA37
:102DD00004F41688344013B10CB1012000E0002047
:102DE00070BDF0B50346002400260025002040F603
:102DF0006A17B94200D100BF1846C1F3421401F06E
:102E00001F06012707FA06F5012C01D10C3004E05A
:102E1000022C01D1103000E014301AB107682F43A2
:102E2000076002E00768AF430760F0BD2DE9FF4788
:102E300005460E460024A14600BFA046B08900B159
:102E400000BF2C8A24F44054F08804432C82AC89BF
:102E500041F20C608443B08831890843718908438A
:102E60000443AC81AC8A24F44074B0890443AC823E
:102E70006846FEF70BFF2048854202D01F48854276
:102E800002D1DDF80C9001E0DDF80890A88900F48B
:102E9000004040B109EBC90000EB0910316849005E
:102EA000B0FBF1F707E009EBC90000EB091031684E
:102EB0008900B0FBF1F76420B7FBF0F004012009B2
:102EC000642101FB1078A88900F4004040B1322051
:102ED00000EBC800B0FBF1F000F00700044308E08D
:102EE000322000EB08106421B0FBF1F000F00F007D
:102EF00004432C81BDE8FF8700100140001401400D
:102F000001468888C0F308007047C1F30802828038
:102F1000704700BFFEE7000070B505460E46144638
:102F20004FF6FF7000EA84023146284600F008F8A8
:102F300004220249284600F003F870BD5A37000801
:102F40002DE9F04107460D46164600240BE0295DA9
:102F50000748FFF7DAFF00BF40210548FFF70AFFE7
:102F60000128F9D1641CB442F1DBBDE8F081000016
:102F7000001001400000000030B52DED048B81B041
:102F8000B0EE408AF0EE608A6A4651EC180B00F011
:102F90009BF900989FED329B7E300090002821DC49
:102FA00053EC192B51EC180BFDF7DEFA1AD0002167
:102FB00040F60800FDF770FE044651EC180BFDF7D3
:102FC00003FB08EE100A40F6080004EA0001FDF7D2
:102FD00063FEB5EEC08AF1EE10FA04BF022000F0E5
:102FE000DFF82DE00098FF2830DB00210846FDF7D0
:102FF00053FE00F4400553EC192B51EC180BFDF770
:10300000CBFA8CBF00240124022000F0C9F89FED08
:10301000168A4DB1002C0CBF4FF400004FF4800015
:10302000A84218BF9FED118A04210846FDF734FE1F
:10303000002C01BFB1EE480A01B0BDEC048B30BDDD
:10304000B0EE480A01B0BDEC048B30BD51EC180B5A
:10305000FDF7BAFA01B000EE100ABDEC048B30BDEA
:1030600000000000000000000000807FFFFF7F7F65
:1030700010B52DED020B2DED088B84B09DED0C0BE2
:1030800051EC100BFDF78EFB41EC180B9DED0C0B7A
:1030900053EC182B51EC100BFDF745F941EC190BD3
:1030A0000D989FED290B10F0004F53EC102B51ECB5
:1030B000190B9FED21AB9FED22BB0ED0FDF754FA0B
:1030C0000ED953EC1B2B51EC190BFDF765FA1CD2F2
:1030D00014E000BF41EC180B17E0FDF745FA06D2EB
:1030E00053EC1A2B51EC180BFDF71DF9F2E753ECDA
:1030F0001B2B51EC190BFDF74FFA06D853EC1A2B8A
:1031000051EC180BFDF76EF8E4E78DED028B9DEDA9
:103110000C0B18EE901A10EE900A8DED000B61F377
:103120001E0003909DED020B04B0BDEC088B02B0B5
:1031300010BD000000000000000000000000F03F93
:10314000000000000000E03F000000000000E0BFC1
:1031500008B59FED060A0A4601468DED000A68464D
:10316000FDF77FFA9DED000A08BD00000000000099
:1031700010B5044691ED000BFFF7FEFE84ED000A4A
:1031800010BD02E008C8121F08C1002AFAD170471A
:103190007047002001E001C1121F002AFBD17047D7
:1031A00001490860704700003401002030380A28C7
:1031B00001D20120704700207047000010B504467E
:1031C0006FF00400FEF76EFFE11704EB5171C1F3DD
:1031D000C701074A11701046007800EB4001C1EBAF
:1031E000C0104FF6FF7101EAC0000249088010BD0F
:1031F000180100201A01002070B504464FF4077032
:1032000094FBF0F0C6B24FF4077094FBF0F100FBB2
:10321000114085B205E04FF4077000F02FF8701EE2
:10322000C6B2002EF7D115B1284600F027F870BDC0
:103230000146114A12784A434FF0E0235A610022B6
:103240009A611A46126942F001021A6100BF4FF0FA
:10325000E022106900F001021AB100F48032002A65
:10326000F5D04FF0E022126922F001024FF0E02386
:103270001A6100229A617047180100200146114A24
:1032800012884A434FF0E0235A6100229A611A469D
:10329000126942F001021A6100BF4FF0E02210698A
:1032A00000F001021AB100F48032002AF5D04FF08C
:1032B000E022126922F001024FF0E0231A6100229D
:1032C0009A6170471A01002010B582B01446CDE90A
:1032D00000010023009A2360194B21F0004098421E
:1032E0002ADA024328D0B0F5801FA8BF226810DA7E
:1032F0009FED150B53EC102B9DED000B51EC100BBB
:10330000FDF717F8CDE900016FF0350221F000401C
:1033100022600F4B6FF31E5103EB205010442060CE
:1033200041F0FF5040F0005001909DED000B00BFB8
:1033300002B051EC100B10BD9DED000BF8E7000042
:103340000000F07F0000000000000000000050437B
:1033500002FCFFFF10B5FEF72BFDFDF7B9FD0421C0
:103360001348FEF7C2F81349087008211048FEF709
:10337000BCF81149087010210D48FEF7B6F80F4946
:10338000087020210A48FEF7B0F80D490870094876
:10339000007840B90848007828B90848007810B982
:1033A0000846007808B1012010BD0020FCE70000AD
:1033B000001002400C0100200D0100200E01002031
:1033C0000F01002070B504462325FFF7C3FF002836
:1033D00077D01420FFF710FFFFF7BCFF002868D05C
:1033E000FDF78AFDFEF7C6FC40213848FEF77DF860
:1033F000374908704FF400513648FEF776F83649E1
:10340000087001213148FEF770F834490870022134
:103410002E48FEF76AF8324908702F48007878B1D4
:103420003048007800B135252F48007800B13625A6
:103430002E48007800B137252D48007800B1382596
:103440002348007878B12748007800B13125264814
:10345000007800B132252548007800B13325244892
:10346000007800B134251D48007878B11D480078F7
:1034700000B139251C48007800B130251B48007880
:1034800000B12E251A48007800B12D251448007887
:1034900078B11448007800B14E251348007800B187
:1034A00046251248007800B142251148007800B145
:1034B000532500BFFFF74EFF0028FBD11420FFF774
:1034C0009BFEFDF73DFD257070BD00000010024021
:1034D0000801002000080240090100200A01002024
:1034E0000B0100200F0100200E0100200D01002023
:1034F0000C0100209FED1F1ADFED1F0A9FED1F0A30
:103500001F4800F045F89FED1B1ADFED1B0A9FEDE9
:103510001B0A1C4800F03CF84FF44070FEF738F8E6
:10352000A820FFF74BFEFDF7CBFEFDF767FDFDF78B
:1035300001FCFEF76BFCFEF7DBF84FF4E13000F026
:10354000B5F8FEF7F9FDFEF7B9FEFFF769F8B2EE40
:10355000080A0D4880ED000AB6EE000A0B4880ED1F
:10356000000A90ED000A00F085F8FEF71BF800BF96
:10357000FEE7000000000000ACC5A73882A8FB37BA
:1035800080020020A0020020B8000020B40000202B
:10359000DFED0D1AC0ED001ADFED0B1AC0ED011AB8
:1035A000DFED091AC0ED021ADFED071AC0ED031AAC
:1035B000DFED051AC0ED041A80ED050AC0ED060A1C
:1035C00080ED071A7047000000000000F0EE402A6E
:1035D000C0ED002AC0ED010A90ED003AD0ED013AAD
:1035E00033EE633A80ED023A90ED023AD0ED033AC1
:1035F00033EE633AD0ED053A23EE233AD0ED063AA6
:1036000090ED024A03EE843AD0ED023A90ED034A7F
:10361000F0EE004A44EEC43A90ED044A73EE843A68
:1036200090ED074A04EE233AB0EE430A31EE003A39
:10363000B4EEC23AF1EE10FA06DA31EE003AB4EE28
:10364000E13AF1EE10FA0BD890ED023AD0ED033AE0
:1036500033EE633AD0ED053A23EE233AB0EE430A57
:1036600090ED033A80ED043A90ED023A80ED033A92
:103670007047000010B52DED028BB0EE408AB7EE1A
:10368000000A30EE480ADFED070A20EE200ABCEE01
:10369000C00A10EE101A0448FFF7D8FABDEC028BEE
:1036A00010BD0000004083450000014010B588B007
:1036B000044601210846FEF7A9FA01211020FEF771
:1036C000D5FA072209212248FDF7ECFE07220A213C
:1036D0001F48FDF7E7FE4FF4C060069002208DF80A
:1036E0001C008DF81D0000208DF81E0001208DF8B3
:1036F0001F0006A91648FDF78DFE02940020ADF8C4
:103700000C00ADF80E00ADF81000ADF814000C2060
:10371000ADF8120002A90F48FFF788FB01210D4800
:10372000FFF71CFB012240F225510A48FFF759FB25
:1037300025208DF8040003208DF805008DF8060083
:1037400001208DF8070001A8FDF7E6FE08B010BDC6
:103750000000024000100140AFFA0000807F00002E
:103760000000000000000000000000000000000059
:1037700000F80000000000000033300000000016D8
:103780000E00160E0000000000000000000040C007
:103790007840C0784000043F04043F0404000070F7
:1037A00088FC08300000001820FF211E0000F008EF
:1037B000F000E018000000211C031E211E0000F094
:1037C0000888700000001E21232419272110000002
:1037D00000160E00000000000000000000000000C5
:1037E00000E018040200000000071820400000025A
:1037F0000418E000000000402018070000004040CE
:1038000080F0804040000202010F0102020000002F
:1038100000F0000000000101011F01010100000093
:1038200000000000000000B0700000000000000078
:103830000000000000000001010101010101000081
:103840000000000000000030300000000000000018
:10385000000080601804006018060100000000E00D
:1038600010080810E000000F102020100F000010BA
:1038700010F8000000000020203F20200000007011
:103880000808088870000030282422213000003009
:103890000888884830000018202020110E00000001
:1038A000C02010F8000000070424243F240000F882
:1038B0000888880808000019212020110E0000E067
:1038C000108888180000000F112020110E00003809
:1038D0000808C83808000000003F00000000007021
:1038E000880808887000001C222121221C0000E0AA
:1038F00010080810E0000000312222110F00000023
:1039000000C0C000000000000030300000000000D7
:1039100000C0C0000000000080B070000000000087
:1039200080402010080000010204081020004040E0
:103930004040404040000404040404040400000823
:1039400010204080000000201008040201000070D8
:1039500048080808F0000000003036010000C030C0
:10396000C828E810E0000718272423140B000000E3
:10397000C038E0000000203C23020227382008F86D
:10398000888888700000203F202020110E00C03061
:10399000080808083800071820202010080008F838
:1039A00008080810E000203F202020100F0008F831
:1039B0008888E8081000203F20202320180008F8FD
:1039C0008888E8081000203F200003000000C03075
:1039D00008080838000007182020221E020008F8F6
:1039E00008000008F808203F210101213F200008BD
:1039F00008F8080800000020203F202000000000F8
:103A00000808F8080800C08080807F00000008F8DF
:103A100088C028180800203F20012638200008F818
:103A2000080000000000203F20202020300008F87F
:103A3000F800F8F80800203F003F003F200008F899
:103A400030C00008F808203F200007183F00E010B1
:103A500008080810E0000F10202020100F0008F8C0
:103A600008080808F000203F210101010000E010D3
:103A700008080810E0000F18242438504F0008F8F8
:103A8000888888887000203F2000030C3020007058
:103A90008808080838000038202121221C00180856
:103AA00008F8080818000000203F2000000008F86F
:103AB00008000008F808001F202020201F000878B8
:103AC000880000C83808000007380E010000F80818
:103AD00000F80008F800033C0700073C0300081842
:103AE00068808068180820302C03032C30200838A8
:103AF000C800C83808000000203F2000000010085F
:103B00000808C838080020382621202018000000A6
:103B100000FE020202000000007F40404000000C56
:103B200030C000000000000000010638C0000002A4
:103B30000202FE000000004040407F000000002024
:103B40001008040810200000000000000000000021
:103B50000000000000008080808080808080000263
:103B60000408000000000000000000000000000049
:103B70008080808000000019242222223F2008F843
:103B8000008080000000003F112020110E00000086
:103B9000008080800000000E112020201100000015
:103BA00000808088F800000E112020103F200000C7
:103BB000808080800000001F2222222213000080CB
:103BC00080F0888888180020203F20200000000016
:103BD000808080808000006B94949493600008F84B
:103BE000008080800000203F210000203F200080D6
:103BF0009898000000000020203F202000000000D6
:103C000000809898000000C08080807F000008F845
:103C1000000080808000203F24022D30200000081A
:103C200008F8000000000020203F202000008080D5
:103C3000808080808000203F20003F20003F008067
:103C400080008080000000203F2100203F200000F5
:103C5000808080800000001F202020201F008080A6
:103C600000808000000080FFA12020110E000000D5
:103C7000008080808000000E112020A0FF808080C6
:103C800080008080800020203F2120000100000073
:103C90008080808080000033242424241900008048
:103CA00080E0808000000000001F20200000808055
:103CB000000000808000001F202020103F20808016
:103CC00080000080808000010E30080601008080A6
:103CD0000080008080800F300C030C300F000080CB
:103CE0008000808080000020312E0E3120008080F6
:103CF00080000080808080818E7018060100008026
:103D00008080808080000021302C22213000000043
:103D10000000807C020200000000003F40400000E4
:103D20000000FF00000000000000FF000000000293
:103D3000027C800000000040403F00000000008046
:103D400040408000008000000000000101000000F1
:103D5000000000000000002F000000000700070026
:103D600000147F147F1400242A7F2A1200231308D2
:103D70006462003649552250000000070000000030
:103D80001C224100000041221C000014083E0814BF
:103D90000008083E0808000000A0600000080808AD
:103DA0000808000060600000002010080402003EC7
:103DB0005149453E0000427F400000426151494662
:103DC000002141454B31001814127F100027454552
:103DD0004539003C4A494930000171090503003664
:103DE0004949493600064949291E00003636000077
:103DF000000056360000000814224100001414147C
:103E00001414000041221408000201510906003E6A
:103E10004955592E007C1211127C007F49494936C0
:103E2000003E41414122007F4141221C007F49491F
:103E30004941007F09090901003E4149497A007F53
:103E40000808087F0000417F4100002040413F01F9
:103E5000007F08142241007F40404040007F020C58
:103E6000027F007F0408107F003E4141413E007FF9
:103E700009090906003E4151215E007F09192946C2
:103E80000046494949310001017F0101003F40409E
:103E9000403F001F2040201F003F4038403F00634C
:103EA000140814630007087008070061514945436E
:103EB00000007F4141000002040810200000414141
:103EC0007F00000402010204004040404040000026
:103ED00001020400002054545478007F48444438C0
:103EE00000384444442000384444487F0038545447
:103EF000541800087E0901020018A4A4A47C007FC5
:103F0000080404780000447D4000004080847D0067
:103F1000007F102844000000417F4000007C04180E
:103F20000478007C0804047800384444443800FCD9
:103F3000242424180018242418FC007C08040408F5
:103F400000485454542000043F444020003C40406A
:103F5000207C001C2040201C003C4030403C0044A1
:103F600028102844001CA0A0A07C004464544C44A9
:103F70000000087F41000000007F00000000417F3A
:103F80000800000804081008EFBC8C0000000000C6
:103F90000000000000000000000000000058380091
:103FA0000000000000000000000000E3808200002C
:103FB0000000000000000000000000000000000001
:103FC0001824241800000000000000000000E4BDD8
:103FD000A0008060F8074020180F08C808082818BB
:103FE00000010000FF00100C0340807F0001061854
:103FF00000E5A5BD1010F01F10F000808282E29253
:104000008A868000402215081661000040807F00EB
:1040100000000000E4B896202020FE2020FF202091
:1040200020FF20202020000000007F404047444423
:1040300044474040400000E7958C000000FE92920B
:1040400092FE929292FE0000000008080484621E14
:10405000010001FE020404080800000000FF010145
:10406000013109090909897101010101FFFF8080FE
:10407000808080809681808080808080FFFF0181A9
:104080008181FD8991A1C1FD81818101FFFF808036
:1040900080809F888482819F80808080FFDDDDDD3D
:1040A000DDDCBBBBDDDDDDDDDDDDDDDDDD98888874
:1040B000888888888877777777778888888555553E
:1040C00056666666666666666666688888833333A3
:1040D0003222222222222222222228888D0000003F
:1040E000004100080000002038010000DC0C00083E
:1040F0005C41000838010020900A0000923100085D
:104100000114021523D631312E3334253333D33FF6
:10411000280F803FEC51F83F950B253ECB10273EF2
:1041200010C90421000D1C0AD7A33B17B751BAFAD6
:10413000ED6BBA0521426065BC34247449395801DD
:104140001C0C15A4707D24499421CB404010011C07
:0C4150002D0102030404650607080900A5
:040000050800019D51
:00000001FF
